{
  "_format": "hh-sol-artifact-1",
  "contractName": "DomainRegistry",
  "sourceName": "contracts/DomainRegistry.sol",
  "abi": [
    {
      "inputs": [],
      "name": "DomainAlreadyTaken",
      "type": "error"
    },
    {
      "inputs": [
        {
          "internalType": "address",
          "name": "reciever",
          "type": "address"
        },
        {
          "internalType": "bytes",
          "name": "data",
          "type": "bytes"
        }
      ],
      "name": "FailedToWithdraw",
      "type": "error"
    },
    {
      "inputs": [
        {
          "internalType": "uint256",
          "name": "incomingUsdc",
          "type": "uint256"
        },
        {
          "internalType": "uint256",
          "name": "expectingUsdc",
          "type": "uint256"
        }
      ],
      "name": "IncorrectUsdcAmount",
      "type": "error"
    },
    {
      "inputs": [
        {
          "internalType": "uint256",
          "name": "incomingValue",
          "type": "uint256"
        },
        {
          "internalType": "uint256",
          "name": "expectingValue",
          "type": "uint256"
        }
      ],
      "name": "IncorrectValueAmount",
      "type": "error"
    },
    {
      "inputs": [],
      "name": "InvalidInitialization",
      "type": "error"
    },
    {
      "inputs": [],
      "name": "InvalidPriceFromOracle",
      "type": "error"
    },
    {
      "inputs": [],
      "name": "NotInitializing",
      "type": "error"
    },
    {
      "inputs": [
        {
          "internalType": "address",
          "name": "requester",
          "type": "address"
        }
      ],
      "name": "NothingToWithdraw",
      "type": "error"
    },
    {
      "inputs": [
        {
          "internalType": "address",
          "name": "owner",
          "type": "address"
        }
      ],
      "name": "OwnableInvalidOwner",
      "type": "error"
    },
    {
      "inputs": [
        {
          "internalType": "address",
          "name": "account",
          "type": "address"
        }
      ],
      "name": "OwnableUnauthorizedAccount",
      "type": "error"
    },
    {
      "inputs": [
        {
          "internalType": "string",
          "name": "incomingDomain",
          "type": "string"
        }
      ],
      "name": "ParentDomainNotFound",
      "type": "error"
    },
    {
      "inputs": [
        {
          "internalType": "uint256",
          "name": "incomingValue",
          "type": "uint256"
        },
        {
          "internalType": "uint256",
          "name": "expectingValue",
          "type": "uint256"
        }
      ],
      "name": "PriceEqualsZero",
      "type": "error"
    },
    {
      "anonymous": false,
      "inputs": [
        {
          "indexed": false,
          "internalType": "string",
          "name": "domain",
          "type": "string"
        },
        {
          "indexed": true,
          "internalType": "address",
          "name": "controller",
          "type": "address"
        }
      ],
      "name": "DomainRegistered",
      "type": "event"
    },
    {
      "anonymous": false,
      "inputs": [
        {
          "indexed": false,
          "internalType": "uint64",
          "name": "version",
          "type": "uint64"
        }
      ],
      "name": "Initialized",
      "type": "event"
    },
    {
      "anonymous": false,
      "inputs": [
        {
          "indexed": true,
          "internalType": "address",
          "name": "previousOwner",
          "type": "address"
        },
        {
          "indexed": true,
          "internalType": "address",
          "name": "newOwner",
          "type": "address"
        }
      ],
      "name": "OwnershipTransferred",
      "type": "event"
    },
    {
      "anonymous": false,
      "inputs": [
        {
          "indexed": false,
          "internalType": "uint256",
          "name": "newPrice",
          "type": "uint256"
        }
      ],
      "name": "PriceChanged",
      "type": "event"
    },
    {
      "anonymous": false,
      "inputs": [
        {
          "indexed": false,
          "internalType": "address",
          "name": "reciever",
          "type": "address"
        },
        {
          "indexed": false,
          "internalType": "uint256",
          "name": "amount",
          "type": "uint256"
        }
      ],
      "name": "Withdrawal",
      "type": "event"
    },
    {
      "inputs": [],
      "name": "_getEthToUsdPriceFromOracle",
      "outputs": [
        {
          "internalType": "uint256",
          "name": "",
          "type": "uint256"
        }
      ],
      "stateMutability": "view",
      "type": "function"
    },
    {
      "inputs": [
        {
          "internalType": "string",
          "name": "parentDomain",
          "type": "string"
        },
        {
          "internalType": "string",
          "name": "childDomain",
          "type": "string"
        }
      ],
      "name": "buyChildDomainViaEth",
      "outputs": [],
      "stateMutability": "payable",
      "type": "function"
    },
    {
      "inputs": [
        {
          "internalType": "string",
          "name": "parentDomain",
          "type": "string"
        },
        {
          "internalType": "string",
          "name": "childDomain",
          "type": "string"
        }
      ],
      "name": "buyChildDomainViaUsdc",
      "outputs": [],
      "stateMutability": "payable",
      "type": "function"
    },
    {
      "inputs": [
        {
          "internalType": "string",
          "name": "domain",
          "type": "string"
        }
      ],
      "name": "buyDomainViaEth",
      "outputs": [],
      "stateMutability": "payable",
      "type": "function"
    },
    {
      "inputs": [
        {
          "internalType": "string",
          "name": "domain",
          "type": "string"
        }
      ],
      "name": "buyDomainViaUsdc",
      "outputs": [],
      "stateMutability": "payable",
      "type": "function"
    },
    {
      "inputs": [
        {
          "internalType": "uint256",
          "name": "newPrice",
          "type": "uint256"
        }
      ],
      "name": "changePrice",
      "outputs": [],
      "stateMutability": "nonpayable",
      "type": "function"
    },
    {
      "inputs": [
        {
          "internalType": "address",
          "name": "controller",
          "type": "address"
        }
      ],
      "name": "getControllerFunds",
      "outputs": [
        {
          "internalType": "uint256",
          "name": "usdcFunds",
          "type": "uint256"
        },
        {
          "internalType": "uint256",
          "name": "ethFunds",
          "type": "uint256"
        }
      ],
      "stateMutability": "view",
      "type": "function"
    },
    {
      "inputs": [
        {
          "internalType": "string",
          "name": "domain",
          "type": "string"
        }
      ],
      "name": "getDomainOwner",
      "outputs": [
        {
          "internalType": "address",
          "name": "",
          "type": "address"
        }
      ],
      "stateMutability": "view",
      "type": "function"
    },
    {
      "inputs": [],
      "name": "getRegistrationPriceInEth",
      "outputs": [
        {
          "internalType": "uint256",
          "name": "",
          "type": "uint256"
        }
      ],
      "stateMutability": "view",
      "type": "function"
    },
    {
      "inputs": [],
      "name": "getRegistrationPriceInUsdc",
      "outputs": [
        {
          "internalType": "uint256",
          "name": "",
          "type": "uint256"
        }
      ],
      "stateMutability": "view",
      "type": "function"
    },
    {
      "inputs": [
        {
          "internalType": "uint256",
          "name": "initialPrice",
          "type": "uint256"
        },
        {
          "internalType": "address",
          "name": "_pricefeed",
          "type": "address"
        },
        {
          "internalType": "address",
          "name": "_usdcToken",
          "type": "address"
        }
      ],
      "name": "initialize",
      "outputs": [],
      "stateMutability": "nonpayable",
      "type": "function"
    },
    {
      "inputs": [],
      "name": "owner",
      "outputs": [
        {
          "internalType": "address",
          "name": "",
          "type": "address"
        }
      ],
      "stateMutability": "view",
      "type": "function"
    },
    {
      "inputs": [],
      "name": "renounceOwnership",
      "outputs": [],
      "stateMutability": "nonpayable",
      "type": "function"
    },
    {
      "inputs": [
        {
          "internalType": "address",
          "name": "newOwner",
          "type": "address"
        }
      ],
      "name": "transferOwnership",
      "outputs": [],
      "stateMutability": "nonpayable",
      "type": "function"
    },
    {
      "inputs": [],
      "name": "withdrawDomainEth",
      "outputs": [],
      "stateMutability": "nonpayable",
      "type": "function"
    },
    {
      "inputs": [],
      "name": "withdrawDomainUsdc",
      "outputs": [],
      "stateMutability": "nonpayable",
      "type": "function"
    },
    {
      "inputs": [],
      "name": "withdrawEth",
      "outputs": [],
      "stateMutability": "nonpayable",
      "type": "function"
    },
    {
      "inputs": [],
      "name": "withdrawUsdc",
      "outputs": [],
      "stateMutability": "nonpayable",
      "type": "function"
    }
  ],
  "bytecode": "0x608060405234801561001057600080fd5b50612955806100206000396000f3fe6080604052600436106101095760003560e01c80638da5cb5b11610095578063f2fde38b11610064578063f2fde38b146102ce578063f6a0c8db146102f7578063fbd43caa14610335578063fc8b265314610351578063fee84d4e1461037c57610109565b80638da5cb5b1461023a578063a0ef91df14610265578063a2b40d191461027c578063b4988fd0146102a557610109565b806337ee4b47116100dc57806337ee4b47146101ae578063559aae74146101ca57806359e41286146101e1578063715018a61461020c57806382702ff41461022357610109565b80631b0e17a31461010e578063225068c21461012a57806325970115146101465780632dd398b514610183575b600080fd5b61012860048036038101906101239190612020565b610393565b005b610144600480360381019061013f919061206d565b610555565b005b34801561015257600080fd5b5061016d60048036038101906101689190612020565b610764565b60405161017a919061212f565b60405180910390f35b34801561018f57600080fd5b506101986107b8565b6040516101a59190612163565b60405180910390f35b6101c860048036038101906101c3919061206d565b6107fc565b005b3480156101d657600080fd5b506101df6109e4565b005b3480156101ed57600080fd5b506101f6610ca8565b6040516102039190612163565b60405180910390f35b34801561021857600080fd5b50610221610cbb565b005b34801561022f57600080fd5b50610238610ccf565b005b34801561024657600080fd5b5061024f610ef6565b60405161025c919061212f565b60405180910390f35b34801561027157600080fd5b5061027a610f2e565b005b34801561028857600080fd5b506102a3600480360381019061029e91906121aa565b6110a2565b005b3480156102b157600080fd5b506102cc60048036038101906102c79190612203565b611148565b005b3480156102da57600080fd5b506102f560048036038101906102f09190612256565b61136a565b005b34801561030357600080fd5b5061031e60048036038101906103199190612256565b6113f0565b60405161032c929190612283565b60405180910390f35b61034f600480360381019061034a9190612020565b61148e565b005b34801561035d57600080fd5b50610366611677565b6040516103739190612163565b60405180910390f35b34801561038857600080fd5b50610391611751565b005b600061039d6107b8565b90508034146103e55734816040517fbe7b9d4d0000000000000000000000000000000000000000000000000000000081526004016103dc929190612283565b60405180910390fd5b8282600073ffffffffffffffffffffffffffffffffffffffff166104076118ab565b600101838360405161041a9291906122eb565b908152602001604051809103902060009054906101000a900473ffffffffffffffffffffffffffffffffffffffff1673ffffffffffffffffffffffffffffffffffffffff1614610496576040517fc5e8402d00000000000000000000000000000000000000000000000000000000815260040160405180910390fd5b3361049f6118ab565b60010186866040516104b29291906122eb565b908152602001604051809103902060006101000a81548173ffffffffffffffffffffffffffffffffffffffff021916908373ffffffffffffffffffffffffffffffffffffffff1602179055503373ffffffffffffffffffffffffffffffffffffffff167f70f2ff07e8136617cdfb0433423063c9dd697c507560d7860cce09fa86874a128686604051610546929190612353565b60405180910390a25050505050565b600061055f6118d3565b9050600061056b6118ab565b6000015490508082146105b75781816040517f035a0e000000000000000000000000000000000000000000000000000000000081526004016105ae929190612283565b60405180910390fd5b60006105c587878787611978565b905060006105d16118d3565b90506105dc81611aff565b336105e56118ab565b600101836040516105f691906123dd565b908152602001604051809103902060006101000a81548173ffffffffffffffffffffffffffffffffffffffff021916908373ffffffffffffffffffffffffffffffffffffffff1602179055508061064b611ba5565b600001600082825461065d9190612423565b925050819055508061066d611ba5565b600101600061067a6118ab565b6001018b8b60405161068d9291906122eb565b908152602001604051809103902060009054906101000a900473ffffffffffffffffffffffffffffffffffffffff1673ffffffffffffffffffffffffffffffffffffffff1673ffffffffffffffffffffffffffffffffffffffff16815260200190815260200160002060008282546107059190612423565b925050819055503373ffffffffffffffffffffffffffffffffffffffff167f70f2ff07e8136617cdfb0433423063c9dd697c507560d7860cce09fa86874a12836040516107529190612490565b60405180910390a25050505050505050565b600061076e6118ab565b60010183836040516107819291906122eb565b908152602001604051809103902060009054906101000a900473ffffffffffffffffffffffffffffffffffffffff16905092915050565b60006107c2611677565b670de0b6b3a764000060646107d56118ab565b600001546107e391906124b2565b6107ed91906124b2565b6107f79190612523565b905090565b60006108066107b8565b905080341461084e5734816040517fbe7b9d4d000000000000000000000000000000000000000000000000000000008152600401610845929190612283565b60405180910390fd5b600061085c86868686611978565b9050336108676118ab565b6001018260405161087891906123dd565b908152602001604051809103902060006101000a81548173ffffffffffffffffffffffffffffffffffffffff021916908373ffffffffffffffffffffffffffffffffffffffff160217905550346108cd611bcd565b60000160008282546108df9190612423565b92505081905550346108ef611bcd565b60010160006108fc6118ab565b600101898960405161090f9291906122eb565b908152602001604051809103902060009054906101000a900473ffffffffffffffffffffffffffffffffffffffff1673ffffffffffffffffffffffffffffffffffffffff1673ffffffffffffffffffffffffffffffffffffffff16815260200190815260200160002060008282546109879190612423565b925050819055503373ffffffffffffffffffffffffffffffffffffffff167f70f2ff07e8136617cdfb0433423063c9dd697c507560d7860cce09fa86874a12826040516109d49190612490565b60405180910390a2505050505050565b60006109ee611bcd565b60010160003373ffffffffffffffffffffffffffffffffffffffff1673ffffffffffffffffffffffffffffffffffffffff1681526020019081526020016000205403610a7157336040517fdc69dc16000000000000000000000000000000000000000000000000000000008152600401610a68919061212f565b60405180910390fd5b6000803373ffffffffffffffffffffffffffffffffffffffff16610a93611bcd565b60010160003373ffffffffffffffffffffffffffffffffffffffff1673ffffffffffffffffffffffffffffffffffffffff16815260200190815260200160002054604051610ae090612585565b60006040518083038185875af1925050503d8060008114610b1d576040519150601f19603f3d011682016040523d82523d6000602084013e610b22565b606091505b509150915081610b6b5733816040517f7824688c000000000000000000000000000000000000000000000000000000008152600401610b629291906125ef565b60405180910390fd5b610b73611bcd565b60010160003373ffffffffffffffffffffffffffffffffffffffff1673ffffffffffffffffffffffffffffffffffffffff16815260200190815260200160002054610bbc611bcd565b6000016000828254610bce919061261f565b925050819055506000610bdf611bcd565b60010160003373ffffffffffffffffffffffffffffffffffffffff1673ffffffffffffffffffffffffffffffffffffffff168152602001908152602001600020819055507f7fcf532c15f0a6db0bd6d0e038bea71d30d808c7d98cb3bf7268a95bf5081b6533610c4d611bcd565b60010160003373ffffffffffffffffffffffffffffffffffffffff1673ffffffffffffffffffffffffffffffffffffffff16815260200190815260200160002054604051610c9c929190612653565b60405180910390a15050565b6000610cb26118ab565b60000154905090565b610cc3611bf5565b610ccd6000611c7c565b565b6000610cd9611ba5565b60010160003373ffffffffffffffffffffffffffffffffffffffff1673ffffffffffffffffffffffffffffffffffffffff1681526020019081526020016000205403610d5c57336040517fdc69dc16000000000000000000000000000000000000000000000000000000008152600401610d53919061212f565b60405180910390fd5b6000610d66611bcd565b60010160003373ffffffffffffffffffffffffffffffffffffffff1673ffffffffffffffffffffffffffffffffffffffff168152602001908152602001600020549050600160009054906101000a900473ffffffffffffffffffffffffffffffffffffffff1673ffffffffffffffffffffffffffffffffffffffff1663a9059cbb33836040518363ffffffff1660e01b8152600401610e06929190612653565b6020604051808303816000875af1158015610e25573d6000803e3d6000fd5b505050506040513d601f19601f82011682018060405250810190610e4991906126b4565b5080610e53611bcd565b6000016000828254610e65919061261f565b925050819055506000610e76611bcd565b60010160003373ffffffffffffffffffffffffffffffffffffffff1673ffffffffffffffffffffffffffffffffffffffff168152602001908152602001600020819055507f7fcf532c15f0a6db0bd6d0e038bea71d30d808c7d98cb3bf7268a95bf5081b653382604051610eeb929190612653565b60405180910390a150565b600080610f01611d53565b90508060000160009054906101000a900473ffffffffffffffffffffffffffffffffffffffff1691505090565b610f36611bf5565b6000610f40611bcd565b6000015447610f4f919061261f565b905060008103610f9d57610f61610ef6565b6040517fdc69dc16000000000000000000000000000000000000000000000000000000008152600401610f94919061212f565b60405180910390fd5b600080610fa8610ef6565b73ffffffffffffffffffffffffffffffffffffffff1683604051610fcb90612585565b60006040518083038185875af1925050503d8060008114611008576040519150601f19603f3d011682016040523d82523d6000602084013e61100d565b606091505b50915091508161105d5761101f610ef6565b816040517f7824688c0000000000000000000000000000000000000000000000000000000081526004016110549291906125ef565b60405180910390fd5b7f7fcf532c15f0a6db0bd6d0e038bea71d30d808c7d98cb3bf7268a95bf5081b65611086610ef6565b84604051611095929190612653565b60405180910390a1505050565b6110aa611bf5565b80600081036110fd57806110bc6118ab565b600001546040517fd090dd060000000000000000000000000000000000000000000000000000000081526004016110f4929190612283565b60405180910390fd5b816111066118ab565b600001819055507fa6dc15bdb68da224c66db4b3838d9a2b205138e8cff6774e57d0af91e196d6228260405161113c9190612163565b60405180910390a15050565b6000611152611d7b565b905060008160000160089054906101000a900460ff1615905060008260000160009054906101000a900467ffffffffffffffff1690506000808267ffffffffffffffff161480156111a05750825b9050600060018367ffffffffffffffff161480156111d5575060003073ffffffffffffffffffffffffffffffffffffffff163b145b9050811580156111e3575080155b1561121a576040517ff92ee8a900000000000000000000000000000000000000000000000000000000815260040160405180910390fd5b60018560000160006101000a81548167ffffffffffffffff021916908367ffffffffffffffff160217905550831561126a5760018560000160086101000a81548160ff0219169083151502179055505b876112736118ab565b6000018190555061128333611da3565b866000806101000a81548173ffffffffffffffffffffffffffffffffffffffff021916908373ffffffffffffffffffffffffffffffffffffffff16021790555085600160006101000a81548173ffffffffffffffffffffffffffffffffffffffff021916908373ffffffffffffffffffffffffffffffffffffffff16021790555083156113605760008560000160086101000a81548160ff0219169083151502179055507fc7f505b2f371ae2175ee4913f4499e1f2633a7b5936321eed1cdaeb6115181d26001604051611357919061273a565b60405180910390a15b5050505050505050565b611372611bf5565b600073ffffffffffffffffffffffffffffffffffffffff168173ffffffffffffffffffffffffffffffffffffffff16036113e45760006040517f1e4fbdf70000000000000000000000000000000000000000000000000000000081526004016113db919061212f565b60405180910390fd5b6113ed81611c7c565b50565b6000806113fb611ba5565b60010160008473ffffffffffffffffffffffffffffffffffffffff1673ffffffffffffffffffffffffffffffffffffffff168152602001908152602001600020549150611446611bcd565b60010160008473ffffffffffffffffffffffffffffffffffffffff1673ffffffffffffffffffffffffffffffffffffffff168152602001908152602001600020549050915091565b60006114986118d3565b905060006114a46118ab565b6000015490508082146114f05781816040517f035a0e000000000000000000000000000000000000000000000000000000000081526004016114e7929190612283565b60405180910390fd5b8383600073ffffffffffffffffffffffffffffffffffffffff166115126118ab565b60010183836040516115259291906122eb565b908152602001604051809103902060009054906101000a900473ffffffffffffffffffffffffffffffffffffffff1673ffffffffffffffffffffffffffffffffffffffff16146115a1576040517fc5e8402d00000000000000000000000000000000000000000000000000000000815260040160405180910390fd5b60006115ab6118d3565b90506115b681611aff565b336115bf6118ab565b60010188886040516115d29291906122eb565b908152602001604051809103902060006101000a81548173ffffffffffffffffffffffffffffffffffffffff021916908373ffffffffffffffffffffffffffffffffffffffff1602179055503373ffffffffffffffffffffffffffffffffffffffff167f70f2ff07e8136617cdfb0433423063c9dd697c507560d7860cce09fa86874a128888604051611666929190612353565b60405180910390a250505050505050565b60008060008054906101000a900473ffffffffffffffffffffffffffffffffffffffff1673ffffffffffffffffffffffffffffffffffffffff1663feaf968c6040518163ffffffff1660e01b815260040160a060405180830381865afa1580156116e5573d6000803e3d6000fd5b505050506040513d601f19601f8201168201806040525081019061170991906127e2565b505050915050600081121561174a576040517f6f4f5ab900000000000000000000000000000000000000000000000000000000815260040160405180910390fd5b8091505090565b611759611bf5565b6000611763611ba5565b6000015461176f611db7565b611779919061261f565b9050600081036117c75761178b610ef6565b6040517fdc69dc160000000000000000000000000000000000000000000000000000000081526004016117be919061212f565b60405180910390fd5b600160009054906101000a900473ffffffffffffffffffffffffffffffffffffffff1673ffffffffffffffffffffffffffffffffffffffff1663a9059cbb33836040518363ffffffff1660e01b8152600401611824929190612653565b6020604051808303816000875af1158015611843573d6000803e3d6000fd5b505050506040513d601f19601f8201168201806040525081019061186791906126b4565b507f7fcf532c15f0a6db0bd6d0e038bea71d30d808c7d98cb3bf7268a95bf5081b65611891610ef6565b826040516118a0929190612653565b60405180910390a150565b60007f34d79759018dd62b1c8d40a6535099f131828aa4665b939adf68c4556b516400905090565b6000600160009054906101000a900473ffffffffffffffffffffffffffffffffffffffff1673ffffffffffffffffffffffffffffffffffffffff1663dd62ed3e33306040518363ffffffff1660e01b815260040161193292919061285d565b602060405180830381865afa15801561194f573d6000803e3d6000fd5b505050506040513d601f19601f820116820180604052508101906119739190612886565b905090565b6060600073ffffffffffffffffffffffffffffffffffffffff1661199a6118ab565b60010186866040516119ad9291906122eb565b908152602001604051809103902060009054906101000a900473ffffffffffffffffffffffffffffffffffffffff1673ffffffffffffffffffffffffffffffffffffffff1603611a365784846040517f30a58c07000000000000000000000000000000000000000000000000000000008152600401611a2d929190612353565b60405180910390fd5b6000611a4484848888611e5a565b9050600073ffffffffffffffffffffffffffffffffffffffff16611a666118ab565b60010182604051611a7791906123dd565b908152602001604051809103902060009054906101000a900473ffffffffffffffffffffffffffffffffffffffff1673ffffffffffffffffffffffffffffffffffffffff1614611af3576040517fc5e8402d00000000000000000000000000000000000000000000000000000000815260040160405180910390fd5b80915050949350505050565b600160009054906101000a900473ffffffffffffffffffffffffffffffffffffffff1673ffffffffffffffffffffffffffffffffffffffff166323b872dd3330846040518463ffffffff1660e01b8152600401611b5e939291906128b3565b6020604051808303816000875af1158015611b7d573d6000803e3d6000fd5b505050506040513d601f19601f82011682018060405250810190611ba191906126b4565b5050565b60007f64d6ff49462c7266e92c8aa47370a483b3bb1c9ff7216e1d88a62c1eb24ffb00905090565b60007f249f20ee916056548cfe0204d9ea4281f252680318bb5252f87aa5a31ec81e00905090565b611bfd611ec3565b73ffffffffffffffffffffffffffffffffffffffff16611c1b610ef6565b73ffffffffffffffffffffffffffffffffffffffff1614611c7a57611c3e611ec3565b6040517f118cdaa7000000000000000000000000000000000000000000000000000000008152600401611c71919061212f565b60405180910390fd5b565b6000611c86611d53565b905060008160000160009054906101000a900473ffffffffffffffffffffffffffffffffffffffff169050828260000160006101000a81548173ffffffffffffffffffffffffffffffffffffffff021916908373ffffffffffffffffffffffffffffffffffffffff1602179055508273ffffffffffffffffffffffffffffffffffffffff168173ffffffffffffffffffffffffffffffffffffffff167f8be0079c531659141344cd1fd0a4f28419497f9722a3daafe3b4186f6b6457e060405160405180910390a3505050565b60007f9016d09d72d40fdae2fd8ceac6b6234c7706214fd39c1cd1e609a0528c199300905090565b60007ff0c57e16840df040f15088dc2f81fe391c3923bec73e23a9662efc9c229c6a00905090565b611dab611ecb565b611db481611f0b565b50565b6000600160009054906101000a900473ffffffffffffffffffffffffffffffffffffffff1673ffffffffffffffffffffffffffffffffffffffff166370a08231306040518263ffffffff1660e01b8152600401611e14919061212f565b602060405180830381865afa158015611e31573d6000803e3d6000fd5b505050506040513d601f19601f82011682018060405250810190611e559190612886565b905090565b606084846040518060400160405280600181526020017f2e000000000000000000000000000000000000000000000000000000000000008152508585604051602001611eaa9594939291906128ea565b6040516020818303038152906040529050949350505050565b600033905090565b611ed3611f91565b611f09576040517fd7e6bcf800000000000000000000000000000000000000000000000000000000815260040160405180910390fd5b565b611f13611ecb565b600073ffffffffffffffffffffffffffffffffffffffff168173ffffffffffffffffffffffffffffffffffffffff1603611f855760006040517f1e4fbdf7000000000000000000000000000000000000000000000000000000008152600401611f7c919061212f565b60405180910390fd5b611f8e81611c7c565b50565b6000611f9b611d7b565b60000160089054906101000a900460ff16905090565b600080fd5b600080fd5b600080fd5b600080fd5b600080fd5b60008083601f840112611fe057611fdf611fbb565b5b8235905067ffffffffffffffff811115611ffd57611ffc611fc0565b5b60208301915083600182028301111561201957612018611fc5565b5b9250929050565b6000806020838503121561203757612036611fb1565b5b600083013567ffffffffffffffff81111561205557612054611fb6565b5b61206185828601611fca565b92509250509250929050565b6000806000806040858703121561208757612086611fb1565b5b600085013567ffffffffffffffff8111156120a5576120a4611fb6565b5b6120b187828801611fca565b9450945050602085013567ffffffffffffffff8111156120d4576120d3611fb6565b5b6120e087828801611fca565b925092505092959194509250565b600073ffffffffffffffffffffffffffffffffffffffff82169050919050565b6000612119826120ee565b9050919050565b6121298161210e565b82525050565b60006020820190506121446000830184612120565b92915050565b6000819050919050565b61215d8161214a565b82525050565b60006020820190506121786000830184612154565b92915050565b6121878161214a565b811461219257600080fd5b50565b6000813590506121a48161217e565b92915050565b6000602082840312156121c0576121bf611fb1565b5b60006121ce84828501612195565b91505092915050565b6121e08161210e565b81146121eb57600080fd5b50565b6000813590506121fd816121d7565b92915050565b60008060006060848603121561221c5761221b611fb1565b5b600061222a86828701612195565b935050602061223b868287016121ee565b925050604061224c868287016121ee565b9150509250925092565b60006020828403121561226c5761226b611fb1565b5b600061227a848285016121ee565b91505092915050565b60006040820190506122986000830185612154565b6122a56020830184612154565b9392505050565b600081905092915050565b82818337600083830152505050565b60006122d283856122ac565b93506122df8385846122b7565b82840190509392505050565b60006122f88284866122c6565b91508190509392505050565b600082825260208201905092915050565b6000601f19601f8301169050919050565b60006123328385612304565b935061233f8385846122b7565b61234883612315565b840190509392505050565b6000602082019050818103600083015261236e818486612326565b90509392505050565b600081519050919050565b60005b838110156123a0578082015181840152602081019050612385565b60008484015250505050565b60006123b782612377565b6123c181856122ac565b93506123d1818560208601612382565b80840191505092915050565b60006123e982846123ac565b915081905092915050565b7f4e487b7100000000000000000000000000000000000000000000000000000000600052601160045260246000fd5b600061242e8261214a565b91506124398361214a565b9250828201905080821115612451576124506123f4565b5b92915050565b600061246282612377565b61246c8185612304565b935061247c818560208601612382565b61248581612315565b840191505092915050565b600060208201905081810360008301526124aa8184612457565b905092915050565b60006124bd8261214a565b91506124c88361214a565b92508282026124d68161214a565b915082820484148315176124ed576124ec6123f4565b5b5092915050565b7f4e487b7100000000000000000000000000000000000000000000000000000000600052601260045260246000fd5b600061252e8261214a565b91506125398361214a565b925082612549576125486124f4565b5b828204905092915050565b600081905092915050565b50565b600061256f600083612554565b915061257a8261255f565b600082019050919050565b600061259082612562565b9150819050919050565b600081519050919050565b600082825260208201905092915050565b60006125c18261259a565b6125cb81856125a5565b93506125db818560208601612382565b6125e481612315565b840191505092915050565b60006040820190506126046000830185612120565b818103602083015261261681846125b6565b90509392505050565b600061262a8261214a565b91506126358361214a565b925082820390508181111561264d5761264c6123f4565b5b92915050565b60006040820190506126686000830185612120565b6126756020830184612154565b9392505050565b60008115159050919050565b6126918161267c565b811461269c57600080fd5b50565b6000815190506126ae81612688565b92915050565b6000602082840312156126ca576126c9611fb1565b5b60006126d88482850161269f565b91505092915050565b6000819050919050565b600067ffffffffffffffff82169050919050565b6000819050919050565b600061272461271f61271a846126e1565b6126ff565b6126eb565b9050919050565b61273481612709565b82525050565b600060208201905061274f600083018461272b565b92915050565b600069ffffffffffffffffffff82169050919050565b61277481612755565b811461277f57600080fd5b50565b6000815190506127918161276b565b92915050565b6000819050919050565b6127aa81612797565b81146127b557600080fd5b50565b6000815190506127c7816127a1565b92915050565b6000815190506127dc8161217e565b92915050565b600080600080600060a086880312156127fe576127fd611fb1565b5b600061280c88828901612782565b955050602061281d888289016127b8565b945050604061282e888289016127cd565b935050606061283f888289016127cd565b925050608061285088828901612782565b9150509295509295909350565b60006040820190506128726000830185612120565b61287f6020830184612120565b9392505050565b60006020828403121561289c5761289b611fb1565b5b60006128aa848285016127cd565b91505092915050565b60006060820190506128c86000830186612120565b6128d56020830185612120565b6128e26040830184612154565b949350505050565b60006128f78287896122c6565b915061290382866123ac565b91506129108284866122c6565b9150819050969550505050505056fea2646970667358221220cb399a1cc765f3f963c1ab81ce0e74c8185874404d5fbe0c4ea0c07c69eebaf764736f6c63430008180033",
  "linkReferences": {},
  "deployedLinkReferences": {}
}