{
	"contracts/DomainRegistry.sol": {
		"DomainRegistry": {
			"abi": [
				{
					"inputs": [],
					"name": "DomainAlreadyTaken",
					"type": "error"
				},
				{
					"inputs": [
						{
							"internalType": "address",
							"name": "reciever",
							"type": "address"
						},
						{
							"internalType": "bytes",
							"name": "data",
							"type": "bytes"
						}
					],
					"name": "FailedToWithdraw",
					"type": "error"
				},
				{
					"inputs": [
						{
							"internalType": "uint256",
							"name": "incomingUsdc",
							"type": "uint256"
						},
						{
							"internalType": "uint256",
							"name": "expectingUsdc",
							"type": "uint256"
						}
					],
					"name": "IncorrectUsdcAmount",
					"type": "error"
				},
				{
					"inputs": [
						{
							"internalType": "uint256",
							"name": "incomingValue",
							"type": "uint256"
						},
						{
							"internalType": "uint256",
							"name": "expectingValue",
							"type": "uint256"
						}
					],
					"name": "IncorrectValueAmount",
					"type": "error"
				},
				{
					"inputs": [],
					"name": "InvalidInitialization",
					"type": "error"
				},
				{
					"inputs": [],
					"name": "InvalidPriceFromOracle",
					"type": "error"
				},
				{
					"inputs": [],
					"name": "NotInitializing",
					"type": "error"
				},
				{
					"inputs": [
						{
							"internalType": "address",
							"name": "requester",
							"type": "address"
						}
					],
					"name": "NothingToWithdraw",
					"type": "error"
				},
				{
					"inputs": [
						{
							"internalType": "address",
							"name": "owner",
							"type": "address"
						}
					],
					"name": "OwnableInvalidOwner",
					"type": "error"
				},
				{
					"inputs": [
						{
							"internalType": "address",
							"name": "account",
							"type": "address"
						}
					],
					"name": "OwnableUnauthorizedAccount",
					"type": "error"
				},
				{
					"inputs": [
						{
							"internalType": "string",
							"name": "incomingDomain",
							"type": "string"
						}
					],
					"name": "ParentDomainNotFound",
					"type": "error"
				},
				{
					"inputs": [
						{
							"internalType": "uint256",
							"name": "incomingValue",
							"type": "uint256"
						},
						{
							"internalType": "uint256",
							"name": "expectingValue",
							"type": "uint256"
						}
					],
					"name": "PriceEqualsZero",
					"type": "error"
				},
				{
					"anonymous": false,
					"inputs": [
						{
							"indexed": false,
							"internalType": "string",
							"name": "domain",
							"type": "string"
						},
						{
							"indexed": true,
							"internalType": "address",
							"name": "controller",
							"type": "address"
						}
					],
					"name": "DomainRegistered",
					"type": "event"
				},
				{
					"anonymous": false,
					"inputs": [
						{
							"indexed": false,
							"internalType": "uint64",
							"name": "version",
							"type": "uint64"
						}
					],
					"name": "Initialized",
					"type": "event"
				},
				{
					"anonymous": false,
					"inputs": [
						{
							"indexed": true,
							"internalType": "address",
							"name": "previousOwner",
							"type": "address"
						},
						{
							"indexed": true,
							"internalType": "address",
							"name": "newOwner",
							"type": "address"
						}
					],
					"name": "OwnershipTransferred",
					"type": "event"
				},
				{
					"anonymous": false,
					"inputs": [
						{
							"indexed": false,
							"internalType": "uint256",
							"name": "newPrice",
							"type": "uint256"
						}
					],
					"name": "PriceChanged",
					"type": "event"
				},
				{
					"anonymous": false,
					"inputs": [
						{
							"indexed": false,
							"internalType": "address",
							"name": "reciever",
							"type": "address"
						},
						{
							"indexed": false,
							"internalType": "uint256",
							"name": "amount",
							"type": "uint256"
						}
					],
					"name": "Withdrawal",
					"type": "event"
				},
				{
					"inputs": [],
					"name": "_getEthToUsdPriceFromOracle",
					"outputs": [
						{
							"internalType": "uint256",
							"name": "",
							"type": "uint256"
						}
					],
					"stateMutability": "view",
					"type": "function"
				},
				{
					"inputs": [
						{
							"internalType": "string",
							"name": "parentDomain",
							"type": "string"
						},
						{
							"internalType": "string",
							"name": "childDomain",
							"type": "string"
						}
					],
					"name": "buyChildDomainViaEth",
					"outputs": [],
					"stateMutability": "payable",
					"type": "function"
				},
				{
					"inputs": [
						{
							"internalType": "string",
							"name": "parentDomain",
							"type": "string"
						},
						{
							"internalType": "string",
							"name": "childDomain",
							"type": "string"
						}
					],
					"name": "buyChildDomainViaUsdc",
					"outputs": [],
					"stateMutability": "payable",
					"type": "function"
				},
				{
					"inputs": [
						{
							"internalType": "string",
							"name": "domain",
							"type": "string"
						}
					],
					"name": "buyDomainViaEth",
					"outputs": [],
					"stateMutability": "payable",
					"type": "function"
				},
				{
					"inputs": [
						{
							"internalType": "string",
							"name": "domain",
							"type": "string"
						}
					],
					"name": "buyDomainViaUsdc",
					"outputs": [],
					"stateMutability": "payable",
					"type": "function"
				},
				{
					"inputs": [
						{
							"internalType": "uint256",
							"name": "newPrice",
							"type": "uint256"
						}
					],
					"name": "changePrice",
					"outputs": [],
					"stateMutability": "nonpayable",
					"type": "function"
				},
				{
					"inputs": [
						{
							"internalType": "string",
							"name": "domain",
							"type": "string"
						}
					],
					"name": "getDomainOwner",
					"outputs": [
						{
							"internalType": "address",
							"name": "",
							"type": "address"
						}
					],
					"stateMutability": "view",
					"type": "function"
				},
				{
					"inputs": [],
					"name": "getRegistrationPriceInEth",
					"outputs": [
						{
							"internalType": "uint256",
							"name": "",
							"type": "uint256"
						}
					],
					"stateMutability": "view",
					"type": "function"
				},
				{
					"inputs": [],
					"name": "getRegistrationPriceInUsdc",
					"outputs": [
						{
							"internalType": "uint256",
							"name": "",
							"type": "uint256"
						}
					],
					"stateMutability": "view",
					"type": "function"
				},
				{
					"inputs": [
						{
							"internalType": "uint256",
							"name": "initialPrice",
							"type": "uint256"
						},
						{
							"internalType": "address",
							"name": "_pricefeed",
							"type": "address"
						},
						{
							"internalType": "address",
							"name": "_usdcToken",
							"type": "address"
						}
					],
					"name": "initialize",
					"outputs": [],
					"stateMutability": "nonpayable",
					"type": "function"
				},
				{
					"inputs": [],
					"name": "owner",
					"outputs": [
						{
							"internalType": "address",
							"name": "",
							"type": "address"
						}
					],
					"stateMutability": "view",
					"type": "function"
				},
				{
					"inputs": [],
					"name": "renounceOwnership",
					"outputs": [],
					"stateMutability": "nonpayable",
					"type": "function"
				},
				{
					"inputs": [
						{
							"internalType": "address",
							"name": "newOwner",
							"type": "address"
						}
					],
					"name": "transferOwnership",
					"outputs": [],
					"stateMutability": "nonpayable",
					"type": "function"
				},
				{
					"inputs": [],
					"name": "withdrawDomainEth",
					"outputs": [],
					"stateMutability": "nonpayable",
					"type": "function"
				},
				{
					"inputs": [],
					"name": "withdrawDomainUsdc",
					"outputs": [],
					"stateMutability": "nonpayable",
					"type": "function"
				},
				{
					"inputs": [],
					"name": "withdrawEth",
					"outputs": [],
					"stateMutability": "nonpayable",
					"type": "function"
				},
				{
					"inputs": [],
					"name": "withdrawUsdc",
					"outputs": [],
					"stateMutability": "nonpayable",
					"type": "function"
				}
			],
			"devdoc": {
				"author": "Vadym Sushkov",
				"errors": {
					"DomainAlreadyTaken()": [
						{
							"details": "Error thrown when attempting to register a domain that already exists."
						}
					],
					"FailedToWithdraw(address,bytes)": [
						{
							"details": "Error thrown when the withdrawal operation fails.",
							"params": {
								"data": "The error data."
							}
						}
					],
					"IncorrectUsdcAmount(uint256,uint256)": [
						{
							"details": "Error thrown when the usdc provided is not equal to the expected amount of usdc.",
							"params": {
								"expectingUsdc": "The expected udc amount.",
								"incomingUsdc": "The value provided."
							}
						}
					],
					"IncorrectValueAmount(uint256,uint256)": [
						{
							"details": "Error thrown when the value provided is not equal to the expected value.",
							"params": {
								"expectingValue": "The expected value.",
								"incomingValue": "The value provided."
							}
						}
					],
					"InvalidInitialization()": [
						{
							"details": "The contract is already initialized."
						}
					],
					"InvalidPriceFromOracle()": [
						{
							"details": "Error thrown when price from oracle is incorrect."
						}
					],
					"NotInitializing()": [
						{
							"details": "The contract is not initializing."
						}
					],
					"NothingToWithdraw(address)": [
						{
							"details": "Error thrown when there is nothing to withdraw from the contract.",
							"params": {
								"requester": "The address of requester who request withdraw funds."
							}
						}
					],
					"OwnableInvalidOwner(address)": [
						{
							"details": "The owner is not a valid owner account. (eg. `address(0)`)"
						}
					],
					"OwnableUnauthorizedAccount(address)": [
						{
							"details": "The caller account is not authorized to perform an operation."
						}
					],
					"ParentDomainNotFound(string)": [
						{
							"details": "Error thrown when the parent domain is not found.",
							"params": {
								"incomingDomain": "The domain for which the parent domain is not found."
							}
						}
					],
					"PriceEqualsZero(uint256,uint256)": [
						{
							"details": "Error thrown when the provided price equals to zero.",
							"params": {
								"expectingValue": "The expected value.",
								"incomingValue": "The value that caused the error."
							}
						}
					]
				},
				"events": {
					"DomainRegistered(string,address)": {
						"details": "Event emitted when a domain is registered.",
						"params": {
							"controller": "The address of the controller of the domain.",
							"domain": "The domain name."
						}
					},
					"Initialized(uint64)": {
						"details": "Triggered when the contract has been initialized or reinitialized."
					},
					"PriceChanged(uint256)": {
						"details": "Event emitted when the price for domain registration is changed.",
						"params": {
							"newPrice": "The new price of the domain registration."
						}
					},
					"Withdrawal(address,uint256)": {
						"details": "Event emitted when funds are withdrawn from the contract.",
						"params": {
							"amount": "The amount of funds withdrawn."
						}
					}
				},
				"kind": "dev",
				"methods": {
					"_getEthToUsdPriceFromOracle()": {
						"details": "Returns current Eth/Usd price"
					},
					"buyChildDomainViaEth(string,string)": {
						"details": "Allows buying a child domain under a parent domain.",
						"params": {
							"childDomain": "The name of the child domain.",
							"parentDomain": "The parent domain under which to register the child domain."
						}
					},
					"buyDomainViaEth(string)": {
						"details": "Buying a domain via eth",
						"params": {
							"domain": "The domain"
						}
					},
					"buyDomainViaUsdc(string)": {
						"details": "Buying a domain via usdc",
						"params": {
							"domain": "The domain"
						}
					},
					"changePrice(uint256)": {
						"details": "Change price for domain registration",
						"params": {
							"newPrice": "The new price of the domain"
						}
					},
					"initialize(uint256,address,address)": {
						"details": "Sets owner of the contract and price for domain registration",
						"params": {
							"initialPrice": "Sets default price for domains"
						}
					},
					"owner()": {
						"details": "Returns the address of the current owner."
					},
					"renounceOwnership()": {
						"details": "Leaves the contract without owner. It will not be possible to call `onlyOwner` functions. Can only be called by the current owner. NOTE: Renouncing ownership will leave the contract without an owner, thereby disabling any functionality that is only available to the owner."
					},
					"transferOwnership(address)": {
						"details": "Transfers ownership of the contract to a new account (`newOwner`). Can only be called by the current owner."
					},
					"withdrawDomainEth()": {
						"details": "Allows domain owners to withdraw their eth funds from the contract."
					},
					"withdrawDomainUsdc()": {
						"details": "Allows domain owners to withdraw their usdc funds from the contract."
					},
					"withdrawEth()": {
						"details": "Withdraw eth to the owner of the contract"
					},
					"withdrawUsdc()": {
						"details": "Withdraw usdc to the owner of the contract"
					}
				},
				"stateVariables": {
					"domainSeparator": {
						"details": "Separator used to concatenate domain names."
					},
					"priceFeed": {
						"details": "Contract to get the latest price ETH/USD."
					},
					"usdcToken": {
						"details": "Contract to interact with usdc token."
					}
				},
				"title": "Domain Registry",
				"version": 1
			},
			"evm": {
				"assembly": "    /* \"contracts/DomainRegistry.sol\":592:17287  contract DomainRegistry is... */\n  mstore(0x40, 0x80)\n  callvalue\n  dup1\n  iszero\n  tag_1\n  jumpi\n  0x00\n  dup1\n  revert\ntag_1:\n  pop\n  dataSize(sub_0)\n  dup1\n  dataOffset(sub_0)\n  0x00\n  codecopy\n  0x00\n  return\nstop\n\nsub_0: assembly {\n        /* \"contracts/DomainRegistry.sol\":592:17287  contract DomainRegistry is... */\n      mstore(0x40, 0x80)\n      jumpi(tag_1, lt(calldatasize, 0x04))\n      shr(0xe0, calldataload(0x00))\n      dup1\n      0x82702ff4\n      gt\n      tag_19\n      jumpi\n      dup1\n      0xb4988fd0\n      gt\n      tag_20\n      jumpi\n      dup1\n      0xb4988fd0\n      eq\n      tag_14\n      jumpi\n      dup1\n      0xf2fde38b\n      eq\n      tag_15\n      jumpi\n      dup1\n      0xfbd43caa\n      eq\n      tag_16\n      jumpi\n      dup1\n      0xfc8b2653\n      eq\n      tag_17\n      jumpi\n      dup1\n      0xfee84d4e\n      eq\n      tag_18\n      jumpi\n      jump(tag_1)\n    tag_20:\n      dup1\n      0x82702ff4\n      eq\n      tag_10\n      jumpi\n      dup1\n      0x8da5cb5b\n      eq\n      tag_11\n      jumpi\n      dup1\n      0xa0ef91df\n      eq\n      tag_12\n      jumpi\n      dup1\n      0xa2b40d19\n      eq\n      tag_13\n      jumpi\n      jump(tag_1)\n    tag_19:\n      dup1\n      0x37ee4b47\n      gt\n      tag_21\n      jumpi\n      dup1\n      0x37ee4b47\n      eq\n      tag_6\n      jumpi\n      dup1\n      0x559aae74\n      eq\n      tag_7\n      jumpi\n      dup1\n      0x59e41286\n      eq\n      tag_8\n      jumpi\n      dup1\n      0x715018a6\n      eq\n      tag_9\n      jumpi\n      jump(tag_1)\n    tag_21:\n      dup1\n      0x1b0e17a3\n      eq\n      tag_2\n      jumpi\n      dup1\n      0x225068c2\n      eq\n      tag_3\n      jumpi\n      dup1\n      0x25970115\n      eq\n      tag_4\n      jumpi\n      dup1\n      0x2dd398b5\n      eq\n      tag_5\n      jumpi\n    tag_1:\n      0x00\n      dup1\n      revert\n        /* \"contracts/DomainRegistry.sol\":9960:10226  function buyDomainViaEth(string calldata domain)... */\n    tag_2:\n      tag_22\n      0x04\n      dup1\n      calldatasize\n      sub\n      dup2\n      add\n      swap1\n      tag_23\n      swap2\n      swap1\n      tag_24\n      jump\t// in\n    tag_23:\n      tag_25\n      jump\t// in\n    tag_22:\n      stop\n        /* \"contracts/DomainRegistry.sol\":9211:9870  function buyChildDomainViaUsdc(... */\n    tag_3:\n      tag_26\n      0x04\n      dup1\n      calldatasize\n      sub\n      dup2\n      add\n      swap1\n      tag_27\n      swap2\n      swap1\n      tag_28\n      jump\t// in\n    tag_27:\n      tag_29\n      jump\t// in\n    tag_26:\n      stop\n        /* \"contracts/DomainRegistry.sol\":8239:8407  function getDomainOwner(string calldata domain)... */\n    tag_4:\n      callvalue\n      dup1\n      iszero\n      tag_30\n      jumpi\n      0x00\n      dup1\n      revert\n    tag_30:\n      pop\n      tag_31\n      0x04\n      dup1\n      calldatasize\n      sub\n      dup2\n      add\n      swap1\n      tag_32\n      swap2\n      swap1\n      tag_24\n      jump\t// in\n    tag_32:\n      tag_33\n      jump\t// in\n    tag_31:\n      mload(0x40)\n      tag_34\n      swap2\n      swap1\n      tag_35\n      jump\t// in\n    tag_34:\n      mload(0x40)\n      dup1\n      swap2\n      sub\n      swap1\n      return\n        /* \"contracts/DomainRegistry.sol\":7768:7976  function getRegistrationPriceInEth()... */\n    tag_5:\n      callvalue\n      dup1\n      iszero\n      tag_36\n      jumpi\n      0x00\n      dup1\n      revert\n    tag_36:\n      pop\n      tag_37\n      tag_38\n      jump\t// in\n    tag_37:\n      mload(0x40)\n      tag_39\n      swap2\n      swap1\n      tag_40\n      jump\t// in\n    tag_39:\n      mload(0x40)\n      dup1\n      swap2\n      sub\n      swap1\n      return\n        /* \"contracts/DomainRegistry.sol\":8636:9205  function buyChildDomainViaEth(... */\n    tag_6:\n      tag_41\n      0x04\n      dup1\n      calldatasize\n      sub\n      dup2\n      add\n      swap1\n      tag_42\n      swap2\n      swap1\n      tag_28\n      jump\t// in\n    tag_42:\n      tag_43\n      jump\t// in\n    tag_41:\n      stop\n        /* \"contracts/DomainRegistry.sol\":12556:13252  function withdrawDomainEth() public {... */\n    tag_7:\n      callvalue\n      dup1\n      iszero\n      tag_44\n      jumpi\n      0x00\n      dup1\n      revert\n    tag_44:\n      pop\n      tag_45\n      tag_46\n      jump\t// in\n    tag_45:\n      stop\n        /* \"contracts/DomainRegistry.sol\":8036:8193  function getRegistrationPriceInUsdc()... */\n    tag_8:\n      callvalue\n      dup1\n      iszero\n      tag_47\n      jumpi\n      0x00\n      dup1\n      revert\n    tag_47:\n      pop\n      tag_48\n      tag_49\n      jump\t// in\n    tag_48:\n      mload(0x40)\n      tag_50\n      swap2\n      swap1\n      tag_40\n      jump\t// in\n    tag_50:\n      mload(0x40)\n      dup1\n      swap2\n      sub\n      swap1\n      return\n        /* \"@openzeppelin/contracts-upgradeable/access/OwnableUpgradeable.sol\":3155:3256  function renounceOwnership() public virtual onlyOwner {... */\n    tag_9:\n      callvalue\n      dup1\n      iszero\n      tag_51\n      jumpi\n      0x00\n      dup1\n      revert\n    tag_51:\n      pop\n      tag_52\n      tag_53\n      jump\t// in\n    tag_52:\n      stop\n        /* \"contracts/DomainRegistry.sol\":13605:14118  function withdrawDomainUsdc() public {... */\n    tag_10:\n      callvalue\n      dup1\n      iszero\n      tag_54\n      jumpi\n      0x00\n      dup1\n      revert\n    tag_54:\n      pop\n      tag_55\n      tag_56\n      jump\t// in\n    tag_55:\n      stop\n        /* \"@openzeppelin/contracts-upgradeable/access/OwnableUpgradeable.sol\":2441:2585  function owner() public view virtual returns (address) {... */\n    tag_11:\n      callvalue\n      dup1\n      iszero\n      tag_57\n      jumpi\n      0x00\n      dup1\n      revert\n    tag_57:\n      pop\n      tag_58\n      tag_59\n      jump\t// in\n    tag_58:\n      mload(0x40)\n      tag_60\n      swap2\n      swap1\n      tag_35\n      jump\t// in\n    tag_60:\n      mload(0x40)\n      dup1\n      swap2\n      sub\n      swap1\n      return\n        /* \"contracts/DomainRegistry.sol\":11177:11672  function withdrawEth() public onlyOwner {... */\n    tag_12:\n      callvalue\n      dup1\n      iszero\n      tag_61\n      jumpi\n      0x00\n      dup1\n      revert\n    tag_61:\n      pop\n      tag_62\n      tag_63\n      jump\t// in\n    tag_62:\n      stop\n        /* \"contracts/DomainRegistry.sol\":10788:11007  function changePrice(uint256 newPrice)... */\n    tag_13:\n      callvalue\n      dup1\n      iszero\n      tag_64\n      jumpi\n      0x00\n      dup1\n      revert\n    tag_64:\n      pop\n      tag_65\n      0x04\n      dup1\n      calldatasize\n      sub\n      dup2\n      add\n      swap1\n      tag_66\n      swap2\n      swap1\n      tag_67\n      jump\t// in\n    tag_66:\n      tag_68\n      jump\t// in\n    tag_65:\n      stop\n        /* \"contracts/DomainRegistry.sol\":7377:7708  function initialize(... */\n    tag_14:\n      callvalue\n      dup1\n      iszero\n      tag_69\n      jumpi\n      0x00\n      dup1\n      revert\n    tag_69:\n      pop\n      tag_70\n      0x04\n      dup1\n      calldatasize\n      sub\n      dup2\n      add\n      swap1\n      tag_71\n      swap2\n      swap1\n      tag_72\n      jump\t// in\n    tag_71:\n      tag_73\n      jump\t// in\n    tag_70:\n      stop\n        /* \"@openzeppelin/contracts-upgradeable/access/OwnableUpgradeable.sol\":3405:3620  function transferOwnership(address newOwner) public virtual onlyOwner {... */\n    tag_15:\n      callvalue\n      dup1\n      iszero\n      tag_74\n      jumpi\n      0x00\n      dup1\n      revert\n    tag_74:\n      pop\n      tag_75\n      0x04\n      dup1\n      calldatasize\n      sub\n      dup2\n      add\n      swap1\n      tag_76\n      swap2\n      swap1\n      tag_77\n      jump\t// in\n    tag_76:\n      tag_78\n      jump\t// in\n    tag_75:\n      stop\n        /* \"contracts/DomainRegistry.sol\":10317:10666  function buyDomainViaUsdc(string calldata domain)... */\n    tag_16:\n      tag_79\n      0x04\n      dup1\n      calldatasize\n      sub\n      dup2\n      add\n      swap1\n      tag_80\n      swap2\n      swap1\n      tag_24\n      jump\t// in\n    tag_80:\n      tag_81\n      jump\t// in\n    tag_79:\n      stop\n        /* \"contracts/DomainRegistry.sol\":15389:15669  function _getEthToUsdPriceFromOracle()... */\n    tag_17:\n      callvalue\n      dup1\n      iszero\n      tag_82\n      jumpi\n      0x00\n      dup1\n      revert\n    tag_82:\n      pop\n      tag_83\n      tag_84\n      jump\t// in\n    tag_83:\n      mload(0x40)\n      tag_85\n      swap2\n      swap1\n      tag_40\n      jump\t// in\n    tag_85:\n      mload(0x40)\n      dup1\n      swap2\n      sub\n      swap1\n      return\n        /* \"contracts/DomainRegistry.sol\":11843:12205  function withdrawUsdc() public onlyOwner {... */\n    tag_18:\n      callvalue\n      dup1\n      iszero\n      tag_86\n      jumpi\n      0x00\n      dup1\n      revert\n    tag_86:\n      pop\n      tag_87\n      tag_88\n      jump\t// in\n    tag_87:\n      stop\n        /* \"contracts/DomainRegistry.sol\":9960:10226  function buyDomainViaEth(string calldata domain)... */\n    tag_25:\n        /* \"contracts/DomainRegistry.sol\":6178:6194  uint256 ethPrice */\n      0x00\n        /* \"contracts/DomainRegistry.sol\":6197:6224  getRegistrationPriceInEth() */\n      tag_90\n        /* \"contracts/DomainRegistry.sol\":6197:6222  getRegistrationPriceInEth */\n      tag_38\n        /* \"contracts/DomainRegistry.sol\":6197:6224  getRegistrationPriceInEth() */\n      jump\t// in\n    tag_90:\n        /* \"contracts/DomainRegistry.sol\":6178:6224  uint256 ethPrice = getRegistrationPriceInEth() */\n      swap1\n      pop\n        /* \"contracts/DomainRegistry.sol\":6252:6260  ethPrice */\n      dup1\n        /* \"contracts/DomainRegistry.sol\":6239:6248  msg.value */\n      callvalue\n        /* \"contracts/DomainRegistry.sol\":6239:6260  msg.value != ethPrice */\n      eq\n        /* \"contracts/DomainRegistry.sol\":6235:6414  if (msg.value != ethPrice) {... */\n      tag_91\n      jumpi\n        /* \"contracts/DomainRegistry.sol\":6337:6346  msg.value */\n      callvalue\n        /* \"contracts/DomainRegistry.sol\":6380:6388  ethPrice */\n      dup2\n        /* \"contracts/DomainRegistry.sol\":6283:6403  IncorrectValueAmount({... */\n      mload(0x40)\n      0xbe7b9d4d00000000000000000000000000000000000000000000000000000000\n      dup2\n      mstore\n      0x04\n      add\n      tag_92\n      swap3\n      swap2\n      swap1\n      tag_93\n      jump\t// in\n    tag_92:\n      mload(0x40)\n      dup1\n      swap2\n      sub\n      swap1\n      revert\n        /* \"contracts/DomainRegistry.sol\":6235:6414  if (msg.value != ethPrice) {... */\n    tag_91:\n        /* \"contracts/DomainRegistry.sol\":10094:10100  domain */\n      dup3\n      dup3\n        /* \"contracts/DomainRegistry.sol\":7150:7151  0 */\n      0x00\n        /* \"contracts/DomainRegistry.sol\":7100:7152  _getDomainStorage().domainList[domain] != address(0) */\n      0xffffffffffffffffffffffffffffffffffffffff\n      and\n        /* \"contracts/DomainRegistry.sol\":7100:7119  _getDomainStorage() */\n      tag_95\n        /* \"contracts/DomainRegistry.sol\":7100:7117  _getDomainStorage */\n      tag_96\n        /* \"contracts/DomainRegistry.sol\":7100:7119  _getDomainStorage() */\n      jump\t// in\n    tag_95:\n        /* \"contracts/DomainRegistry.sol\":7100:7130  _getDomainStorage().domainList */\n      0x01\n      add\n        /* \"contracts/DomainRegistry.sol\":7131:7137  domain */\n      dup4\n      dup4\n        /* \"contracts/DomainRegistry.sol\":7100:7138  _getDomainStorage().domainList[domain] */\n      mload(0x40)\n      tag_97\n      swap3\n      swap2\n      swap1\n      tag_98\n      jump\t// in\n    tag_97:\n      swap1\n      dup2\n      mstore\n      0x20\n      add\n      mload(0x40)\n      dup1\n      swap2\n      sub\n      swap1\n      keccak256\n      0x00\n      swap1\n      sload\n      swap1\n      0x0100\n      exp\n      swap1\n      div\n      0xffffffffffffffffffffffffffffffffffffffff\n      and\n        /* \"contracts/DomainRegistry.sol\":7100:7152  _getDomainStorage().domainList[domain] != address(0) */\n      0xffffffffffffffffffffffffffffffffffffffff\n      and\n      eq\n        /* \"contracts/DomainRegistry.sol\":7096:7206  if (_getDomainStorage().domainList[domain] != address(0)) {... */\n      tag_99\n      jumpi\n        /* \"contracts/DomainRegistry.sol\":7175:7195  DomainAlreadyTaken() */\n      mload(0x40)\n      0xc5e8402d00000000000000000000000000000000000000000000000000000000\n      dup2\n      mstore\n      0x04\n      add\n      mload(0x40)\n      dup1\n      swap2\n      sub\n      swap1\n      revert\n        /* \"contracts/DomainRegistry.sol\":7096:7206  if (_getDomainStorage().domainList[domain] != address(0)) {... */\n    tag_99:\n        /* \"contracts/DomainRegistry.sol\":10157:10167  msg.sender */\n      caller\n        /* \"contracts/DomainRegistry.sol\":10116:10135  _getDomainStorage() */\n      tag_101\n        /* \"contracts/DomainRegistry.sol\":10116:10133  _getDomainStorage */\n      tag_96\n        /* \"contracts/DomainRegistry.sol\":10116:10135  _getDomainStorage() */\n      jump\t// in\n    tag_101:\n        /* \"contracts/DomainRegistry.sol\":10116:10146  _getDomainStorage().domainList */\n      0x01\n      add\n        /* \"contracts/DomainRegistry.sol\":10147:10153  domain */\n      dup7\n      dup7\n        /* \"contracts/DomainRegistry.sol\":10116:10154  _getDomainStorage().domainList[domain] */\n      mload(0x40)\n      tag_102\n      swap3\n      swap2\n      swap1\n      tag_98\n      jump\t// in\n    tag_102:\n      swap1\n      dup2\n      mstore\n      0x20\n      add\n      mload(0x40)\n      dup1\n      swap2\n      sub\n      swap1\n      keccak256\n      0x00\n        /* \"contracts/DomainRegistry.sol\":10116:10167  _getDomainStorage().domainList[domain] = msg.sender */\n      0x0100\n      exp\n      dup2\n      sload\n      dup2\n      0xffffffffffffffffffffffffffffffffffffffff\n      mul\n      not\n      and\n      swap1\n      dup4\n      0xffffffffffffffffffffffffffffffffffffffff\n      and\n      mul\n      or\n      swap1\n      sstore\n      pop\n        /* \"contracts/DomainRegistry.sol\":10208:10218  msg.sender */\n      caller\n        /* \"contracts/DomainRegistry.sol\":10183:10219  DomainRegistered(domain, msg.sender) */\n      0xffffffffffffffffffffffffffffffffffffffff\n      and\n      0x70f2ff07e8136617cdfb0433423063c9dd697c507560d7860cce09fa86874a12\n        /* \"contracts/DomainRegistry.sol\":10200:10206  domain */\n      dup7\n      dup7\n        /* \"contracts/DomainRegistry.sol\":10183:10219  DomainRegistered(domain, msg.sender) */\n      mload(0x40)\n      tag_103\n      swap3\n      swap2\n      swap1\n      tag_104\n      jump\t// in\n    tag_103:\n      mload(0x40)\n      dup1\n      swap2\n      sub\n      swap1\n      log2\n        /* \"contracts/DomainRegistry.sol\":6423:6424  _ */\n      pop\n      pop\n        /* \"contracts/DomainRegistry.sol\":6168:6431  {... */\n      pop\n        /* \"contracts/DomainRegistry.sol\":9960:10226  function buyDomainViaEth(string calldata domain)... */\n      pop\n      pop\n      jump\t// out\n        /* \"contracts/DomainRegistry.sol\":9211:9870  function buyChildDomainViaUsdc(... */\n    tag_29:\n        /* \"contracts/DomainRegistry.sol\":6580:6597  uint256 allowance */\n      0x00\n        /* \"contracts/DomainRegistry.sol\":6600:6618  getUsdcAllowance() */\n      tag_106\n        /* \"contracts/DomainRegistry.sol\":6600:6616  getUsdcAllowance */\n      tag_107\n        /* \"contracts/DomainRegistry.sol\":6600:6618  getUsdcAllowance() */\n      jump\t// in\n    tag_106:\n        /* \"contracts/DomainRegistry.sol\":6580:6618  uint256 allowance = getUsdcAllowance() */\n      swap1\n      pop\n        /* \"contracts/DomainRegistry.sol\":6628:6654  uint256 _registrationPrice */\n      0x00\n        /* \"contracts/DomainRegistry.sol\":6657:6676  _getDomainStorage() */\n      tag_108\n        /* \"contracts/DomainRegistry.sol\":6657:6674  _getDomainStorage */\n      tag_96\n        /* \"contracts/DomainRegistry.sol\":6657:6676  _getDomainStorage() */\n      jump\t// in\n    tag_108:\n        /* \"contracts/DomainRegistry.sol\":6657:6707  _getDomainStorage()... */\n      0x00\n      add\n      sload\n        /* \"contracts/DomainRegistry.sol\":6628:6707  uint256 _registrationPrice = _getDomainStorage()... */\n      swap1\n      pop\n        /* \"contracts/DomainRegistry.sol\":6735:6753  _registrationPrice */\n      dup1\n        /* \"contracts/DomainRegistry.sol\":6722:6731  allowance */\n      dup3\n        /* \"contracts/DomainRegistry.sol\":6722:6753  allowance != _registrationPrice */\n      eq\n        /* \"contracts/DomainRegistry.sol\":6718:6914  if (allowance != _registrationPrice) {... */\n      tag_109\n      jumpi\n        /* \"contracts/DomainRegistry.sol\":6828:6837  allowance */\n      dup2\n        /* \"contracts/DomainRegistry.sol\":6870:6888  _registrationPrice */\n      dup2\n        /* \"contracts/DomainRegistry.sol\":6776:6903  IncorrectUsdcAmount({... */\n      mload(0x40)\n      0x035a0e0000000000000000000000000000000000000000000000000000000000\n      dup2\n      mstore\n      0x04\n      add\n      tag_110\n      swap3\n      swap2\n      swap1\n      tag_93\n      jump\t// in\n    tag_110:\n      mload(0x40)\n      dup1\n      swap2\n      sub\n      swap1\n      revert\n        /* \"contracts/DomainRegistry.sol\":6718:6914  if (allowance != _registrationPrice) {... */\n    tag_109:\n        /* \"contracts/DomainRegistry.sol\":9370:9390  string memory domain */\n      0x00\n        /* \"contracts/DomainRegistry.sol\":9393:9478  createAndCheckFullDomain(... */\n      tag_112\n        /* \"contracts/DomainRegistry.sol\":9431:9443  parentDomain */\n      dup8\n      dup8\n        /* \"contracts/DomainRegistry.sol\":9457:9468  childDomain */\n      dup8\n      dup8\n        /* \"contracts/DomainRegistry.sol\":9393:9417  createAndCheckFullDomain */\n      tag_113\n        /* \"contracts/DomainRegistry.sol\":9393:9478  createAndCheckFullDomain(... */\n      jump\t// in\n    tag_112:\n        /* \"contracts/DomainRegistry.sol\":9370:9478  string memory domain = createAndCheckFullDomain(... */\n      swap1\n      pop\n        /* \"contracts/DomainRegistry.sol\":9488:9505  uint256 allowance */\n      0x00\n        /* \"contracts/DomainRegistry.sol\":9508:9526  getUsdcAllowance() */\n      tag_114\n        /* \"contracts/DomainRegistry.sol\":9508:9524  getUsdcAllowance */\n      tag_107\n        /* \"contracts/DomainRegistry.sol\":9508:9526  getUsdcAllowance() */\n      jump\t// in\n    tag_114:\n        /* \"contracts/DomainRegistry.sol\":9488:9526  uint256 allowance = getUsdcAllowance() */\n      swap1\n      pop\n        /* \"contracts/DomainRegistry.sol\":9537:9560  transferUsdc(allowance) */\n      tag_115\n        /* \"contracts/DomainRegistry.sol\":9550:9559  allowance */\n      dup2\n        /* \"contracts/DomainRegistry.sol\":9537:9549  transferUsdc */\n      tag_116\n        /* \"contracts/DomainRegistry.sol\":9537:9560  transferUsdc(allowance) */\n      jump\t// in\n    tag_115:\n        /* \"contracts/DomainRegistry.sol\":9612:9622  msg.sender */\n      caller\n        /* \"contracts/DomainRegistry.sol\":9571:9590  _getDomainStorage() */\n      tag_117\n        /* \"contracts/DomainRegistry.sol\":9571:9588  _getDomainStorage */\n      tag_96\n        /* \"contracts/DomainRegistry.sol\":9571:9590  _getDomainStorage() */\n      jump\t// in\n    tag_117:\n        /* \"contracts/DomainRegistry.sol\":9571:9601  _getDomainStorage().domainList */\n      0x01\n      add\n        /* \"contracts/DomainRegistry.sol\":9602:9608  domain */\n      dup4\n        /* \"contracts/DomainRegistry.sol\":9571:9609  _getDomainStorage().domainList[domain] */\n      mload(0x40)\n      tag_118\n      swap2\n      swap1\n      tag_119\n      jump\t// in\n    tag_118:\n      swap1\n      dup2\n      mstore\n      0x20\n      add\n      mload(0x40)\n      dup1\n      swap2\n      sub\n      swap1\n      keccak256\n      0x00\n        /* \"contracts/DomainRegistry.sol\":9571:9622  _getDomainStorage().domainList[domain] = msg.sender */\n      0x0100\n      exp\n      dup2\n      sload\n      dup2\n      0xffffffffffffffffffffffffffffffffffffffff\n      mul\n      not\n      and\n      swap1\n      dup4\n      0xffffffffffffffffffffffffffffffffffffffff\n      and\n      mul\n      or\n      swap1\n      sstore\n      pop\n        /* \"contracts/DomainRegistry.sol\":9672:9681  allowance */\n      dup1\n        /* \"contracts/DomainRegistry.sol\":9633:9654  _getUsdcFundStorage() */\n      tag_120\n        /* \"contracts/DomainRegistry.sol\":9633:9652  _getUsdcFundStorage */\n      tag_121\n        /* \"contracts/DomainRegistry.sol\":9633:9654  _getUsdcFundStorage() */\n      jump\t// in\n    tag_120:\n        /* \"contracts/DomainRegistry.sol\":9633:9668  _getUsdcFundStorage().frozenBalance */\n      0x00\n      add\n      0x00\n        /* \"contracts/DomainRegistry.sol\":9633:9681  _getUsdcFundStorage().frozenBalance += allowance */\n      dup3\n      dup3\n      sload\n      tag_122\n      swap2\n      swap1\n      tag_123\n      jump\t// in\n    tag_122:\n      swap3\n      pop\n      pop\n      dup2\n      swap1\n      sstore\n      pop\n        /* \"contracts/DomainRegistry.sol\":9802:9811  allowance */\n      dup1\n        /* \"contracts/DomainRegistry.sol\":9691:9712  _getUsdcFundStorage() */\n      tag_124\n        /* \"contracts/DomainRegistry.sol\":9691:9710  _getUsdcFundStorage */\n      tag_121\n        /* \"contracts/DomainRegistry.sol\":9691:9712  _getUsdcFundStorage() */\n      jump\t// in\n    tag_124:\n        /* \"contracts/DomainRegistry.sol\":9691:9730  _getUsdcFundStorage().domainOwnersFunds */\n      0x01\n      add\n        /* \"contracts/DomainRegistry.sol\":9691:9798  _getUsdcFundStorage().domainOwnersFunds[... */\n      0x00\n        /* \"contracts/DomainRegistry.sol\":9744:9763  _getDomainStorage() */\n      tag_125\n        /* \"contracts/DomainRegistry.sol\":9744:9761  _getDomainStorage */\n      tag_96\n        /* \"contracts/DomainRegistry.sol\":9744:9763  _getDomainStorage() */\n      jump\t// in\n    tag_125:\n        /* \"contracts/DomainRegistry.sol\":9744:9774  _getDomainStorage().domainList */\n      0x01\n      add\n        /* \"contracts/DomainRegistry.sol\":9775:9787  parentDomain */\n      dup12\n      dup12\n        /* \"contracts/DomainRegistry.sol\":9744:9788  _getDomainStorage().domainList[parentDomain] */\n      mload(0x40)\n      tag_126\n      swap3\n      swap2\n      swap1\n      tag_98\n      jump\t// in\n    tag_126:\n      swap1\n      dup2\n      mstore\n      0x20\n      add\n      mload(0x40)\n      dup1\n      swap2\n      sub\n      swap1\n      keccak256\n      0x00\n      swap1\n      sload\n      swap1\n      0x0100\n      exp\n      swap1\n      div\n      0xffffffffffffffffffffffffffffffffffffffff\n      and\n        /* \"contracts/DomainRegistry.sol\":9691:9798  _getUsdcFundStorage().domainOwnersFunds[... */\n      0xffffffffffffffffffffffffffffffffffffffff\n      and\n      0xffffffffffffffffffffffffffffffffffffffff\n      and\n      dup2\n      mstore\n      0x20\n      add\n      swap1\n      dup2\n      mstore\n      0x20\n      add\n      0x00\n      keccak256\n      0x00\n        /* \"contracts/DomainRegistry.sol\":9691:9811  _getUsdcFundStorage().domainOwnersFunds[... */\n      dup3\n      dup3\n      sload\n      tag_127\n      swap2\n      swap1\n      tag_123\n      jump\t// in\n    tag_127:\n      swap3\n      pop\n      pop\n      dup2\n      swap1\n      sstore\n      pop\n        /* \"contracts/DomainRegistry.sol\":9852:9862  msg.sender */\n      caller\n        /* \"contracts/DomainRegistry.sol\":9827:9863  DomainRegistered(domain, msg.sender) */\n      0xffffffffffffffffffffffffffffffffffffffff\n      and\n      0x70f2ff07e8136617cdfb0433423063c9dd697c507560d7860cce09fa86874a12\n        /* \"contracts/DomainRegistry.sol\":9844:9850  domain */\n      dup4\n        /* \"contracts/DomainRegistry.sol\":9827:9863  DomainRegistered(domain, msg.sender) */\n      mload(0x40)\n      tag_128\n      swap2\n      swap1\n      tag_129\n      jump\t// in\n    tag_128:\n      mload(0x40)\n      dup1\n      swap2\n      sub\n      swap1\n      log2\n        /* \"contracts/DomainRegistry.sol\":9360:9870  {... */\n      pop\n      pop\n        /* \"contracts/DomainRegistry.sol\":6570:6931  {... */\n      pop\n      pop\n        /* \"contracts/DomainRegistry.sol\":9211:9870  function buyChildDomainViaUsdc(... */\n      pop\n      pop\n      pop\n      pop\n      jump\t// out\n        /* \"contracts/DomainRegistry.sol\":8239:8407  function getDomainOwner(string calldata domain)... */\n    tag_33:\n        /* \"contracts/DomainRegistry.sol\":8332:8339  address */\n      0x00\n        /* \"contracts/DomainRegistry.sol\":8362:8381  _getDomainStorage() */\n      tag_131\n        /* \"contracts/DomainRegistry.sol\":8362:8379  _getDomainStorage */\n      tag_96\n        /* \"contracts/DomainRegistry.sol\":8362:8381  _getDomainStorage() */\n      jump\t// in\n    tag_131:\n        /* \"contracts/DomainRegistry.sol\":8362:8392  _getDomainStorage().domainList */\n      0x01\n      add\n        /* \"contracts/DomainRegistry.sol\":8393:8399  domain */\n      dup4\n      dup4\n        /* \"contracts/DomainRegistry.sol\":8362:8400  _getDomainStorage().domainList[domain] */\n      mload(0x40)\n      tag_132\n      swap3\n      swap2\n      swap1\n      tag_98\n      jump\t// in\n    tag_132:\n      swap1\n      dup2\n      mstore\n      0x20\n      add\n      mload(0x40)\n      dup1\n      swap2\n      sub\n      swap1\n      keccak256\n      0x00\n      swap1\n      sload\n      swap1\n      0x0100\n      exp\n      swap1\n      div\n      0xffffffffffffffffffffffffffffffffffffffff\n      and\n        /* \"contracts/DomainRegistry.sol\":8355:8400  return _getDomainStorage().domainList[domain] */\n      swap1\n      pop\n        /* \"contracts/DomainRegistry.sol\":8239:8407  function getDomainOwner(string calldata domain)... */\n      swap3\n      swap2\n      pop\n      pop\n      jump\t// out\n        /* \"contracts/DomainRegistry.sol\":7768:7976  function getRegistrationPriceInEth()... */\n    tag_38:\n        /* \"contracts/DomainRegistry.sol\":7850:7857  uint256 */\n      0x00\n        /* \"contracts/DomainRegistry.sol\":7940:7969  _getEthToUsdPriceFromOracle() */\n      tag_134\n        /* \"contracts/DomainRegistry.sol\":7940:7967  _getEthToUsdPriceFromOracle */\n      tag_84\n        /* \"contracts/DomainRegistry.sol\":7940:7969  _getEthToUsdPriceFromOracle() */\n      jump\t// in\n    tag_134:\n        /* \"contracts/DomainRegistry.sol\":7929:7936  1 ether */\n      0x0de0b6b3a7640000\n        /* \"contracts/DomainRegistry.sol\":7921:7926  10**2 */\n      0x64\n        /* \"contracts/DomainRegistry.sol\":7881:7900  _getDomainStorage() */\n      tag_135\n        /* \"contracts/DomainRegistry.sol\":7881:7898  _getDomainStorage */\n      tag_96\n        /* \"contracts/DomainRegistry.sol\":7881:7900  _getDomainStorage() */\n      jump\t// in\n    tag_135:\n        /* \"contracts/DomainRegistry.sol\":7881:7918  _getDomainStorage().registrationPrice */\n      0x00\n      add\n      sload\n        /* \"contracts/DomainRegistry.sol\":7881:7926  _getDomainStorage().registrationPrice * 10**2 */\n      tag_136\n      swap2\n      swap1\n      tag_137\n      jump\t// in\n    tag_136:\n        /* \"contracts/DomainRegistry.sol\":7881:7936  _getDomainStorage().registrationPrice * 10**2 * 1 ether */\n      tag_138\n      swap2\n      swap1\n      tag_137\n      jump\t// in\n    tag_138:\n        /* \"contracts/DomainRegistry.sol\":7880:7969  (_getDomainStorage().registrationPrice * 10**2 * 1 ether) / _getEthToUsdPriceFromOracle() */\n      tag_139\n      swap2\n      swap1\n      tag_140\n      jump\t// in\n    tag_139:\n        /* \"contracts/DomainRegistry.sol\":7873:7969  return (_getDomainStorage().registrationPrice * 10**2 * 1 ether) / _getEthToUsdPriceFromOracle() */\n      swap1\n      pop\n        /* \"contracts/DomainRegistry.sol\":7768:7976  function getRegistrationPriceInEth()... */\n      swap1\n      jump\t// out\n        /* \"contracts/DomainRegistry.sol\":8636:9205  function buyChildDomainViaEth(... */\n    tag_43:\n        /* \"contracts/DomainRegistry.sol\":6178:6194  uint256 ethPrice */\n      0x00\n        /* \"contracts/DomainRegistry.sol\":6197:6224  getRegistrationPriceInEth() */\n      tag_142\n        /* \"contracts/DomainRegistry.sol\":6197:6222  getRegistrationPriceInEth */\n      tag_38\n        /* \"contracts/DomainRegistry.sol\":6197:6224  getRegistrationPriceInEth() */\n      jump\t// in\n    tag_142:\n        /* \"contracts/DomainRegistry.sol\":6178:6224  uint256 ethPrice = getRegistrationPriceInEth() */\n      swap1\n      pop\n        /* \"contracts/DomainRegistry.sol\":6252:6260  ethPrice */\n      dup1\n        /* \"contracts/DomainRegistry.sol\":6239:6248  msg.value */\n      callvalue\n        /* \"contracts/DomainRegistry.sol\":6239:6260  msg.value != ethPrice */\n      eq\n        /* \"contracts/DomainRegistry.sol\":6235:6414  if (msg.value != ethPrice) {... */\n      tag_143\n      jumpi\n        /* \"contracts/DomainRegistry.sol\":6337:6346  msg.value */\n      callvalue\n        /* \"contracts/DomainRegistry.sol\":6380:6388  ethPrice */\n      dup2\n        /* \"contracts/DomainRegistry.sol\":6283:6403  IncorrectValueAmount({... */\n      mload(0x40)\n      0xbe7b9d4d00000000000000000000000000000000000000000000000000000000\n      dup2\n      mstore\n      0x04\n      add\n      tag_144\n      swap3\n      swap2\n      swap1\n      tag_93\n      jump\t// in\n    tag_144:\n      mload(0x40)\n      dup1\n      swap2\n      sub\n      swap1\n      revert\n        /* \"contracts/DomainRegistry.sol\":6235:6414  if (msg.value != ethPrice) {... */\n    tag_143:\n        /* \"contracts/DomainRegistry.sol\":8795:8815  string memory domain */\n      0x00\n        /* \"contracts/DomainRegistry.sol\":8818:8903  createAndCheckFullDomain(... */\n      tag_146\n        /* \"contracts/DomainRegistry.sol\":8856:8868  parentDomain */\n      dup7\n      dup7\n        /* \"contracts/DomainRegistry.sol\":8882:8893  childDomain */\n      dup7\n      dup7\n        /* \"contracts/DomainRegistry.sol\":8818:8842  createAndCheckFullDomain */\n      tag_113\n        /* \"contracts/DomainRegistry.sol\":8818:8903  createAndCheckFullDomain(... */\n      jump\t// in\n    tag_146:\n        /* \"contracts/DomainRegistry.sol\":8795:8903  string memory domain = createAndCheckFullDomain(... */\n      swap1\n      pop\n        /* \"contracts/DomainRegistry.sol\":8955:8965  msg.sender */\n      caller\n        /* \"contracts/DomainRegistry.sol\":8914:8933  _getDomainStorage() */\n      tag_147\n        /* \"contracts/DomainRegistry.sol\":8914:8931  _getDomainStorage */\n      tag_96\n        /* \"contracts/DomainRegistry.sol\":8914:8933  _getDomainStorage() */\n      jump\t// in\n    tag_147:\n        /* \"contracts/DomainRegistry.sol\":8914:8944  _getDomainStorage().domainList */\n      0x01\n      add\n        /* \"contracts/DomainRegistry.sol\":8945:8951  domain */\n      dup3\n        /* \"contracts/DomainRegistry.sol\":8914:8952  _getDomainStorage().domainList[domain] */\n      mload(0x40)\n      tag_148\n      swap2\n      swap1\n      tag_119\n      jump\t// in\n    tag_148:\n      swap1\n      dup2\n      mstore\n      0x20\n      add\n      mload(0x40)\n      dup1\n      swap2\n      sub\n      swap1\n      keccak256\n      0x00\n        /* \"contracts/DomainRegistry.sol\":8914:8965  _getDomainStorage().domainList[domain] = msg.sender */\n      0x0100\n      exp\n      dup2\n      sload\n      dup2\n      0xffffffffffffffffffffffffffffffffffffffff\n      mul\n      not\n      and\n      swap1\n      dup4\n      0xffffffffffffffffffffffffffffffffffffffff\n      and\n      mul\n      or\n      swap1\n      sstore\n      pop\n        /* \"contracts/DomainRegistry.sol\":9011:9020  msg.value */\n      callvalue\n        /* \"contracts/DomainRegistry.sol\":8976:8993  _getFundStorage() */\n      tag_149\n        /* \"contracts/DomainRegistry.sol\":8976:8991  _getFundStorage */\n      tag_150\n        /* \"contracts/DomainRegistry.sol\":8976:8993  _getFundStorage() */\n      jump\t// in\n    tag_149:\n        /* \"contracts/DomainRegistry.sol\":8976:9007  _getFundStorage().frozenBalance */\n      0x00\n      add\n      0x00\n        /* \"contracts/DomainRegistry.sol\":8976:9020  _getFundStorage().frozenBalance += msg.value */\n      dup3\n      dup3\n      sload\n      tag_151\n      swap2\n      swap1\n      tag_123\n      jump\t// in\n    tag_151:\n      swap3\n      pop\n      pop\n      dup2\n      swap1\n      sstore\n      pop\n        /* \"contracts/DomainRegistry.sol\":9137:9146  msg.value */\n      callvalue\n        /* \"contracts/DomainRegistry.sol\":9030:9047  _getFundStorage() */\n      tag_152\n        /* \"contracts/DomainRegistry.sol\":9030:9045  _getFundStorage */\n      tag_150\n        /* \"contracts/DomainRegistry.sol\":9030:9047  _getFundStorage() */\n      jump\t// in\n    tag_152:\n        /* \"contracts/DomainRegistry.sol\":9030:9065  _getFundStorage().domainOwnersFunds */\n      0x01\n      add\n        /* \"contracts/DomainRegistry.sol\":9030:9133  _getFundStorage().domainOwnersFunds[... */\n      0x00\n        /* \"contracts/DomainRegistry.sol\":9079:9098  _getDomainStorage() */\n      tag_153\n        /* \"contracts/DomainRegistry.sol\":9079:9096  _getDomainStorage */\n      tag_96\n        /* \"contracts/DomainRegistry.sol\":9079:9098  _getDomainStorage() */\n      jump\t// in\n    tag_153:\n        /* \"contracts/DomainRegistry.sol\":9079:9109  _getDomainStorage().domainList */\n      0x01\n      add\n        /* \"contracts/DomainRegistry.sol\":9110:9122  parentDomain */\n      dup10\n      dup10\n        /* \"contracts/DomainRegistry.sol\":9079:9123  _getDomainStorage().domainList[parentDomain] */\n      mload(0x40)\n      tag_154\n      swap3\n      swap2\n      swap1\n      tag_98\n      jump\t// in\n    tag_154:\n      swap1\n      dup2\n      mstore\n      0x20\n      add\n      mload(0x40)\n      dup1\n      swap2\n      sub\n      swap1\n      keccak256\n      0x00\n      swap1\n      sload\n      swap1\n      0x0100\n      exp\n      swap1\n      div\n      0xffffffffffffffffffffffffffffffffffffffff\n      and\n        /* \"contracts/DomainRegistry.sol\":9030:9133  _getFundStorage().domainOwnersFunds[... */\n      0xffffffffffffffffffffffffffffffffffffffff\n      and\n      0xffffffffffffffffffffffffffffffffffffffff\n      and\n      dup2\n      mstore\n      0x20\n      add\n      swap1\n      dup2\n      mstore\n      0x20\n      add\n      0x00\n      keccak256\n      0x00\n        /* \"contracts/DomainRegistry.sol\":9030:9146  _getFundStorage().domainOwnersFunds[... */\n      dup3\n      dup3\n      sload\n      tag_155\n      swap2\n      swap1\n      tag_123\n      jump\t// in\n    tag_155:\n      swap3\n      pop\n      pop\n      dup2\n      swap1\n      sstore\n      pop\n        /* \"contracts/DomainRegistry.sol\":9187:9197  msg.sender */\n      caller\n        /* \"contracts/DomainRegistry.sol\":9162:9198  DomainRegistered(domain, msg.sender) */\n      0xffffffffffffffffffffffffffffffffffffffff\n      and\n      0x70f2ff07e8136617cdfb0433423063c9dd697c507560d7860cce09fa86874a12\n        /* \"contracts/DomainRegistry.sol\":9179:9185  domain */\n      dup3\n        /* \"contracts/DomainRegistry.sol\":9162:9198  DomainRegistered(domain, msg.sender) */\n      mload(0x40)\n      tag_156\n      swap2\n      swap1\n      tag_129\n      jump\t// in\n    tag_156:\n      mload(0x40)\n      dup1\n      swap2\n      sub\n      swap1\n      log2\n        /* \"contracts/DomainRegistry.sol\":8785:9205  {... */\n      pop\n        /* \"contracts/DomainRegistry.sol\":6168:6431  {... */\n      pop\n        /* \"contracts/DomainRegistry.sol\":8636:9205  function buyChildDomainViaEth(... */\n      pop\n      pop\n      pop\n      pop\n      jump\t// out\n        /* \"contracts/DomainRegistry.sol\":12556:13252  function withdrawDomainEth() public {... */\n    tag_46:\n        /* \"contracts/DomainRegistry.sol\":12657:12658  0 */\n      0x00\n        /* \"contracts/DomainRegistry.sol\":12606:12623  _getFundStorage() */\n      tag_158\n        /* \"contracts/DomainRegistry.sol\":12606:12621  _getFundStorage */\n      tag_150\n        /* \"contracts/DomainRegistry.sol\":12606:12623  _getFundStorage() */\n      jump\t// in\n    tag_158:\n        /* \"contracts/DomainRegistry.sol\":12606:12641  _getFundStorage().domainOwnersFunds */\n      0x01\n      add\n        /* \"contracts/DomainRegistry.sol\":12606:12653  _getFundStorage().domainOwnersFunds[msg.sender] */\n      0x00\n        /* \"contracts/DomainRegistry.sol\":12642:12652  msg.sender */\n      caller\n        /* \"contracts/DomainRegistry.sol\":12606:12653  _getFundStorage().domainOwnersFunds[msg.sender] */\n      0xffffffffffffffffffffffffffffffffffffffff\n      and\n      0xffffffffffffffffffffffffffffffffffffffff\n      and\n      dup2\n      mstore\n      0x20\n      add\n      swap1\n      dup2\n      mstore\n      0x20\n      add\n      0x00\n      keccak256\n      sload\n        /* \"contracts/DomainRegistry.sol\":12606:12658  _getFundStorage().domainOwnersFunds[msg.sender] == 0 */\n      sub\n        /* \"contracts/DomainRegistry.sol\":12602:12721  if (_getFundStorage().domainOwnersFunds[msg.sender] == 0) {... */\n      tag_159\n      jumpi\n        /* \"contracts/DomainRegistry.sol\":12699:12709  msg.sender */\n      caller\n        /* \"contracts/DomainRegistry.sol\":12681:12710  NothingToWithdraw(msg.sender) */\n      mload(0x40)\n      0xdc69dc1600000000000000000000000000000000000000000000000000000000\n      dup2\n      mstore\n      0x04\n      add\n      tag_160\n      swap2\n      swap1\n      tag_35\n      jump\t// in\n    tag_160:\n      mload(0x40)\n      dup1\n      swap2\n      sub\n      swap1\n      revert\n        /* \"contracts/DomainRegistry.sol\":12602:12721  if (_getFundStorage().domainOwnersFunds[msg.sender] == 0) {... */\n    tag_159:\n        /* \"contracts/DomainRegistry.sol\":12732:12741  bool sent */\n      0x00\n        /* \"contracts/DomainRegistry.sol\":12743:12760  bytes memory data */\n      dup1\n        /* \"contracts/DomainRegistry.sol\":12772:12782  msg.sender */\n      caller\n        /* \"contracts/DomainRegistry.sol\":12764:12788  payable(msg.sender).call */\n      0xffffffffffffffffffffffffffffffffffffffff\n      and\n        /* \"contracts/DomainRegistry.sol\":12809:12826  _getFundStorage() */\n      tag_161\n        /* \"contracts/DomainRegistry.sol\":12809:12824  _getFundStorage */\n      tag_150\n        /* \"contracts/DomainRegistry.sol\":12809:12826  _getFundStorage() */\n      jump\t// in\n    tag_161:\n        /* \"contracts/DomainRegistry.sol\":12809:12844  _getFundStorage().domainOwnersFunds */\n      0x01\n      add\n        /* \"contracts/DomainRegistry.sol\":12809:12856  _getFundStorage().domainOwnersFunds[msg.sender] */\n      0x00\n        /* \"contracts/DomainRegistry.sol\":12845:12855  msg.sender */\n      caller\n        /* \"contracts/DomainRegistry.sol\":12809:12856  _getFundStorage().domainOwnersFunds[msg.sender] */\n      0xffffffffffffffffffffffffffffffffffffffff\n      and\n      0xffffffffffffffffffffffffffffffffffffffff\n      and\n      dup2\n      mstore\n      0x20\n      add\n      swap1\n      dup2\n      mstore\n      0x20\n      add\n      0x00\n      keccak256\n      sload\n        /* \"contracts/DomainRegistry.sol\":12764:12870  payable(msg.sender).call{... */\n      mload(0x40)\n      tag_162\n      swap1\n      tag_163\n      jump\t// in\n    tag_162:\n      0x00\n      mload(0x40)\n      dup1\n      dup4\n      sub\n      dup2\n      dup6\n      dup8\n      gas\n      call\n      swap3\n      pop\n      pop\n      pop\n      returndatasize\n      dup1\n      0x00\n      dup2\n      eq\n      tag_166\n      jumpi\n      mload(0x40)\n      swap2\n      pop\n      and(add(returndatasize, 0x3f), not(0x1f))\n      dup3\n      add\n      0x40\n      mstore\n      returndatasize\n      dup3\n      mstore\n      returndatasize\n      0x00\n      0x20\n      dup5\n      add\n      returndatacopy\n      jump(tag_165)\n    tag_166:\n      0x60\n      swap2\n      pop\n    tag_165:\n      pop\n        /* \"contracts/DomainRegistry.sol\":12731:12870  (bool sent, bytes memory data) = payable(msg.sender).call{... */\n      swap2\n      pop\n      swap2\n      pop\n        /* \"contracts/DomainRegistry.sol\":12886:12890  sent */\n      dup2\n        /* \"contracts/DomainRegistry.sol\":12881:12958  if (!sent) {... */\n      tag_167\n      jumpi\n        /* \"contracts/DomainRegistry.sol\":12930:12940  msg.sender */\n      caller\n        /* \"contracts/DomainRegistry.sol\":12942:12946  data */\n      dup2\n        /* \"contracts/DomainRegistry.sol\":12913:12947  FailedToWithdraw(msg.sender, data) */\n      mload(0x40)\n      0x7824688c00000000000000000000000000000000000000000000000000000000\n      dup2\n      mstore\n      0x04\n      add\n      tag_168\n      swap3\n      swap2\n      swap1\n      tag_169\n      jump\t// in\n    tag_168:\n      mload(0x40)\n      dup1\n      swap2\n      sub\n      swap1\n      revert\n        /* \"contracts/DomainRegistry.sol\":12881:12958  if (!sent) {... */\n    tag_167:\n        /* \"contracts/DomainRegistry.sol\":13003:13020  _getFundStorage() */\n      tag_170\n        /* \"contracts/DomainRegistry.sol\":13003:13018  _getFundStorage */\n      tag_150\n        /* \"contracts/DomainRegistry.sol\":13003:13020  _getFundStorage() */\n      jump\t// in\n    tag_170:\n        /* \"contracts/DomainRegistry.sol\":13003:13051  _getFundStorage()... */\n      0x01\n      add\n        /* \"contracts/DomainRegistry.sol\":13003:13063  _getFundStorage()... */\n      0x00\n        /* \"contracts/DomainRegistry.sol\":13052:13062  msg.sender */\n      caller\n        /* \"contracts/DomainRegistry.sol\":13003:13063  _getFundStorage()... */\n      0xffffffffffffffffffffffffffffffffffffffff\n      and\n      0xffffffffffffffffffffffffffffffffffffffff\n      and\n      dup2\n      mstore\n      0x20\n      add\n      swap1\n      dup2\n      mstore\n      0x20\n      add\n      0x00\n      keccak256\n      sload\n        /* \"contracts/DomainRegistry.sol\":12968:12985  _getFundStorage() */\n      tag_171\n        /* \"contracts/DomainRegistry.sol\":12968:12983  _getFundStorage */\n      tag_150\n        /* \"contracts/DomainRegistry.sol\":12968:12985  _getFundStorage() */\n      jump\t// in\n    tag_171:\n        /* \"contracts/DomainRegistry.sol\":12968:12999  _getFundStorage().frozenBalance */\n      0x00\n      add\n      0x00\n        /* \"contracts/DomainRegistry.sol\":12968:13063  _getFundStorage().frozenBalance -= _getFundStorage()... */\n      dup3\n      dup3\n      sload\n      tag_172\n      swap2\n      swap1\n      tag_173\n      jump\t// in\n    tag_172:\n      swap3\n      pop\n      pop\n      dup2\n      swap1\n      sstore\n      pop\n        /* \"contracts/DomainRegistry.sol\":13123:13124  0 */\n      0x00\n        /* \"contracts/DomainRegistry.sol\":13073:13090  _getFundStorage() */\n      tag_174\n        /* \"contracts/DomainRegistry.sol\":13073:13088  _getFundStorage */\n      tag_150\n        /* \"contracts/DomainRegistry.sol\":13073:13090  _getFundStorage() */\n      jump\t// in\n    tag_174:\n        /* \"contracts/DomainRegistry.sol\":13073:13108  _getFundStorage().domainOwnersFunds */\n      0x01\n      add\n        /* \"contracts/DomainRegistry.sol\":13073:13120  _getFundStorage().domainOwnersFunds[msg.sender] */\n      0x00\n        /* \"contracts/DomainRegistry.sol\":13109:13119  msg.sender */\n      caller\n        /* \"contracts/DomainRegistry.sol\":13073:13120  _getFundStorage().domainOwnersFunds[msg.sender] */\n      0xffffffffffffffffffffffffffffffffffffffff\n      and\n      0xffffffffffffffffffffffffffffffffffffffff\n      and\n      dup2\n      mstore\n      0x20\n      add\n      swap1\n      dup2\n      mstore\n      0x20\n      add\n      0x00\n      keccak256\n        /* \"contracts/DomainRegistry.sol\":13073:13124  _getFundStorage().domainOwnersFunds[msg.sender] = 0 */\n      dup2\n      swap1\n      sstore\n      pop\n        /* \"contracts/DomainRegistry.sol\":13140:13245  Withdrawal(... */\n      0x7fcf532c15f0a6db0bd6d0e038bea71d30d808c7d98cb3bf7268a95bf5081b65\n        /* \"contracts/DomainRegistry.sol\":13164:13174  msg.sender */\n      caller\n        /* \"contracts/DomainRegistry.sol\":13188:13205  _getFundStorage() */\n      tag_175\n        /* \"contracts/DomainRegistry.sol\":13188:13203  _getFundStorage */\n      tag_150\n        /* \"contracts/DomainRegistry.sol\":13188:13205  _getFundStorage() */\n      jump\t// in\n    tag_175:\n        /* \"contracts/DomainRegistry.sol\":13188:13223  _getFundStorage().domainOwnersFunds */\n      0x01\n      add\n        /* \"contracts/DomainRegistry.sol\":13188:13235  _getFundStorage().domainOwnersFunds[msg.sender] */\n      0x00\n        /* \"contracts/DomainRegistry.sol\":13224:13234  msg.sender */\n      caller\n        /* \"contracts/DomainRegistry.sol\":13188:13235  _getFundStorage().domainOwnersFunds[msg.sender] */\n      0xffffffffffffffffffffffffffffffffffffffff\n      and\n      0xffffffffffffffffffffffffffffffffffffffff\n      and\n      dup2\n      mstore\n      0x20\n      add\n      swap1\n      dup2\n      mstore\n      0x20\n      add\n      0x00\n      keccak256\n      sload\n        /* \"contracts/DomainRegistry.sol\":13140:13245  Withdrawal(... */\n      mload(0x40)\n      tag_176\n      swap3\n      swap2\n      swap1\n      tag_177\n      jump\t// in\n    tag_176:\n      mload(0x40)\n      dup1\n      swap2\n      sub\n      swap1\n      log1\n        /* \"contracts/DomainRegistry.sol\":12592:13252  {... */\n      pop\n      pop\n        /* \"contracts/DomainRegistry.sol\":12556:13252  function withdrawDomainEth() public {... */\n      jump\t// out\n        /* \"contracts/DomainRegistry.sol\":8036:8193  function getRegistrationPriceInUsdc()... */\n    tag_49:\n        /* \"contracts/DomainRegistry.sol\":8119:8126  uint256 */\n      0x00\n        /* \"contracts/DomainRegistry.sol\":8149:8168  _getDomainStorage() */\n      tag_179\n        /* \"contracts/DomainRegistry.sol\":8149:8166  _getDomainStorage */\n      tag_96\n        /* \"contracts/DomainRegistry.sol\":8149:8168  _getDomainStorage() */\n      jump\t// in\n    tag_179:\n        /* \"contracts/DomainRegistry.sol\":8149:8186  _getDomainStorage().registrationPrice */\n      0x00\n      add\n      sload\n        /* \"contracts/DomainRegistry.sol\":8142:8186  return _getDomainStorage().registrationPrice */\n      swap1\n      pop\n        /* \"contracts/DomainRegistry.sol\":8036:8193  function getRegistrationPriceInUsdc()... */\n      swap1\n      jump\t// out\n        /* \"@openzeppelin/contracts-upgradeable/access/OwnableUpgradeable.sol\":3155:3256  function renounceOwnership() public virtual onlyOwner {... */\n    tag_53:\n        /* \"@openzeppelin/contracts-upgradeable/access/OwnableUpgradeable.sol\":2334:2347  _checkOwner() */\n      tag_181\n        /* \"@openzeppelin/contracts-upgradeable/access/OwnableUpgradeable.sol\":2334:2345  _checkOwner */\n      tag_182\n        /* \"@openzeppelin/contracts-upgradeable/access/OwnableUpgradeable.sol\":2334:2347  _checkOwner() */\n      jump\t// in\n    tag_181:\n        /* \"@openzeppelin/contracts-upgradeable/access/OwnableUpgradeable.sol\":3219:3249  _transferOwnership(address(0)) */\n      tag_184\n        /* \"@openzeppelin/contracts-upgradeable/access/OwnableUpgradeable.sol\":3246:3247  0 */\n      0x00\n        /* \"@openzeppelin/contracts-upgradeable/access/OwnableUpgradeable.sol\":3219:3237  _transferOwnership */\n      tag_185\n        /* \"@openzeppelin/contracts-upgradeable/access/OwnableUpgradeable.sol\":3219:3249  _transferOwnership(address(0)) */\n      jump\t// in\n    tag_184:\n        /* \"@openzeppelin/contracts-upgradeable/access/OwnableUpgradeable.sol\":3155:3256  function renounceOwnership() public virtual onlyOwner {... */\n      jump\t// out\n        /* \"contracts/DomainRegistry.sol\":13605:14118  function withdrawDomainUsdc() public {... */\n    tag_56:\n        /* \"contracts/DomainRegistry.sol\":13711:13712  0 */\n      0x00\n        /* \"contracts/DomainRegistry.sol\":13656:13677  _getUsdcFundStorage() */\n      tag_187\n        /* \"contracts/DomainRegistry.sol\":13656:13675  _getUsdcFundStorage */\n      tag_121\n        /* \"contracts/DomainRegistry.sol\":13656:13677  _getUsdcFundStorage() */\n      jump\t// in\n    tag_187:\n        /* \"contracts/DomainRegistry.sol\":13656:13695  _getUsdcFundStorage().domainOwnersFunds */\n      0x01\n      add\n        /* \"contracts/DomainRegistry.sol\":13656:13707  _getUsdcFundStorage().domainOwnersFunds[msg.sender] */\n      0x00\n        /* \"contracts/DomainRegistry.sol\":13696:13706  msg.sender */\n      caller\n        /* \"contracts/DomainRegistry.sol\":13656:13707  _getUsdcFundStorage().domainOwnersFunds[msg.sender] */\n      0xffffffffffffffffffffffffffffffffffffffff\n      and\n      0xffffffffffffffffffffffffffffffffffffffff\n      and\n      dup2\n      mstore\n      0x20\n      add\n      swap1\n      dup2\n      mstore\n      0x20\n      add\n      0x00\n      keccak256\n      sload\n        /* \"contracts/DomainRegistry.sol\":13656:13712  _getUsdcFundStorage().domainOwnersFunds[msg.sender] == 0 */\n      sub\n        /* \"contracts/DomainRegistry.sol\":13652:13775  if (_getUsdcFundStorage().domainOwnersFunds[msg.sender] == 0) {... */\n      tag_188\n      jumpi\n        /* \"contracts/DomainRegistry.sol\":13753:13763  msg.sender */\n      caller\n        /* \"contracts/DomainRegistry.sol\":13735:13764  NothingToWithdraw(msg.sender) */\n      mload(0x40)\n      0xdc69dc1600000000000000000000000000000000000000000000000000000000\n      dup2\n      mstore\n      0x04\n      add\n      tag_189\n      swap2\n      swap1\n      tag_35\n      jump\t// in\n    tag_189:\n      mload(0x40)\n      dup1\n      swap2\n      sub\n      swap1\n      revert\n        /* \"contracts/DomainRegistry.sol\":13652:13775  if (_getUsdcFundStorage().domainOwnersFunds[msg.sender] == 0) {... */\n    tag_188:\n        /* \"contracts/DomainRegistry.sol\":13785:13804  uint256 fundsToSend */\n      0x00\n        /* \"contracts/DomainRegistry.sol\":13807:13824  _getFundStorage() */\n      tag_190\n        /* \"contracts/DomainRegistry.sol\":13807:13822  _getFundStorage */\n      tag_150\n        /* \"contracts/DomainRegistry.sol\":13807:13824  _getFundStorage() */\n      jump\t// in\n    tag_190:\n        /* \"contracts/DomainRegistry.sol\":13807:13842  _getFundStorage().domainOwnersFunds */\n      0x01\n      add\n        /* \"contracts/DomainRegistry.sol\":13807:13854  _getFundStorage().domainOwnersFunds[msg.sender] */\n      0x00\n        /* \"contracts/DomainRegistry.sol\":13843:13853  msg.sender */\n      caller\n        /* \"contracts/DomainRegistry.sol\":13807:13854  _getFundStorage().domainOwnersFunds[msg.sender] */\n      0xffffffffffffffffffffffffffffffffffffffff\n      and\n      0xffffffffffffffffffffffffffffffffffffffff\n      and\n      dup2\n      mstore\n      0x20\n      add\n      swap1\n      dup2\n      mstore\n      0x20\n      add\n      0x00\n      keccak256\n      sload\n        /* \"contracts/DomainRegistry.sol\":13785:13854  uint256 fundsToSend = _getFundStorage().domainOwnersFunds[msg.sender] */\n      swap1\n      pop\n        /* \"contracts/DomainRegistry.sol\":13865:13874  usdcToken */\n      0x01\n      0x00\n      swap1\n      sload\n      swap1\n      0x0100\n      exp\n      swap1\n      div\n      0xffffffffffffffffffffffffffffffffffffffff\n      and\n        /* \"contracts/DomainRegistry.sol\":13865:13883  usdcToken.transfer */\n      0xffffffffffffffffffffffffffffffffffffffff\n      and\n      0xa9059cbb\n        /* \"contracts/DomainRegistry.sol\":13884:13894  msg.sender */\n      caller\n        /* \"contracts/DomainRegistry.sol\":13896:13907  fundsToSend */\n      dup4\n        /* \"contracts/DomainRegistry.sol\":13865:13908  usdcToken.transfer(msg.sender, fundsToSend) */\n      mload(0x40)\n      dup4\n      0xffffffff\n      and\n      0xe0\n      shl\n      dup2\n      mstore\n      0x04\n      add\n      tag_191\n      swap3\n      swap2\n      swap1\n      tag_177\n      jump\t// in\n    tag_191:\n      0x20\n      mload(0x40)\n      dup1\n      dup4\n      sub\n      dup2\n      0x00\n      dup8\n      gas\n      call\n      iszero\n      dup1\n      iszero\n      tag_193\n      jumpi\n      returndatasize\n      0x00\n      dup1\n      returndatacopy\n      revert(0x00, returndatasize)\n    tag_193:\n      pop\n      pop\n      pop\n      pop\n      mload(0x40)\n      returndatasize\n      not(0x1f)\n      0x1f\n      dup3\n      add\n      and\n      dup3\n      add\n      dup1\n      0x40\n      mstore\n      pop\n      dup2\n      add\n      swap1\n      tag_194\n      swap2\n      swap1\n      tag_195\n      jump\t// in\n    tag_194:\n      pop\n        /* \"contracts/DomainRegistry.sol\":13954:13965  fundsToSend */\n      dup1\n        /* \"contracts/DomainRegistry.sol\":13919:13936  _getFundStorage() */\n      tag_196\n        /* \"contracts/DomainRegistry.sol\":13919:13934  _getFundStorage */\n      tag_150\n        /* \"contracts/DomainRegistry.sol\":13919:13936  _getFundStorage() */\n      jump\t// in\n    tag_196:\n        /* \"contracts/DomainRegistry.sol\":13919:13950  _getFundStorage().frozenBalance */\n      0x00\n      add\n      0x00\n        /* \"contracts/DomainRegistry.sol\":13919:13965  _getFundStorage().frozenBalance -= fundsToSend */\n      dup3\n      dup3\n      sload\n      tag_197\n      swap2\n      swap1\n      tag_173\n      jump\t// in\n    tag_197:\n      swap3\n      pop\n      pop\n      dup2\n      swap1\n      sstore\n      pop\n        /* \"contracts/DomainRegistry.sol\":14025:14026  0 */\n      0x00\n        /* \"contracts/DomainRegistry.sol\":13975:13992  _getFundStorage() */\n      tag_198\n        /* \"contracts/DomainRegistry.sol\":13975:13990  _getFundStorage */\n      tag_150\n        /* \"contracts/DomainRegistry.sol\":13975:13992  _getFundStorage() */\n      jump\t// in\n    tag_198:\n        /* \"contracts/DomainRegistry.sol\":13975:14010  _getFundStorage().domainOwnersFunds */\n      0x01\n      add\n        /* \"contracts/DomainRegistry.sol\":13975:14022  _getFundStorage().domainOwnersFunds[msg.sender] */\n      0x00\n        /* \"contracts/DomainRegistry.sol\":14011:14021  msg.sender */\n      caller\n        /* \"contracts/DomainRegistry.sol\":13975:14022  _getFundStorage().domainOwnersFunds[msg.sender] */\n      0xffffffffffffffffffffffffffffffffffffffff\n      and\n      0xffffffffffffffffffffffffffffffffffffffff\n      and\n      dup2\n      mstore\n      0x20\n      add\n      swap1\n      dup2\n      mstore\n      0x20\n      add\n      0x00\n      keccak256\n        /* \"contracts/DomainRegistry.sol\":13975:14026  _getFundStorage().domainOwnersFunds[msg.sender] = 0 */\n      dup2\n      swap1\n      sstore\n      pop\n        /* \"contracts/DomainRegistry.sol\":14042:14111  Withdrawal(... */\n      0x7fcf532c15f0a6db0bd6d0e038bea71d30d808c7d98cb3bf7268a95bf5081b65\n        /* \"contracts/DomainRegistry.sol\":14066:14076  msg.sender */\n      caller\n        /* \"contracts/DomainRegistry.sol\":14090:14101  fundsToSend */\n      dup3\n        /* \"contracts/DomainRegistry.sol\":14042:14111  Withdrawal(... */\n      mload(0x40)\n      tag_199\n      swap3\n      swap2\n      swap1\n      tag_177\n      jump\t// in\n    tag_199:\n      mload(0x40)\n      dup1\n      swap2\n      sub\n      swap1\n      log1\n        /* \"contracts/DomainRegistry.sol\":13642:14118  {... */\n      pop\n        /* \"contracts/DomainRegistry.sol\":13605:14118  function withdrawDomainUsdc() public {... */\n      jump\t// out\n        /* \"@openzeppelin/contracts-upgradeable/access/OwnableUpgradeable.sol\":2441:2585  function owner() public view virtual returns (address) {... */\n    tag_59:\n        /* \"@openzeppelin/contracts-upgradeable/access/OwnableUpgradeable.sol\":2487:2494  address */\n      0x00\n        /* \"@openzeppelin/contracts-upgradeable/access/OwnableUpgradeable.sol\":2506:2530  OwnableStorage storage $ */\n      dup1\n        /* \"@openzeppelin/contracts-upgradeable/access/OwnableUpgradeable.sol\":2533:2553  _getOwnableStorage() */\n      tag_201\n        /* \"@openzeppelin/contracts-upgradeable/access/OwnableUpgradeable.sol\":2533:2551  _getOwnableStorage */\n      tag_202\n        /* \"@openzeppelin/contracts-upgradeable/access/OwnableUpgradeable.sol\":2533:2553  _getOwnableStorage() */\n      jump\t// in\n    tag_201:\n        /* \"@openzeppelin/contracts-upgradeable/access/OwnableUpgradeable.sol\":2506:2553  OwnableStorage storage $ = _getOwnableStorage() */\n      swap1\n      pop\n        /* \"@openzeppelin/contracts-upgradeable/access/OwnableUpgradeable.sol\":2570:2571  $ */\n      dup1\n        /* \"@openzeppelin/contracts-upgradeable/access/OwnableUpgradeable.sol\":2570:2578  $._owner */\n      0x00\n      add\n      0x00\n      swap1\n      sload\n      swap1\n      0x0100\n      exp\n      swap1\n      div\n      0xffffffffffffffffffffffffffffffffffffffff\n      and\n        /* \"@openzeppelin/contracts-upgradeable/access/OwnableUpgradeable.sol\":2563:2578  return $._owner */\n      swap2\n      pop\n      pop\n        /* \"@openzeppelin/contracts-upgradeable/access/OwnableUpgradeable.sol\":2441:2585  function owner() public view virtual returns (address) {... */\n      swap1\n      jump\t// out\n        /* \"contracts/DomainRegistry.sol\":11177:11672  function withdrawEth() public onlyOwner {... */\n    tag_63:\n        /* \"@openzeppelin/contracts-upgradeable/access/OwnableUpgradeable.sol\":2334:2347  _checkOwner() */\n      tag_204\n        /* \"@openzeppelin/contracts-upgradeable/access/OwnableUpgradeable.sol\":2334:2345  _checkOwner */\n      tag_182\n        /* \"@openzeppelin/contracts-upgradeable/access/OwnableUpgradeable.sol\":2334:2347  _checkOwner() */\n      jump\t// in\n    tag_204:\n        /* \"contracts/DomainRegistry.sol\":11227:11250  uint256 contractBalance */\n      0x00\n        /* \"contracts/DomainRegistry.sol\":11289:11306  _getFundStorage() */\n      tag_206\n        /* \"contracts/DomainRegistry.sol\":11289:11304  _getFundStorage */\n      tag_150\n        /* \"contracts/DomainRegistry.sol\":11289:11306  _getFundStorage() */\n      jump\t// in\n    tag_206:\n        /* \"contracts/DomainRegistry.sol\":11289:11320  _getFundStorage().frozenBalance */\n      0x00\n      add\n      sload\n        /* \"contracts/DomainRegistry.sol\":11253:11274  address(this).balance */\n      selfbalance\n        /* \"contracts/DomainRegistry.sol\":11253:11320  address(this).balance -... */\n      tag_207\n      swap2\n      swap1\n      tag_173\n      jump\t// in\n    tag_207:\n        /* \"contracts/DomainRegistry.sol\":11227:11320  uint256 contractBalance = address(this).balance -... */\n      swap1\n      pop\n        /* \"contracts/DomainRegistry.sol\":11354:11355  0 */\n      0x00\n        /* \"contracts/DomainRegistry.sol\":11335:11350  contractBalance */\n      dup2\n        /* \"contracts/DomainRegistry.sol\":11335:11355  contractBalance == 0 */\n      sub\n        /* \"contracts/DomainRegistry.sol\":11331:11415  if (contractBalance == 0) {... */\n      tag_208\n      jumpi\n        /* \"contracts/DomainRegistry.sol\":11396:11403  owner() */\n      tag_209\n        /* \"contracts/DomainRegistry.sol\":11396:11401  owner */\n      tag_59\n        /* \"contracts/DomainRegistry.sol\":11396:11403  owner() */\n      jump\t// in\n    tag_209:\n        /* \"contracts/DomainRegistry.sol\":11378:11404  NothingToWithdraw(owner()) */\n      mload(0x40)\n      0xdc69dc1600000000000000000000000000000000000000000000000000000000\n      dup2\n      mstore\n      0x04\n      add\n      tag_210\n      swap2\n      swap1\n      tag_35\n      jump\t// in\n    tag_210:\n      mload(0x40)\n      dup1\n      swap2\n      sub\n      swap1\n      revert\n        /* \"contracts/DomainRegistry.sol\":11331:11415  if (contractBalance == 0) {... */\n    tag_208:\n        /* \"contracts/DomainRegistry.sol\":11426:11435  bool sent */\n      0x00\n        /* \"contracts/DomainRegistry.sol\":11437:11454  bytes memory data */\n      dup1\n        /* \"contracts/DomainRegistry.sol\":11466:11473  owner() */\n      tag_211\n        /* \"contracts/DomainRegistry.sol\":11466:11471  owner */\n      tag_59\n        /* \"contracts/DomainRegistry.sol\":11466:11473  owner() */\n      jump\t// in\n    tag_211:\n        /* \"contracts/DomainRegistry.sol\":11458:11479  payable(owner()).call */\n      0xffffffffffffffffffffffffffffffffffffffff\n      and\n        /* \"contracts/DomainRegistry.sol\":11500:11515  contractBalance */\n      dup4\n        /* \"contracts/DomainRegistry.sol\":11458:11529  payable(owner()).call{... */\n      mload(0x40)\n      tag_212\n      swap1\n      tag_163\n      jump\t// in\n    tag_212:\n      0x00\n      mload(0x40)\n      dup1\n      dup4\n      sub\n      dup2\n      dup6\n      dup8\n      gas\n      call\n      swap3\n      pop\n      pop\n      pop\n      returndatasize\n      dup1\n      0x00\n      dup2\n      eq\n      tag_215\n      jumpi\n      mload(0x40)\n      swap2\n      pop\n      and(add(returndatasize, 0x3f), not(0x1f))\n      dup3\n      add\n      0x40\n      mstore\n      returndatasize\n      dup3\n      mstore\n      returndatasize\n      0x00\n      0x20\n      dup5\n      add\n      returndatacopy\n      jump(tag_214)\n    tag_215:\n      0x60\n      swap2\n      pop\n    tag_214:\n      pop\n        /* \"contracts/DomainRegistry.sol\":11425:11529  (bool sent, bytes memory data) = payable(owner()).call{... */\n      swap2\n      pop\n      swap2\n      pop\n        /* \"contracts/DomainRegistry.sol\":11545:11549  sent */\n      dup2\n        /* \"contracts/DomainRegistry.sol\":11540:11614  if (!sent) {... */\n      tag_216\n      jumpi\n        /* \"contracts/DomainRegistry.sol\":11589:11596  owner() */\n      tag_217\n        /* \"contracts/DomainRegistry.sol\":11589:11594  owner */\n      tag_59\n        /* \"contracts/DomainRegistry.sol\":11589:11596  owner() */\n      jump\t// in\n    tag_217:\n        /* \"contracts/DomainRegistry.sol\":11598:11602  data */\n      dup2\n        /* \"contracts/DomainRegistry.sol\":11572:11603  FailedToWithdraw(owner(), data) */\n      mload(0x40)\n      0x7824688c00000000000000000000000000000000000000000000000000000000\n      dup2\n      mstore\n      0x04\n      add\n      tag_218\n      swap3\n      swap2\n      swap1\n      tag_169\n      jump\t// in\n    tag_218:\n      mload(0x40)\n      dup1\n      swap2\n      sub\n      swap1\n      revert\n        /* \"contracts/DomainRegistry.sol\":11540:11614  if (!sent) {... */\n    tag_216:\n        /* \"contracts/DomainRegistry.sol\":11629:11665  Withdrawal(owner(), contractBalance) */\n      0x7fcf532c15f0a6db0bd6d0e038bea71d30d808c7d98cb3bf7268a95bf5081b65\n        /* \"contracts/DomainRegistry.sol\":11640:11647  owner() */\n      tag_219\n        /* \"contracts/DomainRegistry.sol\":11640:11645  owner */\n      tag_59\n        /* \"contracts/DomainRegistry.sol\":11640:11647  owner() */\n      jump\t// in\n    tag_219:\n        /* \"contracts/DomainRegistry.sol\":11649:11664  contractBalance */\n      dup5\n        /* \"contracts/DomainRegistry.sol\":11629:11665  Withdrawal(owner(), contractBalance) */\n      mload(0x40)\n      tag_220\n      swap3\n      swap2\n      swap1\n      tag_177\n      jump\t// in\n    tag_220:\n      mload(0x40)\n      dup1\n      swap2\n      sub\n      swap1\n      log1\n        /* \"contracts/DomainRegistry.sol\":11217:11672  {... */\n      pop\n      pop\n      pop\n        /* \"contracts/DomainRegistry.sol\":11177:11672  function withdrawEth() public onlyOwner {... */\n      jump\t// out\n        /* \"contracts/DomainRegistry.sol\":10788:11007  function changePrice(uint256 newPrice)... */\n    tag_68:\n        /* \"@openzeppelin/contracts-upgradeable/access/OwnableUpgradeable.sol\":2334:2347  _checkOwner() */\n      tag_222\n        /* \"@openzeppelin/contracts-upgradeable/access/OwnableUpgradeable.sol\":2334:2345  _checkOwner */\n      tag_182\n        /* \"@openzeppelin/contracts-upgradeable/access/OwnableUpgradeable.sol\":2334:2347  _checkOwner() */\n      jump\t// in\n    tag_222:\n        /* \"contracts/DomainRegistry.sol\":10890:10898  newPrice */\n      dup1\n        /* \"contracts/DomainRegistry.sol\":5870:5871  0 */\n      0x00\n        /* \"contracts/DomainRegistry.sol\":5861:5866  price */\n      dup2\n        /* \"contracts/DomainRegistry.sol\":5861:5871  price == 0 */\n      sub\n        /* \"contracts/DomainRegistry.sol\":5857:6012  if (price == 0) {... */\n      tag_224\n      jumpi\n        /* \"contracts/DomainRegistry.sol\":5927:5932  price */\n      dup1\n        /* \"contracts/DomainRegistry.sol\":5950:5969  _getDomainStorage() */\n      tag_225\n        /* \"contracts/DomainRegistry.sol\":5950:5967  _getDomainStorage */\n      tag_96\n        /* \"contracts/DomainRegistry.sol\":5950:5969  _getDomainStorage() */\n      jump\t// in\n    tag_225:\n        /* \"contracts/DomainRegistry.sol\":5950:5987  _getDomainStorage().registrationPrice */\n      0x00\n      add\n      sload\n        /* \"contracts/DomainRegistry.sol\":5894:6001  PriceEqualsZero(... */\n      mload(0x40)\n      0xd090dd0600000000000000000000000000000000000000000000000000000000\n      dup2\n      mstore\n      0x04\n      add\n      tag_226\n      swap3\n      swap2\n      swap1\n      tag_93\n      jump\t// in\n    tag_226:\n      mload(0x40)\n      dup1\n      swap2\n      sub\n      swap1\n      revert\n        /* \"contracts/DomainRegistry.sol\":5857:6012  if (price == 0) {... */\n    tag_224:\n        /* \"contracts/DomainRegistry.sol\":10954:10962  newPrice */\n      dup2\n        /* \"contracts/DomainRegistry.sol\":10914:10933  _getDomainStorage() */\n      tag_228\n        /* \"contracts/DomainRegistry.sol\":10914:10931  _getDomainStorage */\n      tag_96\n        /* \"contracts/DomainRegistry.sol\":10914:10933  _getDomainStorage() */\n      jump\t// in\n    tag_228:\n        /* \"contracts/DomainRegistry.sol\":10914:10951  _getDomainStorage().registrationPrice */\n      0x00\n      add\n        /* \"contracts/DomainRegistry.sol\":10914:10962  _getDomainStorage().registrationPrice = newPrice */\n      dup2\n      swap1\n      sstore\n      pop\n        /* \"contracts/DomainRegistry.sol\":10978:11000  PriceChanged(newPrice) */\n      0xa6dc15bdb68da224c66db4b3838d9a2b205138e8cff6774e57d0af91e196d622\n        /* \"contracts/DomainRegistry.sol\":10991:10999  newPrice */\n      dup3\n        /* \"contracts/DomainRegistry.sol\":10978:11000  PriceChanged(newPrice) */\n      mload(0x40)\n      tag_229\n      swap2\n      swap1\n      tag_40\n      jump\t// in\n    tag_229:\n      mload(0x40)\n      dup1\n      swap2\n      sub\n      swap1\n      log1\n        /* \"@openzeppelin/contracts-upgradeable/access/OwnableUpgradeable.sol\":2357:2358  _ */\n      pop\n        /* \"contracts/DomainRegistry.sol\":10788:11007  function changePrice(uint256 newPrice)... */\n      pop\n      jump\t// out\n        /* \"contracts/DomainRegistry.sol\":7377:7708  function initialize(... */\n    tag_73:\n        /* \"@openzeppelin/contracts-upgradeable/proxy/utils/Initializable.sol\":4158:4188  InitializableStorage storage $ */\n      0x00\n        /* \"@openzeppelin/contracts-upgradeable/proxy/utils/Initializable.sol\":4191:4217  _getInitializableStorage() */\n      tag_231\n        /* \"@openzeppelin/contracts-upgradeable/proxy/utils/Initializable.sol\":4191:4215  _getInitializableStorage */\n      tag_232\n        /* \"@openzeppelin/contracts-upgradeable/proxy/utils/Initializable.sol\":4191:4217  _getInitializableStorage() */\n      jump\t// in\n    tag_231:\n        /* \"@openzeppelin/contracts-upgradeable/proxy/utils/Initializable.sol\":4158:4217  InitializableStorage storage $ = _getInitializableStorage() */\n      swap1\n      pop\n        /* \"@openzeppelin/contracts-upgradeable/proxy/utils/Initializable.sol\":4279:4298  bool isTopLevelCall */\n      0x00\n        /* \"@openzeppelin/contracts-upgradeable/proxy/utils/Initializable.sol\":4302:4303  $ */\n      dup2\n        /* \"@openzeppelin/contracts-upgradeable/proxy/utils/Initializable.sol\":4302:4317  $._initializing */\n      0x00\n      add\n      0x08\n      swap1\n      sload\n      swap1\n      0x0100\n      exp\n      swap1\n      div\n      0xff\n      and\n        /* \"@openzeppelin/contracts-upgradeable/proxy/utils/Initializable.sol\":4301:4317  !$._initializing */\n      iszero\n        /* \"@openzeppelin/contracts-upgradeable/proxy/utils/Initializable.sol\":4279:4317  bool isTopLevelCall = !$._initializing */\n      swap1\n      pop\n        /* \"@openzeppelin/contracts-upgradeable/proxy/utils/Initializable.sol\":4327:4345  uint64 initialized */\n      0x00\n        /* \"@openzeppelin/contracts-upgradeable/proxy/utils/Initializable.sol\":4348:4349  $ */\n      dup3\n        /* \"@openzeppelin/contracts-upgradeable/proxy/utils/Initializable.sol\":4348:4362  $._initialized */\n      0x00\n      add\n      0x00\n      swap1\n      sload\n      swap1\n      0x0100\n      exp\n      swap1\n      div\n      0xffffffffffffffff\n      and\n        /* \"@openzeppelin/contracts-upgradeable/proxy/utils/Initializable.sol\":4327:4362  uint64 initialized = $._initialized */\n      swap1\n      pop\n        /* \"@openzeppelin/contracts-upgradeable/proxy/utils/Initializable.sol\":4706:4723  bool initialSetup */\n      0x00\n        /* \"@openzeppelin/contracts-upgradeable/proxy/utils/Initializable.sol\":4741:4742  0 */\n      dup1\n        /* \"@openzeppelin/contracts-upgradeable/proxy/utils/Initializable.sol\":4726:4737  initialized */\n      dup3\n        /* \"@openzeppelin/contracts-upgradeable/proxy/utils/Initializable.sol\":4726:4742  initialized == 0 */\n      0xffffffffffffffff\n      and\n      eq\n        /* \"@openzeppelin/contracts-upgradeable/proxy/utils/Initializable.sol\":4726:4760  initialized == 0 && isTopLevelCall */\n      dup1\n      iszero\n      tag_233\n      jumpi\n      pop\n        /* \"@openzeppelin/contracts-upgradeable/proxy/utils/Initializable.sol\":4746:4760  isTopLevelCall */\n      dup3\n        /* \"@openzeppelin/contracts-upgradeable/proxy/utils/Initializable.sol\":4726:4760  initialized == 0 && isTopLevelCall */\n    tag_233:\n        /* \"@openzeppelin/contracts-upgradeable/proxy/utils/Initializable.sol\":4706:4760  bool initialSetup = initialized == 0 && isTopLevelCall */\n      swap1\n      pop\n        /* \"@openzeppelin/contracts-upgradeable/proxy/utils/Initializable.sol\":4770:4787  bool construction */\n      0x00\n        /* \"@openzeppelin/contracts-upgradeable/proxy/utils/Initializable.sol\":4805:4806  1 */\n      0x01\n        /* \"@openzeppelin/contracts-upgradeable/proxy/utils/Initializable.sol\":4790:4801  initialized */\n      dup4\n        /* \"@openzeppelin/contracts-upgradeable/proxy/utils/Initializable.sol\":4790:4806  initialized == 1 */\n      0xffffffffffffffff\n      and\n      eq\n        /* \"@openzeppelin/contracts-upgradeable/proxy/utils/Initializable.sol\":4790:4840  initialized == 1 && address(this).code.length == 0 */\n      dup1\n      iszero\n      tag_234\n      jumpi\n      pop\n        /* \"@openzeppelin/contracts-upgradeable/proxy/utils/Initializable.sol\":4839:4840  0 */\n      0x00\n        /* \"@openzeppelin/contracts-upgradeable/proxy/utils/Initializable.sol\":4818:4822  this */\n      address\n        /* \"@openzeppelin/contracts-upgradeable/proxy/utils/Initializable.sol\":4810:4835  address(this).code.length */\n      0xffffffffffffffffffffffffffffffffffffffff\n      and\n      extcodesize\n        /* \"@openzeppelin/contracts-upgradeable/proxy/utils/Initializable.sol\":4810:4840  address(this).code.length == 0 */\n      eq\n        /* \"@openzeppelin/contracts-upgradeable/proxy/utils/Initializable.sol\":4790:4840  initialized == 1 && address(this).code.length == 0 */\n    tag_234:\n        /* \"@openzeppelin/contracts-upgradeable/proxy/utils/Initializable.sol\":4770:4840  bool construction = initialized == 1 && address(this).code.length == 0 */\n      swap1\n      pop\n        /* \"@openzeppelin/contracts-upgradeable/proxy/utils/Initializable.sol\":4856:4868  initialSetup */\n      dup2\n        /* \"@openzeppelin/contracts-upgradeable/proxy/utils/Initializable.sol\":4855:4868  !initialSetup */\n      iszero\n        /* \"@openzeppelin/contracts-upgradeable/proxy/utils/Initializable.sol\":4855:4885  !initialSetup && !construction */\n      dup1\n      iszero\n      tag_235\n      jumpi\n      pop\n        /* \"@openzeppelin/contracts-upgradeable/proxy/utils/Initializable.sol\":4873:4885  construction */\n      dup1\n        /* \"@openzeppelin/contracts-upgradeable/proxy/utils/Initializable.sol\":4872:4885  !construction */\n      iszero\n        /* \"@openzeppelin/contracts-upgradeable/proxy/utils/Initializable.sol\":4855:4885  !initialSetup && !construction */\n    tag_235:\n        /* \"@openzeppelin/contracts-upgradeable/proxy/utils/Initializable.sol\":4851:4942  if (!initialSetup && !construction) {... */\n      iszero\n      tag_236\n      jumpi\n        /* \"@openzeppelin/contracts-upgradeable/proxy/utils/Initializable.sol\":4908:4931  InvalidInitialization() */\n      mload(0x40)\n      0xf92ee8a900000000000000000000000000000000000000000000000000000000\n      dup2\n      mstore\n      0x04\n      add\n      mload(0x40)\n      dup1\n      swap2\n      sub\n      swap1\n      revert\n        /* \"@openzeppelin/contracts-upgradeable/proxy/utils/Initializable.sol\":4851:4942  if (!initialSetup && !construction) {... */\n    tag_236:\n        /* \"@openzeppelin/contracts-upgradeable/proxy/utils/Initializable.sol\":4968:4969  1 */\n      0x01\n        /* \"@openzeppelin/contracts-upgradeable/proxy/utils/Initializable.sol\":4951:4952  $ */\n      dup6\n        /* \"@openzeppelin/contracts-upgradeable/proxy/utils/Initializable.sol\":4951:4965  $._initialized */\n      0x00\n      add\n      0x00\n        /* \"@openzeppelin/contracts-upgradeable/proxy/utils/Initializable.sol\":4951:4969  $._initialized = 1 */\n      0x0100\n      exp\n      dup2\n      sload\n      dup2\n      0xffffffffffffffff\n      mul\n      not\n      and\n      swap1\n      dup4\n      0xffffffffffffffff\n      and\n      mul\n      or\n      swap1\n      sstore\n      pop\n        /* \"@openzeppelin/contracts-upgradeable/proxy/utils/Initializable.sol\":4983:4997  isTopLevelCall */\n      dup4\n        /* \"@openzeppelin/contracts-upgradeable/proxy/utils/Initializable.sol\":4979:5046  if (isTopLevelCall) {... */\n      iszero\n      tag_237\n      jumpi\n        /* \"@openzeppelin/contracts-upgradeable/proxy/utils/Initializable.sol\":5031:5035  true */\n      0x01\n        /* \"@openzeppelin/contracts-upgradeable/proxy/utils/Initializable.sol\":5013:5014  $ */\n      dup6\n        /* \"@openzeppelin/contracts-upgradeable/proxy/utils/Initializable.sol\":5013:5028  $._initializing */\n      0x00\n      add\n      0x08\n        /* \"@openzeppelin/contracts-upgradeable/proxy/utils/Initializable.sol\":5013:5035  $._initializing = true */\n      0x0100\n      exp\n      dup2\n      sload\n      dup2\n      0xff\n      mul\n      not\n      and\n      swap1\n      dup4\n      iszero\n      iszero\n      mul\n      or\n      swap1\n      sstore\n      pop\n        /* \"@openzeppelin/contracts-upgradeable/proxy/utils/Initializable.sol\":4979:5046  if (isTopLevelCall) {... */\n    tag_237:\n        /* \"contracts/DomainRegistry.sol\":7558:7570  initialPrice */\n      dup8\n        /* \"contracts/DomainRegistry.sol\":7518:7537  _getDomainStorage() */\n      tag_239\n        /* \"contracts/DomainRegistry.sol\":7518:7535  _getDomainStorage */\n      tag_96\n        /* \"contracts/DomainRegistry.sol\":7518:7537  _getDomainStorage() */\n      jump\t// in\n    tag_239:\n        /* \"contracts/DomainRegistry.sol\":7518:7555  _getDomainStorage().registrationPrice */\n      0x00\n      add\n        /* \"contracts/DomainRegistry.sol\":7518:7570  _getDomainStorage().registrationPrice = initialPrice */\n      dup2\n      swap1\n      sstore\n      pop\n        /* \"contracts/DomainRegistry.sol\":7580:7606  __Ownable_init(msg.sender) */\n      tag_240\n        /* \"contracts/DomainRegistry.sol\":7595:7605  msg.sender */\n      caller\n        /* \"contracts/DomainRegistry.sol\":7580:7594  __Ownable_init */\n      tag_241\n        /* \"contracts/DomainRegistry.sol\":7580:7606  __Ownable_init(msg.sender) */\n      jump\t// in\n    tag_240:\n        /* \"contracts/DomainRegistry.sol\":7650:7660  _pricefeed */\n      dup7\n        /* \"contracts/DomainRegistry.sol\":7616:7625  priceFeed */\n      0x00\n      dup1\n        /* \"contracts/DomainRegistry.sol\":7616:7661  priceFeed = AggregatorV3Interface(_pricefeed) */\n      0x0100\n      exp\n      dup2\n      sload\n      dup2\n      0xffffffffffffffffffffffffffffffffffffffff\n      mul\n      not\n      and\n      swap1\n      dup4\n      0xffffffffffffffffffffffffffffffffffffffff\n      and\n      mul\n      or\n      swap1\n      sstore\n      pop\n        /* \"contracts/DomainRegistry.sol\":7690:7700  _usdcToken */\n      dup6\n        /* \"contracts/DomainRegistry.sol\":7671:7680  usdcToken */\n      0x01\n      0x00\n        /* \"contracts/DomainRegistry.sol\":7671:7701  usdcToken = IERC20(_usdcToken) */\n      0x0100\n      exp\n      dup2\n      sload\n      dup2\n      0xffffffffffffffffffffffffffffffffffffffff\n      mul\n      not\n      and\n      swap1\n      dup4\n      0xffffffffffffffffffffffffffffffffffffffff\n      and\n      mul\n      or\n      swap1\n      sstore\n      pop\n        /* \"@openzeppelin/contracts-upgradeable/proxy/utils/Initializable.sol\":5070:5084  isTopLevelCall */\n      dup4\n        /* \"@openzeppelin/contracts-upgradeable/proxy/utils/Initializable.sol\":5066:5167  if (isTopLevelCall) {... */\n      iszero\n      tag_242\n      jumpi\n        /* \"@openzeppelin/contracts-upgradeable/proxy/utils/Initializable.sol\":5118:5123  false */\n      0x00\n        /* \"@openzeppelin/contracts-upgradeable/proxy/utils/Initializable.sol\":5100:5101  $ */\n      dup6\n        /* \"@openzeppelin/contracts-upgradeable/proxy/utils/Initializable.sol\":5100:5115  $._initializing */\n      0x00\n      add\n      0x08\n        /* \"@openzeppelin/contracts-upgradeable/proxy/utils/Initializable.sol\":5100:5123  $._initializing = false */\n      0x0100\n      exp\n      dup2\n      sload\n      dup2\n      0xff\n      mul\n      not\n      and\n      swap1\n      dup4\n      iszero\n      iszero\n      mul\n      or\n      swap1\n      sstore\n      pop\n        /* \"@openzeppelin/contracts-upgradeable/proxy/utils/Initializable.sol\":5142:5156  Initialized(1) */\n      0xc7f505b2f371ae2175ee4913f4499e1f2633a7b5936321eed1cdaeb6115181d2\n        /* \"@openzeppelin/contracts-upgradeable/proxy/utils/Initializable.sol\":5154:5155  1 */\n      0x01\n        /* \"@openzeppelin/contracts-upgradeable/proxy/utils/Initializable.sol\":5142:5156  Initialized(1) */\n      mload(0x40)\n      tag_243\n      swap2\n      swap1\n      tag_244\n      jump\t// in\n    tag_243:\n      mload(0x40)\n      dup1\n      swap2\n      sub\n      swap1\n      log1\n        /* \"@openzeppelin/contracts-upgradeable/proxy/utils/Initializable.sol\":5066:5167  if (isTopLevelCall) {... */\n    tag_242:\n        /* \"@openzeppelin/contracts-upgradeable/proxy/utils/Initializable.sol\":4092:5173  {... */\n      pop\n      pop\n      pop\n      pop\n      pop\n        /* \"contracts/DomainRegistry.sol\":7377:7708  function initialize(... */\n      pop\n      pop\n      pop\n      jump\t// out\n        /* \"@openzeppelin/contracts-upgradeable/access/OwnableUpgradeable.sol\":3405:3620  function transferOwnership(address newOwner) public virtual onlyOwner {... */\n    tag_78:\n        /* \"@openzeppelin/contracts-upgradeable/access/OwnableUpgradeable.sol\":2334:2347  _checkOwner() */\n      tag_246\n        /* \"@openzeppelin/contracts-upgradeable/access/OwnableUpgradeable.sol\":2334:2345  _checkOwner */\n      tag_182\n        /* \"@openzeppelin/contracts-upgradeable/access/OwnableUpgradeable.sol\":2334:2347  _checkOwner() */\n      jump\t// in\n    tag_246:\n        /* \"@openzeppelin/contracts-upgradeable/access/OwnableUpgradeable.sol\":3509:3510  0 */\n      0x00\n        /* \"@openzeppelin/contracts-upgradeable/access/OwnableUpgradeable.sol\":3489:3511  newOwner == address(0) */\n      0xffffffffffffffffffffffffffffffffffffffff\n      and\n        /* \"@openzeppelin/contracts-upgradeable/access/OwnableUpgradeable.sol\":3489:3497  newOwner */\n      dup2\n        /* \"@openzeppelin/contracts-upgradeable/access/OwnableUpgradeable.sol\":3489:3511  newOwner == address(0) */\n      0xffffffffffffffffffffffffffffffffffffffff\n      and\n      sub\n        /* \"@openzeppelin/contracts-upgradeable/access/OwnableUpgradeable.sol\":3485:3576  if (newOwner == address(0)) {... */\n      tag_248\n      jumpi\n        /* \"@openzeppelin/contracts-upgradeable/access/OwnableUpgradeable.sol\":3562:3563  0 */\n      0x00\n        /* \"@openzeppelin/contracts-upgradeable/access/OwnableUpgradeable.sol\":3534:3565  OwnableInvalidOwner(address(0)) */\n      mload(0x40)\n      0x1e4fbdf700000000000000000000000000000000000000000000000000000000\n      dup2\n      mstore\n      0x04\n      add\n      tag_249\n      swap2\n      swap1\n      tag_35\n      jump\t// in\n    tag_249:\n      mload(0x40)\n      dup1\n      swap2\n      sub\n      swap1\n      revert\n        /* \"@openzeppelin/contracts-upgradeable/access/OwnableUpgradeable.sol\":3485:3576  if (newOwner == address(0)) {... */\n    tag_248:\n        /* \"@openzeppelin/contracts-upgradeable/access/OwnableUpgradeable.sol\":3585:3613  _transferOwnership(newOwner) */\n      tag_250\n        /* \"@openzeppelin/contracts-upgradeable/access/OwnableUpgradeable.sol\":3604:3612  newOwner */\n      dup2\n        /* \"@openzeppelin/contracts-upgradeable/access/OwnableUpgradeable.sol\":3585:3603  _transferOwnership */\n      tag_185\n        /* \"@openzeppelin/contracts-upgradeable/access/OwnableUpgradeable.sol\":3585:3613  _transferOwnership(newOwner) */\n      jump\t// in\n    tag_250:\n        /* \"@openzeppelin/contracts-upgradeable/access/OwnableUpgradeable.sol\":3405:3620  function transferOwnership(address newOwner) public virtual onlyOwner {... */\n      pop\n      jump\t// out\n        /* \"contracts/DomainRegistry.sol\":10317:10666  function buyDomainViaUsdc(string calldata domain)... */\n    tag_81:\n        /* \"contracts/DomainRegistry.sol\":6580:6597  uint256 allowance */\n      0x00\n        /* \"contracts/DomainRegistry.sol\":6600:6618  getUsdcAllowance() */\n      tag_252\n        /* \"contracts/DomainRegistry.sol\":6600:6616  getUsdcAllowance */\n      tag_107\n        /* \"contracts/DomainRegistry.sol\":6600:6618  getUsdcAllowance() */\n      jump\t// in\n    tag_252:\n        /* \"contracts/DomainRegistry.sol\":6580:6618  uint256 allowance = getUsdcAllowance() */\n      swap1\n      pop\n        /* \"contracts/DomainRegistry.sol\":6628:6654  uint256 _registrationPrice */\n      0x00\n        /* \"contracts/DomainRegistry.sol\":6657:6676  _getDomainStorage() */\n      tag_253\n        /* \"contracts/DomainRegistry.sol\":6657:6674  _getDomainStorage */\n      tag_96\n        /* \"contracts/DomainRegistry.sol\":6657:6676  _getDomainStorage() */\n      jump\t// in\n    tag_253:\n        /* \"contracts/DomainRegistry.sol\":6657:6707  _getDomainStorage()... */\n      0x00\n      add\n      sload\n        /* \"contracts/DomainRegistry.sol\":6628:6707  uint256 _registrationPrice = _getDomainStorage()... */\n      swap1\n      pop\n        /* \"contracts/DomainRegistry.sol\":6735:6753  _registrationPrice */\n      dup1\n        /* \"contracts/DomainRegistry.sol\":6722:6731  allowance */\n      dup3\n        /* \"contracts/DomainRegistry.sol\":6722:6753  allowance != _registrationPrice */\n      eq\n        /* \"contracts/DomainRegistry.sol\":6718:6914  if (allowance != _registrationPrice) {... */\n      tag_254\n      jumpi\n        /* \"contracts/DomainRegistry.sol\":6828:6837  allowance */\n      dup2\n        /* \"contracts/DomainRegistry.sol\":6870:6888  _registrationPrice */\n      dup2\n        /* \"contracts/DomainRegistry.sol\":6776:6903  IncorrectUsdcAmount({... */\n      mload(0x40)\n      0x035a0e0000000000000000000000000000000000000000000000000000000000\n      dup2\n      mstore\n      0x04\n      add\n      tag_255\n      swap3\n      swap2\n      swap1\n      tag_93\n      jump\t// in\n    tag_255:\n      mload(0x40)\n      dup1\n      swap2\n      sub\n      swap1\n      revert\n        /* \"contracts/DomainRegistry.sol\":6718:6914  if (allowance != _registrationPrice) {... */\n    tag_254:\n        /* \"contracts/DomainRegistry.sol\":10451:10457  domain */\n      dup4\n      dup4\n        /* \"contracts/DomainRegistry.sol\":7150:7151  0 */\n      0x00\n        /* \"contracts/DomainRegistry.sol\":7100:7152  _getDomainStorage().domainList[domain] != address(0) */\n      0xffffffffffffffffffffffffffffffffffffffff\n      and\n        /* \"contracts/DomainRegistry.sol\":7100:7119  _getDomainStorage() */\n      tag_257\n        /* \"contracts/DomainRegistry.sol\":7100:7117  _getDomainStorage */\n      tag_96\n        /* \"contracts/DomainRegistry.sol\":7100:7119  _getDomainStorage() */\n      jump\t// in\n    tag_257:\n        /* \"contracts/DomainRegistry.sol\":7100:7130  _getDomainStorage().domainList */\n      0x01\n      add\n        /* \"contracts/DomainRegistry.sol\":7131:7137  domain */\n      dup4\n      dup4\n        /* \"contracts/DomainRegistry.sol\":7100:7138  _getDomainStorage().domainList[domain] */\n      mload(0x40)\n      tag_258\n      swap3\n      swap2\n      swap1\n      tag_98\n      jump\t// in\n    tag_258:\n      swap1\n      dup2\n      mstore\n      0x20\n      add\n      mload(0x40)\n      dup1\n      swap2\n      sub\n      swap1\n      keccak256\n      0x00\n      swap1\n      sload\n      swap1\n      0x0100\n      exp\n      swap1\n      div\n      0xffffffffffffffffffffffffffffffffffffffff\n      and\n        /* \"contracts/DomainRegistry.sol\":7100:7152  _getDomainStorage().domainList[domain] != address(0) */\n      0xffffffffffffffffffffffffffffffffffffffff\n      and\n      eq\n        /* \"contracts/DomainRegistry.sol\":7096:7206  if (_getDomainStorage().domainList[domain] != address(0)) {... */\n      tag_259\n      jumpi\n        /* \"contracts/DomainRegistry.sol\":7175:7195  DomainAlreadyTaken() */\n      mload(0x40)\n      0xc5e8402d00000000000000000000000000000000000000000000000000000000\n      dup2\n      mstore\n      0x04\n      add\n      mload(0x40)\n      dup1\n      swap2\n      sub\n      swap1\n      revert\n        /* \"contracts/DomainRegistry.sol\":7096:7206  if (_getDomainStorage().domainList[domain] != address(0)) {... */\n    tag_259:\n        /* \"contracts/DomainRegistry.sol\":10473:10490  uint256 allowance */\n      0x00\n        /* \"contracts/DomainRegistry.sol\":10493:10511  getUsdcAllowance() */\n      tag_261\n        /* \"contracts/DomainRegistry.sol\":10493:10509  getUsdcAllowance */\n      tag_107\n        /* \"contracts/DomainRegistry.sol\":10493:10511  getUsdcAllowance() */\n      jump\t// in\n    tag_261:\n        /* \"contracts/DomainRegistry.sol\":10473:10511  uint256 allowance = getUsdcAllowance() */\n      swap1\n      pop\n        /* \"contracts/DomainRegistry.sol\":10522:10545  transferUsdc(allowance) */\n      tag_262\n        /* \"contracts/DomainRegistry.sol\":10535:10544  allowance */\n      dup2\n        /* \"contracts/DomainRegistry.sol\":10522:10534  transferUsdc */\n      tag_116\n        /* \"contracts/DomainRegistry.sol\":10522:10545  transferUsdc(allowance) */\n      jump\t// in\n    tag_262:\n        /* \"contracts/DomainRegistry.sol\":10597:10607  msg.sender */\n      caller\n        /* \"contracts/DomainRegistry.sol\":10556:10575  _getDomainStorage() */\n      tag_263\n        /* \"contracts/DomainRegistry.sol\":10556:10573  _getDomainStorage */\n      tag_96\n        /* \"contracts/DomainRegistry.sol\":10556:10575  _getDomainStorage() */\n      jump\t// in\n    tag_263:\n        /* \"contracts/DomainRegistry.sol\":10556:10586  _getDomainStorage().domainList */\n      0x01\n      add\n        /* \"contracts/DomainRegistry.sol\":10587:10593  domain */\n      dup9\n      dup9\n        /* \"contracts/DomainRegistry.sol\":10556:10594  _getDomainStorage().domainList[domain] */\n      mload(0x40)\n      tag_264\n      swap3\n      swap2\n      swap1\n      tag_98\n      jump\t// in\n    tag_264:\n      swap1\n      dup2\n      mstore\n      0x20\n      add\n      mload(0x40)\n      dup1\n      swap2\n      sub\n      swap1\n      keccak256\n      0x00\n        /* \"contracts/DomainRegistry.sol\":10556:10607  _getDomainStorage().domainList[domain] = msg.sender */\n      0x0100\n      exp\n      dup2\n      sload\n      dup2\n      0xffffffffffffffffffffffffffffffffffffffff\n      mul\n      not\n      and\n      swap1\n      dup4\n      0xffffffffffffffffffffffffffffffffffffffff\n      and\n      mul\n      or\n      swap1\n      sstore\n      pop\n        /* \"contracts/DomainRegistry.sol\":10648:10658  msg.sender */\n      caller\n        /* \"contracts/DomainRegistry.sol\":10623:10659  DomainRegistered(domain, msg.sender) */\n      0xffffffffffffffffffffffffffffffffffffffff\n      and\n      0x70f2ff07e8136617cdfb0433423063c9dd697c507560d7860cce09fa86874a12\n        /* \"contracts/DomainRegistry.sol\":10640:10646  domain */\n      dup9\n      dup9\n        /* \"contracts/DomainRegistry.sol\":10623:10659  DomainRegistered(domain, msg.sender) */\n      mload(0x40)\n      tag_265\n      swap3\n      swap2\n      swap1\n      tag_104\n      jump\t// in\n    tag_265:\n      mload(0x40)\n      dup1\n      swap2\n      sub\n      swap1\n      log2\n        /* \"contracts/DomainRegistry.sol\":10463:10666  {... */\n      pop\n        /* \"contracts/DomainRegistry.sol\":6923:6924  _ */\n      pop\n      pop\n        /* \"contracts/DomainRegistry.sol\":6570:6931  {... */\n      pop\n      pop\n        /* \"contracts/DomainRegistry.sol\":10317:10666  function buyDomainViaUsdc(string calldata domain)... */\n      pop\n      pop\n      jump\t// out\n        /* \"contracts/DomainRegistry.sol\":15389:15669  function _getEthToUsdPriceFromOracle()... */\n    tag_84:\n        /* \"contracts/DomainRegistry.sol\":15474:15481  uint256 */\n      0x00\n        /* \"contracts/DomainRegistry.sol\":15500:15512  int256 price */\n      dup1\n        /* \"contracts/DomainRegistry.sol\":15522:15531  priceFeed */\n      0x00\n      dup1\n      sload\n      swap1\n      0x0100\n      exp\n      swap1\n      div\n      0xffffffffffffffffffffffffffffffffffffffff\n      and\n        /* \"contracts/DomainRegistry.sol\":15522:15547  priceFeed.latestRoundData */\n      0xffffffffffffffffffffffffffffffffffffffff\n      and\n      0xfeaf968c\n        /* \"contracts/DomainRegistry.sol\":15522:15549  priceFeed.latestRoundData() */\n      mload(0x40)\n      dup2\n      0xffffffff\n      and\n      0xe0\n      shl\n      dup2\n      mstore\n      0x04\n      add\n      0xa0\n      mload(0x40)\n      dup1\n      dup4\n      sub\n      dup2\n      dup7\n      gas\n      staticcall\n      iszero\n      dup1\n      iszero\n      tag_268\n      jumpi\n      returndatasize\n      0x00\n      dup1\n      returndatacopy\n      revert(0x00, returndatasize)\n    tag_268:\n      pop\n      pop\n      pop\n      pop\n      mload(0x40)\n      returndatasize\n      not(0x1f)\n      0x1f\n      dup3\n      add\n      and\n      dup3\n      add\n      dup1\n      0x40\n      mstore\n      pop\n      dup2\n      add\n      swap1\n      tag_269\n      swap2\n      swap1\n      tag_270\n      jump\t// in\n    tag_269:\n        /* \"contracts/DomainRegistry.sol\":15497:15549  (, int256 price, , , ) = priceFeed.latestRoundData() */\n      pop\n      pop\n      pop\n      swap2\n      pop\n      pop\n        /* \"contracts/DomainRegistry.sol\":15572:15573  0 */\n      0x00\n        /* \"contracts/DomainRegistry.sol\":15564:15569  price */\n      dup2\n        /* \"contracts/DomainRegistry.sol\":15564:15573  price < 0 */\n      slt\n        /* \"contracts/DomainRegistry.sol\":15560:15631  if (price < 0) {... */\n      iszero\n      tag_271\n      jumpi\n        /* \"contracts/DomainRegistry.sol\":15596:15620  InvalidPriceFromOracle() */\n      mload(0x40)\n      0x6f4f5ab900000000000000000000000000000000000000000000000000000000\n      dup2\n      mstore\n      0x04\n      add\n      mload(0x40)\n      dup1\n      swap2\n      sub\n      swap1\n      revert\n        /* \"contracts/DomainRegistry.sol\":15560:15631  if (price < 0) {... */\n    tag_271:\n        /* \"contracts/DomainRegistry.sol\":15656:15661  price */\n      dup1\n        /* \"contracts/DomainRegistry.sol\":15641:15662  return uint256(price) */\n      swap2\n      pop\n      pop\n        /* \"contracts/DomainRegistry.sol\":15389:15669  function _getEthToUsdPriceFromOracle()... */\n      swap1\n      jump\t// out\n        /* \"contracts/DomainRegistry.sol\":11843:12205  function withdrawUsdc() public onlyOwner {... */\n    tag_88:\n        /* \"@openzeppelin/contracts-upgradeable/access/OwnableUpgradeable.sol\":2334:2347  _checkOwner() */\n      tag_273\n        /* \"@openzeppelin/contracts-upgradeable/access/OwnableUpgradeable.sol\":2334:2345  _checkOwner */\n      tag_182\n        /* \"@openzeppelin/contracts-upgradeable/access/OwnableUpgradeable.sol\":2334:2347  _checkOwner() */\n      jump\t// in\n    tag_273:\n        /* \"contracts/DomainRegistry.sol\":11894:11917  uint256 contractBalance */\n      0x00\n        /* \"contracts/DomainRegistry.sol\":11959:11980  _getUsdcFundStorage() */\n      tag_275\n        /* \"contracts/DomainRegistry.sol\":11959:11978  _getUsdcFundStorage */\n      tag_121\n        /* \"contracts/DomainRegistry.sol\":11959:11980  _getUsdcFundStorage() */\n      jump\t// in\n    tag_275:\n        /* \"contracts/DomainRegistry.sol\":11959:11994  _getUsdcFundStorage().frozenBalance */\n      0x00\n      add\n      sload\n        /* \"contracts/DomainRegistry.sol\":11920:11944  getUsdcContractBalance() */\n      tag_276\n        /* \"contracts/DomainRegistry.sol\":11920:11942  getUsdcContractBalance */\n      tag_277\n        /* \"contracts/DomainRegistry.sol\":11920:11944  getUsdcContractBalance() */\n      jump\t// in\n    tag_276:\n        /* \"contracts/DomainRegistry.sol\":11920:11994  getUsdcContractBalance() -... */\n      tag_278\n      swap2\n      swap1\n      tag_173\n      jump\t// in\n    tag_278:\n        /* \"contracts/DomainRegistry.sol\":11894:11994  uint256 contractBalance = getUsdcContractBalance() -... */\n      swap1\n      pop\n        /* \"contracts/DomainRegistry.sol\":12028:12029  0 */\n      0x00\n        /* \"contracts/DomainRegistry.sol\":12009:12024  contractBalance */\n      dup2\n        /* \"contracts/DomainRegistry.sol\":12009:12029  contractBalance == 0 */\n      sub\n        /* \"contracts/DomainRegistry.sol\":12005:12089  if (contractBalance == 0) {... */\n      tag_279\n      jumpi\n        /* \"contracts/DomainRegistry.sol\":12070:12077  owner() */\n      tag_280\n        /* \"contracts/DomainRegistry.sol\":12070:12075  owner */\n      tag_59\n        /* \"contracts/DomainRegistry.sol\":12070:12077  owner() */\n      jump\t// in\n    tag_280:\n        /* \"contracts/DomainRegistry.sol\":12052:12078  NothingToWithdraw(owner()) */\n      mload(0x40)\n      0xdc69dc1600000000000000000000000000000000000000000000000000000000\n      dup2\n      mstore\n      0x04\n      add\n      tag_281\n      swap2\n      swap1\n      tag_35\n      jump\t// in\n    tag_281:\n      mload(0x40)\n      dup1\n      swap2\n      sub\n      swap1\n      revert\n        /* \"contracts/DomainRegistry.sol\":12005:12089  if (contractBalance == 0) {... */\n    tag_279:\n        /* \"contracts/DomainRegistry.sol\":12099:12108  usdcToken */\n      0x01\n      0x00\n      swap1\n      sload\n      swap1\n      0x0100\n      exp\n      swap1\n      div\n      0xffffffffffffffffffffffffffffffffffffffff\n      and\n        /* \"contracts/DomainRegistry.sol\":12099:12117  usdcToken.transfer */\n      0xffffffffffffffffffffffffffffffffffffffff\n      and\n      0xa9059cbb\n        /* \"contracts/DomainRegistry.sol\":12118:12128  msg.sender */\n      caller\n        /* \"contracts/DomainRegistry.sol\":12130:12145  contractBalance */\n      dup4\n        /* \"contracts/DomainRegistry.sol\":12099:12146  usdcToken.transfer(msg.sender, contractBalance) */\n      mload(0x40)\n      dup4\n      0xffffffff\n      and\n      0xe0\n      shl\n      dup2\n      mstore\n      0x04\n      add\n      tag_282\n      swap3\n      swap2\n      swap1\n      tag_177\n      jump\t// in\n    tag_282:\n      0x20\n      mload(0x40)\n      dup1\n      dup4\n      sub\n      dup2\n      0x00\n      dup8\n      gas\n      call\n      iszero\n      dup1\n      iszero\n      tag_284\n      jumpi\n      returndatasize\n      0x00\n      dup1\n      returndatacopy\n      revert(0x00, returndatasize)\n    tag_284:\n      pop\n      pop\n      pop\n      pop\n      mload(0x40)\n      returndatasize\n      not(0x1f)\n      0x1f\n      dup3\n      add\n      and\n      dup3\n      add\n      dup1\n      0x40\n      mstore\n      pop\n      dup2\n      add\n      swap1\n      tag_285\n      swap2\n      swap1\n      tag_195\n      jump\t// in\n    tag_285:\n      pop\n        /* \"contracts/DomainRegistry.sol\":12162:12198  Withdrawal(owner(), contractBalance) */\n      0x7fcf532c15f0a6db0bd6d0e038bea71d30d808c7d98cb3bf7268a95bf5081b65\n        /* \"contracts/DomainRegistry.sol\":12173:12180  owner() */\n      tag_286\n        /* \"contracts/DomainRegistry.sol\":12173:12178  owner */\n      tag_59\n        /* \"contracts/DomainRegistry.sol\":12173:12180  owner() */\n      jump\t// in\n    tag_286:\n        /* \"contracts/DomainRegistry.sol\":12182:12197  contractBalance */\n      dup3\n        /* \"contracts/DomainRegistry.sol\":12162:12198  Withdrawal(owner(), contractBalance) */\n      mload(0x40)\n      tag_287\n      swap3\n      swap2\n      swap1\n      tag_177\n      jump\t// in\n    tag_287:\n      mload(0x40)\n      dup1\n      swap2\n      sub\n      swap1\n      log1\n        /* \"contracts/DomainRegistry.sol\":11884:12205  {... */\n      pop\n        /* \"contracts/DomainRegistry.sol\":11843:12205  function withdrawUsdc() public onlyOwner {... */\n      jump\t// out\n        /* \"contracts/DomainRegistry.sol\":14826:15012  function _getDomainStorage()... */\n    tag_96:\n        /* \"contracts/DomainRegistry.sol\":14901:14924  DomainStorage storage $ */\n      0x00\n        /* \"contracts/DomainRegistry.sol\":14973:14996  DOMAIN_STORAGE_LOCATION */\n      0x34d79759018dd62b1c8d40a6535099f131828aa4665b939adf68c4556b516400\n        /* \"contracts/DomainRegistry.sol\":14963:14996  $.slot := DOMAIN_STORAGE_LOCATION */\n      swap1\n      pop\n        /* \"contracts/DomainRegistry.sol\":14826:15012  function _getDomainStorage()... */\n      swap1\n      jump\t// out\n        /* \"contracts/DomainRegistry.sol\":15745:15874  function getUsdcAllowance() private view returns (uint256) {... */\n    tag_107:\n        /* \"contracts/DomainRegistry.sol\":15795:15802  uint256 */\n      0x00\n        /* \"contracts/DomainRegistry.sol\":15821:15830  usdcToken */\n      0x01\n      0x00\n      swap1\n      sload\n      swap1\n      0x0100\n      exp\n      swap1\n      div\n      0xffffffffffffffffffffffffffffffffffffffff\n      and\n        /* \"contracts/DomainRegistry.sol\":15821:15840  usdcToken.allowance */\n      0xffffffffffffffffffffffffffffffffffffffff\n      and\n      0xdd62ed3e\n        /* \"contracts/DomainRegistry.sol\":15841:15851  msg.sender */\n      caller\n        /* \"contracts/DomainRegistry.sol\":15861:15865  this */\n      address\n        /* \"contracts/DomainRegistry.sol\":15821:15867  usdcToken.allowance(msg.sender, address(this)) */\n      mload(0x40)\n      dup4\n      0xffffffff\n      and\n      0xe0\n      shl\n      dup2\n      mstore\n      0x04\n      add\n      tag_290\n      swap3\n      swap2\n      swap1\n      tag_291\n      jump\t// in\n    tag_290:\n      0x20\n      mload(0x40)\n      dup1\n      dup4\n      sub\n      dup2\n      dup7\n      gas\n      staticcall\n      iszero\n      dup1\n      iszero\n      tag_293\n      jumpi\n      returndatasize\n      0x00\n      dup1\n      returndatacopy\n      revert(0x00, returndatasize)\n    tag_293:\n      pop\n      pop\n      pop\n      pop\n      mload(0x40)\n      returndatasize\n      not(0x1f)\n      0x1f\n      dup3\n      add\n      and\n      dup3\n      add\n      dup1\n      0x40\n      mstore\n      pop\n      dup2\n      add\n      swap1\n      tag_294\n      swap2\n      swap1\n      tag_295\n      jump\t// in\n    tag_294:\n        /* \"contracts/DomainRegistry.sol\":15814:15867  return usdcToken.allowance(msg.sender, address(this)) */\n      swap1\n      pop\n        /* \"contracts/DomainRegistry.sol\":15745:15874  function getUsdcAllowance() private view returns (uint256) {... */\n      swap1\n      jump\t// out\n        /* \"contracts/DomainRegistry.sol\":16265:16840  function createAndCheckFullDomain(... */\n    tag_113:\n        /* \"contracts/DomainRegistry.sol\":16402:16415  string memory */\n      0x60\n        /* \"contracts/DomainRegistry.sol\":16500:16501  0 */\n      0x00\n        /* \"contracts/DomainRegistry.sol\":16444:16502  _getDomainStorage().domainList[parentDomain] == address(0) */\n      0xffffffffffffffffffffffffffffffffffffffff\n      and\n        /* \"contracts/DomainRegistry.sol\":16444:16463  _getDomainStorage() */\n      tag_297\n        /* \"contracts/DomainRegistry.sol\":16444:16461  _getDomainStorage */\n      tag_96\n        /* \"contracts/DomainRegistry.sol\":16444:16463  _getDomainStorage() */\n      jump\t// in\n    tag_297:\n        /* \"contracts/DomainRegistry.sol\":16444:16474  _getDomainStorage().domainList */\n      0x01\n      add\n        /* \"contracts/DomainRegistry.sol\":16475:16487  parentDomain */\n      dup7\n      dup7\n        /* \"contracts/DomainRegistry.sol\":16444:16488  _getDomainStorage().domainList[parentDomain] */\n      mload(0x40)\n      tag_298\n      swap3\n      swap2\n      swap1\n      tag_98\n      jump\t// in\n    tag_298:\n      swap1\n      dup2\n      mstore\n      0x20\n      add\n      mload(0x40)\n      dup1\n      swap2\n      sub\n      swap1\n      keccak256\n      0x00\n      swap1\n      sload\n      swap1\n      0x0100\n      exp\n      swap1\n      div\n      0xffffffffffffffffffffffffffffffffffffffff\n      and\n        /* \"contracts/DomainRegistry.sol\":16444:16502  _getDomainStorage().domainList[parentDomain] == address(0) */\n      0xffffffffffffffffffffffffffffffffffffffff\n      and\n      sub\n        /* \"contracts/DomainRegistry.sol\":16427:16579  if (... */\n      tag_299\n      jumpi\n        /* \"contracts/DomainRegistry.sol\":16555:16567  parentDomain */\n      dup5\n      dup5\n        /* \"contracts/DomainRegistry.sol\":16534:16568  ParentDomainNotFound(parentDomain) */\n      mload(0x40)\n      0x30a58c0700000000000000000000000000000000000000000000000000000000\n      dup2\n      mstore\n      0x04\n      add\n      tag_300\n      swap3\n      swap2\n      swap1\n      tag_104\n      jump\t// in\n    tag_300:\n      mload(0x40)\n      dup1\n      swap2\n      sub\n      swap1\n      revert\n        /* \"contracts/DomainRegistry.sol\":16427:16579  if (... */\n    tag_299:\n        /* \"contracts/DomainRegistry.sol\":16589:16609  string memory domain */\n      0x00\n        /* \"contracts/DomainRegistry.sol\":16612:16689  createFullDomain(... */\n      tag_301\n        /* \"contracts/DomainRegistry.sol\":16642:16653  childDomain */\n      dup5\n      dup5\n        /* \"contracts/DomainRegistry.sol\":16667:16679  parentDomain */\n      dup9\n      dup9\n        /* \"contracts/DomainRegistry.sol\":16612:16628  createFullDomain */\n      tag_302\n        /* \"contracts/DomainRegistry.sol\":16612:16689  createFullDomain(... */\n      jump\t// in\n    tag_301:\n        /* \"contracts/DomainRegistry.sol\":16589:16689  string memory domain = createFullDomain(... */\n      swap1\n      pop\n        /* \"contracts/DomainRegistry.sol\":16754:16755  0 */\n      0x00\n        /* \"contracts/DomainRegistry.sol\":16704:16756  _getDomainStorage().domainList[domain] != address(0) */\n      0xffffffffffffffffffffffffffffffffffffffff\n      and\n        /* \"contracts/DomainRegistry.sol\":16704:16723  _getDomainStorage() */\n      tag_303\n        /* \"contracts/DomainRegistry.sol\":16704:16721  _getDomainStorage */\n      tag_96\n        /* \"contracts/DomainRegistry.sol\":16704:16723  _getDomainStorage() */\n      jump\t// in\n    tag_303:\n        /* \"contracts/DomainRegistry.sol\":16704:16734  _getDomainStorage().domainList */\n      0x01\n      add\n        /* \"contracts/DomainRegistry.sol\":16735:16741  domain */\n      dup3\n        /* \"contracts/DomainRegistry.sol\":16704:16742  _getDomainStorage().domainList[domain] */\n      mload(0x40)\n      tag_304\n      swap2\n      swap1\n      tag_119\n      jump\t// in\n    tag_304:\n      swap1\n      dup2\n      mstore\n      0x20\n      add\n      mload(0x40)\n      dup1\n      swap2\n      sub\n      swap1\n      keccak256\n      0x00\n      swap1\n      sload\n      swap1\n      0x0100\n      exp\n      swap1\n      div\n      0xffffffffffffffffffffffffffffffffffffffff\n      and\n        /* \"contracts/DomainRegistry.sol\":16704:16756  _getDomainStorage().domainList[domain] != address(0) */\n      0xffffffffffffffffffffffffffffffffffffffff\n      and\n      eq\n        /* \"contracts/DomainRegistry.sol\":16700:16810  if (_getDomainStorage().domainList[domain] != address(0)) {... */\n      tag_305\n      jumpi\n        /* \"contracts/DomainRegistry.sol\":16779:16799  DomainAlreadyTaken() */\n      mload(0x40)\n      0xc5e8402d00000000000000000000000000000000000000000000000000000000\n      dup2\n      mstore\n      0x04\n      add\n      mload(0x40)\n      dup1\n      swap2\n      sub\n      swap1\n      revert\n        /* \"contracts/DomainRegistry.sol\":16700:16810  if (_getDomainStorage().domainList[domain] != address(0)) {... */\n    tag_305:\n        /* \"contracts/DomainRegistry.sol\":16827:16833  domain */\n      dup1\n        /* \"contracts/DomainRegistry.sol\":16820:16833  return domain */\n      swap2\n      pop\n      pop\n        /* \"contracts/DomainRegistry.sol\":16265:16840  function createAndCheckFullDomain(... */\n      swap5\n      swap4\n      pop\n      pop\n      pop\n      pop\n      jump\t// out\n        /* \"contracts/DomainRegistry.sol\":16925:17097  function transferUsdc(uint256 allowance) private {... */\n    tag_116:\n        /* \"contracts/DomainRegistry.sol\":16984:16993  usdcToken */\n      0x01\n      0x00\n      swap1\n      sload\n      swap1\n      0x0100\n      exp\n      swap1\n      div\n      0xffffffffffffffffffffffffffffffffffffffff\n      and\n        /* \"contracts/DomainRegistry.sol\":16984:17006  usdcToken.transferFrom */\n      0xffffffffffffffffffffffffffffffffffffffff\n      and\n      0x23b872dd\n        /* \"contracts/DomainRegistry.sol\":17020:17030  msg.sender */\n      caller\n        /* \"contracts/DomainRegistry.sol\":17052:17056  this */\n      address\n        /* \"contracts/DomainRegistry.sol\":17071:17080  allowance */\n      dup5\n        /* \"contracts/DomainRegistry.sol\":16984:17090  usdcToken.transferFrom(... */\n      mload(0x40)\n      dup5\n      0xffffffff\n      and\n      0xe0\n      shl\n      dup2\n      mstore\n      0x04\n      add\n      tag_307\n      swap4\n      swap3\n      swap2\n      swap1\n      tag_308\n      jump\t// in\n    tag_307:\n      0x20\n      mload(0x40)\n      dup1\n      dup4\n      sub\n      dup2\n      0x00\n      dup8\n      gas\n      call\n      iszero\n      dup1\n      iszero\n      tag_310\n      jumpi\n      returndatasize\n      0x00\n      dup1\n      returndatacopy\n      revert(0x00, returndatasize)\n    tag_310:\n      pop\n      pop\n      pop\n      pop\n      mload(0x40)\n      returndatasize\n      not(0x1f)\n      0x1f\n      dup3\n      add\n      and\n      dup3\n      add\n      dup1\n      0x40\n      mstore\n      pop\n      dup2\n      add\n      swap1\n      tag_311\n      swap2\n      swap1\n      tag_195\n      jump\t// in\n    tag_311:\n      pop\n        /* \"contracts/DomainRegistry.sol\":16925:17097  function transferUsdc(uint256 allowance) private {... */\n      pop\n      jump\t// out\n        /* \"contracts/DomainRegistry.sol\":16012:16205  function _getUsdcFundStorage()... */\n    tag_121:\n        /* \"contracts/DomainRegistry.sol\":16089:16114  UsdcFundStorage storage $ */\n      0x00\n        /* \"contracts/DomainRegistry.sol\":16163:16189  USDC_FUND_STORAGE_LOCATION */\n      0x64d6ff49462c7266e92c8aa47370a483b3bb1c9ff7216e1d88a62c1eb24ffb00\n        /* \"contracts/DomainRegistry.sol\":16153:16189  $.slot := USDC_FUND_STORAGE_LOCATION */\n      swap1\n      pop\n        /* \"contracts/DomainRegistry.sol\":16012:16205  function _getUsdcFundStorage()... */\n      swap1\n      jump\t// out\n        /* \"contracts/DomainRegistry.sol\":15145:15325  function _getFundStorage()... */\n    tag_150:\n        /* \"contracts/DomainRegistry.sol\":15218:15239  FundStorage storage $ */\n      0x00\n        /* \"contracts/DomainRegistry.sol\":15288:15309  FUND_STORAGE_LOCATION */\n      0x249f20ee916056548cfe0204d9ea4281f252680318bb5252f87aa5a31ec81e00\n        /* \"contracts/DomainRegistry.sol\":15278:15309  $.slot := FUND_STORAGE_LOCATION */\n      swap1\n      pop\n        /* \"contracts/DomainRegistry.sol\":15145:15325  function _getFundStorage()... */\n      swap1\n      jump\t// out\n        /* \"@openzeppelin/contracts-upgradeable/access/OwnableUpgradeable.sol\":2658:2820  function _checkOwner() internal view virtual {... */\n    tag_182:\n        /* \"@openzeppelin/contracts-upgradeable/access/OwnableUpgradeable.sol\":2728:2740  _msgSender() */\n      tag_315\n        /* \"@openzeppelin/contracts-upgradeable/access/OwnableUpgradeable.sol\":2728:2738  _msgSender */\n      tag_316\n        /* \"@openzeppelin/contracts-upgradeable/access/OwnableUpgradeable.sol\":2728:2740  _msgSender() */\n      jump\t// in\n    tag_315:\n        /* \"@openzeppelin/contracts-upgradeable/access/OwnableUpgradeable.sol\":2717:2740  owner() != _msgSender() */\n      0xffffffffffffffffffffffffffffffffffffffff\n      and\n        /* \"@openzeppelin/contracts-upgradeable/access/OwnableUpgradeable.sol\":2717:2724  owner() */\n      tag_317\n        /* \"@openzeppelin/contracts-upgradeable/access/OwnableUpgradeable.sol\":2717:2722  owner */\n      tag_59\n        /* \"@openzeppelin/contracts-upgradeable/access/OwnableUpgradeable.sol\":2717:2724  owner() */\n      jump\t// in\n    tag_317:\n        /* \"@openzeppelin/contracts-upgradeable/access/OwnableUpgradeable.sol\":2717:2740  owner() != _msgSender() */\n      0xffffffffffffffffffffffffffffffffffffffff\n      and\n      eq\n        /* \"@openzeppelin/contracts-upgradeable/access/OwnableUpgradeable.sol\":2713:2814  if (owner() != _msgSender()) {... */\n      tag_318\n      jumpi\n        /* \"@openzeppelin/contracts-upgradeable/access/OwnableUpgradeable.sol\":2790:2802  _msgSender() */\n      tag_319\n        /* \"@openzeppelin/contracts-upgradeable/access/OwnableUpgradeable.sol\":2790:2800  _msgSender */\n      tag_316\n        /* \"@openzeppelin/contracts-upgradeable/access/OwnableUpgradeable.sol\":2790:2802  _msgSender() */\n      jump\t// in\n    tag_319:\n        /* \"@openzeppelin/contracts-upgradeable/access/OwnableUpgradeable.sol\":2763:2803  OwnableUnauthorizedAccount(_msgSender()) */\n      mload(0x40)\n      0x118cdaa700000000000000000000000000000000000000000000000000000000\n      dup2\n      mstore\n      0x04\n      add\n      tag_320\n      swap2\n      swap1\n      tag_35\n      jump\t// in\n    tag_320:\n      mload(0x40)\n      dup1\n      swap2\n      sub\n      swap1\n      revert\n        /* \"@openzeppelin/contracts-upgradeable/access/OwnableUpgradeable.sol\":2713:2814  if (owner() != _msgSender()) {... */\n    tag_318:\n        /* \"@openzeppelin/contracts-upgradeable/access/OwnableUpgradeable.sol\":2658:2820  function _checkOwner() internal view virtual {... */\n      jump\t// out\n        /* \"@openzeppelin/contracts-upgradeable/access/OwnableUpgradeable.sol\":3774:4022  function _transferOwnership(address newOwner) internal virtual {... */\n    tag_185:\n        /* \"@openzeppelin/contracts-upgradeable/access/OwnableUpgradeable.sol\":3847:3871  OwnableStorage storage $ */\n      0x00\n        /* \"@openzeppelin/contracts-upgradeable/access/OwnableUpgradeable.sol\":3874:3894  _getOwnableStorage() */\n      tag_322\n        /* \"@openzeppelin/contracts-upgradeable/access/OwnableUpgradeable.sol\":3874:3892  _getOwnableStorage */\n      tag_202\n        /* \"@openzeppelin/contracts-upgradeable/access/OwnableUpgradeable.sol\":3874:3894  _getOwnableStorage() */\n      jump\t// in\n    tag_322:\n        /* \"@openzeppelin/contracts-upgradeable/access/OwnableUpgradeable.sol\":3847:3894  OwnableStorage storage $ = _getOwnableStorage() */\n      swap1\n      pop\n        /* \"@openzeppelin/contracts-upgradeable/access/OwnableUpgradeable.sol\":3904:3920  address oldOwner */\n      0x00\n        /* \"@openzeppelin/contracts-upgradeable/access/OwnableUpgradeable.sol\":3923:3924  $ */\n      dup2\n        /* \"@openzeppelin/contracts-upgradeable/access/OwnableUpgradeable.sol\":3923:3931  $._owner */\n      0x00\n      add\n      0x00\n      swap1\n      sload\n      swap1\n      0x0100\n      exp\n      swap1\n      div\n      0xffffffffffffffffffffffffffffffffffffffff\n      and\n        /* \"@openzeppelin/contracts-upgradeable/access/OwnableUpgradeable.sol\":3904:3931  address oldOwner = $._owner */\n      swap1\n      pop\n        /* \"@openzeppelin/contracts-upgradeable/access/OwnableUpgradeable.sol\":3952:3960  newOwner */\n      dup3\n        /* \"@openzeppelin/contracts-upgradeable/access/OwnableUpgradeable.sol\":3941:3942  $ */\n      dup3\n        /* \"@openzeppelin/contracts-upgradeable/access/OwnableUpgradeable.sol\":3941:3949  $._owner */\n      0x00\n      add\n      0x00\n        /* \"@openzeppelin/contracts-upgradeable/access/OwnableUpgradeable.sol\":3941:3960  $._owner = newOwner */\n      0x0100\n      exp\n      dup2\n      sload\n      dup2\n      0xffffffffffffffffffffffffffffffffffffffff\n      mul\n      not\n      and\n      swap1\n      dup4\n      0xffffffffffffffffffffffffffffffffffffffff\n      and\n      mul\n      or\n      swap1\n      sstore\n      pop\n        /* \"@openzeppelin/contracts-upgradeable/access/OwnableUpgradeable.sol\":4006:4014  newOwner */\n      dup3\n        /* \"@openzeppelin/contracts-upgradeable/access/OwnableUpgradeable.sol\":3975:4015  OwnershipTransferred(oldOwner, newOwner) */\n      0xffffffffffffffffffffffffffffffffffffffff\n      and\n        /* \"@openzeppelin/contracts-upgradeable/access/OwnableUpgradeable.sol\":3996:4004  oldOwner */\n      dup2\n        /* \"@openzeppelin/contracts-upgradeable/access/OwnableUpgradeable.sol\":3975:4015  OwnershipTransferred(oldOwner, newOwner) */\n      0xffffffffffffffffffffffffffffffffffffffff\n      and\n      0x8be0079c531659141344cd1fd0a4f28419497f9722a3daafe3b4186f6b6457e0\n      mload(0x40)\n      mload(0x40)\n      dup1\n      swap2\n      sub\n      swap1\n      log3\n        /* \"@openzeppelin/contracts-upgradeable/access/OwnableUpgradeable.sol\":3837:4022  {... */\n      pop\n      pop\n        /* \"@openzeppelin/contracts-upgradeable/access/OwnableUpgradeable.sol\":3774:4022  function _transferOwnership(address newOwner) internal virtual {... */\n      pop\n      jump\t// out\n        /* \"@openzeppelin/contracts-upgradeable/access/OwnableUpgradeable.sol\":1192:1351  function _getOwnableStorage() private pure returns (OwnableStorage storage $) {... */\n    tag_202:\n        /* \"@openzeppelin/contracts-upgradeable/access/OwnableUpgradeable.sol\":1244:1268  OwnableStorage storage $ */\n      0x00\n        /* \"@openzeppelin/contracts-upgradeable/access/OwnableUpgradeable.sol\":1313:1335  OwnableStorageLocation */\n      0x9016d09d72d40fdae2fd8ceac6b6234c7706214fd39c1cd1e609a0528c199300\n        /* \"@openzeppelin/contracts-upgradeable/access/OwnableUpgradeable.sol\":1303:1335  $.slot := OwnableStorageLocation */\n      swap1\n      pop\n        /* \"@openzeppelin/contracts-upgradeable/access/OwnableUpgradeable.sol\":1192:1351  function _getOwnableStorage() private pure returns (OwnableStorage storage $) {... */\n      swap1\n      jump\t// out\n        /* \"@openzeppelin/contracts-upgradeable/proxy/utils/Initializable.sol\":8737:8907  function _getInitializableStorage() private pure returns (InitializableStorage storage $) {... */\n    tag_232:\n        /* \"@openzeppelin/contracts-upgradeable/proxy/utils/Initializable.sol\":8795:8825  InitializableStorage storage $ */\n      0x00\n        /* \"@openzeppelin/contracts-upgradeable/proxy/utils/Initializable.sol\":8870:8891  INITIALIZABLE_STORAGE */\n      0xf0c57e16840df040f15088dc2f81fe391c3923bec73e23a9662efc9c229c6a00\n        /* \"@openzeppelin/contracts-upgradeable/proxy/utils/Initializable.sol\":8860:8891  $.slot := INITIALIZABLE_STORAGE */\n      swap1\n      pop\n        /* \"@openzeppelin/contracts-upgradeable/proxy/utils/Initializable.sol\":8737:8907  function _getInitializableStorage() private pure returns (InitializableStorage storage $) {... */\n      swap1\n      jump\t// out\n        /* \"@openzeppelin/contracts-upgradeable/access/OwnableUpgradeable.sol\":1847:1974  function __Ownable_init(address initialOwner) internal onlyInitializing {... */\n    tag_241:\n        /* \"@openzeppelin/contracts-upgradeable/proxy/utils/Initializable.sol\":6931:6951  _checkInitializing() */\n      tag_326\n        /* \"@openzeppelin/contracts-upgradeable/proxy/utils/Initializable.sol\":6931:6949  _checkInitializing */\n      tag_327\n        /* \"@openzeppelin/contracts-upgradeable/proxy/utils/Initializable.sol\":6931:6951  _checkInitializing() */\n      jump\t// in\n    tag_326:\n        /* \"@openzeppelin/contracts-upgradeable/access/OwnableUpgradeable.sol\":1929:1967  __Ownable_init_unchained(initialOwner) */\n      tag_329\n        /* \"@openzeppelin/contracts-upgradeable/access/OwnableUpgradeable.sol\":1954:1966  initialOwner */\n      dup2\n        /* \"@openzeppelin/contracts-upgradeable/access/OwnableUpgradeable.sol\":1929:1953  __Ownable_init_unchained */\n      tag_330\n        /* \"@openzeppelin/contracts-upgradeable/access/OwnableUpgradeable.sol\":1929:1967  __Ownable_init_unchained(initialOwner) */\n      jump\t// in\n    tag_329:\n        /* \"@openzeppelin/contracts-upgradeable/access/OwnableUpgradeable.sol\":1847:1974  function __Ownable_init(address initialOwner) internal onlyInitializing {... */\n      pop\n      jump\t// out\n        /* \"contracts/DomainRegistry.sol\":17163:17285  function getUsdcContractBalance() private view returns(uint256) {... */\n    tag_277:\n        /* \"contracts/DomainRegistry.sol\":17218:17225  uint256 */\n      0x00\n        /* \"contracts/DomainRegistry.sol\":17244:17253  usdcToken */\n      0x01\n      0x00\n      swap1\n      sload\n      swap1\n      0x0100\n      exp\n      swap1\n      div\n      0xffffffffffffffffffffffffffffffffffffffff\n      and\n        /* \"contracts/DomainRegistry.sol\":17244:17263  usdcToken.balanceOf */\n      0xffffffffffffffffffffffffffffffffffffffff\n      and\n      0x70a08231\n        /* \"contracts/DomainRegistry.sol\":17272:17276  this */\n      address\n        /* \"contracts/DomainRegistry.sol\":17244:17278  usdcToken.balanceOf(address(this)) */\n      mload(0x40)\n      dup3\n      0xffffffff\n      and\n      0xe0\n      shl\n      dup2\n      mstore\n      0x04\n      add\n      tag_332\n      swap2\n      swap1\n      tag_35\n      jump\t// in\n    tag_332:\n      0x20\n      mload(0x40)\n      dup1\n      dup4\n      sub\n      dup2\n      dup7\n      gas\n      staticcall\n      iszero\n      dup1\n      iszero\n      tag_334\n      jumpi\n      returndatasize\n      0x00\n      dup1\n      returndatacopy\n      revert(0x00, returndatasize)\n    tag_334:\n      pop\n      pop\n      pop\n      pop\n      mload(0x40)\n      returndatasize\n      not(0x1f)\n      0x1f\n      dup3\n      add\n      and\n      dup3\n      add\n      dup1\n      0x40\n      mstore\n      pop\n      dup2\n      add\n      swap1\n      tag_335\n      swap2\n      swap1\n      tag_295\n      jump\t// in\n    tag_335:\n        /* \"contracts/DomainRegistry.sol\":17237:17278  return usdcToken.balanceOf(address(this)) */\n      swap1\n      pop\n        /* \"contracts/DomainRegistry.sol\":17163:17285  function getUsdcContractBalance() private view returns(uint256) {... */\n      swap1\n      jump\t// out\n        /* \"contracts/DomainRegistry.sol\":14362:14691  function createFullDomain(... */\n    tag_302:\n        /* \"contracts/DomainRegistry.sol\":14491:14511  string memory domain */\n      0x60\n        /* \"contracts/DomainRegistry.sol\":14586:14597  childDomain */\n      dup5\n      dup5\n        /* \"contracts/DomainRegistry.sol\":14615:14630  domainSeparator */\n      mload(0x40)\n      dup1\n      0x40\n      add\n      0x40\n      mstore\n      dup1\n      0x01\n      dup2\n      mstore\n      0x20\n      add\n      0x2e00000000000000000000000000000000000000000000000000000000000000\n      dup2\n      mstore\n      pop\n        /* \"contracts/DomainRegistry.sol\":14648:14660  parentDomain */\n      dup6\n      dup6\n        /* \"contracts/DomainRegistry.sol\":14552:14674  abi.encodePacked(... */\n      add(0x20, mload(0x40))\n      tag_337\n      swap6\n      swap5\n      swap4\n      swap3\n      swap2\n      swap1\n      tag_338\n      jump\t// in\n    tag_337:\n      mload(0x40)\n      0x20\n      dup2\n      dup4\n      sub\n      sub\n      dup2\n      mstore\n      swap1\n      0x40\n      mstore\n        /* \"contracts/DomainRegistry.sol\":14523:14684  domain = string(... */\n      swap1\n      pop\n        /* \"contracts/DomainRegistry.sol\":14362:14691  function createFullDomain(... */\n      swap5\n      swap4\n      pop\n      pop\n      pop\n      pop\n      jump\t// out\n        /* \"@openzeppelin/contracts-upgradeable/utils/ContextUpgradeable.sol\":887:983  function _msgSender() internal view virtual returns (address) {... */\n    tag_316:\n        /* \"@openzeppelin/contracts-upgradeable/utils/ContextUpgradeable.sol\":940:947  address */\n      0x00\n        /* \"@openzeppelin/contracts-upgradeable/utils/ContextUpgradeable.sol\":966:976  msg.sender */\n      caller\n        /* \"@openzeppelin/contracts-upgradeable/utils/ContextUpgradeable.sol\":959:976  return msg.sender */\n      swap1\n      pop\n        /* \"@openzeppelin/contracts-upgradeable/utils/ContextUpgradeable.sol\":887:983  function _msgSender() internal view virtual returns (address) {... */\n      swap1\n      jump\t// out\n        /* \"@openzeppelin/contracts-upgradeable/proxy/utils/Initializable.sol\":7084:7225  function _checkInitializing() internal view virtual {... */\n    tag_327:\n        /* \"@openzeppelin/contracts-upgradeable/proxy/utils/Initializable.sol\":7151:7168  _isInitializing() */\n      tag_341\n        /* \"@openzeppelin/contracts-upgradeable/proxy/utils/Initializable.sol\":7151:7166  _isInitializing */\n      tag_342\n        /* \"@openzeppelin/contracts-upgradeable/proxy/utils/Initializable.sol\":7151:7168  _isInitializing() */\n      jump\t// in\n    tag_341:\n        /* \"@openzeppelin/contracts-upgradeable/proxy/utils/Initializable.sol\":7146:7219  if (!_isInitializing()) {... */\n      tag_343\n      jumpi\n        /* \"@openzeppelin/contracts-upgradeable/proxy/utils/Initializable.sol\":7191:7208  NotInitializing() */\n      mload(0x40)\n      0xd7e6bcf800000000000000000000000000000000000000000000000000000000\n      dup2\n      mstore\n      0x04\n      add\n      mload(0x40)\n      dup1\n      swap2\n      sub\n      swap1\n      revert\n        /* \"@openzeppelin/contracts-upgradeable/proxy/utils/Initializable.sol\":7146:7219  if (!_isInitializing()) {... */\n    tag_343:\n        /* \"@openzeppelin/contracts-upgradeable/proxy/utils/Initializable.sol\":7084:7225  function _checkInitializing() internal view virtual {... */\n      jump\t// out\n        /* \"@openzeppelin/contracts-upgradeable/access/OwnableUpgradeable.sol\":1980:2215  function __Ownable_init_unchained(address initialOwner) internal onlyInitializing {... */\n    tag_330:\n        /* \"@openzeppelin/contracts-upgradeable/proxy/utils/Initializable.sol\":6931:6951  _checkInitializing() */\n      tag_345\n        /* \"@openzeppelin/contracts-upgradeable/proxy/utils/Initializable.sol\":6931:6949  _checkInitializing */\n      tag_327\n        /* \"@openzeppelin/contracts-upgradeable/proxy/utils/Initializable.sol\":6931:6951  _checkInitializing() */\n      jump\t// in\n    tag_345:\n        /* \"@openzeppelin/contracts-upgradeable/access/OwnableUpgradeable.sol\":2100:2101  0 */\n      0x00\n        /* \"@openzeppelin/contracts-upgradeable/access/OwnableUpgradeable.sol\":2076:2102  initialOwner == address(0) */\n      0xffffffffffffffffffffffffffffffffffffffff\n      and\n        /* \"@openzeppelin/contracts-upgradeable/access/OwnableUpgradeable.sol\":2076:2088  initialOwner */\n      dup2\n        /* \"@openzeppelin/contracts-upgradeable/access/OwnableUpgradeable.sol\":2076:2102  initialOwner == address(0) */\n      0xffffffffffffffffffffffffffffffffffffffff\n      and\n      sub\n        /* \"@openzeppelin/contracts-upgradeable/access/OwnableUpgradeable.sol\":2072:2167  if (initialOwner == address(0)) {... */\n      tag_347\n      jumpi\n        /* \"@openzeppelin/contracts-upgradeable/access/OwnableUpgradeable.sol\":2153:2154  0 */\n      0x00\n        /* \"@openzeppelin/contracts-upgradeable/access/OwnableUpgradeable.sol\":2125:2156  OwnableInvalidOwner(address(0)) */\n      mload(0x40)\n      0x1e4fbdf700000000000000000000000000000000000000000000000000000000\n      dup2\n      mstore\n      0x04\n      add\n      tag_348\n      swap2\n      swap1\n      tag_35\n      jump\t// in\n    tag_348:\n      mload(0x40)\n      dup1\n      swap2\n      sub\n      swap1\n      revert\n        /* \"@openzeppelin/contracts-upgradeable/access/OwnableUpgradeable.sol\":2072:2167  if (initialOwner == address(0)) {... */\n    tag_347:\n        /* \"@openzeppelin/contracts-upgradeable/access/OwnableUpgradeable.sol\":2176:2208  _transferOwnership(initialOwner) */\n      tag_349\n        /* \"@openzeppelin/contracts-upgradeable/access/OwnableUpgradeable.sol\":2195:2207  initialOwner */\n      dup2\n        /* \"@openzeppelin/contracts-upgradeable/access/OwnableUpgradeable.sol\":2176:2194  _transferOwnership */\n      tag_185\n        /* \"@openzeppelin/contracts-upgradeable/access/OwnableUpgradeable.sol\":2176:2208  _transferOwnership(initialOwner) */\n      jump\t// in\n    tag_349:\n        /* \"@openzeppelin/contracts-upgradeable/access/OwnableUpgradeable.sol\":1980:2215  function __Ownable_init_unchained(address initialOwner) internal onlyInitializing {... */\n      pop\n      jump\t// out\n        /* \"@openzeppelin/contracts-upgradeable/proxy/utils/Initializable.sol\":8487:8607  function _isInitializing() internal view returns (bool) {... */\n    tag_342:\n        /* \"@openzeppelin/contracts-upgradeable/proxy/utils/Initializable.sol\":8537:8541  bool */\n      0x00\n        /* \"@openzeppelin/contracts-upgradeable/proxy/utils/Initializable.sol\":8560:8586  _getInitializableStorage() */\n      tag_351\n        /* \"@openzeppelin/contracts-upgradeable/proxy/utils/Initializable.sol\":8560:8584  _getInitializableStorage */\n      tag_232\n        /* \"@openzeppelin/contracts-upgradeable/proxy/utils/Initializable.sol\":8560:8586  _getInitializableStorage() */\n      jump\t// in\n    tag_351:\n        /* \"@openzeppelin/contracts-upgradeable/proxy/utils/Initializable.sol\":8560:8600  _getInitializableStorage()._initializing */\n      0x00\n      add\n      0x08\n      swap1\n      sload\n      swap1\n      0x0100\n      exp\n      swap1\n      div\n      0xff\n      and\n        /* \"@openzeppelin/contracts-upgradeable/proxy/utils/Initializable.sol\":8553:8600  return _getInitializableStorage()._initializing */\n      swap1\n      pop\n        /* \"@openzeppelin/contracts-upgradeable/proxy/utils/Initializable.sol\":8487:8607  function _isInitializing() internal view returns (bool) {... */\n      swap1\n      jump\t// out\n        /* \"#utility.yul\":88:205   */\n    tag_353:\n        /* \"#utility.yul\":197:198   */\n      0x00\n        /* \"#utility.yul\":194:195   */\n      dup1\n        /* \"#utility.yul\":187:199   */\n      revert\n        /* \"#utility.yul\":211:328   */\n    tag_354:\n        /* \"#utility.yul\":320:321   */\n      0x00\n        /* \"#utility.yul\":317:318   */\n      dup1\n        /* \"#utility.yul\":310:322   */\n      revert\n        /* \"#utility.yul\":334:451   */\n    tag_355:\n        /* \"#utility.yul\":443:444   */\n      0x00\n        /* \"#utility.yul\":440:441   */\n      dup1\n        /* \"#utility.yul\":433:445   */\n      revert\n        /* \"#utility.yul\":457:574   */\n    tag_356:\n        /* \"#utility.yul\":566:567   */\n      0x00\n        /* \"#utility.yul\":563:564   */\n      dup1\n        /* \"#utility.yul\":556:568   */\n      revert\n        /* \"#utility.yul\":580:697   */\n    tag_357:\n        /* \"#utility.yul\":689:690   */\n      0x00\n        /* \"#utility.yul\":686:687   */\n      dup1\n        /* \"#utility.yul\":679:691   */\n      revert\n        /* \"#utility.yul\":717:1270   */\n    tag_358:\n        /* \"#utility.yul\":775:783   */\n      0x00\n        /* \"#utility.yul\":785:791   */\n      dup1\n        /* \"#utility.yul\":835:838   */\n      dup4\n        /* \"#utility.yul\":828:832   */\n      0x1f\n        /* \"#utility.yul\":820:826   */\n      dup5\n        /* \"#utility.yul\":816:833   */\n      add\n        /* \"#utility.yul\":812:839   */\n      slt\n        /* \"#utility.yul\":802:924   */\n      tag_409\n      jumpi\n        /* \"#utility.yul\":843:922   */\n      tag_410\n      tag_355\n      jump\t// in\n    tag_410:\n        /* \"#utility.yul\":802:924   */\n    tag_409:\n        /* \"#utility.yul\":956:962   */\n      dup3\n        /* \"#utility.yul\":943:963   */\n      calldataload\n        /* \"#utility.yul\":933:963   */\n      swap1\n      pop\n        /* \"#utility.yul\":986:1004   */\n      0xffffffffffffffff\n        /* \"#utility.yul\":978:984   */\n      dup2\n        /* \"#utility.yul\":975:1005   */\n      gt\n        /* \"#utility.yul\":972:1089   */\n      iszero\n      tag_411\n      jumpi\n        /* \"#utility.yul\":1008:1087   */\n      tag_412\n      tag_356\n      jump\t// in\n    tag_412:\n        /* \"#utility.yul\":972:1089   */\n    tag_411:\n        /* \"#utility.yul\":1122:1126   */\n      0x20\n        /* \"#utility.yul\":1114:1120   */\n      dup4\n        /* \"#utility.yul\":1110:1127   */\n      add\n        /* \"#utility.yul\":1098:1127   */\n      swap2\n      pop\n        /* \"#utility.yul\":1176:1179   */\n      dup4\n        /* \"#utility.yul\":1168:1172   */\n      0x01\n        /* \"#utility.yul\":1160:1166   */\n      dup3\n        /* \"#utility.yul\":1156:1173   */\n      mul\n        /* \"#utility.yul\":1146:1154   */\n      dup4\n        /* \"#utility.yul\":1142:1174   */\n      add\n        /* \"#utility.yul\":1139:1180   */\n      gt\n        /* \"#utility.yul\":1136:1264   */\n      iszero\n      tag_413\n      jumpi\n        /* \"#utility.yul\":1183:1262   */\n      tag_414\n      tag_357\n      jump\t// in\n    tag_414:\n        /* \"#utility.yul\":1136:1264   */\n    tag_413:\n        /* \"#utility.yul\":717:1270   */\n      swap3\n      pop\n      swap3\n      swap1\n      pop\n      jump\t// out\n        /* \"#utility.yul\":1276:1805   */\n    tag_24:\n        /* \"#utility.yul\":1347:1353   */\n      0x00\n        /* \"#utility.yul\":1355:1361   */\n      dup1\n        /* \"#utility.yul\":1404:1406   */\n      0x20\n        /* \"#utility.yul\":1392:1401   */\n      dup4\n        /* \"#utility.yul\":1383:1390   */\n      dup6\n        /* \"#utility.yul\":1379:1402   */\n      sub\n        /* \"#utility.yul\":1375:1407   */\n      slt\n        /* \"#utility.yul\":1372:1491   */\n      iszero\n      tag_416\n      jumpi\n        /* \"#utility.yul\":1410:1489   */\n      tag_417\n      tag_353\n      jump\t// in\n    tag_417:\n        /* \"#utility.yul\":1372:1491   */\n    tag_416:\n        /* \"#utility.yul\":1558:1559   */\n      0x00\n        /* \"#utility.yul\":1547:1556   */\n      dup4\n        /* \"#utility.yul\":1543:1560   */\n      add\n        /* \"#utility.yul\":1530:1561   */\n      calldataload\n        /* \"#utility.yul\":1588:1606   */\n      0xffffffffffffffff\n        /* \"#utility.yul\":1580:1586   */\n      dup2\n        /* \"#utility.yul\":1577:1607   */\n      gt\n        /* \"#utility.yul\":1574:1691   */\n      iszero\n      tag_418\n      jumpi\n        /* \"#utility.yul\":1610:1689   */\n      tag_419\n      tag_354\n      jump\t// in\n    tag_419:\n        /* \"#utility.yul\":1574:1691   */\n    tag_418:\n        /* \"#utility.yul\":1723:1788   */\n      tag_420\n        /* \"#utility.yul\":1780:1787   */\n      dup6\n        /* \"#utility.yul\":1771:1777   */\n      dup3\n        /* \"#utility.yul\":1760:1769   */\n      dup7\n        /* \"#utility.yul\":1756:1778   */\n      add\n        /* \"#utility.yul\":1723:1788   */\n      tag_358\n      jump\t// in\n    tag_420:\n        /* \"#utility.yul\":1705:1788   */\n      swap3\n      pop\n      swap3\n      pop\n        /* \"#utility.yul\":1501:1798   */\n      pop\n        /* \"#utility.yul\":1276:1805   */\n      swap3\n      pop\n      swap3\n      swap1\n      pop\n      jump\t// out\n        /* \"#utility.yul\":1811:2685   */\n    tag_28:\n        /* \"#utility.yul\":1903:1909   */\n      0x00\n        /* \"#utility.yul\":1911:1917   */\n      dup1\n        /* \"#utility.yul\":1919:1925   */\n      0x00\n        /* \"#utility.yul\":1927:1933   */\n      dup1\n        /* \"#utility.yul\":1976:1978   */\n      0x40\n        /* \"#utility.yul\":1964:1973   */\n      dup6\n        /* \"#utility.yul\":1955:1962   */\n      dup8\n        /* \"#utility.yul\":1951:1974   */\n      sub\n        /* \"#utility.yul\":1947:1979   */\n      slt\n        /* \"#utility.yul\":1944:2063   */\n      iszero\n      tag_422\n      jumpi\n        /* \"#utility.yul\":1982:2061   */\n      tag_423\n      tag_353\n      jump\t// in\n    tag_423:\n        /* \"#utility.yul\":1944:2063   */\n    tag_422:\n        /* \"#utility.yul\":2130:2131   */\n      0x00\n        /* \"#utility.yul\":2119:2128   */\n      dup6\n        /* \"#utility.yul\":2115:2132   */\n      add\n        /* \"#utility.yul\":2102:2133   */\n      calldataload\n        /* \"#utility.yul\":2160:2178   */\n      0xffffffffffffffff\n        /* \"#utility.yul\":2152:2158   */\n      dup2\n        /* \"#utility.yul\":2149:2179   */\n      gt\n        /* \"#utility.yul\":2146:2263   */\n      iszero\n      tag_424\n      jumpi\n        /* \"#utility.yul\":2182:2261   */\n      tag_425\n      tag_354\n      jump\t// in\n    tag_425:\n        /* \"#utility.yul\":2146:2263   */\n    tag_424:\n        /* \"#utility.yul\":2295:2360   */\n      tag_426\n        /* \"#utility.yul\":2352:2359   */\n      dup8\n        /* \"#utility.yul\":2343:2349   */\n      dup3\n        /* \"#utility.yul\":2332:2341   */\n      dup9\n        /* \"#utility.yul\":2328:2350   */\n      add\n        /* \"#utility.yul\":2295:2360   */\n      tag_358\n      jump\t// in\n    tag_426:\n        /* \"#utility.yul\":2277:2360   */\n      swap5\n      pop\n      swap5\n      pop\n        /* \"#utility.yul\":2073:2370   */\n      pop\n        /* \"#utility.yul\":2437:2439   */\n      0x20\n        /* \"#utility.yul\":2426:2435   */\n      dup6\n        /* \"#utility.yul\":2422:2440   */\n      add\n        /* \"#utility.yul\":2409:2441   */\n      calldataload\n        /* \"#utility.yul\":2468:2486   */\n      0xffffffffffffffff\n        /* \"#utility.yul\":2460:2466   */\n      dup2\n        /* \"#utility.yul\":2457:2487   */\n      gt\n        /* \"#utility.yul\":2454:2571   */\n      iszero\n      tag_427\n      jumpi\n        /* \"#utility.yul\":2490:2569   */\n      tag_428\n      tag_354\n      jump\t// in\n    tag_428:\n        /* \"#utility.yul\":2454:2571   */\n    tag_427:\n        /* \"#utility.yul\":2603:2668   */\n      tag_429\n        /* \"#utility.yul\":2660:2667   */\n      dup8\n        /* \"#utility.yul\":2651:2657   */\n      dup3\n        /* \"#utility.yul\":2640:2649   */\n      dup9\n        /* \"#utility.yul\":2636:2658   */\n      add\n        /* \"#utility.yul\":2603:2668   */\n      tag_358\n      jump\t// in\n    tag_429:\n        /* \"#utility.yul\":2585:2668   */\n      swap3\n      pop\n      swap3\n      pop\n        /* \"#utility.yul\":2380:2678   */\n      pop\n        /* \"#utility.yul\":1811:2685   */\n      swap3\n      swap6\n      swap2\n      swap5\n      pop\n      swap3\n      pop\n      jump\t// out\n        /* \"#utility.yul\":2691:2817   */\n    tag_359:\n        /* \"#utility.yul\":2728:2735   */\n      0x00\n        /* \"#utility.yul\":2768:2810   */\n      0xffffffffffffffffffffffffffffffffffffffff\n        /* \"#utility.yul\":2761:2766   */\n      dup3\n        /* \"#utility.yul\":2757:2811   */\n      and\n        /* \"#utility.yul\":2746:2811   */\n      swap1\n      pop\n        /* \"#utility.yul\":2691:2817   */\n      swap2\n      swap1\n      pop\n      jump\t// out\n        /* \"#utility.yul\":2823:2919   */\n    tag_360:\n        /* \"#utility.yul\":2860:2867   */\n      0x00\n        /* \"#utility.yul\":2889:2913   */\n      tag_432\n        /* \"#utility.yul\":2907:2912   */\n      dup3\n        /* \"#utility.yul\":2889:2913   */\n      tag_359\n      jump\t// in\n    tag_432:\n        /* \"#utility.yul\":2878:2913   */\n      swap1\n      pop\n        /* \"#utility.yul\":2823:2919   */\n      swap2\n      swap1\n      pop\n      jump\t// out\n        /* \"#utility.yul\":2925:3043   */\n    tag_361:\n        /* \"#utility.yul\":3012:3036   */\n      tag_434\n        /* \"#utility.yul\":3030:3035   */\n      dup2\n        /* \"#utility.yul\":3012:3036   */\n      tag_360\n      jump\t// in\n    tag_434:\n        /* \"#utility.yul\":3007:3010   */\n      dup3\n        /* \"#utility.yul\":3000:3037   */\n      mstore\n        /* \"#utility.yul\":2925:3043   */\n      pop\n      pop\n      jump\t// out\n        /* \"#utility.yul\":3049:3271   */\n    tag_35:\n        /* \"#utility.yul\":3142:3146   */\n      0x00\n        /* \"#utility.yul\":3180:3182   */\n      0x20\n        /* \"#utility.yul\":3169:3178   */\n      dup3\n        /* \"#utility.yul\":3165:3183   */\n      add\n        /* \"#utility.yul\":3157:3183   */\n      swap1\n      pop\n        /* \"#utility.yul\":3193:3264   */\n      tag_436\n        /* \"#utility.yul\":3261:3262   */\n      0x00\n        /* \"#utility.yul\":3250:3259   */\n      dup4\n        /* \"#utility.yul\":3246:3263   */\n      add\n        /* \"#utility.yul\":3237:3243   */\n      dup5\n        /* \"#utility.yul\":3193:3264   */\n      tag_361\n      jump\t// in\n    tag_436:\n        /* \"#utility.yul\":3049:3271   */\n      swap3\n      swap2\n      pop\n      pop\n      jump\t// out\n        /* \"#utility.yul\":3277:3354   */\n    tag_362:\n        /* \"#utility.yul\":3314:3321   */\n      0x00\n        /* \"#utility.yul\":3343:3348   */\n      dup2\n        /* \"#utility.yul\":3332:3348   */\n      swap1\n      pop\n        /* \"#utility.yul\":3277:3354   */\n      swap2\n      swap1\n      pop\n      jump\t// out\n        /* \"#utility.yul\":3360:3478   */\n    tag_363:\n        /* \"#utility.yul\":3447:3471   */\n      tag_439\n        /* \"#utility.yul\":3465:3470   */\n      dup2\n        /* \"#utility.yul\":3447:3471   */\n      tag_362\n      jump\t// in\n    tag_439:\n        /* \"#utility.yul\":3442:3445   */\n      dup3\n        /* \"#utility.yul\":3435:3472   */\n      mstore\n        /* \"#utility.yul\":3360:3478   */\n      pop\n      pop\n      jump\t// out\n        /* \"#utility.yul\":3484:3706   */\n    tag_40:\n        /* \"#utility.yul\":3577:3581   */\n      0x00\n        /* \"#utility.yul\":3615:3617   */\n      0x20\n        /* \"#utility.yul\":3604:3613   */\n      dup3\n        /* \"#utility.yul\":3600:3618   */\n      add\n        /* \"#utility.yul\":3592:3618   */\n      swap1\n      pop\n        /* \"#utility.yul\":3628:3699   */\n      tag_441\n        /* \"#utility.yul\":3696:3697   */\n      0x00\n        /* \"#utility.yul\":3685:3694   */\n      dup4\n        /* \"#utility.yul\":3681:3698   */\n      add\n        /* \"#utility.yul\":3672:3678   */\n      dup5\n        /* \"#utility.yul\":3628:3699   */\n      tag_363\n      jump\t// in\n    tag_441:\n        /* \"#utility.yul\":3484:3706   */\n      swap3\n      swap2\n      pop\n      pop\n      jump\t// out\n        /* \"#utility.yul\":3712:3834   */\n    tag_364:\n        /* \"#utility.yul\":3785:3809   */\n      tag_443\n        /* \"#utility.yul\":3803:3808   */\n      dup2\n        /* \"#utility.yul\":3785:3809   */\n      tag_362\n      jump\t// in\n    tag_443:\n        /* \"#utility.yul\":3778:3783   */\n      dup2\n        /* \"#utility.yul\":3775:3810   */\n      eq\n        /* \"#utility.yul\":3765:3828   */\n      tag_444\n      jumpi\n        /* \"#utility.yul\":3824:3825   */\n      0x00\n        /* \"#utility.yul\":3821:3822   */\n      dup1\n        /* \"#utility.yul\":3814:3826   */\n      revert\n        /* \"#utility.yul\":3765:3828   */\n    tag_444:\n        /* \"#utility.yul\":3712:3834   */\n      pop\n      jump\t// out\n        /* \"#utility.yul\":3840:3979   */\n    tag_365:\n        /* \"#utility.yul\":3886:3891   */\n      0x00\n        /* \"#utility.yul\":3924:3930   */\n      dup2\n        /* \"#utility.yul\":3911:3931   */\n      calldataload\n        /* \"#utility.yul\":3902:3931   */\n      swap1\n      pop\n        /* \"#utility.yul\":3940:3973   */\n      tag_446\n        /* \"#utility.yul\":3967:3972   */\n      dup2\n        /* \"#utility.yul\":3940:3973   */\n      tag_364\n      jump\t// in\n    tag_446:\n        /* \"#utility.yul\":3840:3979   */\n      swap3\n      swap2\n      pop\n      pop\n      jump\t// out\n        /* \"#utility.yul\":3985:4314   */\n    tag_67:\n        /* \"#utility.yul\":4044:4050   */\n      0x00\n        /* \"#utility.yul\":4093:4095   */\n      0x20\n        /* \"#utility.yul\":4081:4090   */\n      dup3\n        /* \"#utility.yul\":4072:4079   */\n      dup5\n        /* \"#utility.yul\":4068:4091   */\n      sub\n        /* \"#utility.yul\":4064:4096   */\n      slt\n        /* \"#utility.yul\":4061:4180   */\n      iszero\n      tag_448\n      jumpi\n        /* \"#utility.yul\":4099:4178   */\n      tag_449\n      tag_353\n      jump\t// in\n    tag_449:\n        /* \"#utility.yul\":4061:4180   */\n    tag_448:\n        /* \"#utility.yul\":4219:4220   */\n      0x00\n        /* \"#utility.yul\":4244:4297   */\n      tag_450\n        /* \"#utility.yul\":4289:4296   */\n      dup5\n        /* \"#utility.yul\":4280:4286   */\n      dup3\n        /* \"#utility.yul\":4269:4278   */\n      dup6\n        /* \"#utility.yul\":4265:4287   */\n      add\n        /* \"#utility.yul\":4244:4297   */\n      tag_365\n      jump\t// in\n    tag_450:\n        /* \"#utility.yul\":4234:4297   */\n      swap2\n      pop\n        /* \"#utility.yul\":4190:4307   */\n      pop\n        /* \"#utility.yul\":3985:4314   */\n      swap3\n      swap2\n      pop\n      pop\n      jump\t// out\n        /* \"#utility.yul\":4320:4442   */\n    tag_366:\n        /* \"#utility.yul\":4393:4417   */\n      tag_452\n        /* \"#utility.yul\":4411:4416   */\n      dup2\n        /* \"#utility.yul\":4393:4417   */\n      tag_360\n      jump\t// in\n    tag_452:\n        /* \"#utility.yul\":4386:4391   */\n      dup2\n        /* \"#utility.yul\":4383:4418   */\n      eq\n        /* \"#utility.yul\":4373:4436   */\n      tag_453\n      jumpi\n        /* \"#utility.yul\":4432:4433   */\n      0x00\n        /* \"#utility.yul\":4429:4430   */\n      dup1\n        /* \"#utility.yul\":4422:4434   */\n      revert\n        /* \"#utility.yul\":4373:4436   */\n    tag_453:\n        /* \"#utility.yul\":4320:4442   */\n      pop\n      jump\t// out\n        /* \"#utility.yul\":4448:4587   */\n    tag_367:\n        /* \"#utility.yul\":4494:4499   */\n      0x00\n        /* \"#utility.yul\":4532:4538   */\n      dup2\n        /* \"#utility.yul\":4519:4539   */\n      calldataload\n        /* \"#utility.yul\":4510:4539   */\n      swap1\n      pop\n        /* \"#utility.yul\":4548:4581   */\n      tag_455\n        /* \"#utility.yul\":4575:4580   */\n      dup2\n        /* \"#utility.yul\":4548:4581   */\n      tag_366\n      jump\t// in\n    tag_455:\n        /* \"#utility.yul\":4448:4587   */\n      swap3\n      swap2\n      pop\n      pop\n      jump\t// out\n        /* \"#utility.yul\":4593:5212   */\n    tag_72:\n        /* \"#utility.yul\":4670:4676   */\n      0x00\n        /* \"#utility.yul\":4678:4684   */\n      dup1\n        /* \"#utility.yul\":4686:4692   */\n      0x00\n        /* \"#utility.yul\":4735:4737   */\n      0x60\n        /* \"#utility.yul\":4723:4732   */\n      dup5\n        /* \"#utility.yul\":4714:4721   */\n      dup7\n        /* \"#utility.yul\":4710:4733   */\n      sub\n        /* \"#utility.yul\":4706:4738   */\n      slt\n        /* \"#utility.yul\":4703:4822   */\n      iszero\n      tag_457\n      jumpi\n        /* \"#utility.yul\":4741:4820   */\n      tag_458\n      tag_353\n      jump\t// in\n    tag_458:\n        /* \"#utility.yul\":4703:4822   */\n    tag_457:\n        /* \"#utility.yul\":4861:4862   */\n      0x00\n        /* \"#utility.yul\":4886:4939   */\n      tag_459\n        /* \"#utility.yul\":4931:4938   */\n      dup7\n        /* \"#utility.yul\":4922:4928   */\n      dup3\n        /* \"#utility.yul\":4911:4920   */\n      dup8\n        /* \"#utility.yul\":4907:4929   */\n      add\n        /* \"#utility.yul\":4886:4939   */\n      tag_365\n      jump\t// in\n    tag_459:\n        /* \"#utility.yul\":4876:4939   */\n      swap4\n      pop\n        /* \"#utility.yul\":4832:4949   */\n      pop\n        /* \"#utility.yul\":4988:4990   */\n      0x20\n        /* \"#utility.yul\":5014:5067   */\n      tag_460\n        /* \"#utility.yul\":5059:5066   */\n      dup7\n        /* \"#utility.yul\":5050:5056   */\n      dup3\n        /* \"#utility.yul\":5039:5048   */\n      dup8\n        /* \"#utility.yul\":5035:5057   */\n      add\n        /* \"#utility.yul\":5014:5067   */\n      tag_367\n      jump\t// in\n    tag_460:\n        /* \"#utility.yul\":5004:5067   */\n      swap3\n      pop\n        /* \"#utility.yul\":4959:5077   */\n      pop\n        /* \"#utility.yul\":5116:5118   */\n      0x40\n        /* \"#utility.yul\":5142:5195   */\n      tag_461\n        /* \"#utility.yul\":5187:5194   */\n      dup7\n        /* \"#utility.yul\":5178:5184   */\n      dup3\n        /* \"#utility.yul\":5167:5176   */\n      dup8\n        /* \"#utility.yul\":5163:5185   */\n      add\n        /* \"#utility.yul\":5142:5195   */\n      tag_367\n      jump\t// in\n    tag_461:\n        /* \"#utility.yul\":5132:5195   */\n      swap2\n      pop\n        /* \"#utility.yul\":5087:5205   */\n      pop\n        /* \"#utility.yul\":4593:5212   */\n      swap3\n      pop\n      swap3\n      pop\n      swap3\n      jump\t// out\n        /* \"#utility.yul\":5218:5547   */\n    tag_77:\n        /* \"#utility.yul\":5277:5283   */\n      0x00\n        /* \"#utility.yul\":5326:5328   */\n      0x20\n        /* \"#utility.yul\":5314:5323   */\n      dup3\n        /* \"#utility.yul\":5305:5312   */\n      dup5\n        /* \"#utility.yul\":5301:5324   */\n      sub\n        /* \"#utility.yul\":5297:5329   */\n      slt\n        /* \"#utility.yul\":5294:5413   */\n      iszero\n      tag_463\n      jumpi\n        /* \"#utility.yul\":5332:5411   */\n      tag_464\n      tag_353\n      jump\t// in\n    tag_464:\n        /* \"#utility.yul\":5294:5413   */\n    tag_463:\n        /* \"#utility.yul\":5452:5453   */\n      0x00\n        /* \"#utility.yul\":5477:5530   */\n      tag_465\n        /* \"#utility.yul\":5522:5529   */\n      dup5\n        /* \"#utility.yul\":5513:5519   */\n      dup3\n        /* \"#utility.yul\":5502:5511   */\n      dup6\n        /* \"#utility.yul\":5498:5520   */\n      add\n        /* \"#utility.yul\":5477:5530   */\n      tag_367\n      jump\t// in\n    tag_465:\n        /* \"#utility.yul\":5467:5530   */\n      swap2\n      pop\n        /* \"#utility.yul\":5423:5540   */\n      pop\n        /* \"#utility.yul\":5218:5547   */\n      swap3\n      swap2\n      pop\n      pop\n      jump\t// out\n        /* \"#utility.yul\":5553:5885   */\n    tag_93:\n        /* \"#utility.yul\":5674:5678   */\n      0x00\n        /* \"#utility.yul\":5712:5714   */\n      0x40\n        /* \"#utility.yul\":5701:5710   */\n      dup3\n        /* \"#utility.yul\":5697:5715   */\n      add\n        /* \"#utility.yul\":5689:5715   */\n      swap1\n      pop\n        /* \"#utility.yul\":5725:5796   */\n      tag_467\n        /* \"#utility.yul\":5793:5794   */\n      0x00\n        /* \"#utility.yul\":5782:5791   */\n      dup4\n        /* \"#utility.yul\":5778:5795   */\n      add\n        /* \"#utility.yul\":5769:5775   */\n      dup6\n        /* \"#utility.yul\":5725:5796   */\n      tag_363\n      jump\t// in\n    tag_467:\n        /* \"#utility.yul\":5806:5878   */\n      tag_468\n        /* \"#utility.yul\":5874:5876   */\n      0x20\n        /* \"#utility.yul\":5863:5872   */\n      dup4\n        /* \"#utility.yul\":5859:5877   */\n      add\n        /* \"#utility.yul\":5850:5856   */\n      dup5\n        /* \"#utility.yul\":5806:5878   */\n      tag_363\n      jump\t// in\n    tag_468:\n        /* \"#utility.yul\":5553:5885   */\n      swap4\n      swap3\n      pop\n      pop\n      pop\n      jump\t// out\n        /* \"#utility.yul\":5891:6039   */\n    tag_368:\n        /* \"#utility.yul\":5993:6004   */\n      0x00\n        /* \"#utility.yul\":6030:6033   */\n      dup2\n        /* \"#utility.yul\":6015:6033   */\n      swap1\n      pop\n        /* \"#utility.yul\":5891:6039   */\n      swap3\n      swap2\n      pop\n      pop\n      jump\t// out\n        /* \"#utility.yul\":6045:6191   */\n    tag_369:\n        /* \"#utility.yul\":6142:6148   */\n      dup3\n        /* \"#utility.yul\":6137:6140   */\n      dup2\n        /* \"#utility.yul\":6132:6135   */\n      dup4\n        /* \"#utility.yul\":6119:6149   */\n      calldatacopy\n        /* \"#utility.yul\":6183:6184   */\n      0x00\n        /* \"#utility.yul\":6174:6180   */\n      dup4\n        /* \"#utility.yul\":6169:6172   */\n      dup4\n        /* \"#utility.yul\":6165:6181   */\n      add\n        /* \"#utility.yul\":6158:6185   */\n      mstore\n        /* \"#utility.yul\":6045:6191   */\n      pop\n      pop\n      pop\n      jump\t// out\n        /* \"#utility.yul\":6221:6551   */\n    tag_370:\n        /* \"#utility.yul\":6337:6340   */\n      0x00\n        /* \"#utility.yul\":6358:6447   */\n      tag_472\n        /* \"#utility.yul\":6440:6446   */\n      dup4\n        /* \"#utility.yul\":6435:6438   */\n      dup6\n        /* \"#utility.yul\":6358:6447   */\n      tag_368\n      jump\t// in\n    tag_472:\n        /* \"#utility.yul\":6351:6447   */\n      swap4\n      pop\n        /* \"#utility.yul\":6457:6513   */\n      tag_473\n        /* \"#utility.yul\":6506:6512   */\n      dup4\n        /* \"#utility.yul\":6501:6504   */\n      dup6\n        /* \"#utility.yul\":6494:6499   */\n      dup5\n        /* \"#utility.yul\":6457:6513   */\n      tag_369\n      jump\t// in\n    tag_473:\n        /* \"#utility.yul\":6538:6544   */\n      dup3\n        /* \"#utility.yul\":6533:6536   */\n      dup5\n        /* \"#utility.yul\":6529:6545   */\n      add\n        /* \"#utility.yul\":6522:6545   */\n      swap1\n      pop\n        /* \"#utility.yul\":6221:6551   */\n      swap4\n      swap3\n      pop\n      pop\n      pop\n      jump\t// out\n        /* \"#utility.yul\":6557:6852   */\n    tag_98:\n        /* \"#utility.yul\":6699:6702   */\n      0x00\n        /* \"#utility.yul\":6721:6826   */\n      tag_475\n        /* \"#utility.yul\":6822:6825   */\n      dup3\n        /* \"#utility.yul\":6813:6819   */\n      dup5\n        /* \"#utility.yul\":6805:6811   */\n      dup7\n        /* \"#utility.yul\":6721:6826   */\n      tag_370\n      jump\t// in\n    tag_475:\n        /* \"#utility.yul\":6714:6826   */\n      swap2\n      pop\n        /* \"#utility.yul\":6843:6846   */\n      dup2\n        /* \"#utility.yul\":6836:6846   */\n      swap1\n      pop\n        /* \"#utility.yul\":6557:6852   */\n      swap4\n      swap3\n      pop\n      pop\n      pop\n      jump\t// out\n        /* \"#utility.yul\":6858:7027   */\n    tag_371:\n        /* \"#utility.yul\":6942:6953   */\n      0x00\n        /* \"#utility.yul\":6976:6982   */\n      dup3\n        /* \"#utility.yul\":6971:6974   */\n      dup3\n        /* \"#utility.yul\":6964:6983   */\n      mstore\n        /* \"#utility.yul\":7016:7020   */\n      0x20\n        /* \"#utility.yul\":7011:7014   */\n      dup3\n        /* \"#utility.yul\":7007:7021   */\n      add\n        /* \"#utility.yul\":6992:7021   */\n      swap1\n      pop\n        /* \"#utility.yul\":6858:7027   */\n      swap3\n      swap2\n      pop\n      pop\n      jump\t// out\n        /* \"#utility.yul\":7033:7135   */\n    tag_372:\n        /* \"#utility.yul\":7074:7080   */\n      0x00\n        /* \"#utility.yul\":7125:7127   */\n      0x1f\n        /* \"#utility.yul\":7121:7128   */\n      not\n        /* \"#utility.yul\":7116:7118   */\n      0x1f\n        /* \"#utility.yul\":7109:7114   */\n      dup4\n        /* \"#utility.yul\":7105:7119   */\n      add\n        /* \"#utility.yul\":7101:7129   */\n      and\n        /* \"#utility.yul\":7091:7129   */\n      swap1\n      pop\n        /* \"#utility.yul\":7033:7135   */\n      swap2\n      swap1\n      pop\n      jump\t// out\n        /* \"#utility.yul\":7165:7482   */\n    tag_373:\n        /* \"#utility.yul\":7263:7266   */\n      0x00\n        /* \"#utility.yul\":7284:7355   */\n      tag_479\n        /* \"#utility.yul\":7348:7354   */\n      dup4\n        /* \"#utility.yul\":7343:7346   */\n      dup6\n        /* \"#utility.yul\":7284:7355   */\n      tag_371\n      jump\t// in\n    tag_479:\n        /* \"#utility.yul\":7277:7355   */\n      swap4\n      pop\n        /* \"#utility.yul\":7365:7421   */\n      tag_480\n        /* \"#utility.yul\":7414:7420   */\n      dup4\n        /* \"#utility.yul\":7409:7412   */\n      dup6\n        /* \"#utility.yul\":7402:7407   */\n      dup5\n        /* \"#utility.yul\":7365:7421   */\n      tag_369\n      jump\t// in\n    tag_480:\n        /* \"#utility.yul\":7446:7475   */\n      tag_481\n        /* \"#utility.yul\":7468:7474   */\n      dup4\n        /* \"#utility.yul\":7446:7475   */\n      tag_372\n      jump\t// in\n    tag_481:\n        /* \"#utility.yul\":7441:7444   */\n      dup5\n        /* \"#utility.yul\":7437:7476   */\n      add\n        /* \"#utility.yul\":7430:7476   */\n      swap1\n      pop\n        /* \"#utility.yul\":7165:7482   */\n      swap4\n      swap3\n      pop\n      pop\n      pop\n      jump\t// out\n        /* \"#utility.yul\":7488:7821   */\n    tag_104:\n        /* \"#utility.yul\":7611:7615   */\n      0x00\n        /* \"#utility.yul\":7649:7651   */\n      0x20\n        /* \"#utility.yul\":7638:7647   */\n      dup3\n        /* \"#utility.yul\":7634:7652   */\n      add\n        /* \"#utility.yul\":7626:7652   */\n      swap1\n      pop\n        /* \"#utility.yul\":7698:7707   */\n      dup2\n        /* \"#utility.yul\":7692:7696   */\n      dup2\n        /* \"#utility.yul\":7688:7708   */\n      sub\n        /* \"#utility.yul\":7684:7685   */\n      0x00\n        /* \"#utility.yul\":7673:7682   */\n      dup4\n        /* \"#utility.yul\":7669:7686   */\n      add\n        /* \"#utility.yul\":7662:7709   */\n      mstore\n        /* \"#utility.yul\":7726:7814   */\n      tag_483\n        /* \"#utility.yul\":7809:7813   */\n      dup2\n        /* \"#utility.yul\":7800:7806   */\n      dup5\n        /* \"#utility.yul\":7792:7798   */\n      dup7\n        /* \"#utility.yul\":7726:7814   */\n      tag_373\n      jump\t// in\n    tag_483:\n        /* \"#utility.yul\":7718:7814   */\n      swap1\n      pop\n        /* \"#utility.yul\":7488:7821   */\n      swap4\n      swap3\n      pop\n      pop\n      pop\n      jump\t// out\n        /* \"#utility.yul\":7827:7926   */\n    tag_374:\n        /* \"#utility.yul\":7879:7885   */\n      0x00\n        /* \"#utility.yul\":7913:7918   */\n      dup2\n        /* \"#utility.yul\":7907:7919   */\n      mload\n        /* \"#utility.yul\":7897:7919   */\n      swap1\n      pop\n        /* \"#utility.yul\":7827:7926   */\n      swap2\n      swap1\n      pop\n      jump\t// out\n        /* \"#utility.yul\":7932:8178   */\n    tag_375:\n        /* \"#utility.yul\":8013:8014   */\n      0x00\n        /* \"#utility.yul\":8023:8136   */\n    tag_486:\n        /* \"#utility.yul\":8037:8043   */\n      dup4\n        /* \"#utility.yul\":8034:8035   */\n      dup2\n        /* \"#utility.yul\":8031:8044   */\n      lt\n        /* \"#utility.yul\":8023:8136   */\n      iszero\n      tag_488\n      jumpi\n        /* \"#utility.yul\":8122:8123   */\n      dup1\n        /* \"#utility.yul\":8117:8120   */\n      dup3\n        /* \"#utility.yul\":8113:8124   */\n      add\n        /* \"#utility.yul\":8107:8125   */\n      mload\n        /* \"#utility.yul\":8103:8104   */\n      dup2\n        /* \"#utility.yul\":8098:8101   */\n      dup5\n        /* \"#utility.yul\":8094:8105   */\n      add\n        /* \"#utility.yul\":8087:8126   */\n      mstore\n        /* \"#utility.yul\":8059:8061   */\n      0x20\n        /* \"#utility.yul\":8056:8057   */\n      dup2\n        /* \"#utility.yul\":8052:8062   */\n      add\n        /* \"#utility.yul\":8047:8062   */\n      swap1\n      pop\n        /* \"#utility.yul\":8023:8136   */\n      jump(tag_486)\n    tag_488:\n        /* \"#utility.yul\":8170:8171   */\n      0x00\n        /* \"#utility.yul\":8161:8167   */\n      dup5\n        /* \"#utility.yul\":8156:8159   */\n      dup5\n        /* \"#utility.yul\":8152:8168   */\n      add\n        /* \"#utility.yul\":8145:8172   */\n      mstore\n        /* \"#utility.yul\":7994:8178   */\n      pop\n        /* \"#utility.yul\":7932:8178   */\n      pop\n      pop\n      pop\n      jump\t// out\n        /* \"#utility.yul\":8184:8574   */\n    tag_376:\n        /* \"#utility.yul\":8290:8293   */\n      0x00\n        /* \"#utility.yul\":8318:8357   */\n      tag_490\n        /* \"#utility.yul\":8351:8356   */\n      dup3\n        /* \"#utility.yul\":8318:8357   */\n      tag_374\n      jump\t// in\n    tag_490:\n        /* \"#utility.yul\":8373:8462   */\n      tag_491\n        /* \"#utility.yul\":8455:8461   */\n      dup2\n        /* \"#utility.yul\":8450:8453   */\n      dup6\n        /* \"#utility.yul\":8373:8462   */\n      tag_368\n      jump\t// in\n    tag_491:\n        /* \"#utility.yul\":8366:8462   */\n      swap4\n      pop\n        /* \"#utility.yul\":8471:8536   */\n      tag_492\n        /* \"#utility.yul\":8529:8535   */\n      dup2\n        /* \"#utility.yul\":8524:8527   */\n      dup6\n        /* \"#utility.yul\":8517:8521   */\n      0x20\n        /* \"#utility.yul\":8510:8515   */\n      dup7\n        /* \"#utility.yul\":8506:8522   */\n      add\n        /* \"#utility.yul\":8471:8536   */\n      tag_375\n      jump\t// in\n    tag_492:\n        /* \"#utility.yul\":8561:8567   */\n      dup1\n        /* \"#utility.yul\":8556:8559   */\n      dup5\n        /* \"#utility.yul\":8552:8568   */\n      add\n        /* \"#utility.yul\":8545:8568   */\n      swap2\n      pop\n        /* \"#utility.yul\":8294:8574   */\n      pop\n        /* \"#utility.yul\":8184:8574   */\n      swap3\n      swap2\n      pop\n      pop\n      jump\t// out\n        /* \"#utility.yul\":8580:8855   */\n    tag_119:\n        /* \"#utility.yul\":8712:8715   */\n      0x00\n        /* \"#utility.yul\":8734:8829   */\n      tag_494\n        /* \"#utility.yul\":8825:8828   */\n      dup3\n        /* \"#utility.yul\":8816:8822   */\n      dup5\n        /* \"#utility.yul\":8734:8829   */\n      tag_376\n      jump\t// in\n    tag_494:\n        /* \"#utility.yul\":8727:8829   */\n      swap2\n      pop\n        /* \"#utility.yul\":8846:8849   */\n      dup2\n        /* \"#utility.yul\":8839:8849   */\n      swap1\n      pop\n        /* \"#utility.yul\":8580:8855   */\n      swap3\n      swap2\n      pop\n      pop\n      jump\t// out\n        /* \"#utility.yul\":8861:9041   */\n    tag_377:\n        /* \"#utility.yul\":8909:8986   */\n      0x4e487b7100000000000000000000000000000000000000000000000000000000\n        /* \"#utility.yul\":8906:8907   */\n      0x00\n        /* \"#utility.yul\":8899:8987   */\n      mstore\n        /* \"#utility.yul\":9006:9010   */\n      0x11\n        /* \"#utility.yul\":9003:9004   */\n      0x04\n        /* \"#utility.yul\":8996:9011   */\n      mstore\n        /* \"#utility.yul\":9030:9034   */\n      0x24\n        /* \"#utility.yul\":9027:9028   */\n      0x00\n        /* \"#utility.yul\":9020:9035   */\n      revert\n        /* \"#utility.yul\":9047:9238   */\n    tag_123:\n        /* \"#utility.yul\":9087:9090   */\n      0x00\n        /* \"#utility.yul\":9106:9126   */\n      tag_497\n        /* \"#utility.yul\":9124:9125   */\n      dup3\n        /* \"#utility.yul\":9106:9126   */\n      tag_362\n      jump\t// in\n    tag_497:\n        /* \"#utility.yul\":9101:9126   */\n      swap2\n      pop\n        /* \"#utility.yul\":9140:9160   */\n      tag_498\n        /* \"#utility.yul\":9158:9159   */\n      dup4\n        /* \"#utility.yul\":9140:9160   */\n      tag_362\n      jump\t// in\n    tag_498:\n        /* \"#utility.yul\":9135:9160   */\n      swap3\n      pop\n        /* \"#utility.yul\":9183:9184   */\n      dup3\n        /* \"#utility.yul\":9180:9181   */\n      dup3\n        /* \"#utility.yul\":9176:9185   */\n      add\n        /* \"#utility.yul\":9169:9185   */\n      swap1\n      pop\n        /* \"#utility.yul\":9204:9207   */\n      dup1\n        /* \"#utility.yul\":9201:9202   */\n      dup3\n        /* \"#utility.yul\":9198:9208   */\n      gt\n        /* \"#utility.yul\":9195:9231   */\n      iszero\n      tag_499\n      jumpi\n        /* \"#utility.yul\":9211:9229   */\n      tag_500\n      tag_377\n      jump\t// in\n    tag_500:\n        /* \"#utility.yul\":9195:9231   */\n    tag_499:\n        /* \"#utility.yul\":9047:9238   */\n      swap3\n      swap2\n      pop\n      pop\n      jump\t// out\n        /* \"#utility.yul\":9244:9621   */\n    tag_378:\n        /* \"#utility.yul\":9332:9335   */\n      0x00\n        /* \"#utility.yul\":9360:9399   */\n      tag_502\n        /* \"#utility.yul\":9393:9398   */\n      dup3\n        /* \"#utility.yul\":9360:9399   */\n      tag_374\n      jump\t// in\n    tag_502:\n        /* \"#utility.yul\":9415:9486   */\n      tag_503\n        /* \"#utility.yul\":9479:9485   */\n      dup2\n        /* \"#utility.yul\":9474:9477   */\n      dup6\n        /* \"#utility.yul\":9415:9486   */\n      tag_371\n      jump\t// in\n    tag_503:\n        /* \"#utility.yul\":9408:9486   */\n      swap4\n      pop\n        /* \"#utility.yul\":9495:9560   */\n      tag_504\n        /* \"#utility.yul\":9553:9559   */\n      dup2\n        /* \"#utility.yul\":9548:9551   */\n      dup6\n        /* \"#utility.yul\":9541:9545   */\n      0x20\n        /* \"#utility.yul\":9534:9539   */\n      dup7\n        /* \"#utility.yul\":9530:9546   */\n      add\n        /* \"#utility.yul\":9495:9560   */\n      tag_375\n      jump\t// in\n    tag_504:\n        /* \"#utility.yul\":9585:9614   */\n      tag_505\n        /* \"#utility.yul\":9607:9613   */\n      dup2\n        /* \"#utility.yul\":9585:9614   */\n      tag_372\n      jump\t// in\n    tag_505:\n        /* \"#utility.yul\":9580:9583   */\n      dup5\n        /* \"#utility.yul\":9576:9615   */\n      add\n        /* \"#utility.yul\":9569:9615   */\n      swap2\n      pop\n        /* \"#utility.yul\":9336:9621   */\n      pop\n        /* \"#utility.yul\":9244:9621   */\n      swap3\n      swap2\n      pop\n      pop\n      jump\t// out\n        /* \"#utility.yul\":9627:9940   */\n    tag_129:\n        /* \"#utility.yul\":9740:9744   */\n      0x00\n        /* \"#utility.yul\":9778:9780   */\n      0x20\n        /* \"#utility.yul\":9767:9776   */\n      dup3\n        /* \"#utility.yul\":9763:9781   */\n      add\n        /* \"#utility.yul\":9755:9781   */\n      swap1\n      pop\n        /* \"#utility.yul\":9827:9836   */\n      dup2\n        /* \"#utility.yul\":9821:9825   */\n      dup2\n        /* \"#utility.yul\":9817:9837   */\n      sub\n        /* \"#utility.yul\":9813:9814   */\n      0x00\n        /* \"#utility.yul\":9802:9811   */\n      dup4\n        /* \"#utility.yul\":9798:9815   */\n      add\n        /* \"#utility.yul\":9791:9838   */\n      mstore\n        /* \"#utility.yul\":9855:9933   */\n      tag_507\n        /* \"#utility.yul\":9928:9932   */\n      dup2\n        /* \"#utility.yul\":9919:9925   */\n      dup5\n        /* \"#utility.yul\":9855:9933   */\n      tag_378\n      jump\t// in\n    tag_507:\n        /* \"#utility.yul\":9847:9933   */\n      swap1\n      pop\n        /* \"#utility.yul\":9627:9940   */\n      swap3\n      swap2\n      pop\n      pop\n      jump\t// out\n        /* \"#utility.yul\":9946:10356   */\n    tag_137:\n        /* \"#utility.yul\":9986:9993   */\n      0x00\n        /* \"#utility.yul\":10009:10029   */\n      tag_509\n        /* \"#utility.yul\":10027:10028   */\n      dup3\n        /* \"#utility.yul\":10009:10029   */\n      tag_362\n      jump\t// in\n    tag_509:\n        /* \"#utility.yul\":10004:10029   */\n      swap2\n      pop\n        /* \"#utility.yul\":10043:10063   */\n      tag_510\n        /* \"#utility.yul\":10061:10062   */\n      dup4\n        /* \"#utility.yul\":10043:10063   */\n      tag_362\n      jump\t// in\n    tag_510:\n        /* \"#utility.yul\":10038:10063   */\n      swap3\n      pop\n        /* \"#utility.yul\":10098:10099   */\n      dup3\n        /* \"#utility.yul\":10095:10096   */\n      dup3\n        /* \"#utility.yul\":10091:10100   */\n      mul\n        /* \"#utility.yul\":10120:10150   */\n      tag_511\n        /* \"#utility.yul\":10138:10149   */\n      dup2\n        /* \"#utility.yul\":10120:10150   */\n      tag_362\n      jump\t// in\n    tag_511:\n        /* \"#utility.yul\":10109:10150   */\n      swap2\n      pop\n        /* \"#utility.yul\":10299:10300   */\n      dup3\n        /* \"#utility.yul\":10290:10297   */\n      dup3\n        /* \"#utility.yul\":10286:10301   */\n      div\n        /* \"#utility.yul\":10283:10284   */\n      dup5\n        /* \"#utility.yul\":10280:10302   */\n      eq\n        /* \"#utility.yul\":10260:10261   */\n      dup4\n        /* \"#utility.yul\":10253:10262   */\n      iszero\n        /* \"#utility.yul\":10233:10316   */\n      or\n        /* \"#utility.yul\":10210:10349   */\n      tag_512\n      jumpi\n        /* \"#utility.yul\":10329:10347   */\n      tag_513\n      tag_377\n      jump\t// in\n    tag_513:\n        /* \"#utility.yul\":10210:10349   */\n    tag_512:\n        /* \"#utility.yul\":9994:10356   */\n      pop\n        /* \"#utility.yul\":9946:10356   */\n      swap3\n      swap2\n      pop\n      pop\n      jump\t// out\n        /* \"#utility.yul\":10362:10542   */\n    tag_379:\n        /* \"#utility.yul\":10410:10487   */\n      0x4e487b7100000000000000000000000000000000000000000000000000000000\n        /* \"#utility.yul\":10407:10408   */\n      0x00\n        /* \"#utility.yul\":10400:10488   */\n      mstore\n        /* \"#utility.yul\":10507:10511   */\n      0x12\n        /* \"#utility.yul\":10504:10505   */\n      0x04\n        /* \"#utility.yul\":10497:10512   */\n      mstore\n        /* \"#utility.yul\":10531:10535   */\n      0x24\n        /* \"#utility.yul\":10528:10529   */\n      0x00\n        /* \"#utility.yul\":10521:10536   */\n      revert\n        /* \"#utility.yul\":10548:10733   */\n    tag_140:\n        /* \"#utility.yul\":10588:10589   */\n      0x00\n        /* \"#utility.yul\":10605:10625   */\n      tag_516\n        /* \"#utility.yul\":10623:10624   */\n      dup3\n        /* \"#utility.yul\":10605:10625   */\n      tag_362\n      jump\t// in\n    tag_516:\n        /* \"#utility.yul\":10600:10625   */\n      swap2\n      pop\n        /* \"#utility.yul\":10639:10659   */\n      tag_517\n        /* \"#utility.yul\":10657:10658   */\n      dup4\n        /* \"#utility.yul\":10639:10659   */\n      tag_362\n      jump\t// in\n    tag_517:\n        /* \"#utility.yul\":10634:10659   */\n      swap3\n      pop\n        /* \"#utility.yul\":10678:10679   */\n      dup3\n        /* \"#utility.yul\":10668:10703   */\n      tag_518\n      jumpi\n        /* \"#utility.yul\":10683:10701   */\n      tag_519\n      tag_379\n      jump\t// in\n    tag_519:\n        /* \"#utility.yul\":10668:10703   */\n    tag_518:\n        /* \"#utility.yul\":10725:10726   */\n      dup3\n        /* \"#utility.yul\":10722:10723   */\n      dup3\n        /* \"#utility.yul\":10718:10727   */\n      div\n        /* \"#utility.yul\":10713:10727   */\n      swap1\n      pop\n        /* \"#utility.yul\":10548:10733   */\n      swap3\n      swap2\n      pop\n      pop\n      jump\t// out\n        /* \"#utility.yul\":10739:10886   */\n    tag_380:\n        /* \"#utility.yul\":10840:10851   */\n      0x00\n        /* \"#utility.yul\":10877:10880   */\n      dup2\n        /* \"#utility.yul\":10862:10880   */\n      swap1\n      pop\n        /* \"#utility.yul\":10739:10886   */\n      swap3\n      swap2\n      pop\n      pop\n      jump\t// out\n        /* \"#utility.yul\":10892:11006   */\n    tag_381:\n      pop\n      jump\t// out\n        /* \"#utility.yul\":11012:11410   */\n    tag_382:\n        /* \"#utility.yul\":11171:11174   */\n      0x00\n        /* \"#utility.yul\":11192:11275   */\n      tag_523\n        /* \"#utility.yul\":11273:11274   */\n      0x00\n        /* \"#utility.yul\":11268:11271   */\n      dup4\n        /* \"#utility.yul\":11192:11275   */\n      tag_380\n      jump\t// in\n    tag_523:\n        /* \"#utility.yul\":11185:11275   */\n      swap2\n      pop\n        /* \"#utility.yul\":11284:11377   */\n      tag_524\n        /* \"#utility.yul\":11373:11376   */\n      dup3\n        /* \"#utility.yul\":11284:11377   */\n      tag_381\n      jump\t// in\n    tag_524:\n        /* \"#utility.yul\":11402:11403   */\n      0x00\n        /* \"#utility.yul\":11397:11400   */\n      dup3\n        /* \"#utility.yul\":11393:11404   */\n      add\n        /* \"#utility.yul\":11386:11404   */\n      swap1\n      pop\n        /* \"#utility.yul\":11012:11410   */\n      swap2\n      swap1\n      pop\n      jump\t// out\n        /* \"#utility.yul\":11416:11795   */\n    tag_163:\n        /* \"#utility.yul\":11600:11603   */\n      0x00\n        /* \"#utility.yul\":11622:11769   */\n      tag_526\n        /* \"#utility.yul\":11765:11768   */\n      dup3\n        /* \"#utility.yul\":11622:11769   */\n      tag_382\n      jump\t// in\n    tag_526:\n        /* \"#utility.yul\":11615:11769   */\n      swap2\n      pop\n        /* \"#utility.yul\":11786:11789   */\n      dup2\n        /* \"#utility.yul\":11779:11789   */\n      swap1\n      pop\n        /* \"#utility.yul\":11416:11795   */\n      swap2\n      swap1\n      pop\n      jump\t// out\n        /* \"#utility.yul\":11801:11899   */\n    tag_383:\n        /* \"#utility.yul\":11852:11858   */\n      0x00\n        /* \"#utility.yul\":11886:11891   */\n      dup2\n        /* \"#utility.yul\":11880:11892   */\n      mload\n        /* \"#utility.yul\":11870:11892   */\n      swap1\n      pop\n        /* \"#utility.yul\":11801:11899   */\n      swap2\n      swap1\n      pop\n      jump\t// out\n        /* \"#utility.yul\":11905:12073   */\n    tag_384:\n        /* \"#utility.yul\":11988:11999   */\n      0x00\n        /* \"#utility.yul\":12022:12028   */\n      dup3\n        /* \"#utility.yul\":12017:12020   */\n      dup3\n        /* \"#utility.yul\":12010:12029   */\n      mstore\n        /* \"#utility.yul\":12062:12066   */\n      0x20\n        /* \"#utility.yul\":12057:12060   */\n      dup3\n        /* \"#utility.yul\":12053:12067   */\n      add\n        /* \"#utility.yul\":12038:12067   */\n      swap1\n      pop\n        /* \"#utility.yul\":11905:12073   */\n      swap3\n      swap2\n      pop\n      pop\n      jump\t// out\n        /* \"#utility.yul\":12079:12452   */\n    tag_385:\n        /* \"#utility.yul\":12165:12168   */\n      0x00\n        /* \"#utility.yul\":12193:12231   */\n      tag_530\n        /* \"#utility.yul\":12225:12230   */\n      dup3\n        /* \"#utility.yul\":12193:12231   */\n      tag_383\n      jump\t// in\n    tag_530:\n        /* \"#utility.yul\":12247:12317   */\n      tag_531\n        /* \"#utility.yul\":12310:12316   */\n      dup2\n        /* \"#utility.yul\":12305:12308   */\n      dup6\n        /* \"#utility.yul\":12247:12317   */\n      tag_384\n      jump\t// in\n    tag_531:\n        /* \"#utility.yul\":12240:12317   */\n      swap4\n      pop\n        /* \"#utility.yul\":12326:12391   */\n      tag_532\n        /* \"#utility.yul\":12384:12390   */\n      dup2\n        /* \"#utility.yul\":12379:12382   */\n      dup6\n        /* \"#utility.yul\":12372:12376   */\n      0x20\n        /* \"#utility.yul\":12365:12370   */\n      dup7\n        /* \"#utility.yul\":12361:12377   */\n      add\n        /* \"#utility.yul\":12326:12391   */\n      tag_375\n      jump\t// in\n    tag_532:\n        /* \"#utility.yul\":12416:12445   */\n      tag_533\n        /* \"#utility.yul\":12438:12444   */\n      dup2\n        /* \"#utility.yul\":12416:12445   */\n      tag_372\n      jump\t// in\n    tag_533:\n        /* \"#utility.yul\":12411:12414   */\n      dup5\n        /* \"#utility.yul\":12407:12446   */\n      add\n        /* \"#utility.yul\":12400:12446   */\n      swap2\n      pop\n        /* \"#utility.yul\":12169:12452   */\n      pop\n        /* \"#utility.yul\":12079:12452   */\n      swap3\n      swap2\n      pop\n      pop\n      jump\t// out\n        /* \"#utility.yul\":12458:12877   */\n    tag_169:\n        /* \"#utility.yul\":12597:12601   */\n      0x00\n        /* \"#utility.yul\":12635:12637   */\n      0x40\n        /* \"#utility.yul\":12624:12633   */\n      dup3\n        /* \"#utility.yul\":12620:12638   */\n      add\n        /* \"#utility.yul\":12612:12638   */\n      swap1\n      pop\n        /* \"#utility.yul\":12648:12719   */\n      tag_535\n        /* \"#utility.yul\":12716:12717   */\n      0x00\n        /* \"#utility.yul\":12705:12714   */\n      dup4\n        /* \"#utility.yul\":12701:12718   */\n      add\n        /* \"#utility.yul\":12692:12698   */\n      dup6\n        /* \"#utility.yul\":12648:12719   */\n      tag_361\n      jump\t// in\n    tag_535:\n        /* \"#utility.yul\":12766:12775   */\n      dup2\n        /* \"#utility.yul\":12760:12764   */\n      dup2\n        /* \"#utility.yul\":12756:12776   */\n      sub\n        /* \"#utility.yul\":12751:12753   */\n      0x20\n        /* \"#utility.yul\":12740:12749   */\n      dup4\n        /* \"#utility.yul\":12736:12754   */\n      add\n        /* \"#utility.yul\":12729:12777   */\n      mstore\n        /* \"#utility.yul\":12794:12870   */\n      tag_536\n        /* \"#utility.yul\":12865:12869   */\n      dup2\n        /* \"#utility.yul\":12856:12862   */\n      dup5\n        /* \"#utility.yul\":12794:12870   */\n      tag_385\n      jump\t// in\n    tag_536:\n        /* \"#utility.yul\":12786:12870   */\n      swap1\n      pop\n        /* \"#utility.yul\":12458:12877   */\n      swap4\n      swap3\n      pop\n      pop\n      pop\n      jump\t// out\n        /* \"#utility.yul\":12883:13077   */\n    tag_173:\n        /* \"#utility.yul\":12923:12927   */\n      0x00\n        /* \"#utility.yul\":12943:12963   */\n      tag_538\n        /* \"#utility.yul\":12961:12962   */\n      dup3\n        /* \"#utility.yul\":12943:12963   */\n      tag_362\n      jump\t// in\n    tag_538:\n        /* \"#utility.yul\":12938:12963   */\n      swap2\n      pop\n        /* \"#utility.yul\":12977:12997   */\n      tag_539\n        /* \"#utility.yul\":12995:12996   */\n      dup4\n        /* \"#utility.yul\":12977:12997   */\n      tag_362\n      jump\t// in\n    tag_539:\n        /* \"#utility.yul\":12972:12997   */\n      swap3\n      pop\n        /* \"#utility.yul\":13021:13022   */\n      dup3\n        /* \"#utility.yul\":13018:13019   */\n      dup3\n        /* \"#utility.yul\":13014:13023   */\n      sub\n        /* \"#utility.yul\":13006:13023   */\n      swap1\n      pop\n        /* \"#utility.yul\":13045:13046   */\n      dup2\n        /* \"#utility.yul\":13039:13043   */\n      dup2\n        /* \"#utility.yul\":13036:13047   */\n      gt\n        /* \"#utility.yul\":13033:13070   */\n      iszero\n      tag_540\n      jumpi\n        /* \"#utility.yul\":13050:13068   */\n      tag_541\n      tag_377\n      jump\t// in\n    tag_541:\n        /* \"#utility.yul\":13033:13070   */\n    tag_540:\n        /* \"#utility.yul\":12883:13077   */\n      swap3\n      swap2\n      pop\n      pop\n      jump\t// out\n        /* \"#utility.yul\":13083:13415   */\n    tag_177:\n        /* \"#utility.yul\":13204:13208   */\n      0x00\n        /* \"#utility.yul\":13242:13244   */\n      0x40\n        /* \"#utility.yul\":13231:13240   */\n      dup3\n        /* \"#utility.yul\":13227:13245   */\n      add\n        /* \"#utility.yul\":13219:13245   */\n      swap1\n      pop\n        /* \"#utility.yul\":13255:13326   */\n      tag_543\n        /* \"#utility.yul\":13323:13324   */\n      0x00\n        /* \"#utility.yul\":13312:13321   */\n      dup4\n        /* \"#utility.yul\":13308:13325   */\n      add\n        /* \"#utility.yul\":13299:13305   */\n      dup6\n        /* \"#utility.yul\":13255:13326   */\n      tag_361\n      jump\t// in\n    tag_543:\n        /* \"#utility.yul\":13336:13408   */\n      tag_544\n        /* \"#utility.yul\":13404:13406   */\n      0x20\n        /* \"#utility.yul\":13393:13402   */\n      dup4\n        /* \"#utility.yul\":13389:13407   */\n      add\n        /* \"#utility.yul\":13380:13386   */\n      dup5\n        /* \"#utility.yul\":13336:13408   */\n      tag_363\n      jump\t// in\n    tag_544:\n        /* \"#utility.yul\":13083:13415   */\n      swap4\n      swap3\n      pop\n      pop\n      pop\n      jump\t// out\n        /* \"#utility.yul\":13421:13511   */\n    tag_386:\n        /* \"#utility.yul\":13455:13462   */\n      0x00\n        /* \"#utility.yul\":13498:13503   */\n      dup2\n        /* \"#utility.yul\":13491:13504   */\n      iszero\n        /* \"#utility.yul\":13484:13505   */\n      iszero\n        /* \"#utility.yul\":13473:13505   */\n      swap1\n      pop\n        /* \"#utility.yul\":13421:13511   */\n      swap2\n      swap1\n      pop\n      jump\t// out\n        /* \"#utility.yul\":13517:13633   */\n    tag_387:\n        /* \"#utility.yul\":13587:13608   */\n      tag_547\n        /* \"#utility.yul\":13602:13607   */\n      dup2\n        /* \"#utility.yul\":13587:13608   */\n      tag_386\n      jump\t// in\n    tag_547:\n        /* \"#utility.yul\":13580:13585   */\n      dup2\n        /* \"#utility.yul\":13577:13609   */\n      eq\n        /* \"#utility.yul\":13567:13627   */\n      tag_548\n      jumpi\n        /* \"#utility.yul\":13623:13624   */\n      0x00\n        /* \"#utility.yul\":13620:13621   */\n      dup1\n        /* \"#utility.yul\":13613:13625   */\n      revert\n        /* \"#utility.yul\":13567:13627   */\n    tag_548:\n        /* \"#utility.yul\":13517:13633   */\n      pop\n      jump\t// out\n        /* \"#utility.yul\":13639:13776   */\n    tag_388:\n        /* \"#utility.yul\":13693:13698   */\n      0x00\n        /* \"#utility.yul\":13724:13730   */\n      dup2\n        /* \"#utility.yul\":13718:13731   */\n      mload\n        /* \"#utility.yul\":13709:13731   */\n      swap1\n      pop\n        /* \"#utility.yul\":13740:13770   */\n      tag_550\n        /* \"#utility.yul\":13764:13769   */\n      dup2\n        /* \"#utility.yul\":13740:13770   */\n      tag_387\n      jump\t// in\n    tag_550:\n        /* \"#utility.yul\":13639:13776   */\n      swap3\n      swap2\n      pop\n      pop\n      jump\t// out\n        /* \"#utility.yul\":13782:14127   */\n    tag_195:\n        /* \"#utility.yul\":13849:13855   */\n      0x00\n        /* \"#utility.yul\":13898:13900   */\n      0x20\n        /* \"#utility.yul\":13886:13895   */\n      dup3\n        /* \"#utility.yul\":13877:13884   */\n      dup5\n        /* \"#utility.yul\":13873:13896   */\n      sub\n        /* \"#utility.yul\":13869:13901   */\n      slt\n        /* \"#utility.yul\":13866:13985   */\n      iszero\n      tag_552\n      jumpi\n        /* \"#utility.yul\":13904:13983   */\n      tag_553\n      tag_353\n      jump\t// in\n    tag_553:\n        /* \"#utility.yul\":13866:13985   */\n    tag_552:\n        /* \"#utility.yul\":14024:14025   */\n      0x00\n        /* \"#utility.yul\":14049:14110   */\n      tag_554\n        /* \"#utility.yul\":14102:14109   */\n      dup5\n        /* \"#utility.yul\":14093:14099   */\n      dup3\n        /* \"#utility.yul\":14082:14091   */\n      dup6\n        /* \"#utility.yul\":14078:14100   */\n      add\n        /* \"#utility.yul\":14049:14110   */\n      tag_388\n      jump\t// in\n    tag_554:\n        /* \"#utility.yul\":14039:14110   */\n      swap2\n      pop\n        /* \"#utility.yul\":13995:14120   */\n      pop\n        /* \"#utility.yul\":13782:14127   */\n      swap3\n      swap2\n      pop\n      pop\n      jump\t// out\n        /* \"#utility.yul\":14133:14218   */\n    tag_389:\n        /* \"#utility.yul\":14178:14185   */\n      0x00\n        /* \"#utility.yul\":14207:14212   */\n      dup2\n        /* \"#utility.yul\":14196:14212   */\n      swap1\n      pop\n        /* \"#utility.yul\":14133:14218   */\n      swap2\n      swap1\n      pop\n      jump\t// out\n        /* \"#utility.yul\":14224:14325   */\n    tag_390:\n        /* \"#utility.yul\":14260:14267   */\n      0x00\n        /* \"#utility.yul\":14300:14318   */\n      0xffffffffffffffff\n        /* \"#utility.yul\":14293:14298   */\n      dup3\n        /* \"#utility.yul\":14289:14319   */\n      and\n        /* \"#utility.yul\":14278:14319   */\n      swap1\n      pop\n        /* \"#utility.yul\":14224:14325   */\n      swap2\n      swap1\n      pop\n      jump\t// out\n        /* \"#utility.yul\":14331:14391   */\n    tag_391:\n        /* \"#utility.yul\":14359:14362   */\n      0x00\n        /* \"#utility.yul\":14380:14385   */\n      dup2\n        /* \"#utility.yul\":14373:14385   */\n      swap1\n      pop\n        /* \"#utility.yul\":14331:14391   */\n      swap2\n      swap1\n      pop\n      jump\t// out\n        /* \"#utility.yul\":14397:14553   */\n    tag_392:\n        /* \"#utility.yul\":14454:14463   */\n      0x00\n        /* \"#utility.yul\":14487:14547   */\n      tag_559\n        /* \"#utility.yul\":14504:14546   */\n      tag_560\n        /* \"#utility.yul\":14513:14545   */\n      tag_561\n        /* \"#utility.yul\":14539:14544   */\n      dup5\n        /* \"#utility.yul\":14513:14545   */\n      tag_389\n      jump\t// in\n    tag_561:\n        /* \"#utility.yul\":14504:14546   */\n      tag_391\n      jump\t// in\n    tag_560:\n        /* \"#utility.yul\":14487:14547   */\n      tag_390\n      jump\t// in\n    tag_559:\n        /* \"#utility.yul\":14474:14547   */\n      swap1\n      pop\n        /* \"#utility.yul\":14397:14553   */\n      swap2\n      swap1\n      pop\n      jump\t// out\n        /* \"#utility.yul\":14559:14704   */\n    tag_393:\n        /* \"#utility.yul\":14653:14697   */\n      tag_563\n        /* \"#utility.yul\":14691:14696   */\n      dup2\n        /* \"#utility.yul\":14653:14697   */\n      tag_392\n      jump\t// in\n    tag_563:\n        /* \"#utility.yul\":14648:14651   */\n      dup3\n        /* \"#utility.yul\":14641:14698   */\n      mstore\n        /* \"#utility.yul\":14559:14704   */\n      pop\n      pop\n      jump\t// out\n        /* \"#utility.yul\":14710:14946   */\n    tag_244:\n        /* \"#utility.yul\":14810:14814   */\n      0x00\n        /* \"#utility.yul\":14848:14850   */\n      0x20\n        /* \"#utility.yul\":14837:14846   */\n      dup3\n        /* \"#utility.yul\":14833:14851   */\n      add\n        /* \"#utility.yul\":14825:14851   */\n      swap1\n      pop\n        /* \"#utility.yul\":14861:14939   */\n      tag_565\n        /* \"#utility.yul\":14936:14937   */\n      0x00\n        /* \"#utility.yul\":14925:14934   */\n      dup4\n        /* \"#utility.yul\":14921:14938   */\n      add\n        /* \"#utility.yul\":14912:14918   */\n      dup5\n        /* \"#utility.yul\":14861:14939   */\n      tag_393\n      jump\t// in\n    tag_565:\n        /* \"#utility.yul\":14710:14946   */\n      swap3\n      swap2\n      pop\n      pop\n      jump\t// out\n        /* \"#utility.yul\":14952:15057   */\n    tag_394:\n        /* \"#utility.yul\":14988:14995   */\n      0x00\n        /* \"#utility.yul\":15028:15050   */\n      0xffffffffffffffffffff\n        /* \"#utility.yul\":15021:15026   */\n      dup3\n        /* \"#utility.yul\":15017:15051   */\n      and\n        /* \"#utility.yul\":15006:15051   */\n      swap1\n      pop\n        /* \"#utility.yul\":14952:15057   */\n      swap2\n      swap1\n      pop\n      jump\t// out\n        /* \"#utility.yul\":15063:15183   */\n    tag_395:\n        /* \"#utility.yul\":15135:15158   */\n      tag_568\n        /* \"#utility.yul\":15152:15157   */\n      dup2\n        /* \"#utility.yul\":15135:15158   */\n      tag_394\n      jump\t// in\n    tag_568:\n        /* \"#utility.yul\":15128:15133   */\n      dup2\n        /* \"#utility.yul\":15125:15159   */\n      eq\n        /* \"#utility.yul\":15115:15177   */\n      tag_569\n      jumpi\n        /* \"#utility.yul\":15173:15174   */\n      0x00\n        /* \"#utility.yul\":15170:15171   */\n      dup1\n        /* \"#utility.yul\":15163:15175   */\n      revert\n        /* \"#utility.yul\":15115:15177   */\n    tag_569:\n        /* \"#utility.yul\":15063:15183   */\n      pop\n      jump\t// out\n        /* \"#utility.yul\":15189:15330   */\n    tag_396:\n        /* \"#utility.yul\":15245:15250   */\n      0x00\n        /* \"#utility.yul\":15276:15282   */\n      dup2\n        /* \"#utility.yul\":15270:15283   */\n      mload\n        /* \"#utility.yul\":15261:15283   */\n      swap1\n      pop\n        /* \"#utility.yul\":15292:15324   */\n      tag_571\n        /* \"#utility.yul\":15318:15323   */\n      dup2\n        /* \"#utility.yul\":15292:15324   */\n      tag_395\n      jump\t// in\n    tag_571:\n        /* \"#utility.yul\":15189:15330   */\n      swap3\n      swap2\n      pop\n      pop\n      jump\t// out\n        /* \"#utility.yul\":15336:15412   */\n    tag_397:\n        /* \"#utility.yul\":15372:15379   */\n      0x00\n        /* \"#utility.yul\":15401:15406   */\n      dup2\n        /* \"#utility.yul\":15390:15406   */\n      swap1\n      pop\n        /* \"#utility.yul\":15336:15412   */\n      swap2\n      swap1\n      pop\n      jump\t// out\n        /* \"#utility.yul\":15418:15538   */\n    tag_398:\n        /* \"#utility.yul\":15490:15513   */\n      tag_574\n        /* \"#utility.yul\":15507:15512   */\n      dup2\n        /* \"#utility.yul\":15490:15513   */\n      tag_397\n      jump\t// in\n    tag_574:\n        /* \"#utility.yul\":15483:15488   */\n      dup2\n        /* \"#utility.yul\":15480:15514   */\n      eq\n        /* \"#utility.yul\":15470:15532   */\n      tag_575\n      jumpi\n        /* \"#utility.yul\":15528:15529   */\n      0x00\n        /* \"#utility.yul\":15525:15526   */\n      dup1\n        /* \"#utility.yul\":15518:15530   */\n      revert\n        /* \"#utility.yul\":15470:15532   */\n    tag_575:\n        /* \"#utility.yul\":15418:15538   */\n      pop\n      jump\t// out\n        /* \"#utility.yul\":15544:15685   */\n    tag_399:\n        /* \"#utility.yul\":15600:15605   */\n      0x00\n        /* \"#utility.yul\":15631:15637   */\n      dup2\n        /* \"#utility.yul\":15625:15638   */\n      mload\n        /* \"#utility.yul\":15616:15638   */\n      swap1\n      pop\n        /* \"#utility.yul\":15647:15679   */\n      tag_577\n        /* \"#utility.yul\":15673:15678   */\n      dup2\n        /* \"#utility.yul\":15647:15679   */\n      tag_398\n      jump\t// in\n    tag_577:\n        /* \"#utility.yul\":15544:15685   */\n      swap3\n      swap2\n      pop\n      pop\n      jump\t// out\n        /* \"#utility.yul\":15691:15834   */\n    tag_400:\n        /* \"#utility.yul\":15748:15753   */\n      0x00\n        /* \"#utility.yul\":15779:15785   */\n      dup2\n        /* \"#utility.yul\":15773:15786   */\n      mload\n        /* \"#utility.yul\":15764:15786   */\n      swap1\n      pop\n        /* \"#utility.yul\":15795:15828   */\n      tag_579\n        /* \"#utility.yul\":15822:15827   */\n      dup2\n        /* \"#utility.yul\":15795:15828   */\n      tag_364\n      jump\t// in\n    tag_579:\n        /* \"#utility.yul\":15691:15834   */\n      swap3\n      swap2\n      pop\n      pop\n      jump\t// out\n        /* \"#utility.yul\":15840:16811   */\n    tag_270:\n        /* \"#utility.yul\":15943:15949   */\n      0x00\n        /* \"#utility.yul\":15951:15957   */\n      dup1\n        /* \"#utility.yul\":15959:15965   */\n      0x00\n        /* \"#utility.yul\":15967:15973   */\n      dup1\n        /* \"#utility.yul\":15975:15981   */\n      0x00\n        /* \"#utility.yul\":16024:16027   */\n      0xa0\n        /* \"#utility.yul\":16012:16021   */\n      dup7\n        /* \"#utility.yul\":16003:16010   */\n      dup9\n        /* \"#utility.yul\":15999:16022   */\n      sub\n        /* \"#utility.yul\":15995:16028   */\n      slt\n        /* \"#utility.yul\":15992:16112   */\n      iszero\n      tag_581\n      jumpi\n        /* \"#utility.yul\":16031:16110   */\n      tag_582\n      tag_353\n      jump\t// in\n    tag_582:\n        /* \"#utility.yul\":15992:16112   */\n    tag_581:\n        /* \"#utility.yul\":16151:16152   */\n      0x00\n        /* \"#utility.yul\":16176:16239   */\n      tag_583\n        /* \"#utility.yul\":16231:16238   */\n      dup9\n        /* \"#utility.yul\":16222:16228   */\n      dup3\n        /* \"#utility.yul\":16211:16220   */\n      dup10\n        /* \"#utility.yul\":16207:16229   */\n      add\n        /* \"#utility.yul\":16176:16239   */\n      tag_396\n      jump\t// in\n    tag_583:\n        /* \"#utility.yul\":16166:16239   */\n      swap6\n      pop\n        /* \"#utility.yul\":16122:16249   */\n      pop\n        /* \"#utility.yul\":16288:16290   */\n      0x20\n        /* \"#utility.yul\":16314:16377   */\n      tag_584\n        /* \"#utility.yul\":16369:16376   */\n      dup9\n        /* \"#utility.yul\":16360:16366   */\n      dup3\n        /* \"#utility.yul\":16349:16358   */\n      dup10\n        /* \"#utility.yul\":16345:16367   */\n      add\n        /* \"#utility.yul\":16314:16377   */\n      tag_399\n      jump\t// in\n    tag_584:\n        /* \"#utility.yul\":16304:16377   */\n      swap5\n      pop\n        /* \"#utility.yul\":16259:16387   */\n      pop\n        /* \"#utility.yul\":16426:16428   */\n      0x40\n        /* \"#utility.yul\":16452:16516   */\n      tag_585\n        /* \"#utility.yul\":16508:16515   */\n      dup9\n        /* \"#utility.yul\":16499:16505   */\n      dup3\n        /* \"#utility.yul\":16488:16497   */\n      dup10\n        /* \"#utility.yul\":16484:16506   */\n      add\n        /* \"#utility.yul\":16452:16516   */\n      tag_400\n      jump\t// in\n    tag_585:\n        /* \"#utility.yul\":16442:16516   */\n      swap4\n      pop\n        /* \"#utility.yul\":16397:16526   */\n      pop\n        /* \"#utility.yul\":16565:16567   */\n      0x60\n        /* \"#utility.yul\":16591:16655   */\n      tag_586\n        /* \"#utility.yul\":16647:16654   */\n      dup9\n        /* \"#utility.yul\":16638:16644   */\n      dup3\n        /* \"#utility.yul\":16627:16636   */\n      dup10\n        /* \"#utility.yul\":16623:16645   */\n      add\n        /* \"#utility.yul\":16591:16655   */\n      tag_400\n      jump\t// in\n    tag_586:\n        /* \"#utility.yul\":16581:16655   */\n      swap3\n      pop\n        /* \"#utility.yul\":16536:16665   */\n      pop\n        /* \"#utility.yul\":16704:16707   */\n      0x80\n        /* \"#utility.yul\":16731:16794   */\n      tag_587\n        /* \"#utility.yul\":16786:16793   */\n      dup9\n        /* \"#utility.yul\":16777:16783   */\n      dup3\n        /* \"#utility.yul\":16766:16775   */\n      dup10\n        /* \"#utility.yul\":16762:16784   */\n      add\n        /* \"#utility.yul\":16731:16794   */\n      tag_396\n      jump\t// in\n    tag_587:\n        /* \"#utility.yul\":16721:16794   */\n      swap2\n      pop\n        /* \"#utility.yul\":16675:16804   */\n      pop\n        /* \"#utility.yul\":15840:16811   */\n      swap3\n      swap6\n      pop\n      swap3\n      swap6\n      swap1\n      swap4\n      pop\n      jump\t// out\n        /* \"#utility.yul\":16817:17149   */\n    tag_291:\n        /* \"#utility.yul\":16938:16942   */\n      0x00\n        /* \"#utility.yul\":16976:16978   */\n      0x40\n        /* \"#utility.yul\":16965:16974   */\n      dup3\n        /* \"#utility.yul\":16961:16979   */\n      add\n        /* \"#utility.yul\":16953:16979   */\n      swap1\n      pop\n        /* \"#utility.yul\":16989:17060   */\n      tag_589\n        /* \"#utility.yul\":17057:17058   */\n      0x00\n        /* \"#utility.yul\":17046:17055   */\n      dup4\n        /* \"#utility.yul\":17042:17059   */\n      add\n        /* \"#utility.yul\":17033:17039   */\n      dup6\n        /* \"#utility.yul\":16989:17060   */\n      tag_361\n      jump\t// in\n    tag_589:\n        /* \"#utility.yul\":17070:17142   */\n      tag_590\n        /* \"#utility.yul\":17138:17140   */\n      0x20\n        /* \"#utility.yul\":17127:17136   */\n      dup4\n        /* \"#utility.yul\":17123:17141   */\n      add\n        /* \"#utility.yul\":17114:17120   */\n      dup5\n        /* \"#utility.yul\":17070:17142   */\n      tag_361\n      jump\t// in\n    tag_590:\n        /* \"#utility.yul\":16817:17149   */\n      swap4\n      swap3\n      pop\n      pop\n      pop\n      jump\t// out\n        /* \"#utility.yul\":17155:17506   */\n    tag_295:\n        /* \"#utility.yul\":17225:17231   */\n      0x00\n        /* \"#utility.yul\":17274:17276   */\n      0x20\n        /* \"#utility.yul\":17262:17271   */\n      dup3\n        /* \"#utility.yul\":17253:17260   */\n      dup5\n        /* \"#utility.yul\":17249:17272   */\n      sub\n        /* \"#utility.yul\":17245:17277   */\n      slt\n        /* \"#utility.yul\":17242:17361   */\n      iszero\n      tag_592\n      jumpi\n        /* \"#utility.yul\":17280:17359   */\n      tag_593\n      tag_353\n      jump\t// in\n    tag_593:\n        /* \"#utility.yul\":17242:17361   */\n    tag_592:\n        /* \"#utility.yul\":17400:17401   */\n      0x00\n        /* \"#utility.yul\":17425:17489   */\n      tag_594\n        /* \"#utility.yul\":17481:17488   */\n      dup5\n        /* \"#utility.yul\":17472:17478   */\n      dup3\n        /* \"#utility.yul\":17461:17470   */\n      dup6\n        /* \"#utility.yul\":17457:17479   */\n      add\n        /* \"#utility.yul\":17425:17489   */\n      tag_400\n      jump\t// in\n    tag_594:\n        /* \"#utility.yul\":17415:17489   */\n      swap2\n      pop\n        /* \"#utility.yul\":17371:17499   */\n      pop\n        /* \"#utility.yul\":17155:17506   */\n      swap3\n      swap2\n      pop\n      pop\n      jump\t// out\n        /* \"#utility.yul\":17512:17954   */\n    tag_308:\n        /* \"#utility.yul\":17661:17665   */\n      0x00\n        /* \"#utility.yul\":17699:17701   */\n      0x60\n        /* \"#utility.yul\":17688:17697   */\n      dup3\n        /* \"#utility.yul\":17684:17702   */\n      add\n        /* \"#utility.yul\":17676:17702   */\n      swap1\n      pop\n        /* \"#utility.yul\":17712:17783   */\n      tag_596\n        /* \"#utility.yul\":17780:17781   */\n      0x00\n        /* \"#utility.yul\":17769:17778   */\n      dup4\n        /* \"#utility.yul\":17765:17782   */\n      add\n        /* \"#utility.yul\":17756:17762   */\n      dup7\n        /* \"#utility.yul\":17712:17783   */\n      tag_361\n      jump\t// in\n    tag_596:\n        /* \"#utility.yul\":17793:17865   */\n      tag_597\n        /* \"#utility.yul\":17861:17863   */\n      0x20\n        /* \"#utility.yul\":17850:17859   */\n      dup4\n        /* \"#utility.yul\":17846:17864   */\n      add\n        /* \"#utility.yul\":17837:17843   */\n      dup6\n        /* \"#utility.yul\":17793:17865   */\n      tag_361\n      jump\t// in\n    tag_597:\n        /* \"#utility.yul\":17875:17947   */\n      tag_598\n        /* \"#utility.yul\":17943:17945   */\n      0x40\n        /* \"#utility.yul\":17932:17941   */\n      dup4\n        /* \"#utility.yul\":17928:17946   */\n      add\n        /* \"#utility.yul\":17919:17925   */\n      dup5\n        /* \"#utility.yul\":17875:17947   */\n      tag_363\n      jump\t// in\n    tag_598:\n        /* \"#utility.yul\":17512:17954   */\n      swap5\n      swap4\n      pop\n      pop\n      pop\n      pop\n      jump\t// out\n        /* \"#utility.yul\":17960:18595   */\n    tag_338:\n        /* \"#utility.yul\":18208:18211   */\n      0x00\n        /* \"#utility.yul\":18230:18335   */\n      tag_600\n        /* \"#utility.yul\":18331:18334   */\n      dup3\n        /* \"#utility.yul\":18322:18328   */\n      dup8\n        /* \"#utility.yul\":18314:18320   */\n      dup10\n        /* \"#utility.yul\":18230:18335   */\n      tag_370\n      jump\t// in\n    tag_600:\n        /* \"#utility.yul\":18223:18335   */\n      swap2\n      pop\n        /* \"#utility.yul\":18352:18447   */\n      tag_601\n        /* \"#utility.yul\":18443:18446   */\n      dup3\n        /* \"#utility.yul\":18434:18440   */\n      dup7\n        /* \"#utility.yul\":18352:18447   */\n      tag_376\n      jump\t// in\n    tag_601:\n        /* \"#utility.yul\":18345:18447   */\n      swap2\n      pop\n        /* \"#utility.yul\":18464:18569   */\n      tag_602\n        /* \"#utility.yul\":18565:18568   */\n      dup3\n        /* \"#utility.yul\":18556:18562   */\n      dup5\n        /* \"#utility.yul\":18548:18554   */\n      dup7\n        /* \"#utility.yul\":18464:18569   */\n      tag_370\n      jump\t// in\n    tag_602:\n        /* \"#utility.yul\":18457:18569   */\n      swap2\n      pop\n        /* \"#utility.yul\":18586:18589   */\n      dup2\n        /* \"#utility.yul\":18579:18589   */\n      swap1\n      pop\n        /* \"#utility.yul\":17960:18595   */\n      swap7\n      swap6\n      pop\n      pop\n      pop\n      pop\n      pop\n      pop\n      jump\t// out\n\n    auxdata: 0xa2646970667358221220a5088f83ab460b3b84be6cf5b8c8c54c1bfcc8da753e91aa8120dff2889f460064736f6c63430008180033\n}\n",
				"bytecode": {
					"linkReferences": {},
					"object": "608060405234801561000f575f80fd5b506127698061001d5f395ff3fe6080604052600436106100fd575f3560e01c806382702ff411610094578063b4988fd011610063578063b4988fd01461028f578063f2fde38b146102b7578063fbd43caa146102df578063fc8b2653146102fb578063fee84d4e14610325576100fd565b806382702ff4146102115780638da5cb5b14610227578063a0ef91df14610251578063a2b40d1914610267576100fd565b806337ee4b47116100d057806337ee4b471461019f578063559aae74146101bb57806359e41286146101d1578063715018a6146101fb576100fd565b80631b0e17a314610101578063225068c21461011d57806325970115146101395780632dd398b514610175575b5f80fd5b61011b60048036038101906101169190611e8f565b61033b565b005b61013760048036038101906101329190611eda565b6104f9565b005b348015610144575f80fd5b5061015f600480360381019061015a9190611e8f565b6106fc565b60405161016c9190611f97565b60405180910390f35b348015610180575f80fd5b5061018961074e565b6040516101969190611fc8565b60405180910390f35b6101b960048036038101906101b49190611eda565b610790565b005b3480156101c6575f80fd5b506101cf61096f565b005b3480156101dc575f80fd5b506101e5610c21565b6040516101f29190611fc8565b60405180910390f35b348015610206575f80fd5b5061020f610c32565b005b34801561021c575f80fd5b50610225610c45565b005b348015610232575f80fd5b5061023b610e5d565b6040516102489190611f97565b60405180910390f35b34801561025c575f80fd5b50610265610e92565b005b348015610272575f80fd5b5061028d6004803603810190610288919061200b565b610fff565b005b34801561029a575f80fd5b506102b560048036038101906102b09190612060565b6110a2565b005b3480156102c2575f80fd5b506102dd60048036038101906102d891906120b0565b6112b3565b005b6102f960048036038101906102f49190611e8f565b611337565b005b348015610306575f80fd5b5061030f611519565b60405161031c9190611fc8565b60405180910390f35b348015610330575f80fd5b506103396115ee565b005b5f61034461074e565b905080341461038c5734816040517fbe7b9d4d0000000000000000000000000000000000000000000000000000000081526004016103839291906120db565b60405180910390fd5b82825f73ffffffffffffffffffffffffffffffffffffffff166103ad611741565b60010183836040516103c092919061213e565b90815260200160405180910390205f9054906101000a900473ffffffffffffffffffffffffffffffffffffffff1673ffffffffffffffffffffffffffffffffffffffff161461043b576040517fc5e8402d00000000000000000000000000000000000000000000000000000000815260040160405180910390fd5b33610444611741565b600101868660405161045792919061213e565b90815260200160405180910390205f6101000a81548173ffffffffffffffffffffffffffffffffffffffff021916908373ffffffffffffffffffffffffffffffffffffffff1602179055503373ffffffffffffffffffffffffffffffffffffffff167f70f2ff07e8136617cdfb0433423063c9dd697c507560d7860cce09fa86874a1286866040516104ea9291906121a2565b60405180910390a25050505050565b5f610502611768565b90505f61050d611741565b5f015490508082146105585781816040517f035a0e0000000000000000000000000000000000000000000000000000000000815260040161054f9291906120db565b60405180910390fd5b5f61056587878787611809565b90505f610570611768565b905061057b8161198b565b33610584611741565b600101836040516105959190612226565b90815260200160405180910390205f6101000a81548173ffffffffffffffffffffffffffffffffffffffff021916908373ffffffffffffffffffffffffffffffffffffffff160217905550806105e9611a2d565b5f015f8282546105f99190612269565b9250508190555080610609611a2d565b6001015f610615611741565b6001018b8b60405161062892919061213e565b90815260200160405180910390205f9054906101000a900473ffffffffffffffffffffffffffffffffffffffff1673ffffffffffffffffffffffffffffffffffffffff1673ffffffffffffffffffffffffffffffffffffffff1681526020019081526020015f205f82825461069d9190612269565b925050819055503373ffffffffffffffffffffffffffffffffffffffff167f70f2ff07e8136617cdfb0433423063c9dd697c507560d7860cce09fa86874a12836040516106ea91906122d4565b60405180910390a25050505050505050565b5f610705611741565b600101838360405161071892919061213e565b90815260200160405180910390205f9054906101000a900473ffffffffffffffffffffffffffffffffffffffff16905092915050565b5f610757611519565b670de0b6b3a7640000606461076a611741565b5f015461077791906122f4565b61078191906122f4565b61078b9190612362565b905090565b5f61079961074e565b90508034146107e15734816040517fbe7b9d4d0000000000000000000000000000000000000000000000000000000081526004016107d89291906120db565b60405180910390fd5b5f6107ee86868686611809565b9050336107f9611741565b6001018260405161080a9190612226565b90815260200160405180910390205f6101000a81548173ffffffffffffffffffffffffffffffffffffffff021916908373ffffffffffffffffffffffffffffffffffffffff1602179055503461085e611a54565b5f015f82825461086e9190612269565b925050819055503461087e611a54565b6001015f61088a611741565b600101898960405161089d92919061213e565b90815260200160405180910390205f9054906101000a900473ffffffffffffffffffffffffffffffffffffffff1673ffffffffffffffffffffffffffffffffffffffff1673ffffffffffffffffffffffffffffffffffffffff1681526020019081526020015f205f8282546109129190612269565b925050819055503373ffffffffffffffffffffffffffffffffffffffff167f70f2ff07e8136617cdfb0433423063c9dd697c507560d7860cce09fa86874a128260405161095f91906122d4565b60405180910390a2505050505050565b5f610978611a54565b6001015f3373ffffffffffffffffffffffffffffffffffffffff1673ffffffffffffffffffffffffffffffffffffffff1681526020019081526020015f2054036109f957336040517fdc69dc160000000000000000000000000000000000000000000000000000000081526004016109f09190611f97565b60405180910390fd5b5f803373ffffffffffffffffffffffffffffffffffffffff16610a1a611a54565b6001015f3373ffffffffffffffffffffffffffffffffffffffff1673ffffffffffffffffffffffffffffffffffffffff1681526020019081526020015f2054604051610a65906123bf565b5f6040518083038185875af1925050503d805f8114610a9f576040519150601f19603f3d011682016040523d82523d5f602084013e610aa4565b606091505b509150915081610aed5733816040517f7824688c000000000000000000000000000000000000000000000000000000008152600401610ae4929190612425565b60405180910390fd5b610af5611a54565b6001015f3373ffffffffffffffffffffffffffffffffffffffff1673ffffffffffffffffffffffffffffffffffffffff1681526020019081526020015f2054610b3c611a54565b5f015f828254610b4c9190612453565b925050819055505f610b5c611a54565b6001015f3373ffffffffffffffffffffffffffffffffffffffff1673ffffffffffffffffffffffffffffffffffffffff1681526020019081526020015f20819055507f7fcf532c15f0a6db0bd6d0e038bea71d30d808c7d98cb3bf7268a95bf5081b6533610bc8611a54565b6001015f3373ffffffffffffffffffffffffffffffffffffffff1673ffffffffffffffffffffffffffffffffffffffff1681526020019081526020015f2054604051610c15929190612486565b60405180910390a15050565b5f610c2a611741565b5f0154905090565b610c3a611a7b565b610c435f611b02565b565b5f610c4e611a2d565b6001015f3373ffffffffffffffffffffffffffffffffffffffff1673ffffffffffffffffffffffffffffffffffffffff1681526020019081526020015f205403610ccf57336040517fdc69dc16000000000000000000000000000000000000000000000000000000008152600401610cc69190611f97565b60405180910390fd5b5f610cd8611a54565b6001015f3373ffffffffffffffffffffffffffffffffffffffff1673ffffffffffffffffffffffffffffffffffffffff1681526020019081526020015f2054905060015f9054906101000a900473ffffffffffffffffffffffffffffffffffffffff1673ffffffffffffffffffffffffffffffffffffffff1663a9059cbb33836040518363ffffffff1660e01b8152600401610d75929190612486565b6020604051808303815f875af1158015610d91573d5f803e3d5ffd5b505050506040513d601f19601f82011682018060405250810190610db591906124e2565b5080610dbf611a54565b5f015f828254610dcf9190612453565b925050819055505f610ddf611a54565b6001015f3373ffffffffffffffffffffffffffffffffffffffff1673ffffffffffffffffffffffffffffffffffffffff1681526020019081526020015f20819055507f7fcf532c15f0a6db0bd6d0e038bea71d30d808c7d98cb3bf7268a95bf5081b653382604051610e52929190612486565b60405180910390a150565b5f80610e67611bd3565b9050805f015f9054906101000a900473ffffffffffffffffffffffffffffffffffffffff1691505090565b610e9a611a7b565b5f610ea3611a54565b5f015447610eb19190612453565b90505f8103610efe57610ec2610e5d565b6040517fdc69dc16000000000000000000000000000000000000000000000000000000008152600401610ef59190611f97565b60405180910390fd5b5f80610f08610e5d565b73ffffffffffffffffffffffffffffffffffffffff1683604051610f2b906123bf565b5f6040518083038185875af1925050503d805f8114610f65576040519150601f19603f3d011682016040523d82523d5f602084013e610f6a565b606091505b509150915081610fba57610f7c610e5d565b816040517f7824688c000000000000000000000000000000000000000000000000000000008152600401610fb1929190612425565b60405180910390fd5b7f7fcf532c15f0a6db0bd6d0e038bea71d30d808c7d98cb3bf7268a95bf5081b65610fe3610e5d565b84604051610ff2929190612486565b60405180910390a1505050565b611007611a7b565b805f81036110585780611018611741565b5f01546040517fd090dd0600000000000000000000000000000000000000000000000000000000815260040161104f9291906120db565b60405180910390fd5b81611061611741565b5f01819055507fa6dc15bdb68da224c66db4b3838d9a2b205138e8cff6774e57d0af91e196d622826040516110969190611fc8565b60405180910390a15050565b5f6110ab611bfa565b90505f815f0160089054906101000a900460ff161590505f825f015f9054906101000a900467ffffffffffffffff1690505f808267ffffffffffffffff161480156110f35750825b90505f60018367ffffffffffffffff1614801561112657505f3073ffffffffffffffffffffffffffffffffffffffff163b145b905081158015611134575080155b1561116b576040517ff92ee8a900000000000000000000000000000000000000000000000000000000815260040160405180910390fd5b6001855f015f6101000a81548167ffffffffffffffff021916908367ffffffffffffffff16021790555083156111b8576001855f0160086101000a81548160ff0219169083151502179055505b876111c1611741565b5f01819055506111d033611c21565b865f806101000a81548173ffffffffffffffffffffffffffffffffffffffff021916908373ffffffffffffffffffffffffffffffffffffffff1602179055508560015f6101000a81548173ffffffffffffffffffffffffffffffffffffffff021916908373ffffffffffffffffffffffffffffffffffffffff16021790555083156112a9575f855f0160086101000a81548160ff0219169083151502179055507fc7f505b2f371ae2175ee4913f4499e1f2633a7b5936321eed1cdaeb6115181d260016040516112a09190612562565b60405180910390a15b5050505050505050565b6112bb611a7b565b5f73ffffffffffffffffffffffffffffffffffffffff168173ffffffffffffffffffffffffffffffffffffffff160361132b575f6040517f1e4fbdf70000000000000000000000000000000000000000000000000000000081526004016113229190611f97565b60405180910390fd5b61133481611b02565b50565b5f611340611768565b90505f61134b611741565b5f015490508082146113965781816040517f035a0e0000000000000000000000000000000000000000000000000000000000815260040161138d9291906120db565b60405180910390fd5b83835f73ffffffffffffffffffffffffffffffffffffffff166113b7611741565b60010183836040516113ca92919061213e565b90815260200160405180910390205f9054906101000a900473ffffffffffffffffffffffffffffffffffffffff1673ffffffffffffffffffffffffffffffffffffffff1614611445576040517fc5e8402d00000000000000000000000000000000000000000000000000000000815260040160405180910390fd5b5f61144e611768565b90506114598161198b565b33611462611741565b600101888860405161147592919061213e565b90815260200160405180910390205f6101000a81548173ffffffffffffffffffffffffffffffffffffffff021916908373ffffffffffffffffffffffffffffffffffffffff1602179055503373ffffffffffffffffffffffffffffffffffffffff167f70f2ff07e8136617cdfb0433423063c9dd697c507560d7860cce09fa86874a1288886040516115089291906121a2565b60405180910390a250505050505050565b5f805f8054906101000a900473ffffffffffffffffffffffffffffffffffffffff1673ffffffffffffffffffffffffffffffffffffffff1663feaf968c6040518163ffffffff1660e01b815260040160a060405180830381865afa158015611583573d5f803e3d5ffd5b505050506040513d601f19601f820116820180604052508101906115a79190612601565b5050509150505f8112156115e7576040517f6f4f5ab900000000000000000000000000000000000000000000000000000000815260040160405180910390fd5b8091505090565b6115f6611a7b565b5f6115ff611a2d565b5f015461160a611c35565b6116149190612453565b90505f810361166157611625610e5d565b6040517fdc69dc160000000000000000000000000000000000000000000000000000000081526004016116589190611f97565b60405180910390fd5b60015f9054906101000a900473ffffffffffffffffffffffffffffffffffffffff1673ffffffffffffffffffffffffffffffffffffffff1663a9059cbb33836040518363ffffffff1660e01b81526004016116bd929190612486565b6020604051808303815f875af11580156116d9573d5f803e3d5ffd5b505050506040513d601f19601f820116820180604052508101906116fd91906124e2565b507f7fcf532c15f0a6db0bd6d0e038bea71d30d808c7d98cb3bf7268a95bf5081b65611727610e5d565b82604051611736929190612486565b60405180910390a150565b5f7f34d79759018dd62b1c8d40a6535099f131828aa4665b939adf68c4556b516400905090565b5f60015f9054906101000a900473ffffffffffffffffffffffffffffffffffffffff1673ffffffffffffffffffffffffffffffffffffffff1663dd62ed3e33306040518363ffffffff1660e01b81526004016117c5929190612678565b602060405180830381865afa1580156117e0573d5f803e3d5ffd5b505050506040513d601f19601f82011682018060405250810190611804919061269f565b905090565b60605f73ffffffffffffffffffffffffffffffffffffffff1661182a611741565b600101868660405161183d92919061213e565b90815260200160405180910390205f9054906101000a900473ffffffffffffffffffffffffffffffffffffffff1673ffffffffffffffffffffffffffffffffffffffff16036118c55784846040517f30a58c070000000000000000000000000000000000000000000000000000000081526004016118bc9291906121a2565b60405180910390fd5b5f6118d284848888611cd4565b90505f73ffffffffffffffffffffffffffffffffffffffff166118f3611741565b600101826040516119049190612226565b90815260200160405180910390205f9054906101000a900473ffffffffffffffffffffffffffffffffffffffff1673ffffffffffffffffffffffffffffffffffffffff161461197f576040517fc5e8402d00000000000000000000000000000000000000000000000000000000815260040160405180910390fd5b80915050949350505050565b60015f9054906101000a900473ffffffffffffffffffffffffffffffffffffffff1673ffffffffffffffffffffffffffffffffffffffff166323b872dd3330846040518463ffffffff1660e01b81526004016119e9939291906126ca565b6020604051808303815f875af1158015611a05573d5f803e3d5ffd5b505050506040513d601f19601f82011682018060405250810190611a2991906124e2565b5050565b5f7f64d6ff49462c7266e92c8aa47370a483b3bb1c9ff7216e1d88a62c1eb24ffb00905090565b5f7f249f20ee916056548cfe0204d9ea4281f252680318bb5252f87aa5a31ec81e00905090565b611a83611d3d565b73ffffffffffffffffffffffffffffffffffffffff16611aa1610e5d565b73ffffffffffffffffffffffffffffffffffffffff1614611b0057611ac4611d3d565b6040517f118cdaa7000000000000000000000000000000000000000000000000000000008152600401611af79190611f97565b60405180910390fd5b565b5f611b0b611bd3565b90505f815f015f9054906101000a900473ffffffffffffffffffffffffffffffffffffffff16905082825f015f6101000a81548173ffffffffffffffffffffffffffffffffffffffff021916908373ffffffffffffffffffffffffffffffffffffffff1602179055508273ffffffffffffffffffffffffffffffffffffffff168173ffffffffffffffffffffffffffffffffffffffff167f8be0079c531659141344cd1fd0a4f28419497f9722a3daafe3b4186f6b6457e060405160405180910390a3505050565b5f7f9016d09d72d40fdae2fd8ceac6b6234c7706214fd39c1cd1e609a0528c199300905090565b5f7ff0c57e16840df040f15088dc2f81fe391c3923bec73e23a9662efc9c229c6a00905090565b611c29611d44565b611c3281611d84565b50565b5f60015f9054906101000a900473ffffffffffffffffffffffffffffffffffffffff1673ffffffffffffffffffffffffffffffffffffffff166370a08231306040518263ffffffff1660e01b8152600401611c909190611f97565b602060405180830381865afa158015611cab573d5f803e3d5ffd5b505050506040513d601f19601f82011682018060405250810190611ccf919061269f565b905090565b606084846040518060400160405280600181526020017f2e000000000000000000000000000000000000000000000000000000000000008152508585604051602001611d249594939291906126ff565b6040516020818303038152906040529050949350505050565b5f33905090565b611d4c611e08565b611d82576040517fd7e6bcf800000000000000000000000000000000000000000000000000000000815260040160405180910390fd5b565b611d8c611d44565b5f73ffffffffffffffffffffffffffffffffffffffff168173ffffffffffffffffffffffffffffffffffffffff1603611dfc575f6040517f1e4fbdf7000000000000000000000000000000000000000000000000000000008152600401611df39190611f97565b60405180910390fd5b611e0581611b02565b50565b5f611e11611bfa565b5f0160089054906101000a900460ff16905090565b5f80fd5b5f80fd5b5f80fd5b5f80fd5b5f80fd5b5f8083601f840112611e4f57611e4e611e2e565b5b8235905067ffffffffffffffff811115611e6c57611e6b611e32565b5b602083019150836001820283011115611e8857611e87611e36565b5b9250929050565b5f8060208385031215611ea557611ea4611e26565b5b5f83013567ffffffffffffffff811115611ec257611ec1611e2a565b5b611ece85828601611e3a565b92509250509250929050565b5f805f8060408587031215611ef257611ef1611e26565b5b5f85013567ffffffffffffffff811115611f0f57611f0e611e2a565b5b611f1b87828801611e3a565b9450945050602085013567ffffffffffffffff811115611f3e57611f3d611e2a565b5b611f4a87828801611e3a565b925092505092959194509250565b5f73ffffffffffffffffffffffffffffffffffffffff82169050919050565b5f611f8182611f58565b9050919050565b611f9181611f77565b82525050565b5f602082019050611faa5f830184611f88565b92915050565b5f819050919050565b611fc281611fb0565b82525050565b5f602082019050611fdb5f830184611fb9565b92915050565b611fea81611fb0565b8114611ff4575f80fd5b50565b5f8135905061200581611fe1565b92915050565b5f602082840312156120205761201f611e26565b5b5f61202d84828501611ff7565b91505092915050565b61203f81611f77565b8114612049575f80fd5b50565b5f8135905061205a81612036565b92915050565b5f805f6060848603121561207757612076611e26565b5b5f61208486828701611ff7565b93505060206120958682870161204c565b92505060406120a68682870161204c565b9150509250925092565b5f602082840312156120c5576120c4611e26565b5b5f6120d28482850161204c565b91505092915050565b5f6040820190506120ee5f830185611fb9565b6120fb6020830184611fb9565b9392505050565b5f81905092915050565b828183375f83830152505050565b5f6121258385612102565b935061213283858461210c565b82840190509392505050565b5f61214a82848661211a565b91508190509392505050565b5f82825260208201905092915050565b5f601f19601f8301169050919050565b5f6121818385612156565b935061218e83858461210c565b61219783612166565b840190509392505050565b5f6020820190508181035f8301526121bb818486612176565b90509392505050565b5f81519050919050565b5f5b838110156121eb5780820151818401526020810190506121d0565b5f8484015250505050565b5f612200826121c4565b61220a8185612102565b935061221a8185602086016121ce565b80840191505092915050565b5f61223182846121f6565b915081905092915050565b7f4e487b71000000000000000000000000000000000000000000000000000000005f52601160045260245ffd5b5f61227382611fb0565b915061227e83611fb0565b92508282019050808211156122965761229561223c565b5b92915050565b5f6122a6826121c4565b6122b08185612156565b93506122c08185602086016121ce565b6122c981612166565b840191505092915050565b5f6020820190508181035f8301526122ec818461229c565b905092915050565b5f6122fe82611fb0565b915061230983611fb0565b925082820261231781611fb0565b9150828204841483151761232e5761232d61223c565b5b5092915050565b7f4e487b71000000000000000000000000000000000000000000000000000000005f52601260045260245ffd5b5f61236c82611fb0565b915061237783611fb0565b92508261238757612386612335565b5b828204905092915050565b5f81905092915050565b50565b5f6123aa5f83612392565b91506123b58261239c565b5f82019050919050565b5f6123c98261239f565b9150819050919050565b5f81519050919050565b5f82825260208201905092915050565b5f6123f7826123d3565b61240181856123dd565b93506124118185602086016121ce565b61241a81612166565b840191505092915050565b5f6040820190506124385f830185611f88565b818103602083015261244a81846123ed565b90509392505050565b5f61245d82611fb0565b915061246883611fb0565b92508282039050818111156124805761247f61223c565b5b92915050565b5f6040820190506124995f830185611f88565b6124a66020830184611fb9565b9392505050565b5f8115159050919050565b6124c1816124ad565b81146124cb575f80fd5b50565b5f815190506124dc816124b8565b92915050565b5f602082840312156124f7576124f6611e26565b5b5f612504848285016124ce565b91505092915050565b5f819050919050565b5f67ffffffffffffffff82169050919050565b5f819050919050565b5f61254c6125476125428461250d565b612529565b612516565b9050919050565b61255c81612532565b82525050565b5f6020820190506125755f830184612553565b92915050565b5f69ffffffffffffffffffff82169050919050565b6125998161257b565b81146125a3575f80fd5b50565b5f815190506125b481612590565b92915050565b5f819050919050565b6125cc816125ba565b81146125d6575f80fd5b50565b5f815190506125e7816125c3565b92915050565b5f815190506125fb81611fe1565b92915050565b5f805f805f60a0868803121561261a57612619611e26565b5b5f612627888289016125a6565b9550506020612638888289016125d9565b9450506040612649888289016125ed565b935050606061265a888289016125ed565b925050608061266b888289016125a6565b9150509295509295909350565b5f60408201905061268b5f830185611f88565b6126986020830184611f88565b9392505050565b5f602082840312156126b4576126b3611e26565b5b5f6126c1848285016125ed565b91505092915050565b5f6060820190506126dd5f830186611f88565b6126ea6020830185611f88565b6126f76040830184611fb9565b949350505050565b5f61270b82878961211a565b915061271782866121f6565b915061272482848661211a565b9150819050969550505050505056fea2646970667358221220a5088f83ab460b3b84be6cf5b8c8c54c1bfcc8da753e91aa8120dff2889f460064736f6c63430008180033",
					"opcodes": "PUSH1 0x80 PUSH1 0x40 MSTORE CALLVALUE DUP1 ISZERO PUSH2 0xF JUMPI PUSH0 DUP1 REVERT JUMPDEST POP PUSH2 0x2769 DUP1 PUSH2 0x1D PUSH0 CODECOPY PUSH0 RETURN INVALID PUSH1 0x80 PUSH1 0x40 MSTORE PUSH1 0x4 CALLDATASIZE LT PUSH2 0xFD JUMPI PUSH0 CALLDATALOAD PUSH1 0xE0 SHR DUP1 PUSH4 0x82702FF4 GT PUSH2 0x94 JUMPI DUP1 PUSH4 0xB4988FD0 GT PUSH2 0x63 JUMPI DUP1 PUSH4 0xB4988FD0 EQ PUSH2 0x28F JUMPI DUP1 PUSH4 0xF2FDE38B EQ PUSH2 0x2B7 JUMPI DUP1 PUSH4 0xFBD43CAA EQ PUSH2 0x2DF JUMPI DUP1 PUSH4 0xFC8B2653 EQ PUSH2 0x2FB JUMPI DUP1 PUSH4 0xFEE84D4E EQ PUSH2 0x325 JUMPI PUSH2 0xFD JUMP JUMPDEST DUP1 PUSH4 0x82702FF4 EQ PUSH2 0x211 JUMPI DUP1 PUSH4 0x8DA5CB5B EQ PUSH2 0x227 JUMPI DUP1 PUSH4 0xA0EF91DF EQ PUSH2 0x251 JUMPI DUP1 PUSH4 0xA2B40D19 EQ PUSH2 0x267 JUMPI PUSH2 0xFD JUMP JUMPDEST DUP1 PUSH4 0x37EE4B47 GT PUSH2 0xD0 JUMPI DUP1 PUSH4 0x37EE4B47 EQ PUSH2 0x19F JUMPI DUP1 PUSH4 0x559AAE74 EQ PUSH2 0x1BB JUMPI DUP1 PUSH4 0x59E41286 EQ PUSH2 0x1D1 JUMPI DUP1 PUSH4 0x715018A6 EQ PUSH2 0x1FB JUMPI PUSH2 0xFD JUMP JUMPDEST DUP1 PUSH4 0x1B0E17A3 EQ PUSH2 0x101 JUMPI DUP1 PUSH4 0x225068C2 EQ PUSH2 0x11D JUMPI DUP1 PUSH4 0x25970115 EQ PUSH2 0x139 JUMPI DUP1 PUSH4 0x2DD398B5 EQ PUSH2 0x175 JUMPI JUMPDEST PUSH0 DUP1 REVERT JUMPDEST PUSH2 0x11B PUSH1 0x4 DUP1 CALLDATASIZE SUB DUP2 ADD SWAP1 PUSH2 0x116 SWAP2 SWAP1 PUSH2 0x1E8F JUMP JUMPDEST PUSH2 0x33B JUMP JUMPDEST STOP JUMPDEST PUSH2 0x137 PUSH1 0x4 DUP1 CALLDATASIZE SUB DUP2 ADD SWAP1 PUSH2 0x132 SWAP2 SWAP1 PUSH2 0x1EDA JUMP JUMPDEST PUSH2 0x4F9 JUMP JUMPDEST STOP JUMPDEST CALLVALUE DUP1 ISZERO PUSH2 0x144 JUMPI PUSH0 DUP1 REVERT JUMPDEST POP PUSH2 0x15F PUSH1 0x4 DUP1 CALLDATASIZE SUB DUP2 ADD SWAP1 PUSH2 0x15A SWAP2 SWAP1 PUSH2 0x1E8F JUMP JUMPDEST PUSH2 0x6FC JUMP JUMPDEST PUSH1 0x40 MLOAD PUSH2 0x16C SWAP2 SWAP1 PUSH2 0x1F97 JUMP JUMPDEST PUSH1 0x40 MLOAD DUP1 SWAP2 SUB SWAP1 RETURN JUMPDEST CALLVALUE DUP1 ISZERO PUSH2 0x180 JUMPI PUSH0 DUP1 REVERT JUMPDEST POP PUSH2 0x189 PUSH2 0x74E JUMP JUMPDEST PUSH1 0x40 MLOAD PUSH2 0x196 SWAP2 SWAP1 PUSH2 0x1FC8 JUMP JUMPDEST PUSH1 0x40 MLOAD DUP1 SWAP2 SUB SWAP1 RETURN JUMPDEST PUSH2 0x1B9 PUSH1 0x4 DUP1 CALLDATASIZE SUB DUP2 ADD SWAP1 PUSH2 0x1B4 SWAP2 SWAP1 PUSH2 0x1EDA JUMP JUMPDEST PUSH2 0x790 JUMP JUMPDEST STOP JUMPDEST CALLVALUE DUP1 ISZERO PUSH2 0x1C6 JUMPI PUSH0 DUP1 REVERT JUMPDEST POP PUSH2 0x1CF PUSH2 0x96F JUMP JUMPDEST STOP JUMPDEST CALLVALUE DUP1 ISZERO PUSH2 0x1DC JUMPI PUSH0 DUP1 REVERT JUMPDEST POP PUSH2 0x1E5 PUSH2 0xC21 JUMP JUMPDEST PUSH1 0x40 MLOAD PUSH2 0x1F2 SWAP2 SWAP1 PUSH2 0x1FC8 JUMP JUMPDEST PUSH1 0x40 MLOAD DUP1 SWAP2 SUB SWAP1 RETURN JUMPDEST CALLVALUE DUP1 ISZERO PUSH2 0x206 JUMPI PUSH0 DUP1 REVERT JUMPDEST POP PUSH2 0x20F PUSH2 0xC32 JUMP JUMPDEST STOP JUMPDEST CALLVALUE DUP1 ISZERO PUSH2 0x21C JUMPI PUSH0 DUP1 REVERT JUMPDEST POP PUSH2 0x225 PUSH2 0xC45 JUMP JUMPDEST STOP JUMPDEST CALLVALUE DUP1 ISZERO PUSH2 0x232 JUMPI PUSH0 DUP1 REVERT JUMPDEST POP PUSH2 0x23B PUSH2 0xE5D JUMP JUMPDEST PUSH1 0x40 MLOAD PUSH2 0x248 SWAP2 SWAP1 PUSH2 0x1F97 JUMP JUMPDEST PUSH1 0x40 MLOAD DUP1 SWAP2 SUB SWAP1 RETURN JUMPDEST CALLVALUE DUP1 ISZERO PUSH2 0x25C JUMPI PUSH0 DUP1 REVERT JUMPDEST POP PUSH2 0x265 PUSH2 0xE92 JUMP JUMPDEST STOP JUMPDEST CALLVALUE DUP1 ISZERO PUSH2 0x272 JUMPI PUSH0 DUP1 REVERT JUMPDEST POP PUSH2 0x28D PUSH1 0x4 DUP1 CALLDATASIZE SUB DUP2 ADD SWAP1 PUSH2 0x288 SWAP2 SWAP1 PUSH2 0x200B JUMP JUMPDEST PUSH2 0xFFF JUMP JUMPDEST STOP JUMPDEST CALLVALUE DUP1 ISZERO PUSH2 0x29A JUMPI PUSH0 DUP1 REVERT JUMPDEST POP PUSH2 0x2B5 PUSH1 0x4 DUP1 CALLDATASIZE SUB DUP2 ADD SWAP1 PUSH2 0x2B0 SWAP2 SWAP1 PUSH2 0x2060 JUMP JUMPDEST PUSH2 0x10A2 JUMP JUMPDEST STOP JUMPDEST CALLVALUE DUP1 ISZERO PUSH2 0x2C2 JUMPI PUSH0 DUP1 REVERT JUMPDEST POP PUSH2 0x2DD PUSH1 0x4 DUP1 CALLDATASIZE SUB DUP2 ADD SWAP1 PUSH2 0x2D8 SWAP2 SWAP1 PUSH2 0x20B0 JUMP JUMPDEST PUSH2 0x12B3 JUMP JUMPDEST STOP JUMPDEST PUSH2 0x2F9 PUSH1 0x4 DUP1 CALLDATASIZE SUB DUP2 ADD SWAP1 PUSH2 0x2F4 SWAP2 SWAP1 PUSH2 0x1E8F JUMP JUMPDEST PUSH2 0x1337 JUMP JUMPDEST STOP JUMPDEST CALLVALUE DUP1 ISZERO PUSH2 0x306 JUMPI PUSH0 DUP1 REVERT JUMPDEST POP PUSH2 0x30F PUSH2 0x1519 JUMP JUMPDEST PUSH1 0x40 MLOAD PUSH2 0x31C SWAP2 SWAP1 PUSH2 0x1FC8 JUMP JUMPDEST PUSH1 0x40 MLOAD DUP1 SWAP2 SUB SWAP1 RETURN JUMPDEST CALLVALUE DUP1 ISZERO PUSH2 0x330 JUMPI PUSH0 DUP1 REVERT JUMPDEST POP PUSH2 0x339 PUSH2 0x15EE JUMP JUMPDEST STOP JUMPDEST PUSH0 PUSH2 0x344 PUSH2 0x74E JUMP JUMPDEST SWAP1 POP DUP1 CALLVALUE EQ PUSH2 0x38C JUMPI CALLVALUE DUP2 PUSH1 0x40 MLOAD PUSH32 0xBE7B9D4D00000000000000000000000000000000000000000000000000000000 DUP2 MSTORE PUSH1 0x4 ADD PUSH2 0x383 SWAP3 SWAP2 SWAP1 PUSH2 0x20DB JUMP JUMPDEST PUSH1 0x40 MLOAD DUP1 SWAP2 SUB SWAP1 REVERT JUMPDEST DUP3 DUP3 PUSH0 PUSH20 0xFFFFFFFFFFFFFFFFFFFFFFFFFFFFFFFFFFFFFFFF AND PUSH2 0x3AD PUSH2 0x1741 JUMP JUMPDEST PUSH1 0x1 ADD DUP4 DUP4 PUSH1 0x40 MLOAD PUSH2 0x3C0 SWAP3 SWAP2 SWAP1 PUSH2 0x213E JUMP JUMPDEST SWAP1 DUP2 MSTORE PUSH1 0x20 ADD PUSH1 0x40 MLOAD DUP1 SWAP2 SUB SWAP1 KECCAK256 PUSH0 SWAP1 SLOAD SWAP1 PUSH2 0x100 EXP SWAP1 DIV PUSH20 0xFFFFFFFFFFFFFFFFFFFFFFFFFFFFFFFFFFFFFFFF AND PUSH20 0xFFFFFFFFFFFFFFFFFFFFFFFFFFFFFFFFFFFFFFFF AND EQ PUSH2 0x43B JUMPI PUSH1 0x40 MLOAD PUSH32 0xC5E8402D00000000000000000000000000000000000000000000000000000000 DUP2 MSTORE PUSH1 0x4 ADD PUSH1 0x40 MLOAD DUP1 SWAP2 SUB SWAP1 REVERT JUMPDEST CALLER PUSH2 0x444 PUSH2 0x1741 JUMP JUMPDEST PUSH1 0x1 ADD DUP7 DUP7 PUSH1 0x40 MLOAD PUSH2 0x457 SWAP3 SWAP2 SWAP1 PUSH2 0x213E JUMP JUMPDEST SWAP1 DUP2 MSTORE PUSH1 0x20 ADD PUSH1 0x40 MLOAD DUP1 SWAP2 SUB SWAP1 KECCAK256 PUSH0 PUSH2 0x100 EXP DUP2 SLOAD DUP2 PUSH20 0xFFFFFFFFFFFFFFFFFFFFFFFFFFFFFFFFFFFFFFFF MUL NOT AND SWAP1 DUP4 PUSH20 0xFFFFFFFFFFFFFFFFFFFFFFFFFFFFFFFFFFFFFFFF AND MUL OR SWAP1 SSTORE POP CALLER PUSH20 0xFFFFFFFFFFFFFFFFFFFFFFFFFFFFFFFFFFFFFFFF AND PUSH32 0x70F2FF07E8136617CDFB0433423063C9DD697C507560D7860CCE09FA86874A12 DUP7 DUP7 PUSH1 0x40 MLOAD PUSH2 0x4EA SWAP3 SWAP2 SWAP1 PUSH2 0x21A2 JUMP JUMPDEST PUSH1 0x40 MLOAD DUP1 SWAP2 SUB SWAP1 LOG2 POP POP POP POP POP JUMP JUMPDEST PUSH0 PUSH2 0x502 PUSH2 0x1768 JUMP JUMPDEST SWAP1 POP PUSH0 PUSH2 0x50D PUSH2 0x1741 JUMP JUMPDEST PUSH0 ADD SLOAD SWAP1 POP DUP1 DUP3 EQ PUSH2 0x558 JUMPI DUP2 DUP2 PUSH1 0x40 MLOAD PUSH32 0x35A0E0000000000000000000000000000000000000000000000000000000000 DUP2 MSTORE PUSH1 0x4 ADD PUSH2 0x54F SWAP3 SWAP2 SWAP1 PUSH2 0x20DB JUMP JUMPDEST PUSH1 0x40 MLOAD DUP1 SWAP2 SUB SWAP1 REVERT JUMPDEST PUSH0 PUSH2 0x565 DUP8 DUP8 DUP8 DUP8 PUSH2 0x1809 JUMP JUMPDEST SWAP1 POP PUSH0 PUSH2 0x570 PUSH2 0x1768 JUMP JUMPDEST SWAP1 POP PUSH2 0x57B DUP2 PUSH2 0x198B JUMP JUMPDEST CALLER PUSH2 0x584 PUSH2 0x1741 JUMP JUMPDEST PUSH1 0x1 ADD DUP4 PUSH1 0x40 MLOAD PUSH2 0x595 SWAP2 SWAP1 PUSH2 0x2226 JUMP JUMPDEST SWAP1 DUP2 MSTORE PUSH1 0x20 ADD PUSH1 0x40 MLOAD DUP1 SWAP2 SUB SWAP1 KECCAK256 PUSH0 PUSH2 0x100 EXP DUP2 SLOAD DUP2 PUSH20 0xFFFFFFFFFFFFFFFFFFFFFFFFFFFFFFFFFFFFFFFF MUL NOT AND SWAP1 DUP4 PUSH20 0xFFFFFFFFFFFFFFFFFFFFFFFFFFFFFFFFFFFFFFFF AND MUL OR SWAP1 SSTORE POP DUP1 PUSH2 0x5E9 PUSH2 0x1A2D JUMP JUMPDEST PUSH0 ADD PUSH0 DUP3 DUP3 SLOAD PUSH2 0x5F9 SWAP2 SWAP1 PUSH2 0x2269 JUMP JUMPDEST SWAP3 POP POP DUP2 SWAP1 SSTORE POP DUP1 PUSH2 0x609 PUSH2 0x1A2D JUMP JUMPDEST PUSH1 0x1 ADD PUSH0 PUSH2 0x615 PUSH2 0x1741 JUMP JUMPDEST PUSH1 0x1 ADD DUP12 DUP12 PUSH1 0x40 MLOAD PUSH2 0x628 SWAP3 SWAP2 SWAP1 PUSH2 0x213E JUMP JUMPDEST SWAP1 DUP2 MSTORE PUSH1 0x20 ADD PUSH1 0x40 MLOAD DUP1 SWAP2 SUB SWAP1 KECCAK256 PUSH0 SWAP1 SLOAD SWAP1 PUSH2 0x100 EXP SWAP1 DIV PUSH20 0xFFFFFFFFFFFFFFFFFFFFFFFFFFFFFFFFFFFFFFFF AND PUSH20 0xFFFFFFFFFFFFFFFFFFFFFFFFFFFFFFFFFFFFFFFF AND PUSH20 0xFFFFFFFFFFFFFFFFFFFFFFFFFFFFFFFFFFFFFFFF AND DUP2 MSTORE PUSH1 0x20 ADD SWAP1 DUP2 MSTORE PUSH1 0x20 ADD PUSH0 KECCAK256 PUSH0 DUP3 DUP3 SLOAD PUSH2 0x69D SWAP2 SWAP1 PUSH2 0x2269 JUMP JUMPDEST SWAP3 POP POP DUP2 SWAP1 SSTORE POP CALLER PUSH20 0xFFFFFFFFFFFFFFFFFFFFFFFFFFFFFFFFFFFFFFFF AND PUSH32 0x70F2FF07E8136617CDFB0433423063C9DD697C507560D7860CCE09FA86874A12 DUP4 PUSH1 0x40 MLOAD PUSH2 0x6EA SWAP2 SWAP1 PUSH2 0x22D4 JUMP JUMPDEST PUSH1 0x40 MLOAD DUP1 SWAP2 SUB SWAP1 LOG2 POP POP POP POP POP POP POP POP JUMP JUMPDEST PUSH0 PUSH2 0x705 PUSH2 0x1741 JUMP JUMPDEST PUSH1 0x1 ADD DUP4 DUP4 PUSH1 0x40 MLOAD PUSH2 0x718 SWAP3 SWAP2 SWAP1 PUSH2 0x213E JUMP JUMPDEST SWAP1 DUP2 MSTORE PUSH1 0x20 ADD PUSH1 0x40 MLOAD DUP1 SWAP2 SUB SWAP1 KECCAK256 PUSH0 SWAP1 SLOAD SWAP1 PUSH2 0x100 EXP SWAP1 DIV PUSH20 0xFFFFFFFFFFFFFFFFFFFFFFFFFFFFFFFFFFFFFFFF AND SWAP1 POP SWAP3 SWAP2 POP POP JUMP JUMPDEST PUSH0 PUSH2 0x757 PUSH2 0x1519 JUMP JUMPDEST PUSH8 0xDE0B6B3A7640000 PUSH1 0x64 PUSH2 0x76A PUSH2 0x1741 JUMP JUMPDEST PUSH0 ADD SLOAD PUSH2 0x777 SWAP2 SWAP1 PUSH2 0x22F4 JUMP JUMPDEST PUSH2 0x781 SWAP2 SWAP1 PUSH2 0x22F4 JUMP JUMPDEST PUSH2 0x78B SWAP2 SWAP1 PUSH2 0x2362 JUMP JUMPDEST SWAP1 POP SWAP1 JUMP JUMPDEST PUSH0 PUSH2 0x799 PUSH2 0x74E JUMP JUMPDEST SWAP1 POP DUP1 CALLVALUE EQ PUSH2 0x7E1 JUMPI CALLVALUE DUP2 PUSH1 0x40 MLOAD PUSH32 0xBE7B9D4D00000000000000000000000000000000000000000000000000000000 DUP2 MSTORE PUSH1 0x4 ADD PUSH2 0x7D8 SWAP3 SWAP2 SWAP1 PUSH2 0x20DB JUMP JUMPDEST PUSH1 0x40 MLOAD DUP1 SWAP2 SUB SWAP1 REVERT JUMPDEST PUSH0 PUSH2 0x7EE DUP7 DUP7 DUP7 DUP7 PUSH2 0x1809 JUMP JUMPDEST SWAP1 POP CALLER PUSH2 0x7F9 PUSH2 0x1741 JUMP JUMPDEST PUSH1 0x1 ADD DUP3 PUSH1 0x40 MLOAD PUSH2 0x80A SWAP2 SWAP1 PUSH2 0x2226 JUMP JUMPDEST SWAP1 DUP2 MSTORE PUSH1 0x20 ADD PUSH1 0x40 MLOAD DUP1 SWAP2 SUB SWAP1 KECCAK256 PUSH0 PUSH2 0x100 EXP DUP2 SLOAD DUP2 PUSH20 0xFFFFFFFFFFFFFFFFFFFFFFFFFFFFFFFFFFFFFFFF MUL NOT AND SWAP1 DUP4 PUSH20 0xFFFFFFFFFFFFFFFFFFFFFFFFFFFFFFFFFFFFFFFF AND MUL OR SWAP1 SSTORE POP CALLVALUE PUSH2 0x85E PUSH2 0x1A54 JUMP JUMPDEST PUSH0 ADD PUSH0 DUP3 DUP3 SLOAD PUSH2 0x86E SWAP2 SWAP1 PUSH2 0x2269 JUMP JUMPDEST SWAP3 POP POP DUP2 SWAP1 SSTORE POP CALLVALUE PUSH2 0x87E PUSH2 0x1A54 JUMP JUMPDEST PUSH1 0x1 ADD PUSH0 PUSH2 0x88A PUSH2 0x1741 JUMP JUMPDEST PUSH1 0x1 ADD DUP10 DUP10 PUSH1 0x40 MLOAD PUSH2 0x89D SWAP3 SWAP2 SWAP1 PUSH2 0x213E JUMP JUMPDEST SWAP1 DUP2 MSTORE PUSH1 0x20 ADD PUSH1 0x40 MLOAD DUP1 SWAP2 SUB SWAP1 KECCAK256 PUSH0 SWAP1 SLOAD SWAP1 PUSH2 0x100 EXP SWAP1 DIV PUSH20 0xFFFFFFFFFFFFFFFFFFFFFFFFFFFFFFFFFFFFFFFF AND PUSH20 0xFFFFFFFFFFFFFFFFFFFFFFFFFFFFFFFFFFFFFFFF AND PUSH20 0xFFFFFFFFFFFFFFFFFFFFFFFFFFFFFFFFFFFFFFFF AND DUP2 MSTORE PUSH1 0x20 ADD SWAP1 DUP2 MSTORE PUSH1 0x20 ADD PUSH0 KECCAK256 PUSH0 DUP3 DUP3 SLOAD PUSH2 0x912 SWAP2 SWAP1 PUSH2 0x2269 JUMP JUMPDEST SWAP3 POP POP DUP2 SWAP1 SSTORE POP CALLER PUSH20 0xFFFFFFFFFFFFFFFFFFFFFFFFFFFFFFFFFFFFFFFF AND PUSH32 0x70F2FF07E8136617CDFB0433423063C9DD697C507560D7860CCE09FA86874A12 DUP3 PUSH1 0x40 MLOAD PUSH2 0x95F SWAP2 SWAP1 PUSH2 0x22D4 JUMP JUMPDEST PUSH1 0x40 MLOAD DUP1 SWAP2 SUB SWAP1 LOG2 POP POP POP POP POP POP JUMP JUMPDEST PUSH0 PUSH2 0x978 PUSH2 0x1A54 JUMP JUMPDEST PUSH1 0x1 ADD PUSH0 CALLER PUSH20 0xFFFFFFFFFFFFFFFFFFFFFFFFFFFFFFFFFFFFFFFF AND PUSH20 0xFFFFFFFFFFFFFFFFFFFFFFFFFFFFFFFFFFFFFFFF AND DUP2 MSTORE PUSH1 0x20 ADD SWAP1 DUP2 MSTORE PUSH1 0x20 ADD PUSH0 KECCAK256 SLOAD SUB PUSH2 0x9F9 JUMPI CALLER PUSH1 0x40 MLOAD PUSH32 0xDC69DC1600000000000000000000000000000000000000000000000000000000 DUP2 MSTORE PUSH1 0x4 ADD PUSH2 0x9F0 SWAP2 SWAP1 PUSH2 0x1F97 JUMP JUMPDEST PUSH1 0x40 MLOAD DUP1 SWAP2 SUB SWAP1 REVERT JUMPDEST PUSH0 DUP1 CALLER PUSH20 0xFFFFFFFFFFFFFFFFFFFFFFFFFFFFFFFFFFFFFFFF AND PUSH2 0xA1A PUSH2 0x1A54 JUMP JUMPDEST PUSH1 0x1 ADD PUSH0 CALLER PUSH20 0xFFFFFFFFFFFFFFFFFFFFFFFFFFFFFFFFFFFFFFFF AND PUSH20 0xFFFFFFFFFFFFFFFFFFFFFFFFFFFFFFFFFFFFFFFF AND DUP2 MSTORE PUSH1 0x20 ADD SWAP1 DUP2 MSTORE PUSH1 0x20 ADD PUSH0 KECCAK256 SLOAD PUSH1 0x40 MLOAD PUSH2 0xA65 SWAP1 PUSH2 0x23BF JUMP JUMPDEST PUSH0 PUSH1 0x40 MLOAD DUP1 DUP4 SUB DUP2 DUP6 DUP8 GAS CALL SWAP3 POP POP POP RETURNDATASIZE DUP1 PUSH0 DUP2 EQ PUSH2 0xA9F JUMPI PUSH1 0x40 MLOAD SWAP2 POP PUSH1 0x1F NOT PUSH1 0x3F RETURNDATASIZE ADD AND DUP3 ADD PUSH1 0x40 MSTORE RETURNDATASIZE DUP3 MSTORE RETURNDATASIZE PUSH0 PUSH1 0x20 DUP5 ADD RETURNDATACOPY PUSH2 0xAA4 JUMP JUMPDEST PUSH1 0x60 SWAP2 POP JUMPDEST POP SWAP2 POP SWAP2 POP DUP2 PUSH2 0xAED JUMPI CALLER DUP2 PUSH1 0x40 MLOAD PUSH32 0x7824688C00000000000000000000000000000000000000000000000000000000 DUP2 MSTORE PUSH1 0x4 ADD PUSH2 0xAE4 SWAP3 SWAP2 SWAP1 PUSH2 0x2425 JUMP JUMPDEST PUSH1 0x40 MLOAD DUP1 SWAP2 SUB SWAP1 REVERT JUMPDEST PUSH2 0xAF5 PUSH2 0x1A54 JUMP JUMPDEST PUSH1 0x1 ADD PUSH0 CALLER PUSH20 0xFFFFFFFFFFFFFFFFFFFFFFFFFFFFFFFFFFFFFFFF AND PUSH20 0xFFFFFFFFFFFFFFFFFFFFFFFFFFFFFFFFFFFFFFFF AND DUP2 MSTORE PUSH1 0x20 ADD SWAP1 DUP2 MSTORE PUSH1 0x20 ADD PUSH0 KECCAK256 SLOAD PUSH2 0xB3C PUSH2 0x1A54 JUMP JUMPDEST PUSH0 ADD PUSH0 DUP3 DUP3 SLOAD PUSH2 0xB4C SWAP2 SWAP1 PUSH2 0x2453 JUMP JUMPDEST SWAP3 POP POP DUP2 SWAP1 SSTORE POP PUSH0 PUSH2 0xB5C PUSH2 0x1A54 JUMP JUMPDEST PUSH1 0x1 ADD PUSH0 CALLER PUSH20 0xFFFFFFFFFFFFFFFFFFFFFFFFFFFFFFFFFFFFFFFF AND PUSH20 0xFFFFFFFFFFFFFFFFFFFFFFFFFFFFFFFFFFFFFFFF AND DUP2 MSTORE PUSH1 0x20 ADD SWAP1 DUP2 MSTORE PUSH1 0x20 ADD PUSH0 KECCAK256 DUP2 SWAP1 SSTORE POP PUSH32 0x7FCF532C15F0A6DB0BD6D0E038BEA71D30D808C7D98CB3BF7268A95BF5081B65 CALLER PUSH2 0xBC8 PUSH2 0x1A54 JUMP JUMPDEST PUSH1 0x1 ADD PUSH0 CALLER PUSH20 0xFFFFFFFFFFFFFFFFFFFFFFFFFFFFFFFFFFFFFFFF AND PUSH20 0xFFFFFFFFFFFFFFFFFFFFFFFFFFFFFFFFFFFFFFFF AND DUP2 MSTORE PUSH1 0x20 ADD SWAP1 DUP2 MSTORE PUSH1 0x20 ADD PUSH0 KECCAK256 SLOAD PUSH1 0x40 MLOAD PUSH2 0xC15 SWAP3 SWAP2 SWAP1 PUSH2 0x2486 JUMP JUMPDEST PUSH1 0x40 MLOAD DUP1 SWAP2 SUB SWAP1 LOG1 POP POP JUMP JUMPDEST PUSH0 PUSH2 0xC2A PUSH2 0x1741 JUMP JUMPDEST PUSH0 ADD SLOAD SWAP1 POP SWAP1 JUMP JUMPDEST PUSH2 0xC3A PUSH2 0x1A7B JUMP JUMPDEST PUSH2 0xC43 PUSH0 PUSH2 0x1B02 JUMP JUMPDEST JUMP JUMPDEST PUSH0 PUSH2 0xC4E PUSH2 0x1A2D JUMP JUMPDEST PUSH1 0x1 ADD PUSH0 CALLER PUSH20 0xFFFFFFFFFFFFFFFFFFFFFFFFFFFFFFFFFFFFFFFF AND PUSH20 0xFFFFFFFFFFFFFFFFFFFFFFFFFFFFFFFFFFFFFFFF AND DUP2 MSTORE PUSH1 0x20 ADD SWAP1 DUP2 MSTORE PUSH1 0x20 ADD PUSH0 KECCAK256 SLOAD SUB PUSH2 0xCCF JUMPI CALLER PUSH1 0x40 MLOAD PUSH32 0xDC69DC1600000000000000000000000000000000000000000000000000000000 DUP2 MSTORE PUSH1 0x4 ADD PUSH2 0xCC6 SWAP2 SWAP1 PUSH2 0x1F97 JUMP JUMPDEST PUSH1 0x40 MLOAD DUP1 SWAP2 SUB SWAP1 REVERT JUMPDEST PUSH0 PUSH2 0xCD8 PUSH2 0x1A54 JUMP JUMPDEST PUSH1 0x1 ADD PUSH0 CALLER PUSH20 0xFFFFFFFFFFFFFFFFFFFFFFFFFFFFFFFFFFFFFFFF AND PUSH20 0xFFFFFFFFFFFFFFFFFFFFFFFFFFFFFFFFFFFFFFFF AND DUP2 MSTORE PUSH1 0x20 ADD SWAP1 DUP2 MSTORE PUSH1 0x20 ADD PUSH0 KECCAK256 SLOAD SWAP1 POP PUSH1 0x1 PUSH0 SWAP1 SLOAD SWAP1 PUSH2 0x100 EXP SWAP1 DIV PUSH20 0xFFFFFFFFFFFFFFFFFFFFFFFFFFFFFFFFFFFFFFFF AND PUSH20 0xFFFFFFFFFFFFFFFFFFFFFFFFFFFFFFFFFFFFFFFF AND PUSH4 0xA9059CBB CALLER DUP4 PUSH1 0x40 MLOAD DUP4 PUSH4 0xFFFFFFFF AND PUSH1 0xE0 SHL DUP2 MSTORE PUSH1 0x4 ADD PUSH2 0xD75 SWAP3 SWAP2 SWAP1 PUSH2 0x2486 JUMP JUMPDEST PUSH1 0x20 PUSH1 0x40 MLOAD DUP1 DUP4 SUB DUP2 PUSH0 DUP8 GAS CALL ISZERO DUP1 ISZERO PUSH2 0xD91 JUMPI RETURNDATASIZE PUSH0 DUP1 RETURNDATACOPY RETURNDATASIZE PUSH0 REVERT JUMPDEST POP POP POP POP PUSH1 0x40 MLOAD RETURNDATASIZE PUSH1 0x1F NOT PUSH1 0x1F DUP3 ADD AND DUP3 ADD DUP1 PUSH1 0x40 MSTORE POP DUP2 ADD SWAP1 PUSH2 0xDB5 SWAP2 SWAP1 PUSH2 0x24E2 JUMP JUMPDEST POP DUP1 PUSH2 0xDBF PUSH2 0x1A54 JUMP JUMPDEST PUSH0 ADD PUSH0 DUP3 DUP3 SLOAD PUSH2 0xDCF SWAP2 SWAP1 PUSH2 0x2453 JUMP JUMPDEST SWAP3 POP POP DUP2 SWAP1 SSTORE POP PUSH0 PUSH2 0xDDF PUSH2 0x1A54 JUMP JUMPDEST PUSH1 0x1 ADD PUSH0 CALLER PUSH20 0xFFFFFFFFFFFFFFFFFFFFFFFFFFFFFFFFFFFFFFFF AND PUSH20 0xFFFFFFFFFFFFFFFFFFFFFFFFFFFFFFFFFFFFFFFF AND DUP2 MSTORE PUSH1 0x20 ADD SWAP1 DUP2 MSTORE PUSH1 0x20 ADD PUSH0 KECCAK256 DUP2 SWAP1 SSTORE POP PUSH32 0x7FCF532C15F0A6DB0BD6D0E038BEA71D30D808C7D98CB3BF7268A95BF5081B65 CALLER DUP3 PUSH1 0x40 MLOAD PUSH2 0xE52 SWAP3 SWAP2 SWAP1 PUSH2 0x2486 JUMP JUMPDEST PUSH1 0x40 MLOAD DUP1 SWAP2 SUB SWAP1 LOG1 POP JUMP JUMPDEST PUSH0 DUP1 PUSH2 0xE67 PUSH2 0x1BD3 JUMP JUMPDEST SWAP1 POP DUP1 PUSH0 ADD PUSH0 SWAP1 SLOAD SWAP1 PUSH2 0x100 EXP SWAP1 DIV PUSH20 0xFFFFFFFFFFFFFFFFFFFFFFFFFFFFFFFFFFFFFFFF AND SWAP2 POP POP SWAP1 JUMP JUMPDEST PUSH2 0xE9A PUSH2 0x1A7B JUMP JUMPDEST PUSH0 PUSH2 0xEA3 PUSH2 0x1A54 JUMP JUMPDEST PUSH0 ADD SLOAD SELFBALANCE PUSH2 0xEB1 SWAP2 SWAP1 PUSH2 0x2453 JUMP JUMPDEST SWAP1 POP PUSH0 DUP2 SUB PUSH2 0xEFE JUMPI PUSH2 0xEC2 PUSH2 0xE5D JUMP JUMPDEST PUSH1 0x40 MLOAD PUSH32 0xDC69DC1600000000000000000000000000000000000000000000000000000000 DUP2 MSTORE PUSH1 0x4 ADD PUSH2 0xEF5 SWAP2 SWAP1 PUSH2 0x1F97 JUMP JUMPDEST PUSH1 0x40 MLOAD DUP1 SWAP2 SUB SWAP1 REVERT JUMPDEST PUSH0 DUP1 PUSH2 0xF08 PUSH2 0xE5D JUMP JUMPDEST PUSH20 0xFFFFFFFFFFFFFFFFFFFFFFFFFFFFFFFFFFFFFFFF AND DUP4 PUSH1 0x40 MLOAD PUSH2 0xF2B SWAP1 PUSH2 0x23BF JUMP JUMPDEST PUSH0 PUSH1 0x40 MLOAD DUP1 DUP4 SUB DUP2 DUP6 DUP8 GAS CALL SWAP3 POP POP POP RETURNDATASIZE DUP1 PUSH0 DUP2 EQ PUSH2 0xF65 JUMPI PUSH1 0x40 MLOAD SWAP2 POP PUSH1 0x1F NOT PUSH1 0x3F RETURNDATASIZE ADD AND DUP3 ADD PUSH1 0x40 MSTORE RETURNDATASIZE DUP3 MSTORE RETURNDATASIZE PUSH0 PUSH1 0x20 DUP5 ADD RETURNDATACOPY PUSH2 0xF6A JUMP JUMPDEST PUSH1 0x60 SWAP2 POP JUMPDEST POP SWAP2 POP SWAP2 POP DUP2 PUSH2 0xFBA JUMPI PUSH2 0xF7C PUSH2 0xE5D JUMP JUMPDEST DUP2 PUSH1 0x40 MLOAD PUSH32 0x7824688C00000000000000000000000000000000000000000000000000000000 DUP2 MSTORE PUSH1 0x4 ADD PUSH2 0xFB1 SWAP3 SWAP2 SWAP1 PUSH2 0x2425 JUMP JUMPDEST PUSH1 0x40 MLOAD DUP1 SWAP2 SUB SWAP1 REVERT JUMPDEST PUSH32 0x7FCF532C15F0A6DB0BD6D0E038BEA71D30D808C7D98CB3BF7268A95BF5081B65 PUSH2 0xFE3 PUSH2 0xE5D JUMP JUMPDEST DUP5 PUSH1 0x40 MLOAD PUSH2 0xFF2 SWAP3 SWAP2 SWAP1 PUSH2 0x2486 JUMP JUMPDEST PUSH1 0x40 MLOAD DUP1 SWAP2 SUB SWAP1 LOG1 POP POP POP JUMP JUMPDEST PUSH2 0x1007 PUSH2 0x1A7B JUMP JUMPDEST DUP1 PUSH0 DUP2 SUB PUSH2 0x1058 JUMPI DUP1 PUSH2 0x1018 PUSH2 0x1741 JUMP JUMPDEST PUSH0 ADD SLOAD PUSH1 0x40 MLOAD PUSH32 0xD090DD0600000000000000000000000000000000000000000000000000000000 DUP2 MSTORE PUSH1 0x4 ADD PUSH2 0x104F SWAP3 SWAP2 SWAP1 PUSH2 0x20DB JUMP JUMPDEST PUSH1 0x40 MLOAD DUP1 SWAP2 SUB SWAP1 REVERT JUMPDEST DUP2 PUSH2 0x1061 PUSH2 0x1741 JUMP JUMPDEST PUSH0 ADD DUP2 SWAP1 SSTORE POP PUSH32 0xA6DC15BDB68DA224C66DB4B3838D9A2B205138E8CFF6774E57D0AF91E196D622 DUP3 PUSH1 0x40 MLOAD PUSH2 0x1096 SWAP2 SWAP1 PUSH2 0x1FC8 JUMP JUMPDEST PUSH1 0x40 MLOAD DUP1 SWAP2 SUB SWAP1 LOG1 POP POP JUMP JUMPDEST PUSH0 PUSH2 0x10AB PUSH2 0x1BFA JUMP JUMPDEST SWAP1 POP PUSH0 DUP2 PUSH0 ADD PUSH1 0x8 SWAP1 SLOAD SWAP1 PUSH2 0x100 EXP SWAP1 DIV PUSH1 0xFF AND ISZERO SWAP1 POP PUSH0 DUP3 PUSH0 ADD PUSH0 SWAP1 SLOAD SWAP1 PUSH2 0x100 EXP SWAP1 DIV PUSH8 0xFFFFFFFFFFFFFFFF AND SWAP1 POP PUSH0 DUP1 DUP3 PUSH8 0xFFFFFFFFFFFFFFFF AND EQ DUP1 ISZERO PUSH2 0x10F3 JUMPI POP DUP3 JUMPDEST SWAP1 POP PUSH0 PUSH1 0x1 DUP4 PUSH8 0xFFFFFFFFFFFFFFFF AND EQ DUP1 ISZERO PUSH2 0x1126 JUMPI POP PUSH0 ADDRESS PUSH20 0xFFFFFFFFFFFFFFFFFFFFFFFFFFFFFFFFFFFFFFFF AND EXTCODESIZE EQ JUMPDEST SWAP1 POP DUP2 ISZERO DUP1 ISZERO PUSH2 0x1134 JUMPI POP DUP1 ISZERO JUMPDEST ISZERO PUSH2 0x116B JUMPI PUSH1 0x40 MLOAD PUSH32 0xF92EE8A900000000000000000000000000000000000000000000000000000000 DUP2 MSTORE PUSH1 0x4 ADD PUSH1 0x40 MLOAD DUP1 SWAP2 SUB SWAP1 REVERT JUMPDEST PUSH1 0x1 DUP6 PUSH0 ADD PUSH0 PUSH2 0x100 EXP DUP2 SLOAD DUP2 PUSH8 0xFFFFFFFFFFFFFFFF MUL NOT AND SWAP1 DUP4 PUSH8 0xFFFFFFFFFFFFFFFF AND MUL OR SWAP1 SSTORE POP DUP4 ISZERO PUSH2 0x11B8 JUMPI PUSH1 0x1 DUP6 PUSH0 ADD PUSH1 0x8 PUSH2 0x100 EXP DUP2 SLOAD DUP2 PUSH1 0xFF MUL NOT AND SWAP1 DUP4 ISZERO ISZERO MUL OR SWAP1 SSTORE POP JUMPDEST DUP8 PUSH2 0x11C1 PUSH2 0x1741 JUMP JUMPDEST PUSH0 ADD DUP2 SWAP1 SSTORE POP PUSH2 0x11D0 CALLER PUSH2 0x1C21 JUMP JUMPDEST DUP7 PUSH0 DUP1 PUSH2 0x100 EXP DUP2 SLOAD DUP2 PUSH20 0xFFFFFFFFFFFFFFFFFFFFFFFFFFFFFFFFFFFFFFFF MUL NOT AND SWAP1 DUP4 PUSH20 0xFFFFFFFFFFFFFFFFFFFFFFFFFFFFFFFFFFFFFFFF AND MUL OR SWAP1 SSTORE POP DUP6 PUSH1 0x1 PUSH0 PUSH2 0x100 EXP DUP2 SLOAD DUP2 PUSH20 0xFFFFFFFFFFFFFFFFFFFFFFFFFFFFFFFFFFFFFFFF MUL NOT AND SWAP1 DUP4 PUSH20 0xFFFFFFFFFFFFFFFFFFFFFFFFFFFFFFFFFFFFFFFF AND MUL OR SWAP1 SSTORE POP DUP4 ISZERO PUSH2 0x12A9 JUMPI PUSH0 DUP6 PUSH0 ADD PUSH1 0x8 PUSH2 0x100 EXP DUP2 SLOAD DUP2 PUSH1 0xFF MUL NOT AND SWAP1 DUP4 ISZERO ISZERO MUL OR SWAP1 SSTORE POP PUSH32 0xC7F505B2F371AE2175EE4913F4499E1F2633A7B5936321EED1CDAEB6115181D2 PUSH1 0x1 PUSH1 0x40 MLOAD PUSH2 0x12A0 SWAP2 SWAP1 PUSH2 0x2562 JUMP JUMPDEST PUSH1 0x40 MLOAD DUP1 SWAP2 SUB SWAP1 LOG1 JUMPDEST POP POP POP POP POP POP POP POP JUMP JUMPDEST PUSH2 0x12BB PUSH2 0x1A7B JUMP JUMPDEST PUSH0 PUSH20 0xFFFFFFFFFFFFFFFFFFFFFFFFFFFFFFFFFFFFFFFF AND DUP2 PUSH20 0xFFFFFFFFFFFFFFFFFFFFFFFFFFFFFFFFFFFFFFFF AND SUB PUSH2 0x132B JUMPI PUSH0 PUSH1 0x40 MLOAD PUSH32 0x1E4FBDF700000000000000000000000000000000000000000000000000000000 DUP2 MSTORE PUSH1 0x4 ADD PUSH2 0x1322 SWAP2 SWAP1 PUSH2 0x1F97 JUMP JUMPDEST PUSH1 0x40 MLOAD DUP1 SWAP2 SUB SWAP1 REVERT JUMPDEST PUSH2 0x1334 DUP2 PUSH2 0x1B02 JUMP JUMPDEST POP JUMP JUMPDEST PUSH0 PUSH2 0x1340 PUSH2 0x1768 JUMP JUMPDEST SWAP1 POP PUSH0 PUSH2 0x134B PUSH2 0x1741 JUMP JUMPDEST PUSH0 ADD SLOAD SWAP1 POP DUP1 DUP3 EQ PUSH2 0x1396 JUMPI DUP2 DUP2 PUSH1 0x40 MLOAD PUSH32 0x35A0E0000000000000000000000000000000000000000000000000000000000 DUP2 MSTORE PUSH1 0x4 ADD PUSH2 0x138D SWAP3 SWAP2 SWAP1 PUSH2 0x20DB JUMP JUMPDEST PUSH1 0x40 MLOAD DUP1 SWAP2 SUB SWAP1 REVERT JUMPDEST DUP4 DUP4 PUSH0 PUSH20 0xFFFFFFFFFFFFFFFFFFFFFFFFFFFFFFFFFFFFFFFF AND PUSH2 0x13B7 PUSH2 0x1741 JUMP JUMPDEST PUSH1 0x1 ADD DUP4 DUP4 PUSH1 0x40 MLOAD PUSH2 0x13CA SWAP3 SWAP2 SWAP1 PUSH2 0x213E JUMP JUMPDEST SWAP1 DUP2 MSTORE PUSH1 0x20 ADD PUSH1 0x40 MLOAD DUP1 SWAP2 SUB SWAP1 KECCAK256 PUSH0 SWAP1 SLOAD SWAP1 PUSH2 0x100 EXP SWAP1 DIV PUSH20 0xFFFFFFFFFFFFFFFFFFFFFFFFFFFFFFFFFFFFFFFF AND PUSH20 0xFFFFFFFFFFFFFFFFFFFFFFFFFFFFFFFFFFFFFFFF AND EQ PUSH2 0x1445 JUMPI PUSH1 0x40 MLOAD PUSH32 0xC5E8402D00000000000000000000000000000000000000000000000000000000 DUP2 MSTORE PUSH1 0x4 ADD PUSH1 0x40 MLOAD DUP1 SWAP2 SUB SWAP1 REVERT JUMPDEST PUSH0 PUSH2 0x144E PUSH2 0x1768 JUMP JUMPDEST SWAP1 POP PUSH2 0x1459 DUP2 PUSH2 0x198B JUMP JUMPDEST CALLER PUSH2 0x1462 PUSH2 0x1741 JUMP JUMPDEST PUSH1 0x1 ADD DUP9 DUP9 PUSH1 0x40 MLOAD PUSH2 0x1475 SWAP3 SWAP2 SWAP1 PUSH2 0x213E JUMP JUMPDEST SWAP1 DUP2 MSTORE PUSH1 0x20 ADD PUSH1 0x40 MLOAD DUP1 SWAP2 SUB SWAP1 KECCAK256 PUSH0 PUSH2 0x100 EXP DUP2 SLOAD DUP2 PUSH20 0xFFFFFFFFFFFFFFFFFFFFFFFFFFFFFFFFFFFFFFFF MUL NOT AND SWAP1 DUP4 PUSH20 0xFFFFFFFFFFFFFFFFFFFFFFFFFFFFFFFFFFFFFFFF AND MUL OR SWAP1 SSTORE POP CALLER PUSH20 0xFFFFFFFFFFFFFFFFFFFFFFFFFFFFFFFFFFFFFFFF AND PUSH32 0x70F2FF07E8136617CDFB0433423063C9DD697C507560D7860CCE09FA86874A12 DUP9 DUP9 PUSH1 0x40 MLOAD PUSH2 0x1508 SWAP3 SWAP2 SWAP1 PUSH2 0x21A2 JUMP JUMPDEST PUSH1 0x40 MLOAD DUP1 SWAP2 SUB SWAP1 LOG2 POP POP POP POP POP POP POP JUMP JUMPDEST PUSH0 DUP1 PUSH0 DUP1 SLOAD SWAP1 PUSH2 0x100 EXP SWAP1 DIV PUSH20 0xFFFFFFFFFFFFFFFFFFFFFFFFFFFFFFFFFFFFFFFF AND PUSH20 0xFFFFFFFFFFFFFFFFFFFFFFFFFFFFFFFFFFFFFFFF AND PUSH4 0xFEAF968C PUSH1 0x40 MLOAD DUP2 PUSH4 0xFFFFFFFF AND PUSH1 0xE0 SHL DUP2 MSTORE PUSH1 0x4 ADD PUSH1 0xA0 PUSH1 0x40 MLOAD DUP1 DUP4 SUB DUP2 DUP7 GAS STATICCALL ISZERO DUP1 ISZERO PUSH2 0x1583 JUMPI RETURNDATASIZE PUSH0 DUP1 RETURNDATACOPY RETURNDATASIZE PUSH0 REVERT JUMPDEST POP POP POP POP PUSH1 0x40 MLOAD RETURNDATASIZE PUSH1 0x1F NOT PUSH1 0x1F DUP3 ADD AND DUP3 ADD DUP1 PUSH1 0x40 MSTORE POP DUP2 ADD SWAP1 PUSH2 0x15A7 SWAP2 SWAP1 PUSH2 0x2601 JUMP JUMPDEST POP POP POP SWAP2 POP POP PUSH0 DUP2 SLT ISZERO PUSH2 0x15E7 JUMPI PUSH1 0x40 MLOAD PUSH32 0x6F4F5AB900000000000000000000000000000000000000000000000000000000 DUP2 MSTORE PUSH1 0x4 ADD PUSH1 0x40 MLOAD DUP1 SWAP2 SUB SWAP1 REVERT JUMPDEST DUP1 SWAP2 POP POP SWAP1 JUMP JUMPDEST PUSH2 0x15F6 PUSH2 0x1A7B JUMP JUMPDEST PUSH0 PUSH2 0x15FF PUSH2 0x1A2D JUMP JUMPDEST PUSH0 ADD SLOAD PUSH2 0x160A PUSH2 0x1C35 JUMP JUMPDEST PUSH2 0x1614 SWAP2 SWAP1 PUSH2 0x2453 JUMP JUMPDEST SWAP1 POP PUSH0 DUP2 SUB PUSH2 0x1661 JUMPI PUSH2 0x1625 PUSH2 0xE5D JUMP JUMPDEST PUSH1 0x40 MLOAD PUSH32 0xDC69DC1600000000000000000000000000000000000000000000000000000000 DUP2 MSTORE PUSH1 0x4 ADD PUSH2 0x1658 SWAP2 SWAP1 PUSH2 0x1F97 JUMP JUMPDEST PUSH1 0x40 MLOAD DUP1 SWAP2 SUB SWAP1 REVERT JUMPDEST PUSH1 0x1 PUSH0 SWAP1 SLOAD SWAP1 PUSH2 0x100 EXP SWAP1 DIV PUSH20 0xFFFFFFFFFFFFFFFFFFFFFFFFFFFFFFFFFFFFFFFF AND PUSH20 0xFFFFFFFFFFFFFFFFFFFFFFFFFFFFFFFFFFFFFFFF AND PUSH4 0xA9059CBB CALLER DUP4 PUSH1 0x40 MLOAD DUP4 PUSH4 0xFFFFFFFF AND PUSH1 0xE0 SHL DUP2 MSTORE PUSH1 0x4 ADD PUSH2 0x16BD SWAP3 SWAP2 SWAP1 PUSH2 0x2486 JUMP JUMPDEST PUSH1 0x20 PUSH1 0x40 MLOAD DUP1 DUP4 SUB DUP2 PUSH0 DUP8 GAS CALL ISZERO DUP1 ISZERO PUSH2 0x16D9 JUMPI RETURNDATASIZE PUSH0 DUP1 RETURNDATACOPY RETURNDATASIZE PUSH0 REVERT JUMPDEST POP POP POP POP PUSH1 0x40 MLOAD RETURNDATASIZE PUSH1 0x1F NOT PUSH1 0x1F DUP3 ADD AND DUP3 ADD DUP1 PUSH1 0x40 MSTORE POP DUP2 ADD SWAP1 PUSH2 0x16FD SWAP2 SWAP1 PUSH2 0x24E2 JUMP JUMPDEST POP PUSH32 0x7FCF532C15F0A6DB0BD6D0E038BEA71D30D808C7D98CB3BF7268A95BF5081B65 PUSH2 0x1727 PUSH2 0xE5D JUMP JUMPDEST DUP3 PUSH1 0x40 MLOAD PUSH2 0x1736 SWAP3 SWAP2 SWAP1 PUSH2 0x2486 JUMP JUMPDEST PUSH1 0x40 MLOAD DUP1 SWAP2 SUB SWAP1 LOG1 POP JUMP JUMPDEST PUSH0 PUSH32 0x34D79759018DD62B1C8D40A6535099F131828AA4665B939ADF68C4556B516400 SWAP1 POP SWAP1 JUMP JUMPDEST PUSH0 PUSH1 0x1 PUSH0 SWAP1 SLOAD SWAP1 PUSH2 0x100 EXP SWAP1 DIV PUSH20 0xFFFFFFFFFFFFFFFFFFFFFFFFFFFFFFFFFFFFFFFF AND PUSH20 0xFFFFFFFFFFFFFFFFFFFFFFFFFFFFFFFFFFFFFFFF AND PUSH4 0xDD62ED3E CALLER ADDRESS PUSH1 0x40 MLOAD DUP4 PUSH4 0xFFFFFFFF AND PUSH1 0xE0 SHL DUP2 MSTORE PUSH1 0x4 ADD PUSH2 0x17C5 SWAP3 SWAP2 SWAP1 PUSH2 0x2678 JUMP JUMPDEST PUSH1 0x20 PUSH1 0x40 MLOAD DUP1 DUP4 SUB DUP2 DUP7 GAS STATICCALL ISZERO DUP1 ISZERO PUSH2 0x17E0 JUMPI RETURNDATASIZE PUSH0 DUP1 RETURNDATACOPY RETURNDATASIZE PUSH0 REVERT JUMPDEST POP POP POP POP PUSH1 0x40 MLOAD RETURNDATASIZE PUSH1 0x1F NOT PUSH1 0x1F DUP3 ADD AND DUP3 ADD DUP1 PUSH1 0x40 MSTORE POP DUP2 ADD SWAP1 PUSH2 0x1804 SWAP2 SWAP1 PUSH2 0x269F JUMP JUMPDEST SWAP1 POP SWAP1 JUMP JUMPDEST PUSH1 0x60 PUSH0 PUSH20 0xFFFFFFFFFFFFFFFFFFFFFFFFFFFFFFFFFFFFFFFF AND PUSH2 0x182A PUSH2 0x1741 JUMP JUMPDEST PUSH1 0x1 ADD DUP7 DUP7 PUSH1 0x40 MLOAD PUSH2 0x183D SWAP3 SWAP2 SWAP1 PUSH2 0x213E JUMP JUMPDEST SWAP1 DUP2 MSTORE PUSH1 0x20 ADD PUSH1 0x40 MLOAD DUP1 SWAP2 SUB SWAP1 KECCAK256 PUSH0 SWAP1 SLOAD SWAP1 PUSH2 0x100 EXP SWAP1 DIV PUSH20 0xFFFFFFFFFFFFFFFFFFFFFFFFFFFFFFFFFFFFFFFF AND PUSH20 0xFFFFFFFFFFFFFFFFFFFFFFFFFFFFFFFFFFFFFFFF AND SUB PUSH2 0x18C5 JUMPI DUP5 DUP5 PUSH1 0x40 MLOAD PUSH32 0x30A58C0700000000000000000000000000000000000000000000000000000000 DUP2 MSTORE PUSH1 0x4 ADD PUSH2 0x18BC SWAP3 SWAP2 SWAP1 PUSH2 0x21A2 JUMP JUMPDEST PUSH1 0x40 MLOAD DUP1 SWAP2 SUB SWAP1 REVERT JUMPDEST PUSH0 PUSH2 0x18D2 DUP5 DUP5 DUP9 DUP9 PUSH2 0x1CD4 JUMP JUMPDEST SWAP1 POP PUSH0 PUSH20 0xFFFFFFFFFFFFFFFFFFFFFFFFFFFFFFFFFFFFFFFF AND PUSH2 0x18F3 PUSH2 0x1741 JUMP JUMPDEST PUSH1 0x1 ADD DUP3 PUSH1 0x40 MLOAD PUSH2 0x1904 SWAP2 SWAP1 PUSH2 0x2226 JUMP JUMPDEST SWAP1 DUP2 MSTORE PUSH1 0x20 ADD PUSH1 0x40 MLOAD DUP1 SWAP2 SUB SWAP1 KECCAK256 PUSH0 SWAP1 SLOAD SWAP1 PUSH2 0x100 EXP SWAP1 DIV PUSH20 0xFFFFFFFFFFFFFFFFFFFFFFFFFFFFFFFFFFFFFFFF AND PUSH20 0xFFFFFFFFFFFFFFFFFFFFFFFFFFFFFFFFFFFFFFFF AND EQ PUSH2 0x197F JUMPI PUSH1 0x40 MLOAD PUSH32 0xC5E8402D00000000000000000000000000000000000000000000000000000000 DUP2 MSTORE PUSH1 0x4 ADD PUSH1 0x40 MLOAD DUP1 SWAP2 SUB SWAP1 REVERT JUMPDEST DUP1 SWAP2 POP POP SWAP5 SWAP4 POP POP POP POP JUMP JUMPDEST PUSH1 0x1 PUSH0 SWAP1 SLOAD SWAP1 PUSH2 0x100 EXP SWAP1 DIV PUSH20 0xFFFFFFFFFFFFFFFFFFFFFFFFFFFFFFFFFFFFFFFF AND PUSH20 0xFFFFFFFFFFFFFFFFFFFFFFFFFFFFFFFFFFFFFFFF AND PUSH4 0x23B872DD CALLER ADDRESS DUP5 PUSH1 0x40 MLOAD DUP5 PUSH4 0xFFFFFFFF AND PUSH1 0xE0 SHL DUP2 MSTORE PUSH1 0x4 ADD PUSH2 0x19E9 SWAP4 SWAP3 SWAP2 SWAP1 PUSH2 0x26CA JUMP JUMPDEST PUSH1 0x20 PUSH1 0x40 MLOAD DUP1 DUP4 SUB DUP2 PUSH0 DUP8 GAS CALL ISZERO DUP1 ISZERO PUSH2 0x1A05 JUMPI RETURNDATASIZE PUSH0 DUP1 RETURNDATACOPY RETURNDATASIZE PUSH0 REVERT JUMPDEST POP POP POP POP PUSH1 0x40 MLOAD RETURNDATASIZE PUSH1 0x1F NOT PUSH1 0x1F DUP3 ADD AND DUP3 ADD DUP1 PUSH1 0x40 MSTORE POP DUP2 ADD SWAP1 PUSH2 0x1A29 SWAP2 SWAP1 PUSH2 0x24E2 JUMP JUMPDEST POP POP JUMP JUMPDEST PUSH0 PUSH32 0x64D6FF49462C7266E92C8AA47370A483B3BB1C9FF7216E1D88A62C1EB24FFB00 SWAP1 POP SWAP1 JUMP JUMPDEST PUSH0 PUSH32 0x249F20EE916056548CFE0204D9EA4281F252680318BB5252F87AA5A31EC81E00 SWAP1 POP SWAP1 JUMP JUMPDEST PUSH2 0x1A83 PUSH2 0x1D3D JUMP JUMPDEST PUSH20 0xFFFFFFFFFFFFFFFFFFFFFFFFFFFFFFFFFFFFFFFF AND PUSH2 0x1AA1 PUSH2 0xE5D JUMP JUMPDEST PUSH20 0xFFFFFFFFFFFFFFFFFFFFFFFFFFFFFFFFFFFFFFFF AND EQ PUSH2 0x1B00 JUMPI PUSH2 0x1AC4 PUSH2 0x1D3D JUMP JUMPDEST PUSH1 0x40 MLOAD PUSH32 0x118CDAA700000000000000000000000000000000000000000000000000000000 DUP2 MSTORE PUSH1 0x4 ADD PUSH2 0x1AF7 SWAP2 SWAP1 PUSH2 0x1F97 JUMP JUMPDEST PUSH1 0x40 MLOAD DUP1 SWAP2 SUB SWAP1 REVERT JUMPDEST JUMP JUMPDEST PUSH0 PUSH2 0x1B0B PUSH2 0x1BD3 JUMP JUMPDEST SWAP1 POP PUSH0 DUP2 PUSH0 ADD PUSH0 SWAP1 SLOAD SWAP1 PUSH2 0x100 EXP SWAP1 DIV PUSH20 0xFFFFFFFFFFFFFFFFFFFFFFFFFFFFFFFFFFFFFFFF AND SWAP1 POP DUP3 DUP3 PUSH0 ADD PUSH0 PUSH2 0x100 EXP DUP2 SLOAD DUP2 PUSH20 0xFFFFFFFFFFFFFFFFFFFFFFFFFFFFFFFFFFFFFFFF MUL NOT AND SWAP1 DUP4 PUSH20 0xFFFFFFFFFFFFFFFFFFFFFFFFFFFFFFFFFFFFFFFF AND MUL OR SWAP1 SSTORE POP DUP3 PUSH20 0xFFFFFFFFFFFFFFFFFFFFFFFFFFFFFFFFFFFFFFFF AND DUP2 PUSH20 0xFFFFFFFFFFFFFFFFFFFFFFFFFFFFFFFFFFFFFFFF AND PUSH32 0x8BE0079C531659141344CD1FD0A4F28419497F9722A3DAAFE3B4186F6B6457E0 PUSH1 0x40 MLOAD PUSH1 0x40 MLOAD DUP1 SWAP2 SUB SWAP1 LOG3 POP POP POP JUMP JUMPDEST PUSH0 PUSH32 0x9016D09D72D40FDAE2FD8CEAC6B6234C7706214FD39C1CD1E609A0528C199300 SWAP1 POP SWAP1 JUMP JUMPDEST PUSH0 PUSH32 0xF0C57E16840DF040F15088DC2F81FE391C3923BEC73E23A9662EFC9C229C6A00 SWAP1 POP SWAP1 JUMP JUMPDEST PUSH2 0x1C29 PUSH2 0x1D44 JUMP JUMPDEST PUSH2 0x1C32 DUP2 PUSH2 0x1D84 JUMP JUMPDEST POP JUMP JUMPDEST PUSH0 PUSH1 0x1 PUSH0 SWAP1 SLOAD SWAP1 PUSH2 0x100 EXP SWAP1 DIV PUSH20 0xFFFFFFFFFFFFFFFFFFFFFFFFFFFFFFFFFFFFFFFF AND PUSH20 0xFFFFFFFFFFFFFFFFFFFFFFFFFFFFFFFFFFFFFFFF AND PUSH4 0x70A08231 ADDRESS PUSH1 0x40 MLOAD DUP3 PUSH4 0xFFFFFFFF AND PUSH1 0xE0 SHL DUP2 MSTORE PUSH1 0x4 ADD PUSH2 0x1C90 SWAP2 SWAP1 PUSH2 0x1F97 JUMP JUMPDEST PUSH1 0x20 PUSH1 0x40 MLOAD DUP1 DUP4 SUB DUP2 DUP7 GAS STATICCALL ISZERO DUP1 ISZERO PUSH2 0x1CAB JUMPI RETURNDATASIZE PUSH0 DUP1 RETURNDATACOPY RETURNDATASIZE PUSH0 REVERT JUMPDEST POP POP POP POP PUSH1 0x40 MLOAD RETURNDATASIZE PUSH1 0x1F NOT PUSH1 0x1F DUP3 ADD AND DUP3 ADD DUP1 PUSH1 0x40 MSTORE POP DUP2 ADD SWAP1 PUSH2 0x1CCF SWAP2 SWAP1 PUSH2 0x269F JUMP JUMPDEST SWAP1 POP SWAP1 JUMP JUMPDEST PUSH1 0x60 DUP5 DUP5 PUSH1 0x40 MLOAD DUP1 PUSH1 0x40 ADD PUSH1 0x40 MSTORE DUP1 PUSH1 0x1 DUP2 MSTORE PUSH1 0x20 ADD PUSH32 0x2E00000000000000000000000000000000000000000000000000000000000000 DUP2 MSTORE POP DUP6 DUP6 PUSH1 0x40 MLOAD PUSH1 0x20 ADD PUSH2 0x1D24 SWAP6 SWAP5 SWAP4 SWAP3 SWAP2 SWAP1 PUSH2 0x26FF JUMP JUMPDEST PUSH1 0x40 MLOAD PUSH1 0x20 DUP2 DUP4 SUB SUB DUP2 MSTORE SWAP1 PUSH1 0x40 MSTORE SWAP1 POP SWAP5 SWAP4 POP POP POP POP JUMP JUMPDEST PUSH0 CALLER SWAP1 POP SWAP1 JUMP JUMPDEST PUSH2 0x1D4C PUSH2 0x1E08 JUMP JUMPDEST PUSH2 0x1D82 JUMPI PUSH1 0x40 MLOAD PUSH32 0xD7E6BCF800000000000000000000000000000000000000000000000000000000 DUP2 MSTORE PUSH1 0x4 ADD PUSH1 0x40 MLOAD DUP1 SWAP2 SUB SWAP1 REVERT JUMPDEST JUMP JUMPDEST PUSH2 0x1D8C PUSH2 0x1D44 JUMP JUMPDEST PUSH0 PUSH20 0xFFFFFFFFFFFFFFFFFFFFFFFFFFFFFFFFFFFFFFFF AND DUP2 PUSH20 0xFFFFFFFFFFFFFFFFFFFFFFFFFFFFFFFFFFFFFFFF AND SUB PUSH2 0x1DFC JUMPI PUSH0 PUSH1 0x40 MLOAD PUSH32 0x1E4FBDF700000000000000000000000000000000000000000000000000000000 DUP2 MSTORE PUSH1 0x4 ADD PUSH2 0x1DF3 SWAP2 SWAP1 PUSH2 0x1F97 JUMP JUMPDEST PUSH1 0x40 MLOAD DUP1 SWAP2 SUB SWAP1 REVERT JUMPDEST PUSH2 0x1E05 DUP2 PUSH2 0x1B02 JUMP JUMPDEST POP JUMP JUMPDEST PUSH0 PUSH2 0x1E11 PUSH2 0x1BFA JUMP JUMPDEST PUSH0 ADD PUSH1 0x8 SWAP1 SLOAD SWAP1 PUSH2 0x100 EXP SWAP1 DIV PUSH1 0xFF AND SWAP1 POP SWAP1 JUMP JUMPDEST PUSH0 DUP1 REVERT JUMPDEST PUSH0 DUP1 REVERT JUMPDEST PUSH0 DUP1 REVERT JUMPDEST PUSH0 DUP1 REVERT JUMPDEST PUSH0 DUP1 REVERT JUMPDEST PUSH0 DUP1 DUP4 PUSH1 0x1F DUP5 ADD SLT PUSH2 0x1E4F JUMPI PUSH2 0x1E4E PUSH2 0x1E2E JUMP JUMPDEST JUMPDEST DUP3 CALLDATALOAD SWAP1 POP PUSH8 0xFFFFFFFFFFFFFFFF DUP2 GT ISZERO PUSH2 0x1E6C JUMPI PUSH2 0x1E6B PUSH2 0x1E32 JUMP JUMPDEST JUMPDEST PUSH1 0x20 DUP4 ADD SWAP2 POP DUP4 PUSH1 0x1 DUP3 MUL DUP4 ADD GT ISZERO PUSH2 0x1E88 JUMPI PUSH2 0x1E87 PUSH2 0x1E36 JUMP JUMPDEST JUMPDEST SWAP3 POP SWAP3 SWAP1 POP JUMP JUMPDEST PUSH0 DUP1 PUSH1 0x20 DUP4 DUP6 SUB SLT ISZERO PUSH2 0x1EA5 JUMPI PUSH2 0x1EA4 PUSH2 0x1E26 JUMP JUMPDEST JUMPDEST PUSH0 DUP4 ADD CALLDATALOAD PUSH8 0xFFFFFFFFFFFFFFFF DUP2 GT ISZERO PUSH2 0x1EC2 JUMPI PUSH2 0x1EC1 PUSH2 0x1E2A JUMP JUMPDEST JUMPDEST PUSH2 0x1ECE DUP6 DUP3 DUP7 ADD PUSH2 0x1E3A JUMP JUMPDEST SWAP3 POP SWAP3 POP POP SWAP3 POP SWAP3 SWAP1 POP JUMP JUMPDEST PUSH0 DUP1 PUSH0 DUP1 PUSH1 0x40 DUP6 DUP8 SUB SLT ISZERO PUSH2 0x1EF2 JUMPI PUSH2 0x1EF1 PUSH2 0x1E26 JUMP JUMPDEST JUMPDEST PUSH0 DUP6 ADD CALLDATALOAD PUSH8 0xFFFFFFFFFFFFFFFF DUP2 GT ISZERO PUSH2 0x1F0F JUMPI PUSH2 0x1F0E PUSH2 0x1E2A JUMP JUMPDEST JUMPDEST PUSH2 0x1F1B DUP8 DUP3 DUP9 ADD PUSH2 0x1E3A JUMP JUMPDEST SWAP5 POP SWAP5 POP POP PUSH1 0x20 DUP6 ADD CALLDATALOAD PUSH8 0xFFFFFFFFFFFFFFFF DUP2 GT ISZERO PUSH2 0x1F3E JUMPI PUSH2 0x1F3D PUSH2 0x1E2A JUMP JUMPDEST JUMPDEST PUSH2 0x1F4A DUP8 DUP3 DUP9 ADD PUSH2 0x1E3A JUMP JUMPDEST SWAP3 POP SWAP3 POP POP SWAP3 SWAP6 SWAP2 SWAP5 POP SWAP3 POP JUMP JUMPDEST PUSH0 PUSH20 0xFFFFFFFFFFFFFFFFFFFFFFFFFFFFFFFFFFFFFFFF DUP3 AND SWAP1 POP SWAP2 SWAP1 POP JUMP JUMPDEST PUSH0 PUSH2 0x1F81 DUP3 PUSH2 0x1F58 JUMP JUMPDEST SWAP1 POP SWAP2 SWAP1 POP JUMP JUMPDEST PUSH2 0x1F91 DUP2 PUSH2 0x1F77 JUMP JUMPDEST DUP3 MSTORE POP POP JUMP JUMPDEST PUSH0 PUSH1 0x20 DUP3 ADD SWAP1 POP PUSH2 0x1FAA PUSH0 DUP4 ADD DUP5 PUSH2 0x1F88 JUMP JUMPDEST SWAP3 SWAP2 POP POP JUMP JUMPDEST PUSH0 DUP2 SWAP1 POP SWAP2 SWAP1 POP JUMP JUMPDEST PUSH2 0x1FC2 DUP2 PUSH2 0x1FB0 JUMP JUMPDEST DUP3 MSTORE POP POP JUMP JUMPDEST PUSH0 PUSH1 0x20 DUP3 ADD SWAP1 POP PUSH2 0x1FDB PUSH0 DUP4 ADD DUP5 PUSH2 0x1FB9 JUMP JUMPDEST SWAP3 SWAP2 POP POP JUMP JUMPDEST PUSH2 0x1FEA DUP2 PUSH2 0x1FB0 JUMP JUMPDEST DUP2 EQ PUSH2 0x1FF4 JUMPI PUSH0 DUP1 REVERT JUMPDEST POP JUMP JUMPDEST PUSH0 DUP2 CALLDATALOAD SWAP1 POP PUSH2 0x2005 DUP2 PUSH2 0x1FE1 JUMP JUMPDEST SWAP3 SWAP2 POP POP JUMP JUMPDEST PUSH0 PUSH1 0x20 DUP3 DUP5 SUB SLT ISZERO PUSH2 0x2020 JUMPI PUSH2 0x201F PUSH2 0x1E26 JUMP JUMPDEST JUMPDEST PUSH0 PUSH2 0x202D DUP5 DUP3 DUP6 ADD PUSH2 0x1FF7 JUMP JUMPDEST SWAP2 POP POP SWAP3 SWAP2 POP POP JUMP JUMPDEST PUSH2 0x203F DUP2 PUSH2 0x1F77 JUMP JUMPDEST DUP2 EQ PUSH2 0x2049 JUMPI PUSH0 DUP1 REVERT JUMPDEST POP JUMP JUMPDEST PUSH0 DUP2 CALLDATALOAD SWAP1 POP PUSH2 0x205A DUP2 PUSH2 0x2036 JUMP JUMPDEST SWAP3 SWAP2 POP POP JUMP JUMPDEST PUSH0 DUP1 PUSH0 PUSH1 0x60 DUP5 DUP7 SUB SLT ISZERO PUSH2 0x2077 JUMPI PUSH2 0x2076 PUSH2 0x1E26 JUMP JUMPDEST JUMPDEST PUSH0 PUSH2 0x2084 DUP7 DUP3 DUP8 ADD PUSH2 0x1FF7 JUMP JUMPDEST SWAP4 POP POP PUSH1 0x20 PUSH2 0x2095 DUP7 DUP3 DUP8 ADD PUSH2 0x204C JUMP JUMPDEST SWAP3 POP POP PUSH1 0x40 PUSH2 0x20A6 DUP7 DUP3 DUP8 ADD PUSH2 0x204C JUMP JUMPDEST SWAP2 POP POP SWAP3 POP SWAP3 POP SWAP3 JUMP JUMPDEST PUSH0 PUSH1 0x20 DUP3 DUP5 SUB SLT ISZERO PUSH2 0x20C5 JUMPI PUSH2 0x20C4 PUSH2 0x1E26 JUMP JUMPDEST JUMPDEST PUSH0 PUSH2 0x20D2 DUP5 DUP3 DUP6 ADD PUSH2 0x204C JUMP JUMPDEST SWAP2 POP POP SWAP3 SWAP2 POP POP JUMP JUMPDEST PUSH0 PUSH1 0x40 DUP3 ADD SWAP1 POP PUSH2 0x20EE PUSH0 DUP4 ADD DUP6 PUSH2 0x1FB9 JUMP JUMPDEST PUSH2 0x20FB PUSH1 0x20 DUP4 ADD DUP5 PUSH2 0x1FB9 JUMP JUMPDEST SWAP4 SWAP3 POP POP POP JUMP JUMPDEST PUSH0 DUP2 SWAP1 POP SWAP3 SWAP2 POP POP JUMP JUMPDEST DUP3 DUP2 DUP4 CALLDATACOPY PUSH0 DUP4 DUP4 ADD MSTORE POP POP POP JUMP JUMPDEST PUSH0 PUSH2 0x2125 DUP4 DUP6 PUSH2 0x2102 JUMP JUMPDEST SWAP4 POP PUSH2 0x2132 DUP4 DUP6 DUP5 PUSH2 0x210C JUMP JUMPDEST DUP3 DUP5 ADD SWAP1 POP SWAP4 SWAP3 POP POP POP JUMP JUMPDEST PUSH0 PUSH2 0x214A DUP3 DUP5 DUP7 PUSH2 0x211A JUMP JUMPDEST SWAP2 POP DUP2 SWAP1 POP SWAP4 SWAP3 POP POP POP JUMP JUMPDEST PUSH0 DUP3 DUP3 MSTORE PUSH1 0x20 DUP3 ADD SWAP1 POP SWAP3 SWAP2 POP POP JUMP JUMPDEST PUSH0 PUSH1 0x1F NOT PUSH1 0x1F DUP4 ADD AND SWAP1 POP SWAP2 SWAP1 POP JUMP JUMPDEST PUSH0 PUSH2 0x2181 DUP4 DUP6 PUSH2 0x2156 JUMP JUMPDEST SWAP4 POP PUSH2 0x218E DUP4 DUP6 DUP5 PUSH2 0x210C JUMP JUMPDEST PUSH2 0x2197 DUP4 PUSH2 0x2166 JUMP JUMPDEST DUP5 ADD SWAP1 POP SWAP4 SWAP3 POP POP POP JUMP JUMPDEST PUSH0 PUSH1 0x20 DUP3 ADD SWAP1 POP DUP2 DUP2 SUB PUSH0 DUP4 ADD MSTORE PUSH2 0x21BB DUP2 DUP5 DUP7 PUSH2 0x2176 JUMP JUMPDEST SWAP1 POP SWAP4 SWAP3 POP POP POP JUMP JUMPDEST PUSH0 DUP2 MLOAD SWAP1 POP SWAP2 SWAP1 POP JUMP JUMPDEST PUSH0 JUMPDEST DUP4 DUP2 LT ISZERO PUSH2 0x21EB JUMPI DUP1 DUP3 ADD MLOAD DUP2 DUP5 ADD MSTORE PUSH1 0x20 DUP2 ADD SWAP1 POP PUSH2 0x21D0 JUMP JUMPDEST PUSH0 DUP5 DUP5 ADD MSTORE POP POP POP POP JUMP JUMPDEST PUSH0 PUSH2 0x2200 DUP3 PUSH2 0x21C4 JUMP JUMPDEST PUSH2 0x220A DUP2 DUP6 PUSH2 0x2102 JUMP JUMPDEST SWAP4 POP PUSH2 0x221A DUP2 DUP6 PUSH1 0x20 DUP7 ADD PUSH2 0x21CE JUMP JUMPDEST DUP1 DUP5 ADD SWAP2 POP POP SWAP3 SWAP2 POP POP JUMP JUMPDEST PUSH0 PUSH2 0x2231 DUP3 DUP5 PUSH2 0x21F6 JUMP JUMPDEST SWAP2 POP DUP2 SWAP1 POP SWAP3 SWAP2 POP POP JUMP JUMPDEST PUSH32 0x4E487B7100000000000000000000000000000000000000000000000000000000 PUSH0 MSTORE PUSH1 0x11 PUSH1 0x4 MSTORE PUSH1 0x24 PUSH0 REVERT JUMPDEST PUSH0 PUSH2 0x2273 DUP3 PUSH2 0x1FB0 JUMP JUMPDEST SWAP2 POP PUSH2 0x227E DUP4 PUSH2 0x1FB0 JUMP JUMPDEST SWAP3 POP DUP3 DUP3 ADD SWAP1 POP DUP1 DUP3 GT ISZERO PUSH2 0x2296 JUMPI PUSH2 0x2295 PUSH2 0x223C JUMP JUMPDEST JUMPDEST SWAP3 SWAP2 POP POP JUMP JUMPDEST PUSH0 PUSH2 0x22A6 DUP3 PUSH2 0x21C4 JUMP JUMPDEST PUSH2 0x22B0 DUP2 DUP6 PUSH2 0x2156 JUMP JUMPDEST SWAP4 POP PUSH2 0x22C0 DUP2 DUP6 PUSH1 0x20 DUP7 ADD PUSH2 0x21CE JUMP JUMPDEST PUSH2 0x22C9 DUP2 PUSH2 0x2166 JUMP JUMPDEST DUP5 ADD SWAP2 POP POP SWAP3 SWAP2 POP POP JUMP JUMPDEST PUSH0 PUSH1 0x20 DUP3 ADD SWAP1 POP DUP2 DUP2 SUB PUSH0 DUP4 ADD MSTORE PUSH2 0x22EC DUP2 DUP5 PUSH2 0x229C JUMP JUMPDEST SWAP1 POP SWAP3 SWAP2 POP POP JUMP JUMPDEST PUSH0 PUSH2 0x22FE DUP3 PUSH2 0x1FB0 JUMP JUMPDEST SWAP2 POP PUSH2 0x2309 DUP4 PUSH2 0x1FB0 JUMP JUMPDEST SWAP3 POP DUP3 DUP3 MUL PUSH2 0x2317 DUP2 PUSH2 0x1FB0 JUMP JUMPDEST SWAP2 POP DUP3 DUP3 DIV DUP5 EQ DUP4 ISZERO OR PUSH2 0x232E JUMPI PUSH2 0x232D PUSH2 0x223C JUMP JUMPDEST JUMPDEST POP SWAP3 SWAP2 POP POP JUMP JUMPDEST PUSH32 0x4E487B7100000000000000000000000000000000000000000000000000000000 PUSH0 MSTORE PUSH1 0x12 PUSH1 0x4 MSTORE PUSH1 0x24 PUSH0 REVERT JUMPDEST PUSH0 PUSH2 0x236C DUP3 PUSH2 0x1FB0 JUMP JUMPDEST SWAP2 POP PUSH2 0x2377 DUP4 PUSH2 0x1FB0 JUMP JUMPDEST SWAP3 POP DUP3 PUSH2 0x2387 JUMPI PUSH2 0x2386 PUSH2 0x2335 JUMP JUMPDEST JUMPDEST DUP3 DUP3 DIV SWAP1 POP SWAP3 SWAP2 POP POP JUMP JUMPDEST PUSH0 DUP2 SWAP1 POP SWAP3 SWAP2 POP POP JUMP JUMPDEST POP JUMP JUMPDEST PUSH0 PUSH2 0x23AA PUSH0 DUP4 PUSH2 0x2392 JUMP JUMPDEST SWAP2 POP PUSH2 0x23B5 DUP3 PUSH2 0x239C JUMP JUMPDEST PUSH0 DUP3 ADD SWAP1 POP SWAP2 SWAP1 POP JUMP JUMPDEST PUSH0 PUSH2 0x23C9 DUP3 PUSH2 0x239F JUMP JUMPDEST SWAP2 POP DUP2 SWAP1 POP SWAP2 SWAP1 POP JUMP JUMPDEST PUSH0 DUP2 MLOAD SWAP1 POP SWAP2 SWAP1 POP JUMP JUMPDEST PUSH0 DUP3 DUP3 MSTORE PUSH1 0x20 DUP3 ADD SWAP1 POP SWAP3 SWAP2 POP POP JUMP JUMPDEST PUSH0 PUSH2 0x23F7 DUP3 PUSH2 0x23D3 JUMP JUMPDEST PUSH2 0x2401 DUP2 DUP6 PUSH2 0x23DD JUMP JUMPDEST SWAP4 POP PUSH2 0x2411 DUP2 DUP6 PUSH1 0x20 DUP7 ADD PUSH2 0x21CE JUMP JUMPDEST PUSH2 0x241A DUP2 PUSH2 0x2166 JUMP JUMPDEST DUP5 ADD SWAP2 POP POP SWAP3 SWAP2 POP POP JUMP JUMPDEST PUSH0 PUSH1 0x40 DUP3 ADD SWAP1 POP PUSH2 0x2438 PUSH0 DUP4 ADD DUP6 PUSH2 0x1F88 JUMP JUMPDEST DUP2 DUP2 SUB PUSH1 0x20 DUP4 ADD MSTORE PUSH2 0x244A DUP2 DUP5 PUSH2 0x23ED JUMP JUMPDEST SWAP1 POP SWAP4 SWAP3 POP POP POP JUMP JUMPDEST PUSH0 PUSH2 0x245D DUP3 PUSH2 0x1FB0 JUMP JUMPDEST SWAP2 POP PUSH2 0x2468 DUP4 PUSH2 0x1FB0 JUMP JUMPDEST SWAP3 POP DUP3 DUP3 SUB SWAP1 POP DUP2 DUP2 GT ISZERO PUSH2 0x2480 JUMPI PUSH2 0x247F PUSH2 0x223C JUMP JUMPDEST JUMPDEST SWAP3 SWAP2 POP POP JUMP JUMPDEST PUSH0 PUSH1 0x40 DUP3 ADD SWAP1 POP PUSH2 0x2499 PUSH0 DUP4 ADD DUP6 PUSH2 0x1F88 JUMP JUMPDEST PUSH2 0x24A6 PUSH1 0x20 DUP4 ADD DUP5 PUSH2 0x1FB9 JUMP JUMPDEST SWAP4 SWAP3 POP POP POP JUMP JUMPDEST PUSH0 DUP2 ISZERO ISZERO SWAP1 POP SWAP2 SWAP1 POP JUMP JUMPDEST PUSH2 0x24C1 DUP2 PUSH2 0x24AD JUMP JUMPDEST DUP2 EQ PUSH2 0x24CB JUMPI PUSH0 DUP1 REVERT JUMPDEST POP JUMP JUMPDEST PUSH0 DUP2 MLOAD SWAP1 POP PUSH2 0x24DC DUP2 PUSH2 0x24B8 JUMP JUMPDEST SWAP3 SWAP2 POP POP JUMP JUMPDEST PUSH0 PUSH1 0x20 DUP3 DUP5 SUB SLT ISZERO PUSH2 0x24F7 JUMPI PUSH2 0x24F6 PUSH2 0x1E26 JUMP JUMPDEST JUMPDEST PUSH0 PUSH2 0x2504 DUP5 DUP3 DUP6 ADD PUSH2 0x24CE JUMP JUMPDEST SWAP2 POP POP SWAP3 SWAP2 POP POP JUMP JUMPDEST PUSH0 DUP2 SWAP1 POP SWAP2 SWAP1 POP JUMP JUMPDEST PUSH0 PUSH8 0xFFFFFFFFFFFFFFFF DUP3 AND SWAP1 POP SWAP2 SWAP1 POP JUMP JUMPDEST PUSH0 DUP2 SWAP1 POP SWAP2 SWAP1 POP JUMP JUMPDEST PUSH0 PUSH2 0x254C PUSH2 0x2547 PUSH2 0x2542 DUP5 PUSH2 0x250D JUMP JUMPDEST PUSH2 0x2529 JUMP JUMPDEST PUSH2 0x2516 JUMP JUMPDEST SWAP1 POP SWAP2 SWAP1 POP JUMP JUMPDEST PUSH2 0x255C DUP2 PUSH2 0x2532 JUMP JUMPDEST DUP3 MSTORE POP POP JUMP JUMPDEST PUSH0 PUSH1 0x20 DUP3 ADD SWAP1 POP PUSH2 0x2575 PUSH0 DUP4 ADD DUP5 PUSH2 0x2553 JUMP JUMPDEST SWAP3 SWAP2 POP POP JUMP JUMPDEST PUSH0 PUSH10 0xFFFFFFFFFFFFFFFFFFFF DUP3 AND SWAP1 POP SWAP2 SWAP1 POP JUMP JUMPDEST PUSH2 0x2599 DUP2 PUSH2 0x257B JUMP JUMPDEST DUP2 EQ PUSH2 0x25A3 JUMPI PUSH0 DUP1 REVERT JUMPDEST POP JUMP JUMPDEST PUSH0 DUP2 MLOAD SWAP1 POP PUSH2 0x25B4 DUP2 PUSH2 0x2590 JUMP JUMPDEST SWAP3 SWAP2 POP POP JUMP JUMPDEST PUSH0 DUP2 SWAP1 POP SWAP2 SWAP1 POP JUMP JUMPDEST PUSH2 0x25CC DUP2 PUSH2 0x25BA JUMP JUMPDEST DUP2 EQ PUSH2 0x25D6 JUMPI PUSH0 DUP1 REVERT JUMPDEST POP JUMP JUMPDEST PUSH0 DUP2 MLOAD SWAP1 POP PUSH2 0x25E7 DUP2 PUSH2 0x25C3 JUMP JUMPDEST SWAP3 SWAP2 POP POP JUMP JUMPDEST PUSH0 DUP2 MLOAD SWAP1 POP PUSH2 0x25FB DUP2 PUSH2 0x1FE1 JUMP JUMPDEST SWAP3 SWAP2 POP POP JUMP JUMPDEST PUSH0 DUP1 PUSH0 DUP1 PUSH0 PUSH1 0xA0 DUP7 DUP9 SUB SLT ISZERO PUSH2 0x261A JUMPI PUSH2 0x2619 PUSH2 0x1E26 JUMP JUMPDEST JUMPDEST PUSH0 PUSH2 0x2627 DUP9 DUP3 DUP10 ADD PUSH2 0x25A6 JUMP JUMPDEST SWAP6 POP POP PUSH1 0x20 PUSH2 0x2638 DUP9 DUP3 DUP10 ADD PUSH2 0x25D9 JUMP JUMPDEST SWAP5 POP POP PUSH1 0x40 PUSH2 0x2649 DUP9 DUP3 DUP10 ADD PUSH2 0x25ED JUMP JUMPDEST SWAP4 POP POP PUSH1 0x60 PUSH2 0x265A DUP9 DUP3 DUP10 ADD PUSH2 0x25ED JUMP JUMPDEST SWAP3 POP POP PUSH1 0x80 PUSH2 0x266B DUP9 DUP3 DUP10 ADD PUSH2 0x25A6 JUMP JUMPDEST SWAP2 POP POP SWAP3 SWAP6 POP SWAP3 SWAP6 SWAP1 SWAP4 POP JUMP JUMPDEST PUSH0 PUSH1 0x40 DUP3 ADD SWAP1 POP PUSH2 0x268B PUSH0 DUP4 ADD DUP6 PUSH2 0x1F88 JUMP JUMPDEST PUSH2 0x2698 PUSH1 0x20 DUP4 ADD DUP5 PUSH2 0x1F88 JUMP JUMPDEST SWAP4 SWAP3 POP POP POP JUMP JUMPDEST PUSH0 PUSH1 0x20 DUP3 DUP5 SUB SLT ISZERO PUSH2 0x26B4 JUMPI PUSH2 0x26B3 PUSH2 0x1E26 JUMP JUMPDEST JUMPDEST PUSH0 PUSH2 0x26C1 DUP5 DUP3 DUP6 ADD PUSH2 0x25ED JUMP JUMPDEST SWAP2 POP POP SWAP3 SWAP2 POP POP JUMP JUMPDEST PUSH0 PUSH1 0x60 DUP3 ADD SWAP1 POP PUSH2 0x26DD PUSH0 DUP4 ADD DUP7 PUSH2 0x1F88 JUMP JUMPDEST PUSH2 0x26EA PUSH1 0x20 DUP4 ADD DUP6 PUSH2 0x1F88 JUMP JUMPDEST PUSH2 0x26F7 PUSH1 0x40 DUP4 ADD DUP5 PUSH2 0x1FB9 JUMP JUMPDEST SWAP5 SWAP4 POP POP POP POP JUMP JUMPDEST PUSH0 PUSH2 0x270B DUP3 DUP8 DUP10 PUSH2 0x211A JUMP JUMPDEST SWAP2 POP PUSH2 0x2717 DUP3 DUP7 PUSH2 0x21F6 JUMP JUMPDEST SWAP2 POP PUSH2 0x2724 DUP3 DUP5 DUP7 PUSH2 0x211A JUMP JUMPDEST SWAP2 POP DUP2 SWAP1 POP SWAP7 SWAP6 POP POP POP POP POP POP JUMP INVALID LOG2 PUSH5 0x6970667358 0x22 SLT KECCAK256 0xA5 ADDMOD DUP16 DUP4 0xAB CHAINID SIGNEXTEND EXTCODESIZE DUP5 0xBE PUSH13 0xF5B8C8C54C1BFCC8DA753E91AA DUP2 KECCAK256 0xDF CALLCODE DUP9 SWAP16 CHAINID STOP PUSH5 0x736F6C6343 STOP ADDMOD XOR STOP CALLER "
				},
				"gasEstimates": {
					"creation": {
						"codeDepositCost": "2017800",
						"executionCost": "2140",
						"totalCost": "2019940"
					},
					"external": {
						"_getEthToUsdPriceFromOracle()": "infinite",
						"buyChildDomainViaEth(string,string)": "infinite",
						"buyChildDomainViaUsdc(string,string)": "infinite",
						"buyDomainViaEth(string)": "infinite",
						"buyDomainViaUsdc(string)": "infinite",
						"changePrice(uint256)": "infinite",
						"getDomainOwner(string)": "infinite",
						"getRegistrationPriceInEth()": "infinite",
						"getRegistrationPriceInUsdc()": "2538",
						"initialize(uint256,address,address)": "infinite",
						"owner()": "2612",
						"renounceOwnership()": "infinite",
						"transferOwnership(address)": "infinite",
						"withdrawDomainEth()": "infinite",
						"withdrawDomainUsdc()": "infinite",
						"withdrawEth()": "infinite",
						"withdrawUsdc()": "infinite"
					},
					"internal": {
						"_getDomainStorage()": "22",
						"_getFundStorage()": "22",
						"_getUsdcFundStorage()": "22",
						"createAndCheckFullDomain(string calldata,string calldata)": "infinite",
						"createFullDomain(string calldata,string calldata)": "infinite",
						"getUsdcAllowance()": "infinite",
						"getUsdcContractBalance()": "infinite",
						"transferUsdc(uint256)": "infinite"
					}
				},
				"methodIdentifiers": {
					"_getEthToUsdPriceFromOracle()": "fc8b2653",
					"buyChildDomainViaEth(string,string)": "37ee4b47",
					"buyChildDomainViaUsdc(string,string)": "225068c2",
					"buyDomainViaEth(string)": "1b0e17a3",
					"buyDomainViaUsdc(string)": "fbd43caa",
					"changePrice(uint256)": "a2b40d19",
					"getDomainOwner(string)": "25970115",
					"getRegistrationPriceInEth()": "2dd398b5",
					"getRegistrationPriceInUsdc()": "59e41286",
					"initialize(uint256,address,address)": "b4988fd0",
					"owner()": "8da5cb5b",
					"renounceOwnership()": "715018a6",
					"transferOwnership(address)": "f2fde38b",
					"withdrawDomainEth()": "559aae74",
					"withdrawDomainUsdc()": "82702ff4",
					"withdrawEth()": "a0ef91df",
					"withdrawUsdc()": "fee84d4e"
				}
			},
			"storageLayout": {
				"storage": [
					{
						"astId": 1263,
						"contract": "contracts/DomainRegistry.sol:DomainRegistry",
						"label": "priceFeed",
						"offset": 0,
						"slot": "0",
						"type": "t_contract(AggregatorV3Interface)45"
					},
					{
						"astId": 1267,
						"contract": "contracts/DomainRegistry.sol:DomainRegistry",
						"label": "usdcToken",
						"offset": 0,
						"slot": "1",
						"type": "t_contract(IERC20)618"
					}
				],
				"types": {
					"t_contract(AggregatorV3Interface)45": {
						"encoding": "inplace",
						"label": "contract AggregatorV3Interface",
						"numberOfBytes": "20"
					},
					"t_contract(IERC20)618": {
						"encoding": "inplace",
						"label": "contract IERC20",
						"numberOfBytes": "20"
					}
				}
			},
			"userdoc": {
				"kind": "user",
				"methods": {
					"withdrawDomainEth()": {
						"notice": "This function allows domain owners to withdraw the eth funds deposited for their domains.Only the domain owner can invoke this function.If the domain owner has no funds deposited, the function reverts."
					},
					"withdrawDomainUsdc()": {
						"notice": "This function allows domain owners to withdraw the usdc funds deposited for their domains.Only the domain owner can invoke this function.If the domain owner has no funds deposited, the function reverts."
					},
					"withdrawEth()": {
						"notice": "Checks if the contract balance is not empty and then makes withdraw to \"owner\""
					},
					"withdrawUsdc()": {
						"notice": "Checks if the contract balance is not empty and then makes withdraw to \"owner\""
					}
				},
				"notice": "This contract allows registration and management of domains.",
				"version": 1
			}
		}
	}
}