{
  "_format": "hh-sol-artifact-1",
  "contractName": "DomainRegistryV1",
  "sourceName": "contracts/DomainRegistry.sol",
  "abi": [
    {
      "inputs": [],
      "name": "DomainAlreadyTaken",
      "type": "error"
    },
    {
      "inputs": [
        {
          "internalType": "bytes",
          "name": "data",
          "type": "bytes"
        }
      ],
      "name": "FailedToWithdraw",
      "type": "error"
    },
    {
      "inputs": [
        {
          "internalType": "uint256",
          "name": "incomingValue",
          "type": "uint256"
        },
        {
          "internalType": "uint256",
          "name": "expectingValue",
          "type": "uint256"
        }
      ],
      "name": "IncorrectValueAmount",
      "type": "error"
    },
    {
      "inputs": [],
      "name": "InvalidInitialization",
      "type": "error"
    },
    {
      "inputs": [],
      "name": "NotInitializing",
      "type": "error"
    },
    {
      "inputs": [],
      "name": "NothingToWithdraw",
      "type": "error"
    },
    {
      "inputs": [
        {
          "internalType": "address",
          "name": "owner",
          "type": "address"
        }
      ],
      "name": "OwnableInvalidOwner",
      "type": "error"
    },
    {
      "inputs": [
        {
          "internalType": "address",
          "name": "account",
          "type": "address"
        }
      ],
      "name": "OwnableUnauthorizedAccount",
      "type": "error"
    },
    {
      "inputs": [
        {
          "internalType": "uint256",
          "name": "incomingValue",
          "type": "uint256"
        },
        {
          "internalType": "uint256",
          "name": "expectingValue",
          "type": "uint256"
        }
      ],
      "name": "PriceEqualsZero",
      "type": "error"
    },
    {
      "anonymous": false,
      "inputs": [
        {
          "indexed": false,
          "internalType": "string",
          "name": "domain",
          "type": "string"
        },
        {
          "indexed": true,
          "internalType": "address",
          "name": "controller",
          "type": "address"
        }
      ],
      "name": "DomainRegistered",
      "type": "event"
    },
    {
      "anonymous": false,
      "inputs": [
        {
          "indexed": false,
          "internalType": "uint64",
          "name": "version",
          "type": "uint64"
        }
      ],
      "name": "Initialized",
      "type": "event"
    },
    {
      "anonymous": false,
      "inputs": [
        {
          "indexed": true,
          "internalType": "address",
          "name": "previousOwner",
          "type": "address"
        },
        {
          "indexed": true,
          "internalType": "address",
          "name": "newOwner",
          "type": "address"
        }
      ],
      "name": "OwnershipTransferred",
      "type": "event"
    },
    {
      "anonymous": false,
      "inputs": [
        {
          "indexed": false,
          "internalType": "uint256",
          "name": "newPrice",
          "type": "uint256"
        }
      ],
      "name": "PriceChanged",
      "type": "event"
    },
    {
      "anonymous": false,
      "inputs": [
        {
          "indexed": false,
          "internalType": "uint256",
          "name": "amount",
          "type": "uint256"
        }
      ],
      "name": "Withdrawal",
      "type": "event"
    },
    {
      "inputs": [
        {
          "internalType": "string",
          "name": "domain",
          "type": "string"
        }
      ],
      "name": "buyDomain",
      "outputs": [],
      "stateMutability": "payable",
      "type": "function"
    },
    {
      "inputs": [
        {
          "internalType": "uint256",
          "name": "newPrice",
          "type": "uint256"
        }
      ],
      "name": "changePrice",
      "outputs": [],
      "stateMutability": "nonpayable",
      "type": "function"
    },
    {
      "inputs": [
        {
          "internalType": "string",
          "name": "",
          "type": "string"
        }
      ],
      "name": "domainList",
      "outputs": [
        {
          "internalType": "address",
          "name": "",
          "type": "address"
        }
      ],
      "stateMutability": "view",
      "type": "function"
    },
    {
      "inputs": [
        {
          "internalType": "uint256",
          "name": "initialPrice",
          "type": "uint256"
        }
      ],
      "name": "initialize",
      "outputs": [],
      "stateMutability": "nonpayable",
      "type": "function"
    },
    {
      "inputs": [],
      "name": "owner",
      "outputs": [
        {
          "internalType": "address",
          "name": "",
          "type": "address"
        }
      ],
      "stateMutability": "view",
      "type": "function"
    },
    {
      "inputs": [],
      "name": "registrationPrice",
      "outputs": [
        {
          "internalType": "uint256",
          "name": "",
          "type": "uint256"
        }
      ],
      "stateMutability": "view",
      "type": "function"
    },
    {
      "inputs": [],
      "name": "renounceOwnership",
      "outputs": [],
      "stateMutability": "nonpayable",
      "type": "function"
    },
    {
      "inputs": [
        {
          "internalType": "address",
          "name": "newOwner",
          "type": "address"
        }
      ],
      "name": "transferOwnership",
      "outputs": [],
      "stateMutability": "nonpayable",
      "type": "function"
    },
    {
      "inputs": [],
      "name": "withdraw",
      "outputs": [],
      "stateMutability": "nonpayable",
      "type": "function"
    }
  ],
  "bytecode": "0x608060405234801561001057600080fd5b506110b2806100206000396000f3fe6080604052600436106100865760003560e01c8063715018a611610059578063715018a6146101265780638da5cb5b1461013d578063a2b40d1914610168578063f2fde38b14610191578063fe4b84df146101ba57610086565b80631c3b028e1461008b57806321658658146100a7578063287b04f4146100d25780633ccfd60b1461010f575b600080fd5b6100a560048036038101906100a09190610b34565b6101e3565b005b3480156100b357600080fd5b506100bc610386565b6040516100c99190610b9a565b60405180910390f35b3480156100de57600080fd5b506100f960048036038101906100f49190610cf6565b61038c565b6040516101069190610d80565b60405180910390f35b34801561011b57600080fd5b506101246103d5565b005b34801561013257600080fd5b5061013b61050f565b005b34801561014957600080fd5b50610152610523565b60405161015f9190610d80565b60405180910390f35b34801561017457600080fd5b5061018f600480360381019061018a9190610dc7565b61055b565b005b34801561019d57600080fd5b506101b860048036038101906101b39190610e20565b6105ef565b005b3480156101c657600080fd5b506101e160048036038101906101dc9190610dc7565b610675565b005b600073ffffffffffffffffffffffffffffffffffffffff166001838360405161020d929190610e7d565b908152602001604051809103902060009054906101000a900473ffffffffffffffffffffffffffffffffffffffff1673ffffffffffffffffffffffffffffffffffffffff1614610289576040517fc5e8402d00000000000000000000000000000000000000000000000000000000815260040160405180910390fd5b60005434146102d357346000546040517fbe7b9d4d0000000000000000000000000000000000000000000000000000000081526004016102ca929190610e96565b60405180910390fd5b33600183836040516102e6929190610e7d565b908152602001604051809103902060006101000a81548173ffffffffffffffffffffffffffffffffffffffff021916908373ffffffffffffffffffffffffffffffffffffffff1602179055503373ffffffffffffffffffffffffffffffffffffffff167f70f2ff07e8136617cdfb0433423063c9dd697c507560d7860cce09fa86874a12838360405161037a929190610efd565b60405180910390a25050565b60005481565b6001818051602081018201805184825260208301602085012081835280955050505050506000915054906101000a900473ffffffffffffffffffffffffffffffffffffffff1681565b6103dd61080b565b60004790506000810361041c576040517fd0d04f6000000000000000000000000000000000000000000000000000000000815260040160405180910390fd5b600080610427610523565b73ffffffffffffffffffffffffffffffffffffffff168360405161044a90610f52565b60006040518083038185875af1925050503d8060008114610487576040519150601f19603f3d011682016040523d82523d6000602084013e61048c565b606091505b5091509150816104d357806040517f8190e9160000000000000000000000000000000000000000000000000000000081526004016104ca9190610fe6565b60405180910390fd5b7f4e70a604b23a8edee2b1d0a656e9b9c00b73ad8bb1afc2c59381ee9f69197de7836040516105029190610b9a565b60405180910390a1505050565b61051761080b565b6105216000610892565b565b60008061052e610969565b90508060000160009054906101000a900473ffffffffffffffffffffffffffffffffffffffff1691505090565b61056361080b565b80600081036105ad57806000546040517fd090dd060000000000000000000000000000000000000000000000000000000081526004016105a4929190610e96565b60405180910390fd5b816000819055507fa6dc15bdb68da224c66db4b3838d9a2b205138e8cff6774e57d0af91e196d622826040516105e39190610b9a565b60405180910390a15050565b6105f761080b565b600073ffffffffffffffffffffffffffffffffffffffff168173ffffffffffffffffffffffffffffffffffffffff16036106695760006040517f1e4fbdf70000000000000000000000000000000000000000000000000000000081526004016106609190610d80565b60405180910390fd5b61067281610892565b50565b600061067f610991565b905060008160000160089054906101000a900460ff1615905060008260000160009054906101000a900467ffffffffffffffff1690506000808267ffffffffffffffff161480156106cd5750825b9050600060018367ffffffffffffffff16148015610702575060003073ffffffffffffffffffffffffffffffffffffffff163b145b905081158015610710575080155b15610747576040517ff92ee8a900000000000000000000000000000000000000000000000000000000815260040160405180910390fd5b60018560000160006101000a81548167ffffffffffffffff021916908367ffffffffffffffff16021790555083156107975760018560000160086101000a81548160ff0219169083151502179055505b856000819055506107a7336109b9565b83156108035760008560000160086101000a81548160ff0219169083151502179055507fc7f505b2f371ae2175ee4913f4499e1f2633a7b5936321eed1cdaeb6115181d260016040516107fa9190611061565b60405180910390a15b505050505050565b6108136109cd565b73ffffffffffffffffffffffffffffffffffffffff16610831610523565b73ffffffffffffffffffffffffffffffffffffffff1614610890576108546109cd565b6040517f118cdaa70000000000000000000000000000000000000000000000000000000081526004016108879190610d80565b60405180910390fd5b565b600061089c610969565b905060008160000160009054906101000a900473ffffffffffffffffffffffffffffffffffffffff169050828260000160006101000a81548173ffffffffffffffffffffffffffffffffffffffff021916908373ffffffffffffffffffffffffffffffffffffffff1602179055508273ffffffffffffffffffffffffffffffffffffffff168173ffffffffffffffffffffffffffffffffffffffff167f8be0079c531659141344cd1fd0a4f28419497f9722a3daafe3b4186f6b6457e060405160405180910390a3505050565b60007f9016d09d72d40fdae2fd8ceac6b6234c7706214fd39c1cd1e609a0528c199300905090565b60007ff0c57e16840df040f15088dc2f81fe391c3923bec73e23a9662efc9c229c6a00905090565b6109c16109d5565b6109ca81610a15565b50565b600033905090565b6109dd610a9b565b610a13576040517fd7e6bcf800000000000000000000000000000000000000000000000000000000815260040160405180910390fd5b565b610a1d6109d5565b600073ffffffffffffffffffffffffffffffffffffffff168173ffffffffffffffffffffffffffffffffffffffff1603610a8f5760006040517f1e4fbdf7000000000000000000000000000000000000000000000000000000008152600401610a869190610d80565b60405180910390fd5b610a9881610892565b50565b6000610aa5610991565b60000160089054906101000a900460ff16905090565b6000604051905090565b600080fd5b600080fd5b600080fd5b600080fd5b600080fd5b60008083601f840112610af457610af3610acf565b5b8235905067ffffffffffffffff811115610b1157610b10610ad4565b5b602083019150836001820283011115610b2d57610b2c610ad9565b5b9250929050565b60008060208385031215610b4b57610b4a610ac5565b5b600083013567ffffffffffffffff811115610b6957610b68610aca565b5b610b7585828601610ade565b92509250509250929050565b6000819050919050565b610b9481610b81565b82525050565b6000602082019050610baf6000830184610b8b565b92915050565b600080fd5b6000601f19601f8301169050919050565b7f4e487b7100000000000000000000000000000000000000000000000000000000600052604160045260246000fd5b610c0382610bba565b810181811067ffffffffffffffff82111715610c2257610c21610bcb565b5b80604052505050565b6000610c35610abb565b9050610c418282610bfa565b919050565b600067ffffffffffffffff821115610c6157610c60610bcb565b5b610c6a82610bba565b9050602081019050919050565b82818337600083830152505050565b6000610c99610c9484610c46565b610c2b565b905082815260208101848484011115610cb557610cb4610bb5565b5b610cc0848285610c77565b509392505050565b600082601f830112610cdd57610cdc610acf565b5b8135610ced848260208601610c86565b91505092915050565b600060208284031215610d0c57610d0b610ac5565b5b600082013567ffffffffffffffff811115610d2a57610d29610aca565b5b610d3684828501610cc8565b91505092915050565b600073ffffffffffffffffffffffffffffffffffffffff82169050919050565b6000610d6a82610d3f565b9050919050565b610d7a81610d5f565b82525050565b6000602082019050610d956000830184610d71565b92915050565b610da481610b81565b8114610daf57600080fd5b50565b600081359050610dc181610d9b565b92915050565b600060208284031215610ddd57610ddc610ac5565b5b6000610deb84828501610db2565b91505092915050565b610dfd81610d5f565b8114610e0857600080fd5b50565b600081359050610e1a81610df4565b92915050565b600060208284031215610e3657610e35610ac5565b5b6000610e4484828501610e0b565b91505092915050565b600081905092915050565b6000610e648385610e4d565b9350610e71838584610c77565b82840190509392505050565b6000610e8a828486610e58565b91508190509392505050565b6000604082019050610eab6000830185610b8b565b610eb86020830184610b8b565b9392505050565b600082825260208201905092915050565b6000610edc8385610ebf565b9350610ee9838584610c77565b610ef283610bba565b840190509392505050565b60006020820190508181036000830152610f18818486610ed0565b90509392505050565b600081905092915050565b50565b6000610f3c600083610f21565b9150610f4782610f2c565b600082019050919050565b6000610f5d82610f2f565b9150819050919050565b600081519050919050565b600082825260208201905092915050565b60005b83811015610fa1578082015181840152602081019050610f86565b60008484015250505050565b6000610fb882610f67565b610fc28185610f72565b9350610fd2818560208601610f83565b610fdb81610bba565b840191505092915050565b600060208201905081810360008301526110008184610fad565b905092915050565b6000819050919050565b600067ffffffffffffffff82169050919050565b6000819050919050565b600061104b61104661104184611008565b611026565b611012565b9050919050565b61105b81611030565b82525050565b60006020820190506110766000830184611052565b9291505056fea2646970667358221220d35e65645bb03f3ca7364143ce06e78a2579f86780070959084c9e054bc523ae64736f6c63430008180033",
  "linkReferences": {},
  "deployedLinkReferences": {}
}