{
	"data": {
		"bytecode": {
			"linkReferences": {},
			"object": "608060405234801561000f575f80fd5b506127698061001d5f395ff3fe6080604052600436106100fd575f3560e01c806382702ff411610094578063b4988fd011610063578063b4988fd01461028f578063f2fde38b146102b7578063fbd43caa146102df578063fc8b2653146102fb578063fee84d4e14610325576100fd565b806382702ff4146102115780638da5cb5b14610227578063a0ef91df14610251578063a2b40d1914610267576100fd565b806337ee4b47116100d057806337ee4b471461019f578063559aae74146101bb57806359e41286146101d1578063715018a6146101fb576100fd565b80631b0e17a314610101578063225068c21461011d57806325970115146101395780632dd398b514610175575b5f80fd5b61011b60048036038101906101169190611e8f565b61033b565b005b61013760048036038101906101329190611eda565b6104f9565b005b348015610144575f80fd5b5061015f600480360381019061015a9190611e8f565b6106fc565b60405161016c9190611f97565b60405180910390f35b348015610180575f80fd5b5061018961074e565b6040516101969190611fc8565b60405180910390f35b6101b960048036038101906101b49190611eda565b610790565b005b3480156101c6575f80fd5b506101cf61096f565b005b3480156101dc575f80fd5b506101e5610c21565b6040516101f29190611fc8565b60405180910390f35b348015610206575f80fd5b5061020f610c32565b005b34801561021c575f80fd5b50610225610c45565b005b348015610232575f80fd5b5061023b610e5d565b6040516102489190611f97565b60405180910390f35b34801561025c575f80fd5b50610265610e92565b005b348015610272575f80fd5b5061028d6004803603810190610288919061200b565b610fff565b005b34801561029a575f80fd5b506102b560048036038101906102b09190612060565b6110a2565b005b3480156102c2575f80fd5b506102dd60048036038101906102d891906120b0565b6112b3565b005b6102f960048036038101906102f49190611e8f565b611337565b005b348015610306575f80fd5b5061030f611519565b60405161031c9190611fc8565b60405180910390f35b348015610330575f80fd5b506103396115ee565b005b5f61034461074e565b905080341461038c5734816040517fbe7b9d4d0000000000000000000000000000000000000000000000000000000081526004016103839291906120db565b60405180910390fd5b82825f73ffffffffffffffffffffffffffffffffffffffff166103ad611741565b60010183836040516103c092919061213e565b90815260200160405180910390205f9054906101000a900473ffffffffffffffffffffffffffffffffffffffff1673ffffffffffffffffffffffffffffffffffffffff161461043b576040517fc5e8402d00000000000000000000000000000000000000000000000000000000815260040160405180910390fd5b33610444611741565b600101868660405161045792919061213e565b90815260200160405180910390205f6101000a81548173ffffffffffffffffffffffffffffffffffffffff021916908373ffffffffffffffffffffffffffffffffffffffff1602179055503373ffffffffffffffffffffffffffffffffffffffff167f70f2ff07e8136617cdfb0433423063c9dd697c507560d7860cce09fa86874a1286866040516104ea9291906121a2565b60405180910390a25050505050565b5f610502611768565b90505f61050d611741565b5f015490508082146105585781816040517f035a0e0000000000000000000000000000000000000000000000000000000000815260040161054f9291906120db565b60405180910390fd5b5f61056587878787611809565b90505f610570611768565b905061057b8161198b565b33610584611741565b600101836040516105959190612226565b90815260200160405180910390205f6101000a81548173ffffffffffffffffffffffffffffffffffffffff021916908373ffffffffffffffffffffffffffffffffffffffff160217905550806105e9611a2d565b5f015f8282546105f99190612269565b9250508190555080610609611a2d565b6001015f610615611741565b6001018b8b60405161062892919061213e565b90815260200160405180910390205f9054906101000a900473ffffffffffffffffffffffffffffffffffffffff1673ffffffffffffffffffffffffffffffffffffffff1673ffffffffffffffffffffffffffffffffffffffff1681526020019081526020015f205f82825461069d9190612269565b925050819055503373ffffffffffffffffffffffffffffffffffffffff167f70f2ff07e8136617cdfb0433423063c9dd697c507560d7860cce09fa86874a12836040516106ea91906122d4565b60405180910390a25050505050505050565b5f610705611741565b600101838360405161071892919061213e565b90815260200160405180910390205f9054906101000a900473ffffffffffffffffffffffffffffffffffffffff16905092915050565b5f610757611519565b670de0b6b3a7640000606461076a611741565b5f015461077791906122f4565b61078191906122f4565b61078b9190612362565b905090565b5f61079961074e565b90508034146107e15734816040517fbe7b9d4d0000000000000000000000000000000000000000000000000000000081526004016107d89291906120db565b60405180910390fd5b5f6107ee86868686611809565b9050336107f9611741565b6001018260405161080a9190612226565b90815260200160405180910390205f6101000a81548173ffffffffffffffffffffffffffffffffffffffff021916908373ffffffffffffffffffffffffffffffffffffffff1602179055503461085e611a54565b5f015f82825461086e9190612269565b925050819055503461087e611a54565b6001015f61088a611741565b600101898960405161089d92919061213e565b90815260200160405180910390205f9054906101000a900473ffffffffffffffffffffffffffffffffffffffff1673ffffffffffffffffffffffffffffffffffffffff1673ffffffffffffffffffffffffffffffffffffffff1681526020019081526020015f205f8282546109129190612269565b925050819055503373ffffffffffffffffffffffffffffffffffffffff167f70f2ff07e8136617cdfb0433423063c9dd697c507560d7860cce09fa86874a128260405161095f91906122d4565b60405180910390a2505050505050565b5f610978611a54565b6001015f3373ffffffffffffffffffffffffffffffffffffffff1673ffffffffffffffffffffffffffffffffffffffff1681526020019081526020015f2054036109f957336040517fdc69dc160000000000000000000000000000000000000000000000000000000081526004016109f09190611f97565b60405180910390fd5b5f803373ffffffffffffffffffffffffffffffffffffffff16610a1a611a54565b6001015f3373ffffffffffffffffffffffffffffffffffffffff1673ffffffffffffffffffffffffffffffffffffffff1681526020019081526020015f2054604051610a65906123bf565b5f6040518083038185875af1925050503d805f8114610a9f576040519150601f19603f3d011682016040523d82523d5f602084013e610aa4565b606091505b509150915081610aed5733816040517f7824688c000000000000000000000000000000000000000000000000000000008152600401610ae4929190612425565b60405180910390fd5b610af5611a54565b6001015f3373ffffffffffffffffffffffffffffffffffffffff1673ffffffffffffffffffffffffffffffffffffffff1681526020019081526020015f2054610b3c611a54565b5f015f828254610b4c9190612453565b925050819055505f610b5c611a54565b6001015f3373ffffffffffffffffffffffffffffffffffffffff1673ffffffffffffffffffffffffffffffffffffffff1681526020019081526020015f20819055507f7fcf532c15f0a6db0bd6d0e038bea71d30d808c7d98cb3bf7268a95bf5081b6533610bc8611a54565b6001015f3373ffffffffffffffffffffffffffffffffffffffff1673ffffffffffffffffffffffffffffffffffffffff1681526020019081526020015f2054604051610c15929190612486565b60405180910390a15050565b5f610c2a611741565b5f0154905090565b610c3a611a7b565b610c435f611b02565b565b5f610c4e611a2d565b6001015f3373ffffffffffffffffffffffffffffffffffffffff1673ffffffffffffffffffffffffffffffffffffffff1681526020019081526020015f205403610ccf57336040517fdc69dc16000000000000000000000000000000000000000000000000000000008152600401610cc69190611f97565b60405180910390fd5b5f610cd8611a54565b6001015f3373ffffffffffffffffffffffffffffffffffffffff1673ffffffffffffffffffffffffffffffffffffffff1681526020019081526020015f2054905060015f9054906101000a900473ffffffffffffffffffffffffffffffffffffffff1673ffffffffffffffffffffffffffffffffffffffff1663a9059cbb33836040518363ffffffff1660e01b8152600401610d75929190612486565b6020604051808303815f875af1158015610d91573d5f803e3d5ffd5b505050506040513d601f19601f82011682018060405250810190610db591906124e2565b5080610dbf611a54565b5f015f828254610dcf9190612453565b925050819055505f610ddf611a54565b6001015f3373ffffffffffffffffffffffffffffffffffffffff1673ffffffffffffffffffffffffffffffffffffffff1681526020019081526020015f20819055507f7fcf532c15f0a6db0bd6d0e038bea71d30d808c7d98cb3bf7268a95bf5081b653382604051610e52929190612486565b60405180910390a150565b5f80610e67611bd3565b9050805f015f9054906101000a900473ffffffffffffffffffffffffffffffffffffffff1691505090565b610e9a611a7b565b5f610ea3611a54565b5f015447610eb19190612453565b90505f8103610efe57610ec2610e5d565b6040517fdc69dc16000000000000000000000000000000000000000000000000000000008152600401610ef59190611f97565b60405180910390fd5b5f80610f08610e5d565b73ffffffffffffffffffffffffffffffffffffffff1683604051610f2b906123bf565b5f6040518083038185875af1925050503d805f8114610f65576040519150601f19603f3d011682016040523d82523d5f602084013e610f6a565b606091505b509150915081610fba57610f7c610e5d565b816040517f7824688c000000000000000000000000000000000000000000000000000000008152600401610fb1929190612425565b60405180910390fd5b7f7fcf532c15f0a6db0bd6d0e038bea71d30d808c7d98cb3bf7268a95bf5081b65610fe3610e5d565b84604051610ff2929190612486565b60405180910390a1505050565b611007611a7b565b805f81036110585780611018611741565b5f01546040517fd090dd0600000000000000000000000000000000000000000000000000000000815260040161104f9291906120db565b60405180910390fd5b81611061611741565b5f01819055507fa6dc15bdb68da224c66db4b3838d9a2b205138e8cff6774e57d0af91e196d622826040516110969190611fc8565b60405180910390a15050565b5f6110ab611bfa565b90505f815f0160089054906101000a900460ff161590505f825f015f9054906101000a900467ffffffffffffffff1690505f808267ffffffffffffffff161480156110f35750825b90505f60018367ffffffffffffffff1614801561112657505f3073ffffffffffffffffffffffffffffffffffffffff163b145b905081158015611134575080155b1561116b576040517ff92ee8a900000000000000000000000000000000000000000000000000000000815260040160405180910390fd5b6001855f015f6101000a81548167ffffffffffffffff021916908367ffffffffffffffff16021790555083156111b8576001855f0160086101000a81548160ff0219169083151502179055505b876111c1611741565b5f01819055506111d033611c21565b865f806101000a81548173ffffffffffffffffffffffffffffffffffffffff021916908373ffffffffffffffffffffffffffffffffffffffff1602179055508560015f6101000a81548173ffffffffffffffffffffffffffffffffffffffff021916908373ffffffffffffffffffffffffffffffffffffffff16021790555083156112a9575f855f0160086101000a81548160ff0219169083151502179055507fc7f505b2f371ae2175ee4913f4499e1f2633a7b5936321eed1cdaeb6115181d260016040516112a09190612562565b60405180910390a15b5050505050505050565b6112bb611a7b565b5f73ffffffffffffffffffffffffffffffffffffffff168173ffffffffffffffffffffffffffffffffffffffff160361132b575f6040517f1e4fbdf70000000000000000000000000000000000000000000000000000000081526004016113229190611f97565b60405180910390fd5b61133481611b02565b50565b5f611340611768565b90505f61134b611741565b5f015490508082146113965781816040517f035a0e0000000000000000000000000000000000000000000000000000000000815260040161138d9291906120db565b60405180910390fd5b83835f73ffffffffffffffffffffffffffffffffffffffff166113b7611741565b60010183836040516113ca92919061213e565b90815260200160405180910390205f9054906101000a900473ffffffffffffffffffffffffffffffffffffffff1673ffffffffffffffffffffffffffffffffffffffff1614611445576040517fc5e8402d00000000000000000000000000000000000000000000000000000000815260040160405180910390fd5b5f61144e611768565b90506114598161198b565b33611462611741565b600101888860405161147592919061213e565b90815260200160405180910390205f6101000a81548173ffffffffffffffffffffffffffffffffffffffff021916908373ffffffffffffffffffffffffffffffffffffffff1602179055503373ffffffffffffffffffffffffffffffffffffffff167f70f2ff07e8136617cdfb0433423063c9dd697c507560d7860cce09fa86874a1288886040516115089291906121a2565b60405180910390a250505050505050565b5f805f8054906101000a900473ffffffffffffffffffffffffffffffffffffffff1673ffffffffffffffffffffffffffffffffffffffff1663feaf968c6040518163ffffffff1660e01b815260040160a060405180830381865afa158015611583573d5f803e3d5ffd5b505050506040513d601f19601f820116820180604052508101906115a79190612601565b5050509150505f8112156115e7576040517f6f4f5ab900000000000000000000000000000000000000000000000000000000815260040160405180910390fd5b8091505090565b6115f6611a7b565b5f6115ff611a2d565b5f015461160a611c35565b6116149190612453565b90505f810361166157611625610e5d565b6040517fdc69dc160000000000000000000000000000000000000000000000000000000081526004016116589190611f97565b60405180910390fd5b60015f9054906101000a900473ffffffffffffffffffffffffffffffffffffffff1673ffffffffffffffffffffffffffffffffffffffff1663a9059cbb33836040518363ffffffff1660e01b81526004016116bd929190612486565b6020604051808303815f875af11580156116d9573d5f803e3d5ffd5b505050506040513d601f19601f820116820180604052508101906116fd91906124e2565b507f7fcf532c15f0a6db0bd6d0e038bea71d30d808c7d98cb3bf7268a95bf5081b65611727610e5d565b82604051611736929190612486565b60405180910390a150565b5f7f34d79759018dd62b1c8d40a6535099f131828aa4665b939adf68c4556b516400905090565b5f60015f9054906101000a900473ffffffffffffffffffffffffffffffffffffffff1673ffffffffffffffffffffffffffffffffffffffff1663dd62ed3e33306040518363ffffffff1660e01b81526004016117c5929190612678565b602060405180830381865afa1580156117e0573d5f803e3d5ffd5b505050506040513d601f19601f82011682018060405250810190611804919061269f565b905090565b60605f73ffffffffffffffffffffffffffffffffffffffff1661182a611741565b600101868660405161183d92919061213e565b90815260200160405180910390205f9054906101000a900473ffffffffffffffffffffffffffffffffffffffff1673ffffffffffffffffffffffffffffffffffffffff16036118c55784846040517f30a58c070000000000000000000000000000000000000000000000000000000081526004016118bc9291906121a2565b60405180910390fd5b5f6118d284848888611cd4565b90505f73ffffffffffffffffffffffffffffffffffffffff166118f3611741565b600101826040516119049190612226565b90815260200160405180910390205f9054906101000a900473ffffffffffffffffffffffffffffffffffffffff1673ffffffffffffffffffffffffffffffffffffffff161461197f576040517fc5e8402d00000000000000000000000000000000000000000000000000000000815260040160405180910390fd5b80915050949350505050565b60015f9054906101000a900473ffffffffffffffffffffffffffffffffffffffff1673ffffffffffffffffffffffffffffffffffffffff166323b872dd3330846040518463ffffffff1660e01b81526004016119e9939291906126ca565b6020604051808303815f875af1158015611a05573d5f803e3d5ffd5b505050506040513d601f19601f82011682018060405250810190611a2991906124e2565b5050565b5f7f64d6ff49462c7266e92c8aa47370a483b3bb1c9ff7216e1d88a62c1eb24ffb00905090565b5f7f249f20ee916056548cfe0204d9ea4281f252680318bb5252f87aa5a31ec81e00905090565b611a83611d3d565b73ffffffffffffffffffffffffffffffffffffffff16611aa1610e5d565b73ffffffffffffffffffffffffffffffffffffffff1614611b0057611ac4611d3d565b6040517f118cdaa7000000000000000000000000000000000000000000000000000000008152600401611af79190611f97565b60405180910390fd5b565b5f611b0b611bd3565b90505f815f015f9054906101000a900473ffffffffffffffffffffffffffffffffffffffff16905082825f015f6101000a81548173ffffffffffffffffffffffffffffffffffffffff021916908373ffffffffffffffffffffffffffffffffffffffff1602179055508273ffffffffffffffffffffffffffffffffffffffff168173ffffffffffffffffffffffffffffffffffffffff167f8be0079c531659141344cd1fd0a4f28419497f9722a3daafe3b4186f6b6457e060405160405180910390a3505050565b5f7f9016d09d72d40fdae2fd8ceac6b6234c7706214fd39c1cd1e609a0528c199300905090565b5f7ff0c57e16840df040f15088dc2f81fe391c3923bec73e23a9662efc9c229c6a00905090565b611c29611d44565b611c3281611d84565b50565b5f60015f9054906101000a900473ffffffffffffffffffffffffffffffffffffffff1673ffffffffffffffffffffffffffffffffffffffff166370a08231306040518263ffffffff1660e01b8152600401611c909190611f97565b602060405180830381865afa158015611cab573d5f803e3d5ffd5b505050506040513d601f19601f82011682018060405250810190611ccf919061269f565b905090565b606084846040518060400160405280600181526020017f2e000000000000000000000000000000000000000000000000000000000000008152508585604051602001611d249594939291906126ff565b6040516020818303038152906040529050949350505050565b5f33905090565b611d4c611e08565b611d82576040517fd7e6bcf800000000000000000000000000000000000000000000000000000000815260040160405180910390fd5b565b611d8c611d44565b5f73ffffffffffffffffffffffffffffffffffffffff168173ffffffffffffffffffffffffffffffffffffffff1603611dfc575f6040517f1e4fbdf7000000000000000000000000000000000000000000000000000000008152600401611df39190611f97565b60405180910390fd5b611e0581611b02565b50565b5f611e11611bfa565b5f0160089054906101000a900460ff16905090565b5f80fd5b5f80fd5b5f80fd5b5f80fd5b5f80fd5b5f8083601f840112611e4f57611e4e611e2e565b5b8235905067ffffffffffffffff811115611e6c57611e6b611e32565b5b602083019150836001820283011115611e8857611e87611e36565b5b9250929050565b5f8060208385031215611ea557611ea4611e26565b5b5f83013567ffffffffffffffff811115611ec257611ec1611e2a565b5b611ece85828601611e3a565b92509250509250929050565b5f805f8060408587031215611ef257611ef1611e26565b5b5f85013567ffffffffffffffff811115611f0f57611f0e611e2a565b5b611f1b87828801611e3a565b9450945050602085013567ffffffffffffffff811115611f3e57611f3d611e2a565b5b611f4a87828801611e3a565b925092505092959194509250565b5f73ffffffffffffffffffffffffffffffffffffffff82169050919050565b5f611f8182611f58565b9050919050565b611f9181611f77565b82525050565b5f602082019050611faa5f830184611f88565b92915050565b5f819050919050565b611fc281611fb0565b82525050565b5f602082019050611fdb5f830184611fb9565b92915050565b611fea81611fb0565b8114611ff4575f80fd5b50565b5f8135905061200581611fe1565b92915050565b5f602082840312156120205761201f611e26565b5b5f61202d84828501611ff7565b91505092915050565b61203f81611f77565b8114612049575f80fd5b50565b5f8135905061205a81612036565b92915050565b5f805f6060848603121561207757612076611e26565b5b5f61208486828701611ff7565b93505060206120958682870161204c565b92505060406120a68682870161204c565b9150509250925092565b5f602082840312156120c5576120c4611e26565b5b5f6120d28482850161204c565b91505092915050565b5f6040820190506120ee5f830185611fb9565b6120fb6020830184611fb9565b9392505050565b5f81905092915050565b828183375f83830152505050565b5f6121258385612102565b935061213283858461210c565b82840190509392505050565b5f61214a82848661211a565b91508190509392505050565b5f82825260208201905092915050565b5f601f19601f8301169050919050565b5f6121818385612156565b935061218e83858461210c565b61219783612166565b840190509392505050565b5f6020820190508181035f8301526121bb818486612176565b90509392505050565b5f81519050919050565b5f5b838110156121eb5780820151818401526020810190506121d0565b5f8484015250505050565b5f612200826121c4565b61220a8185612102565b935061221a8185602086016121ce565b80840191505092915050565b5f61223182846121f6565b915081905092915050565b7f4e487b71000000000000000000000000000000000000000000000000000000005f52601160045260245ffd5b5f61227382611fb0565b915061227e83611fb0565b92508282019050808211156122965761229561223c565b5b92915050565b5f6122a6826121c4565b6122b08185612156565b93506122c08185602086016121ce565b6122c981612166565b840191505092915050565b5f6020820190508181035f8301526122ec818461229c565b905092915050565b5f6122fe82611fb0565b915061230983611fb0565b925082820261231781611fb0565b9150828204841483151761232e5761232d61223c565b5b5092915050565b7f4e487b71000000000000000000000000000000000000000000000000000000005f52601260045260245ffd5b5f61236c82611fb0565b915061237783611fb0565b92508261238757612386612335565b5b828204905092915050565b5f81905092915050565b50565b5f6123aa5f83612392565b91506123b58261239c565b5f82019050919050565b5f6123c98261239f565b9150819050919050565b5f81519050919050565b5f82825260208201905092915050565b5f6123f7826123d3565b61240181856123dd565b93506124118185602086016121ce565b61241a81612166565b840191505092915050565b5f6040820190506124385f830185611f88565b818103602083015261244a81846123ed565b90509392505050565b5f61245d82611fb0565b915061246883611fb0565b92508282039050818111156124805761247f61223c565b5b92915050565b5f6040820190506124995f830185611f88565b6124a66020830184611fb9565b9392505050565b5f8115159050919050565b6124c1816124ad565b81146124cb575f80fd5b50565b5f815190506124dc816124b8565b92915050565b5f602082840312156124f7576124f6611e26565b5b5f612504848285016124ce565b91505092915050565b5f819050919050565b5f67ffffffffffffffff82169050919050565b5f819050919050565b5f61254c6125476125428461250d565b612529565b612516565b9050919050565b61255c81612532565b82525050565b5f6020820190506125755f830184612553565b92915050565b5f69ffffffffffffffffffff82169050919050565b6125998161257b565b81146125a3575f80fd5b50565b5f815190506125b481612590565b92915050565b5f819050919050565b6125cc816125ba565b81146125d6575f80fd5b50565b5f815190506125e7816125c3565b92915050565b5f815190506125fb81611fe1565b92915050565b5f805f805f60a0868803121561261a57612619611e26565b5b5f612627888289016125a6565b9550506020612638888289016125d9565b9450506040612649888289016125ed565b935050606061265a888289016125ed565b925050608061266b888289016125a6565b9150509295509295909350565b5f60408201905061268b5f830185611f88565b6126986020830184611f88565b9392505050565b5f602082840312156126b4576126b3611e26565b5b5f6126c1848285016125ed565b91505092915050565b5f6060820190506126dd5f830186611f88565b6126ea6020830185611f88565b6126f76040830184611fb9565b949350505050565b5f61270b82878961211a565b915061271782866121f6565b915061272482848661211a565b9150819050969550505050505056fea2646970667358221220a5088f83ab460b3b84be6cf5b8c8c54c1bfcc8da753e91aa8120dff2889f460064736f6c63430008180033",
			"opcodes": "PUSH1 0x80 PUSH1 0x40 MSTORE CALLVALUE DUP1 ISZERO PUSH2 0xF JUMPI PUSH0 DUP1 REVERT JUMPDEST POP PUSH2 0x2769 DUP1 PUSH2 0x1D PUSH0 CODECOPY PUSH0 RETURN INVALID PUSH1 0x80 PUSH1 0x40 MSTORE PUSH1 0x4 CALLDATASIZE LT PUSH2 0xFD JUMPI PUSH0 CALLDATALOAD PUSH1 0xE0 SHR DUP1 PUSH4 0x82702FF4 GT PUSH2 0x94 JUMPI DUP1 PUSH4 0xB4988FD0 GT PUSH2 0x63 JUMPI DUP1 PUSH4 0xB4988FD0 EQ PUSH2 0x28F JUMPI DUP1 PUSH4 0xF2FDE38B EQ PUSH2 0x2B7 JUMPI DUP1 PUSH4 0xFBD43CAA EQ PUSH2 0x2DF JUMPI DUP1 PUSH4 0xFC8B2653 EQ PUSH2 0x2FB JUMPI DUP1 PUSH4 0xFEE84D4E EQ PUSH2 0x325 JUMPI PUSH2 0xFD JUMP JUMPDEST DUP1 PUSH4 0x82702FF4 EQ PUSH2 0x211 JUMPI DUP1 PUSH4 0x8DA5CB5B EQ PUSH2 0x227 JUMPI DUP1 PUSH4 0xA0EF91DF EQ PUSH2 0x251 JUMPI DUP1 PUSH4 0xA2B40D19 EQ PUSH2 0x267 JUMPI PUSH2 0xFD JUMP JUMPDEST DUP1 PUSH4 0x37EE4B47 GT PUSH2 0xD0 JUMPI DUP1 PUSH4 0x37EE4B47 EQ PUSH2 0x19F JUMPI DUP1 PUSH4 0x559AAE74 EQ PUSH2 0x1BB JUMPI DUP1 PUSH4 0x59E41286 EQ PUSH2 0x1D1 JUMPI DUP1 PUSH4 0x715018A6 EQ PUSH2 0x1FB JUMPI PUSH2 0xFD JUMP JUMPDEST DUP1 PUSH4 0x1B0E17A3 EQ PUSH2 0x101 JUMPI DUP1 PUSH4 0x225068C2 EQ PUSH2 0x11D JUMPI DUP1 PUSH4 0x25970115 EQ PUSH2 0x139 JUMPI DUP1 PUSH4 0x2DD398B5 EQ PUSH2 0x175 JUMPI JUMPDEST PUSH0 DUP1 REVERT JUMPDEST PUSH2 0x11B PUSH1 0x4 DUP1 CALLDATASIZE SUB DUP2 ADD SWAP1 PUSH2 0x116 SWAP2 SWAP1 PUSH2 0x1E8F JUMP JUMPDEST PUSH2 0x33B JUMP JUMPDEST STOP JUMPDEST PUSH2 0x137 PUSH1 0x4 DUP1 CALLDATASIZE SUB DUP2 ADD SWAP1 PUSH2 0x132 SWAP2 SWAP1 PUSH2 0x1EDA JUMP JUMPDEST PUSH2 0x4F9 JUMP JUMPDEST STOP JUMPDEST CALLVALUE DUP1 ISZERO PUSH2 0x144 JUMPI PUSH0 DUP1 REVERT JUMPDEST POP PUSH2 0x15F PUSH1 0x4 DUP1 CALLDATASIZE SUB DUP2 ADD SWAP1 PUSH2 0x15A SWAP2 SWAP1 PUSH2 0x1E8F JUMP JUMPDEST PUSH2 0x6FC JUMP JUMPDEST PUSH1 0x40 MLOAD PUSH2 0x16C SWAP2 SWAP1 PUSH2 0x1F97 JUMP JUMPDEST PUSH1 0x40 MLOAD DUP1 SWAP2 SUB SWAP1 RETURN JUMPDEST CALLVALUE DUP1 ISZERO PUSH2 0x180 JUMPI PUSH0 DUP1 REVERT JUMPDEST POP PUSH2 0x189 PUSH2 0x74E JUMP JUMPDEST PUSH1 0x40 MLOAD PUSH2 0x196 SWAP2 SWAP1 PUSH2 0x1FC8 JUMP JUMPDEST PUSH1 0x40 MLOAD DUP1 SWAP2 SUB SWAP1 RETURN JUMPDEST PUSH2 0x1B9 PUSH1 0x4 DUP1 CALLDATASIZE SUB DUP2 ADD SWAP1 PUSH2 0x1B4 SWAP2 SWAP1 PUSH2 0x1EDA JUMP JUMPDEST PUSH2 0x790 JUMP JUMPDEST STOP JUMPDEST CALLVALUE DUP1 ISZERO PUSH2 0x1C6 JUMPI PUSH0 DUP1 REVERT JUMPDEST POP PUSH2 0x1CF PUSH2 0x96F JUMP JUMPDEST STOP JUMPDEST CALLVALUE DUP1 ISZERO PUSH2 0x1DC JUMPI PUSH0 DUP1 REVERT JUMPDEST POP PUSH2 0x1E5 PUSH2 0xC21 JUMP JUMPDEST PUSH1 0x40 MLOAD PUSH2 0x1F2 SWAP2 SWAP1 PUSH2 0x1FC8 JUMP JUMPDEST PUSH1 0x40 MLOAD DUP1 SWAP2 SUB SWAP1 RETURN JUMPDEST CALLVALUE DUP1 ISZERO PUSH2 0x206 JUMPI PUSH0 DUP1 REVERT JUMPDEST POP PUSH2 0x20F PUSH2 0xC32 JUMP JUMPDEST STOP JUMPDEST CALLVALUE DUP1 ISZERO PUSH2 0x21C JUMPI PUSH0 DUP1 REVERT JUMPDEST POP PUSH2 0x225 PUSH2 0xC45 JUMP JUMPDEST STOP JUMPDEST CALLVALUE DUP1 ISZERO PUSH2 0x232 JUMPI PUSH0 DUP1 REVERT JUMPDEST POP PUSH2 0x23B PUSH2 0xE5D JUMP JUMPDEST PUSH1 0x40 MLOAD PUSH2 0x248 SWAP2 SWAP1 PUSH2 0x1F97 JUMP JUMPDEST PUSH1 0x40 MLOAD DUP1 SWAP2 SUB SWAP1 RETURN JUMPDEST CALLVALUE DUP1 ISZERO PUSH2 0x25C JUMPI PUSH0 DUP1 REVERT JUMPDEST POP PUSH2 0x265 PUSH2 0xE92 JUMP JUMPDEST STOP JUMPDEST CALLVALUE DUP1 ISZERO PUSH2 0x272 JUMPI PUSH0 DUP1 REVERT JUMPDEST POP PUSH2 0x28D PUSH1 0x4 DUP1 CALLDATASIZE SUB DUP2 ADD SWAP1 PUSH2 0x288 SWAP2 SWAP1 PUSH2 0x200B JUMP JUMPDEST PUSH2 0xFFF JUMP JUMPDEST STOP JUMPDEST CALLVALUE DUP1 ISZERO PUSH2 0x29A JUMPI PUSH0 DUP1 REVERT JUMPDEST POP PUSH2 0x2B5 PUSH1 0x4 DUP1 CALLDATASIZE SUB DUP2 ADD SWAP1 PUSH2 0x2B0 SWAP2 SWAP1 PUSH2 0x2060 JUMP JUMPDEST PUSH2 0x10A2 JUMP JUMPDEST STOP JUMPDEST CALLVALUE DUP1 ISZERO PUSH2 0x2C2 JUMPI PUSH0 DUP1 REVERT JUMPDEST POP PUSH2 0x2DD PUSH1 0x4 DUP1 CALLDATASIZE SUB DUP2 ADD SWAP1 PUSH2 0x2D8 SWAP2 SWAP1 PUSH2 0x20B0 JUMP JUMPDEST PUSH2 0x12B3 JUMP JUMPDEST STOP JUMPDEST PUSH2 0x2F9 PUSH1 0x4 DUP1 CALLDATASIZE SUB DUP2 ADD SWAP1 PUSH2 0x2F4 SWAP2 SWAP1 PUSH2 0x1E8F JUMP JUMPDEST PUSH2 0x1337 JUMP JUMPDEST STOP JUMPDEST CALLVALUE DUP1 ISZERO PUSH2 0x306 JUMPI PUSH0 DUP1 REVERT JUMPDEST POP PUSH2 0x30F PUSH2 0x1519 JUMP JUMPDEST PUSH1 0x40 MLOAD PUSH2 0x31C SWAP2 SWAP1 PUSH2 0x1FC8 JUMP JUMPDEST PUSH1 0x40 MLOAD DUP1 SWAP2 SUB SWAP1 RETURN JUMPDEST CALLVALUE DUP1 ISZERO PUSH2 0x330 JUMPI PUSH0 DUP1 REVERT JUMPDEST POP PUSH2 0x339 PUSH2 0x15EE JUMP JUMPDEST STOP JUMPDEST PUSH0 PUSH2 0x344 PUSH2 0x74E JUMP JUMPDEST SWAP1 POP DUP1 CALLVALUE EQ PUSH2 0x38C JUMPI CALLVALUE DUP2 PUSH1 0x40 MLOAD PUSH32 0xBE7B9D4D00000000000000000000000000000000000000000000000000000000 DUP2 MSTORE PUSH1 0x4 ADD PUSH2 0x383 SWAP3 SWAP2 SWAP1 PUSH2 0x20DB JUMP JUMPDEST PUSH1 0x40 MLOAD DUP1 SWAP2 SUB SWAP1 REVERT JUMPDEST DUP3 DUP3 PUSH0 PUSH20 0xFFFFFFFFFFFFFFFFFFFFFFFFFFFFFFFFFFFFFFFF AND PUSH2 0x3AD PUSH2 0x1741 JUMP JUMPDEST PUSH1 0x1 ADD DUP4 DUP4 PUSH1 0x40 MLOAD PUSH2 0x3C0 SWAP3 SWAP2 SWAP1 PUSH2 0x213E JUMP JUMPDEST SWAP1 DUP2 MSTORE PUSH1 0x20 ADD PUSH1 0x40 MLOAD DUP1 SWAP2 SUB SWAP1 KECCAK256 PUSH0 SWAP1 SLOAD SWAP1 PUSH2 0x100 EXP SWAP1 DIV PUSH20 0xFFFFFFFFFFFFFFFFFFFFFFFFFFFFFFFFFFFFFFFF AND PUSH20 0xFFFFFFFFFFFFFFFFFFFFFFFFFFFFFFFFFFFFFFFF AND EQ PUSH2 0x43B JUMPI PUSH1 0x40 MLOAD PUSH32 0xC5E8402D00000000000000000000000000000000000000000000000000000000 DUP2 MSTORE PUSH1 0x4 ADD PUSH1 0x40 MLOAD DUP1 SWAP2 SUB SWAP1 REVERT JUMPDEST CALLER PUSH2 0x444 PUSH2 0x1741 JUMP JUMPDEST PUSH1 0x1 ADD DUP7 DUP7 PUSH1 0x40 MLOAD PUSH2 0x457 SWAP3 SWAP2 SWAP1 PUSH2 0x213E JUMP JUMPDEST SWAP1 DUP2 MSTORE PUSH1 0x20 ADD PUSH1 0x40 MLOAD DUP1 SWAP2 SUB SWAP1 KECCAK256 PUSH0 PUSH2 0x100 EXP DUP2 SLOAD DUP2 PUSH20 0xFFFFFFFFFFFFFFFFFFFFFFFFFFFFFFFFFFFFFFFF MUL NOT AND SWAP1 DUP4 PUSH20 0xFFFFFFFFFFFFFFFFFFFFFFFFFFFFFFFFFFFFFFFF AND MUL OR SWAP1 SSTORE POP CALLER PUSH20 0xFFFFFFFFFFFFFFFFFFFFFFFFFFFFFFFFFFFFFFFF AND PUSH32 0x70F2FF07E8136617CDFB0433423063C9DD697C507560D7860CCE09FA86874A12 DUP7 DUP7 PUSH1 0x40 MLOAD PUSH2 0x4EA SWAP3 SWAP2 SWAP1 PUSH2 0x21A2 JUMP JUMPDEST PUSH1 0x40 MLOAD DUP1 SWAP2 SUB SWAP1 LOG2 POP POP POP POP POP JUMP JUMPDEST PUSH0 PUSH2 0x502 PUSH2 0x1768 JUMP JUMPDEST SWAP1 POP PUSH0 PUSH2 0x50D PUSH2 0x1741 JUMP JUMPDEST PUSH0 ADD SLOAD SWAP1 POP DUP1 DUP3 EQ PUSH2 0x558 JUMPI DUP2 DUP2 PUSH1 0x40 MLOAD PUSH32 0x35A0E0000000000000000000000000000000000000000000000000000000000 DUP2 MSTORE PUSH1 0x4 ADD PUSH2 0x54F SWAP3 SWAP2 SWAP1 PUSH2 0x20DB JUMP JUMPDEST PUSH1 0x40 MLOAD DUP1 SWAP2 SUB SWAP1 REVERT JUMPDEST PUSH0 PUSH2 0x565 DUP8 DUP8 DUP8 DUP8 PUSH2 0x1809 JUMP JUMPDEST SWAP1 POP PUSH0 PUSH2 0x570 PUSH2 0x1768 JUMP JUMPDEST SWAP1 POP PUSH2 0x57B DUP2 PUSH2 0x198B JUMP JUMPDEST CALLER PUSH2 0x584 PUSH2 0x1741 JUMP JUMPDEST PUSH1 0x1 ADD DUP4 PUSH1 0x40 MLOAD PUSH2 0x595 SWAP2 SWAP1 PUSH2 0x2226 JUMP JUMPDEST SWAP1 DUP2 MSTORE PUSH1 0x20 ADD PUSH1 0x40 MLOAD DUP1 SWAP2 SUB SWAP1 KECCAK256 PUSH0 PUSH2 0x100 EXP DUP2 SLOAD DUP2 PUSH20 0xFFFFFFFFFFFFFFFFFFFFFFFFFFFFFFFFFFFFFFFF MUL NOT AND SWAP1 DUP4 PUSH20 0xFFFFFFFFFFFFFFFFFFFFFFFFFFFFFFFFFFFFFFFF AND MUL OR SWAP1 SSTORE POP DUP1 PUSH2 0x5E9 PUSH2 0x1A2D JUMP JUMPDEST PUSH0 ADD PUSH0 DUP3 DUP3 SLOAD PUSH2 0x5F9 SWAP2 SWAP1 PUSH2 0x2269 JUMP JUMPDEST SWAP3 POP POP DUP2 SWAP1 SSTORE POP DUP1 PUSH2 0x609 PUSH2 0x1A2D JUMP JUMPDEST PUSH1 0x1 ADD PUSH0 PUSH2 0x615 PUSH2 0x1741 JUMP JUMPDEST PUSH1 0x1 ADD DUP12 DUP12 PUSH1 0x40 MLOAD PUSH2 0x628 SWAP3 SWAP2 SWAP1 PUSH2 0x213E JUMP JUMPDEST SWAP1 DUP2 MSTORE PUSH1 0x20 ADD PUSH1 0x40 MLOAD DUP1 SWAP2 SUB SWAP1 KECCAK256 PUSH0 SWAP1 SLOAD SWAP1 PUSH2 0x100 EXP SWAP1 DIV PUSH20 0xFFFFFFFFFFFFFFFFFFFFFFFFFFFFFFFFFFFFFFFF AND PUSH20 0xFFFFFFFFFFFFFFFFFFFFFFFFFFFFFFFFFFFFFFFF AND PUSH20 0xFFFFFFFFFFFFFFFFFFFFFFFFFFFFFFFFFFFFFFFF AND DUP2 MSTORE PUSH1 0x20 ADD SWAP1 DUP2 MSTORE PUSH1 0x20 ADD PUSH0 KECCAK256 PUSH0 DUP3 DUP3 SLOAD PUSH2 0x69D SWAP2 SWAP1 PUSH2 0x2269 JUMP JUMPDEST SWAP3 POP POP DUP2 SWAP1 SSTORE POP CALLER PUSH20 0xFFFFFFFFFFFFFFFFFFFFFFFFFFFFFFFFFFFFFFFF AND PUSH32 0x70F2FF07E8136617CDFB0433423063C9DD697C507560D7860CCE09FA86874A12 DUP4 PUSH1 0x40 MLOAD PUSH2 0x6EA SWAP2 SWAP1 PUSH2 0x22D4 JUMP JUMPDEST PUSH1 0x40 MLOAD DUP1 SWAP2 SUB SWAP1 LOG2 POP POP POP POP POP POP POP POP JUMP JUMPDEST PUSH0 PUSH2 0x705 PUSH2 0x1741 JUMP JUMPDEST PUSH1 0x1 ADD DUP4 DUP4 PUSH1 0x40 MLOAD PUSH2 0x718 SWAP3 SWAP2 SWAP1 PUSH2 0x213E JUMP JUMPDEST SWAP1 DUP2 MSTORE PUSH1 0x20 ADD PUSH1 0x40 MLOAD DUP1 SWAP2 SUB SWAP1 KECCAK256 PUSH0 SWAP1 SLOAD SWAP1 PUSH2 0x100 EXP SWAP1 DIV PUSH20 0xFFFFFFFFFFFFFFFFFFFFFFFFFFFFFFFFFFFFFFFF AND SWAP1 POP SWAP3 SWAP2 POP POP JUMP JUMPDEST PUSH0 PUSH2 0x757 PUSH2 0x1519 JUMP JUMPDEST PUSH8 0xDE0B6B3A7640000 PUSH1 0x64 PUSH2 0x76A PUSH2 0x1741 JUMP JUMPDEST PUSH0 ADD SLOAD PUSH2 0x777 SWAP2 SWAP1 PUSH2 0x22F4 JUMP JUMPDEST PUSH2 0x781 SWAP2 SWAP1 PUSH2 0x22F4 JUMP JUMPDEST PUSH2 0x78B SWAP2 SWAP1 PUSH2 0x2362 JUMP JUMPDEST SWAP1 POP SWAP1 JUMP JUMPDEST PUSH0 PUSH2 0x799 PUSH2 0x74E JUMP JUMPDEST SWAP1 POP DUP1 CALLVALUE EQ PUSH2 0x7E1 JUMPI CALLVALUE DUP2 PUSH1 0x40 MLOAD PUSH32 0xBE7B9D4D00000000000000000000000000000000000000000000000000000000 DUP2 MSTORE PUSH1 0x4 ADD PUSH2 0x7D8 SWAP3 SWAP2 SWAP1 PUSH2 0x20DB JUMP JUMPDEST PUSH1 0x40 MLOAD DUP1 SWAP2 SUB SWAP1 REVERT JUMPDEST PUSH0 PUSH2 0x7EE DUP7 DUP7 DUP7 DUP7 PUSH2 0x1809 JUMP JUMPDEST SWAP1 POP CALLER PUSH2 0x7F9 PUSH2 0x1741 JUMP JUMPDEST PUSH1 0x1 ADD DUP3 PUSH1 0x40 MLOAD PUSH2 0x80A SWAP2 SWAP1 PUSH2 0x2226 JUMP JUMPDEST SWAP1 DUP2 MSTORE PUSH1 0x20 ADD PUSH1 0x40 MLOAD DUP1 SWAP2 SUB SWAP1 KECCAK256 PUSH0 PUSH2 0x100 EXP DUP2 SLOAD DUP2 PUSH20 0xFFFFFFFFFFFFFFFFFFFFFFFFFFFFFFFFFFFFFFFF MUL NOT AND SWAP1 DUP4 PUSH20 0xFFFFFFFFFFFFFFFFFFFFFFFFFFFFFFFFFFFFFFFF AND MUL OR SWAP1 SSTORE POP CALLVALUE PUSH2 0x85E PUSH2 0x1A54 JUMP JUMPDEST PUSH0 ADD PUSH0 DUP3 DUP3 SLOAD PUSH2 0x86E SWAP2 SWAP1 PUSH2 0x2269 JUMP JUMPDEST SWAP3 POP POP DUP2 SWAP1 SSTORE POP CALLVALUE PUSH2 0x87E PUSH2 0x1A54 JUMP JUMPDEST PUSH1 0x1 ADD PUSH0 PUSH2 0x88A PUSH2 0x1741 JUMP JUMPDEST PUSH1 0x1 ADD DUP10 DUP10 PUSH1 0x40 MLOAD PUSH2 0x89D SWAP3 SWAP2 SWAP1 PUSH2 0x213E JUMP JUMPDEST SWAP1 DUP2 MSTORE PUSH1 0x20 ADD PUSH1 0x40 MLOAD DUP1 SWAP2 SUB SWAP1 KECCAK256 PUSH0 SWAP1 SLOAD SWAP1 PUSH2 0x100 EXP SWAP1 DIV PUSH20 0xFFFFFFFFFFFFFFFFFFFFFFFFFFFFFFFFFFFFFFFF AND PUSH20 0xFFFFFFFFFFFFFFFFFFFFFFFFFFFFFFFFFFFFFFFF AND PUSH20 0xFFFFFFFFFFFFFFFFFFFFFFFFFFFFFFFFFFFFFFFF AND DUP2 MSTORE PUSH1 0x20 ADD SWAP1 DUP2 MSTORE PUSH1 0x20 ADD PUSH0 KECCAK256 PUSH0 DUP3 DUP3 SLOAD PUSH2 0x912 SWAP2 SWAP1 PUSH2 0x2269 JUMP JUMPDEST SWAP3 POP POP DUP2 SWAP1 SSTORE POP CALLER PUSH20 0xFFFFFFFFFFFFFFFFFFFFFFFFFFFFFFFFFFFFFFFF AND PUSH32 0x70F2FF07E8136617CDFB0433423063C9DD697C507560D7860CCE09FA86874A12 DUP3 PUSH1 0x40 MLOAD PUSH2 0x95F SWAP2 SWAP1 PUSH2 0x22D4 JUMP JUMPDEST PUSH1 0x40 MLOAD DUP1 SWAP2 SUB SWAP1 LOG2 POP POP POP POP POP POP JUMP JUMPDEST PUSH0 PUSH2 0x978 PUSH2 0x1A54 JUMP JUMPDEST PUSH1 0x1 ADD PUSH0 CALLER PUSH20 0xFFFFFFFFFFFFFFFFFFFFFFFFFFFFFFFFFFFFFFFF AND PUSH20 0xFFFFFFFFFFFFFFFFFFFFFFFFFFFFFFFFFFFFFFFF AND DUP2 MSTORE PUSH1 0x20 ADD SWAP1 DUP2 MSTORE PUSH1 0x20 ADD PUSH0 KECCAK256 SLOAD SUB PUSH2 0x9F9 JUMPI CALLER PUSH1 0x40 MLOAD PUSH32 0xDC69DC1600000000000000000000000000000000000000000000000000000000 DUP2 MSTORE PUSH1 0x4 ADD PUSH2 0x9F0 SWAP2 SWAP1 PUSH2 0x1F97 JUMP JUMPDEST PUSH1 0x40 MLOAD DUP1 SWAP2 SUB SWAP1 REVERT JUMPDEST PUSH0 DUP1 CALLER PUSH20 0xFFFFFFFFFFFFFFFFFFFFFFFFFFFFFFFFFFFFFFFF AND PUSH2 0xA1A PUSH2 0x1A54 JUMP JUMPDEST PUSH1 0x1 ADD PUSH0 CALLER PUSH20 0xFFFFFFFFFFFFFFFFFFFFFFFFFFFFFFFFFFFFFFFF AND PUSH20 0xFFFFFFFFFFFFFFFFFFFFFFFFFFFFFFFFFFFFFFFF AND DUP2 MSTORE PUSH1 0x20 ADD SWAP1 DUP2 MSTORE PUSH1 0x20 ADD PUSH0 KECCAK256 SLOAD PUSH1 0x40 MLOAD PUSH2 0xA65 SWAP1 PUSH2 0x23BF JUMP JUMPDEST PUSH0 PUSH1 0x40 MLOAD DUP1 DUP4 SUB DUP2 DUP6 DUP8 GAS CALL SWAP3 POP POP POP RETURNDATASIZE DUP1 PUSH0 DUP2 EQ PUSH2 0xA9F JUMPI PUSH1 0x40 MLOAD SWAP2 POP PUSH1 0x1F NOT PUSH1 0x3F RETURNDATASIZE ADD AND DUP3 ADD PUSH1 0x40 MSTORE RETURNDATASIZE DUP3 MSTORE RETURNDATASIZE PUSH0 PUSH1 0x20 DUP5 ADD RETURNDATACOPY PUSH2 0xAA4 JUMP JUMPDEST PUSH1 0x60 SWAP2 POP JUMPDEST POP SWAP2 POP SWAP2 POP DUP2 PUSH2 0xAED JUMPI CALLER DUP2 PUSH1 0x40 MLOAD PUSH32 0x7824688C00000000000000000000000000000000000000000000000000000000 DUP2 MSTORE PUSH1 0x4 ADD PUSH2 0xAE4 SWAP3 SWAP2 SWAP1 PUSH2 0x2425 JUMP JUMPDEST PUSH1 0x40 MLOAD DUP1 SWAP2 SUB SWAP1 REVERT JUMPDEST PUSH2 0xAF5 PUSH2 0x1A54 JUMP JUMPDEST PUSH1 0x1 ADD PUSH0 CALLER PUSH20 0xFFFFFFFFFFFFFFFFFFFFFFFFFFFFFFFFFFFFFFFF AND PUSH20 0xFFFFFFFFFFFFFFFFFFFFFFFFFFFFFFFFFFFFFFFF AND DUP2 MSTORE PUSH1 0x20 ADD SWAP1 DUP2 MSTORE PUSH1 0x20 ADD PUSH0 KECCAK256 SLOAD PUSH2 0xB3C PUSH2 0x1A54 JUMP JUMPDEST PUSH0 ADD PUSH0 DUP3 DUP3 SLOAD PUSH2 0xB4C SWAP2 SWAP1 PUSH2 0x2453 JUMP JUMPDEST SWAP3 POP POP DUP2 SWAP1 SSTORE POP PUSH0 PUSH2 0xB5C PUSH2 0x1A54 JUMP JUMPDEST PUSH1 0x1 ADD PUSH0 CALLER PUSH20 0xFFFFFFFFFFFFFFFFFFFFFFFFFFFFFFFFFFFFFFFF AND PUSH20 0xFFFFFFFFFFFFFFFFFFFFFFFFFFFFFFFFFFFFFFFF AND DUP2 MSTORE PUSH1 0x20 ADD SWAP1 DUP2 MSTORE PUSH1 0x20 ADD PUSH0 KECCAK256 DUP2 SWAP1 SSTORE POP PUSH32 0x7FCF532C15F0A6DB0BD6D0E038BEA71D30D808C7D98CB3BF7268A95BF5081B65 CALLER PUSH2 0xBC8 PUSH2 0x1A54 JUMP JUMPDEST PUSH1 0x1 ADD PUSH0 CALLER PUSH20 0xFFFFFFFFFFFFFFFFFFFFFFFFFFFFFFFFFFFFFFFF AND PUSH20 0xFFFFFFFFFFFFFFFFFFFFFFFFFFFFFFFFFFFFFFFF AND DUP2 MSTORE PUSH1 0x20 ADD SWAP1 DUP2 MSTORE PUSH1 0x20 ADD PUSH0 KECCAK256 SLOAD PUSH1 0x40 MLOAD PUSH2 0xC15 SWAP3 SWAP2 SWAP1 PUSH2 0x2486 JUMP JUMPDEST PUSH1 0x40 MLOAD DUP1 SWAP2 SUB SWAP1 LOG1 POP POP JUMP JUMPDEST PUSH0 PUSH2 0xC2A PUSH2 0x1741 JUMP JUMPDEST PUSH0 ADD SLOAD SWAP1 POP SWAP1 JUMP JUMPDEST PUSH2 0xC3A PUSH2 0x1A7B JUMP JUMPDEST PUSH2 0xC43 PUSH0 PUSH2 0x1B02 JUMP JUMPDEST JUMP JUMPDEST PUSH0 PUSH2 0xC4E PUSH2 0x1A2D JUMP JUMPDEST PUSH1 0x1 ADD PUSH0 CALLER PUSH20 0xFFFFFFFFFFFFFFFFFFFFFFFFFFFFFFFFFFFFFFFF AND PUSH20 0xFFFFFFFFFFFFFFFFFFFFFFFFFFFFFFFFFFFFFFFF AND DUP2 MSTORE PUSH1 0x20 ADD SWAP1 DUP2 MSTORE PUSH1 0x20 ADD PUSH0 KECCAK256 SLOAD SUB PUSH2 0xCCF JUMPI CALLER PUSH1 0x40 MLOAD PUSH32 0xDC69DC1600000000000000000000000000000000000000000000000000000000 DUP2 MSTORE PUSH1 0x4 ADD PUSH2 0xCC6 SWAP2 SWAP1 PUSH2 0x1F97 JUMP JUMPDEST PUSH1 0x40 MLOAD DUP1 SWAP2 SUB SWAP1 REVERT JUMPDEST PUSH0 PUSH2 0xCD8 PUSH2 0x1A54 JUMP JUMPDEST PUSH1 0x1 ADD PUSH0 CALLER PUSH20 0xFFFFFFFFFFFFFFFFFFFFFFFFFFFFFFFFFFFFFFFF AND PUSH20 0xFFFFFFFFFFFFFFFFFFFFFFFFFFFFFFFFFFFFFFFF AND DUP2 MSTORE PUSH1 0x20 ADD SWAP1 DUP2 MSTORE PUSH1 0x20 ADD PUSH0 KECCAK256 SLOAD SWAP1 POP PUSH1 0x1 PUSH0 SWAP1 SLOAD SWAP1 PUSH2 0x100 EXP SWAP1 DIV PUSH20 0xFFFFFFFFFFFFFFFFFFFFFFFFFFFFFFFFFFFFFFFF AND PUSH20 0xFFFFFFFFFFFFFFFFFFFFFFFFFFFFFFFFFFFFFFFF AND PUSH4 0xA9059CBB CALLER DUP4 PUSH1 0x40 MLOAD DUP4 PUSH4 0xFFFFFFFF AND PUSH1 0xE0 SHL DUP2 MSTORE PUSH1 0x4 ADD PUSH2 0xD75 SWAP3 SWAP2 SWAP1 PUSH2 0x2486 JUMP JUMPDEST PUSH1 0x20 PUSH1 0x40 MLOAD DUP1 DUP4 SUB DUP2 PUSH0 DUP8 GAS CALL ISZERO DUP1 ISZERO PUSH2 0xD91 JUMPI RETURNDATASIZE PUSH0 DUP1 RETURNDATACOPY RETURNDATASIZE PUSH0 REVERT JUMPDEST POP POP POP POP PUSH1 0x40 MLOAD RETURNDATASIZE PUSH1 0x1F NOT PUSH1 0x1F DUP3 ADD AND DUP3 ADD DUP1 PUSH1 0x40 MSTORE POP DUP2 ADD SWAP1 PUSH2 0xDB5 SWAP2 SWAP1 PUSH2 0x24E2 JUMP JUMPDEST POP DUP1 PUSH2 0xDBF PUSH2 0x1A54 JUMP JUMPDEST PUSH0 ADD PUSH0 DUP3 DUP3 SLOAD PUSH2 0xDCF SWAP2 SWAP1 PUSH2 0x2453 JUMP JUMPDEST SWAP3 POP POP DUP2 SWAP1 SSTORE POP PUSH0 PUSH2 0xDDF PUSH2 0x1A54 JUMP JUMPDEST PUSH1 0x1 ADD PUSH0 CALLER PUSH20 0xFFFFFFFFFFFFFFFFFFFFFFFFFFFFFFFFFFFFFFFF AND PUSH20 0xFFFFFFFFFFFFFFFFFFFFFFFFFFFFFFFFFFFFFFFF AND DUP2 MSTORE PUSH1 0x20 ADD SWAP1 DUP2 MSTORE PUSH1 0x20 ADD PUSH0 KECCAK256 DUP2 SWAP1 SSTORE POP PUSH32 0x7FCF532C15F0A6DB0BD6D0E038BEA71D30D808C7D98CB3BF7268A95BF5081B65 CALLER DUP3 PUSH1 0x40 MLOAD PUSH2 0xE52 SWAP3 SWAP2 SWAP1 PUSH2 0x2486 JUMP JUMPDEST PUSH1 0x40 MLOAD DUP1 SWAP2 SUB SWAP1 LOG1 POP JUMP JUMPDEST PUSH0 DUP1 PUSH2 0xE67 PUSH2 0x1BD3 JUMP JUMPDEST SWAP1 POP DUP1 PUSH0 ADD PUSH0 SWAP1 SLOAD SWAP1 PUSH2 0x100 EXP SWAP1 DIV PUSH20 0xFFFFFFFFFFFFFFFFFFFFFFFFFFFFFFFFFFFFFFFF AND SWAP2 POP POP SWAP1 JUMP JUMPDEST PUSH2 0xE9A PUSH2 0x1A7B JUMP JUMPDEST PUSH0 PUSH2 0xEA3 PUSH2 0x1A54 JUMP JUMPDEST PUSH0 ADD SLOAD SELFBALANCE PUSH2 0xEB1 SWAP2 SWAP1 PUSH2 0x2453 JUMP JUMPDEST SWAP1 POP PUSH0 DUP2 SUB PUSH2 0xEFE JUMPI PUSH2 0xEC2 PUSH2 0xE5D JUMP JUMPDEST PUSH1 0x40 MLOAD PUSH32 0xDC69DC1600000000000000000000000000000000000000000000000000000000 DUP2 MSTORE PUSH1 0x4 ADD PUSH2 0xEF5 SWAP2 SWAP1 PUSH2 0x1F97 JUMP JUMPDEST PUSH1 0x40 MLOAD DUP1 SWAP2 SUB SWAP1 REVERT JUMPDEST PUSH0 DUP1 PUSH2 0xF08 PUSH2 0xE5D JUMP JUMPDEST PUSH20 0xFFFFFFFFFFFFFFFFFFFFFFFFFFFFFFFFFFFFFFFF AND DUP4 PUSH1 0x40 MLOAD PUSH2 0xF2B SWAP1 PUSH2 0x23BF JUMP JUMPDEST PUSH0 PUSH1 0x40 MLOAD DUP1 DUP4 SUB DUP2 DUP6 DUP8 GAS CALL SWAP3 POP POP POP RETURNDATASIZE DUP1 PUSH0 DUP2 EQ PUSH2 0xF65 JUMPI PUSH1 0x40 MLOAD SWAP2 POP PUSH1 0x1F NOT PUSH1 0x3F RETURNDATASIZE ADD AND DUP3 ADD PUSH1 0x40 MSTORE RETURNDATASIZE DUP3 MSTORE RETURNDATASIZE PUSH0 PUSH1 0x20 DUP5 ADD RETURNDATACOPY PUSH2 0xF6A JUMP JUMPDEST PUSH1 0x60 SWAP2 POP JUMPDEST POP SWAP2 POP SWAP2 POP DUP2 PUSH2 0xFBA JUMPI PUSH2 0xF7C PUSH2 0xE5D JUMP JUMPDEST DUP2 PUSH1 0x40 MLOAD PUSH32 0x7824688C00000000000000000000000000000000000000000000000000000000 DUP2 MSTORE PUSH1 0x4 ADD PUSH2 0xFB1 SWAP3 SWAP2 SWAP1 PUSH2 0x2425 JUMP JUMPDEST PUSH1 0x40 MLOAD DUP1 SWAP2 SUB SWAP1 REVERT JUMPDEST PUSH32 0x7FCF532C15F0A6DB0BD6D0E038BEA71D30D808C7D98CB3BF7268A95BF5081B65 PUSH2 0xFE3 PUSH2 0xE5D JUMP JUMPDEST DUP5 PUSH1 0x40 MLOAD PUSH2 0xFF2 SWAP3 SWAP2 SWAP1 PUSH2 0x2486 JUMP JUMPDEST PUSH1 0x40 MLOAD DUP1 SWAP2 SUB SWAP1 LOG1 POP POP POP JUMP JUMPDEST PUSH2 0x1007 PUSH2 0x1A7B JUMP JUMPDEST DUP1 PUSH0 DUP2 SUB PUSH2 0x1058 JUMPI DUP1 PUSH2 0x1018 PUSH2 0x1741 JUMP JUMPDEST PUSH0 ADD SLOAD PUSH1 0x40 MLOAD PUSH32 0xD090DD0600000000000000000000000000000000000000000000000000000000 DUP2 MSTORE PUSH1 0x4 ADD PUSH2 0x104F SWAP3 SWAP2 SWAP1 PUSH2 0x20DB JUMP JUMPDEST PUSH1 0x40 MLOAD DUP1 SWAP2 SUB SWAP1 REVERT JUMPDEST DUP2 PUSH2 0x1061 PUSH2 0x1741 JUMP JUMPDEST PUSH0 ADD DUP2 SWAP1 SSTORE POP PUSH32 0xA6DC15BDB68DA224C66DB4B3838D9A2B205138E8CFF6774E57D0AF91E196D622 DUP3 PUSH1 0x40 MLOAD PUSH2 0x1096 SWAP2 SWAP1 PUSH2 0x1FC8 JUMP JUMPDEST PUSH1 0x40 MLOAD DUP1 SWAP2 SUB SWAP1 LOG1 POP POP JUMP JUMPDEST PUSH0 PUSH2 0x10AB PUSH2 0x1BFA JUMP JUMPDEST SWAP1 POP PUSH0 DUP2 PUSH0 ADD PUSH1 0x8 SWAP1 SLOAD SWAP1 PUSH2 0x100 EXP SWAP1 DIV PUSH1 0xFF AND ISZERO SWAP1 POP PUSH0 DUP3 PUSH0 ADD PUSH0 SWAP1 SLOAD SWAP1 PUSH2 0x100 EXP SWAP1 DIV PUSH8 0xFFFFFFFFFFFFFFFF AND SWAP1 POP PUSH0 DUP1 DUP3 PUSH8 0xFFFFFFFFFFFFFFFF AND EQ DUP1 ISZERO PUSH2 0x10F3 JUMPI POP DUP3 JUMPDEST SWAP1 POP PUSH0 PUSH1 0x1 DUP4 PUSH8 0xFFFFFFFFFFFFFFFF AND EQ DUP1 ISZERO PUSH2 0x1126 JUMPI POP PUSH0 ADDRESS PUSH20 0xFFFFFFFFFFFFFFFFFFFFFFFFFFFFFFFFFFFFFFFF AND EXTCODESIZE EQ JUMPDEST SWAP1 POP DUP2 ISZERO DUP1 ISZERO PUSH2 0x1134 JUMPI POP DUP1 ISZERO JUMPDEST ISZERO PUSH2 0x116B JUMPI PUSH1 0x40 MLOAD PUSH32 0xF92EE8A900000000000000000000000000000000000000000000000000000000 DUP2 MSTORE PUSH1 0x4 ADD PUSH1 0x40 MLOAD DUP1 SWAP2 SUB SWAP1 REVERT JUMPDEST PUSH1 0x1 DUP6 PUSH0 ADD PUSH0 PUSH2 0x100 EXP DUP2 SLOAD DUP2 PUSH8 0xFFFFFFFFFFFFFFFF MUL NOT AND SWAP1 DUP4 PUSH8 0xFFFFFFFFFFFFFFFF AND MUL OR SWAP1 SSTORE POP DUP4 ISZERO PUSH2 0x11B8 JUMPI PUSH1 0x1 DUP6 PUSH0 ADD PUSH1 0x8 PUSH2 0x100 EXP DUP2 SLOAD DUP2 PUSH1 0xFF MUL NOT AND SWAP1 DUP4 ISZERO ISZERO MUL OR SWAP1 SSTORE POP JUMPDEST DUP8 PUSH2 0x11C1 PUSH2 0x1741 JUMP JUMPDEST PUSH0 ADD DUP2 SWAP1 SSTORE POP PUSH2 0x11D0 CALLER PUSH2 0x1C21 JUMP JUMPDEST DUP7 PUSH0 DUP1 PUSH2 0x100 EXP DUP2 SLOAD DUP2 PUSH20 0xFFFFFFFFFFFFFFFFFFFFFFFFFFFFFFFFFFFFFFFF MUL NOT AND SWAP1 DUP4 PUSH20 0xFFFFFFFFFFFFFFFFFFFFFFFFFFFFFFFFFFFFFFFF AND MUL OR SWAP1 SSTORE POP DUP6 PUSH1 0x1 PUSH0 PUSH2 0x100 EXP DUP2 SLOAD DUP2 PUSH20 0xFFFFFFFFFFFFFFFFFFFFFFFFFFFFFFFFFFFFFFFF MUL NOT AND SWAP1 DUP4 PUSH20 0xFFFFFFFFFFFFFFFFFFFFFFFFFFFFFFFFFFFFFFFF AND MUL OR SWAP1 SSTORE POP DUP4 ISZERO PUSH2 0x12A9 JUMPI PUSH0 DUP6 PUSH0 ADD PUSH1 0x8 PUSH2 0x100 EXP DUP2 SLOAD DUP2 PUSH1 0xFF MUL NOT AND SWAP1 DUP4 ISZERO ISZERO MUL OR SWAP1 SSTORE POP PUSH32 0xC7F505B2F371AE2175EE4913F4499E1F2633A7B5936321EED1CDAEB6115181D2 PUSH1 0x1 PUSH1 0x40 MLOAD PUSH2 0x12A0 SWAP2 SWAP1 PUSH2 0x2562 JUMP JUMPDEST PUSH1 0x40 MLOAD DUP1 SWAP2 SUB SWAP1 LOG1 JUMPDEST POP POP POP POP POP POP POP POP JUMP JUMPDEST PUSH2 0x12BB PUSH2 0x1A7B JUMP JUMPDEST PUSH0 PUSH20 0xFFFFFFFFFFFFFFFFFFFFFFFFFFFFFFFFFFFFFFFF AND DUP2 PUSH20 0xFFFFFFFFFFFFFFFFFFFFFFFFFFFFFFFFFFFFFFFF AND SUB PUSH2 0x132B JUMPI PUSH0 PUSH1 0x40 MLOAD PUSH32 0x1E4FBDF700000000000000000000000000000000000000000000000000000000 DUP2 MSTORE PUSH1 0x4 ADD PUSH2 0x1322 SWAP2 SWAP1 PUSH2 0x1F97 JUMP JUMPDEST PUSH1 0x40 MLOAD DUP1 SWAP2 SUB SWAP1 REVERT JUMPDEST PUSH2 0x1334 DUP2 PUSH2 0x1B02 JUMP JUMPDEST POP JUMP JUMPDEST PUSH0 PUSH2 0x1340 PUSH2 0x1768 JUMP JUMPDEST SWAP1 POP PUSH0 PUSH2 0x134B PUSH2 0x1741 JUMP JUMPDEST PUSH0 ADD SLOAD SWAP1 POP DUP1 DUP3 EQ PUSH2 0x1396 JUMPI DUP2 DUP2 PUSH1 0x40 MLOAD PUSH32 0x35A0E0000000000000000000000000000000000000000000000000000000000 DUP2 MSTORE PUSH1 0x4 ADD PUSH2 0x138D SWAP3 SWAP2 SWAP1 PUSH2 0x20DB JUMP JUMPDEST PUSH1 0x40 MLOAD DUP1 SWAP2 SUB SWAP1 REVERT JUMPDEST DUP4 DUP4 PUSH0 PUSH20 0xFFFFFFFFFFFFFFFFFFFFFFFFFFFFFFFFFFFFFFFF AND PUSH2 0x13B7 PUSH2 0x1741 JUMP JUMPDEST PUSH1 0x1 ADD DUP4 DUP4 PUSH1 0x40 MLOAD PUSH2 0x13CA SWAP3 SWAP2 SWAP1 PUSH2 0x213E JUMP JUMPDEST SWAP1 DUP2 MSTORE PUSH1 0x20 ADD PUSH1 0x40 MLOAD DUP1 SWAP2 SUB SWAP1 KECCAK256 PUSH0 SWAP1 SLOAD SWAP1 PUSH2 0x100 EXP SWAP1 DIV PUSH20 0xFFFFFFFFFFFFFFFFFFFFFFFFFFFFFFFFFFFFFFFF AND PUSH20 0xFFFFFFFFFFFFFFFFFFFFFFFFFFFFFFFFFFFFFFFF AND EQ PUSH2 0x1445 JUMPI PUSH1 0x40 MLOAD PUSH32 0xC5E8402D00000000000000000000000000000000000000000000000000000000 DUP2 MSTORE PUSH1 0x4 ADD PUSH1 0x40 MLOAD DUP1 SWAP2 SUB SWAP1 REVERT JUMPDEST PUSH0 PUSH2 0x144E PUSH2 0x1768 JUMP JUMPDEST SWAP1 POP PUSH2 0x1459 DUP2 PUSH2 0x198B JUMP JUMPDEST CALLER PUSH2 0x1462 PUSH2 0x1741 JUMP JUMPDEST PUSH1 0x1 ADD DUP9 DUP9 PUSH1 0x40 MLOAD PUSH2 0x1475 SWAP3 SWAP2 SWAP1 PUSH2 0x213E JUMP JUMPDEST SWAP1 DUP2 MSTORE PUSH1 0x20 ADD PUSH1 0x40 MLOAD DUP1 SWAP2 SUB SWAP1 KECCAK256 PUSH0 PUSH2 0x100 EXP DUP2 SLOAD DUP2 PUSH20 0xFFFFFFFFFFFFFFFFFFFFFFFFFFFFFFFFFFFFFFFF MUL NOT AND SWAP1 DUP4 PUSH20 0xFFFFFFFFFFFFFFFFFFFFFFFFFFFFFFFFFFFFFFFF AND MUL OR SWAP1 SSTORE POP CALLER PUSH20 0xFFFFFFFFFFFFFFFFFFFFFFFFFFFFFFFFFFFFFFFF AND PUSH32 0x70F2FF07E8136617CDFB0433423063C9DD697C507560D7860CCE09FA86874A12 DUP9 DUP9 PUSH1 0x40 MLOAD PUSH2 0x1508 SWAP3 SWAP2 SWAP1 PUSH2 0x21A2 JUMP JUMPDEST PUSH1 0x40 MLOAD DUP1 SWAP2 SUB SWAP1 LOG2 POP POP POP POP POP POP POP JUMP JUMPDEST PUSH0 DUP1 PUSH0 DUP1 SLOAD SWAP1 PUSH2 0x100 EXP SWAP1 DIV PUSH20 0xFFFFFFFFFFFFFFFFFFFFFFFFFFFFFFFFFFFFFFFF AND PUSH20 0xFFFFFFFFFFFFFFFFFFFFFFFFFFFFFFFFFFFFFFFF AND PUSH4 0xFEAF968C PUSH1 0x40 MLOAD DUP2 PUSH4 0xFFFFFFFF AND PUSH1 0xE0 SHL DUP2 MSTORE PUSH1 0x4 ADD PUSH1 0xA0 PUSH1 0x40 MLOAD DUP1 DUP4 SUB DUP2 DUP7 GAS STATICCALL ISZERO DUP1 ISZERO PUSH2 0x1583 JUMPI RETURNDATASIZE PUSH0 DUP1 RETURNDATACOPY RETURNDATASIZE PUSH0 REVERT JUMPDEST POP POP POP POP PUSH1 0x40 MLOAD RETURNDATASIZE PUSH1 0x1F NOT PUSH1 0x1F DUP3 ADD AND DUP3 ADD DUP1 PUSH1 0x40 MSTORE POP DUP2 ADD SWAP1 PUSH2 0x15A7 SWAP2 SWAP1 PUSH2 0x2601 JUMP JUMPDEST POP POP POP SWAP2 POP POP PUSH0 DUP2 SLT ISZERO PUSH2 0x15E7 JUMPI PUSH1 0x40 MLOAD PUSH32 0x6F4F5AB900000000000000000000000000000000000000000000000000000000 DUP2 MSTORE PUSH1 0x4 ADD PUSH1 0x40 MLOAD DUP1 SWAP2 SUB SWAP1 REVERT JUMPDEST DUP1 SWAP2 POP POP SWAP1 JUMP JUMPDEST PUSH2 0x15F6 PUSH2 0x1A7B JUMP JUMPDEST PUSH0 PUSH2 0x15FF PUSH2 0x1A2D JUMP JUMPDEST PUSH0 ADD SLOAD PUSH2 0x160A PUSH2 0x1C35 JUMP JUMPDEST PUSH2 0x1614 SWAP2 SWAP1 PUSH2 0x2453 JUMP JUMPDEST SWAP1 POP PUSH0 DUP2 SUB PUSH2 0x1661 JUMPI PUSH2 0x1625 PUSH2 0xE5D JUMP JUMPDEST PUSH1 0x40 MLOAD PUSH32 0xDC69DC1600000000000000000000000000000000000000000000000000000000 DUP2 MSTORE PUSH1 0x4 ADD PUSH2 0x1658 SWAP2 SWAP1 PUSH2 0x1F97 JUMP JUMPDEST PUSH1 0x40 MLOAD DUP1 SWAP2 SUB SWAP1 REVERT JUMPDEST PUSH1 0x1 PUSH0 SWAP1 SLOAD SWAP1 PUSH2 0x100 EXP SWAP1 DIV PUSH20 0xFFFFFFFFFFFFFFFFFFFFFFFFFFFFFFFFFFFFFFFF AND PUSH20 0xFFFFFFFFFFFFFFFFFFFFFFFFFFFFFFFFFFFFFFFF AND PUSH4 0xA9059CBB CALLER DUP4 PUSH1 0x40 MLOAD DUP4 PUSH4 0xFFFFFFFF AND PUSH1 0xE0 SHL DUP2 MSTORE PUSH1 0x4 ADD PUSH2 0x16BD SWAP3 SWAP2 SWAP1 PUSH2 0x2486 JUMP JUMPDEST PUSH1 0x20 PUSH1 0x40 MLOAD DUP1 DUP4 SUB DUP2 PUSH0 DUP8 GAS CALL ISZERO DUP1 ISZERO PUSH2 0x16D9 JUMPI RETURNDATASIZE PUSH0 DUP1 RETURNDATACOPY RETURNDATASIZE PUSH0 REVERT JUMPDEST POP POP POP POP PUSH1 0x40 MLOAD RETURNDATASIZE PUSH1 0x1F NOT PUSH1 0x1F DUP3 ADD AND DUP3 ADD DUP1 PUSH1 0x40 MSTORE POP DUP2 ADD SWAP1 PUSH2 0x16FD SWAP2 SWAP1 PUSH2 0x24E2 JUMP JUMPDEST POP PUSH32 0x7FCF532C15F0A6DB0BD6D0E038BEA71D30D808C7D98CB3BF7268A95BF5081B65 PUSH2 0x1727 PUSH2 0xE5D JUMP JUMPDEST DUP3 PUSH1 0x40 MLOAD PUSH2 0x1736 SWAP3 SWAP2 SWAP1 PUSH2 0x2486 JUMP JUMPDEST PUSH1 0x40 MLOAD DUP1 SWAP2 SUB SWAP1 LOG1 POP JUMP JUMPDEST PUSH0 PUSH32 0x34D79759018DD62B1C8D40A6535099F131828AA4665B939ADF68C4556B516400 SWAP1 POP SWAP1 JUMP JUMPDEST PUSH0 PUSH1 0x1 PUSH0 SWAP1 SLOAD SWAP1 PUSH2 0x100 EXP SWAP1 DIV PUSH20 0xFFFFFFFFFFFFFFFFFFFFFFFFFFFFFFFFFFFFFFFF AND PUSH20 0xFFFFFFFFFFFFFFFFFFFFFFFFFFFFFFFFFFFFFFFF AND PUSH4 0xDD62ED3E CALLER ADDRESS PUSH1 0x40 MLOAD DUP4 PUSH4 0xFFFFFFFF AND PUSH1 0xE0 SHL DUP2 MSTORE PUSH1 0x4 ADD PUSH2 0x17C5 SWAP3 SWAP2 SWAP1 PUSH2 0x2678 JUMP JUMPDEST PUSH1 0x20 PUSH1 0x40 MLOAD DUP1 DUP4 SUB DUP2 DUP7 GAS STATICCALL ISZERO DUP1 ISZERO PUSH2 0x17E0 JUMPI RETURNDATASIZE PUSH0 DUP1 RETURNDATACOPY RETURNDATASIZE PUSH0 REVERT JUMPDEST POP POP POP POP PUSH1 0x40 MLOAD RETURNDATASIZE PUSH1 0x1F NOT PUSH1 0x1F DUP3 ADD AND DUP3 ADD DUP1 PUSH1 0x40 MSTORE POP DUP2 ADD SWAP1 PUSH2 0x1804 SWAP2 SWAP1 PUSH2 0x269F JUMP JUMPDEST SWAP1 POP SWAP1 JUMP JUMPDEST PUSH1 0x60 PUSH0 PUSH20 0xFFFFFFFFFFFFFFFFFFFFFFFFFFFFFFFFFFFFFFFF AND PUSH2 0x182A PUSH2 0x1741 JUMP JUMPDEST PUSH1 0x1 ADD DUP7 DUP7 PUSH1 0x40 MLOAD PUSH2 0x183D SWAP3 SWAP2 SWAP1 PUSH2 0x213E JUMP JUMPDEST SWAP1 DUP2 MSTORE PUSH1 0x20 ADD PUSH1 0x40 MLOAD DUP1 SWAP2 SUB SWAP1 KECCAK256 PUSH0 SWAP1 SLOAD SWAP1 PUSH2 0x100 EXP SWAP1 DIV PUSH20 0xFFFFFFFFFFFFFFFFFFFFFFFFFFFFFFFFFFFFFFFF AND PUSH20 0xFFFFFFFFFFFFFFFFFFFFFFFFFFFFFFFFFFFFFFFF AND SUB PUSH2 0x18C5 JUMPI DUP5 DUP5 PUSH1 0x40 MLOAD PUSH32 0x30A58C0700000000000000000000000000000000000000000000000000000000 DUP2 MSTORE PUSH1 0x4 ADD PUSH2 0x18BC SWAP3 SWAP2 SWAP1 PUSH2 0x21A2 JUMP JUMPDEST PUSH1 0x40 MLOAD DUP1 SWAP2 SUB SWAP1 REVERT JUMPDEST PUSH0 PUSH2 0x18D2 DUP5 DUP5 DUP9 DUP9 PUSH2 0x1CD4 JUMP JUMPDEST SWAP1 POP PUSH0 PUSH20 0xFFFFFFFFFFFFFFFFFFFFFFFFFFFFFFFFFFFFFFFF AND PUSH2 0x18F3 PUSH2 0x1741 JUMP JUMPDEST PUSH1 0x1 ADD DUP3 PUSH1 0x40 MLOAD PUSH2 0x1904 SWAP2 SWAP1 PUSH2 0x2226 JUMP JUMPDEST SWAP1 DUP2 MSTORE PUSH1 0x20 ADD PUSH1 0x40 MLOAD DUP1 SWAP2 SUB SWAP1 KECCAK256 PUSH0 SWAP1 SLOAD SWAP1 PUSH2 0x100 EXP SWAP1 DIV PUSH20 0xFFFFFFFFFFFFFFFFFFFFFFFFFFFFFFFFFFFFFFFF AND PUSH20 0xFFFFFFFFFFFFFFFFFFFFFFFFFFFFFFFFFFFFFFFF AND EQ PUSH2 0x197F JUMPI PUSH1 0x40 MLOAD PUSH32 0xC5E8402D00000000000000000000000000000000000000000000000000000000 DUP2 MSTORE PUSH1 0x4 ADD PUSH1 0x40 MLOAD DUP1 SWAP2 SUB SWAP1 REVERT JUMPDEST DUP1 SWAP2 POP POP SWAP5 SWAP4 POP POP POP POP JUMP JUMPDEST PUSH1 0x1 PUSH0 SWAP1 SLOAD SWAP1 PUSH2 0x100 EXP SWAP1 DIV PUSH20 0xFFFFFFFFFFFFFFFFFFFFFFFFFFFFFFFFFFFFFFFF AND PUSH20 0xFFFFFFFFFFFFFFFFFFFFFFFFFFFFFFFFFFFFFFFF AND PUSH4 0x23B872DD CALLER ADDRESS DUP5 PUSH1 0x40 MLOAD DUP5 PUSH4 0xFFFFFFFF AND PUSH1 0xE0 SHL DUP2 MSTORE PUSH1 0x4 ADD PUSH2 0x19E9 SWAP4 SWAP3 SWAP2 SWAP1 PUSH2 0x26CA JUMP JUMPDEST PUSH1 0x20 PUSH1 0x40 MLOAD DUP1 DUP4 SUB DUP2 PUSH0 DUP8 GAS CALL ISZERO DUP1 ISZERO PUSH2 0x1A05 JUMPI RETURNDATASIZE PUSH0 DUP1 RETURNDATACOPY RETURNDATASIZE PUSH0 REVERT JUMPDEST POP POP POP POP PUSH1 0x40 MLOAD RETURNDATASIZE PUSH1 0x1F NOT PUSH1 0x1F DUP3 ADD AND DUP3 ADD DUP1 PUSH1 0x40 MSTORE POP DUP2 ADD SWAP1 PUSH2 0x1A29 SWAP2 SWAP1 PUSH2 0x24E2 JUMP JUMPDEST POP POP JUMP JUMPDEST PUSH0 PUSH32 0x64D6FF49462C7266E92C8AA47370A483B3BB1C9FF7216E1D88A62C1EB24FFB00 SWAP1 POP SWAP1 JUMP JUMPDEST PUSH0 PUSH32 0x249F20EE916056548CFE0204D9EA4281F252680318BB5252F87AA5A31EC81E00 SWAP1 POP SWAP1 JUMP JUMPDEST PUSH2 0x1A83 PUSH2 0x1D3D JUMP JUMPDEST PUSH20 0xFFFFFFFFFFFFFFFFFFFFFFFFFFFFFFFFFFFFFFFF AND PUSH2 0x1AA1 PUSH2 0xE5D JUMP JUMPDEST PUSH20 0xFFFFFFFFFFFFFFFFFFFFFFFFFFFFFFFFFFFFFFFF AND EQ PUSH2 0x1B00 JUMPI PUSH2 0x1AC4 PUSH2 0x1D3D JUMP JUMPDEST PUSH1 0x40 MLOAD PUSH32 0x118CDAA700000000000000000000000000000000000000000000000000000000 DUP2 MSTORE PUSH1 0x4 ADD PUSH2 0x1AF7 SWAP2 SWAP1 PUSH2 0x1F97 JUMP JUMPDEST PUSH1 0x40 MLOAD DUP1 SWAP2 SUB SWAP1 REVERT JUMPDEST JUMP JUMPDEST PUSH0 PUSH2 0x1B0B PUSH2 0x1BD3 JUMP JUMPDEST SWAP1 POP PUSH0 DUP2 PUSH0 ADD PUSH0 SWAP1 SLOAD SWAP1 PUSH2 0x100 EXP SWAP1 DIV PUSH20 0xFFFFFFFFFFFFFFFFFFFFFFFFFFFFFFFFFFFFFFFF AND SWAP1 POP DUP3 DUP3 PUSH0 ADD PUSH0 PUSH2 0x100 EXP DUP2 SLOAD DUP2 PUSH20 0xFFFFFFFFFFFFFFFFFFFFFFFFFFFFFFFFFFFFFFFF MUL NOT AND SWAP1 DUP4 PUSH20 0xFFFFFFFFFFFFFFFFFFFFFFFFFFFFFFFFFFFFFFFF AND MUL OR SWAP1 SSTORE POP DUP3 PUSH20 0xFFFFFFFFFFFFFFFFFFFFFFFFFFFFFFFFFFFFFFFF AND DUP2 PUSH20 0xFFFFFFFFFFFFFFFFFFFFFFFFFFFFFFFFFFFFFFFF AND PUSH32 0x8BE0079C531659141344CD1FD0A4F28419497F9722A3DAAFE3B4186F6B6457E0 PUSH1 0x40 MLOAD PUSH1 0x40 MLOAD DUP1 SWAP2 SUB SWAP1 LOG3 POP POP POP JUMP JUMPDEST PUSH0 PUSH32 0x9016D09D72D40FDAE2FD8CEAC6B6234C7706214FD39C1CD1E609A0528C199300 SWAP1 POP SWAP1 JUMP JUMPDEST PUSH0 PUSH32 0xF0C57E16840DF040F15088DC2F81FE391C3923BEC73E23A9662EFC9C229C6A00 SWAP1 POP SWAP1 JUMP JUMPDEST PUSH2 0x1C29 PUSH2 0x1D44 JUMP JUMPDEST PUSH2 0x1C32 DUP2 PUSH2 0x1D84 JUMP JUMPDEST POP JUMP JUMPDEST PUSH0 PUSH1 0x1 PUSH0 SWAP1 SLOAD SWAP1 PUSH2 0x100 EXP SWAP1 DIV PUSH20 0xFFFFFFFFFFFFFFFFFFFFFFFFFFFFFFFFFFFFFFFF AND PUSH20 0xFFFFFFFFFFFFFFFFFFFFFFFFFFFFFFFFFFFFFFFF AND PUSH4 0x70A08231 ADDRESS PUSH1 0x40 MLOAD DUP3 PUSH4 0xFFFFFFFF AND PUSH1 0xE0 SHL DUP2 MSTORE PUSH1 0x4 ADD PUSH2 0x1C90 SWAP2 SWAP1 PUSH2 0x1F97 JUMP JUMPDEST PUSH1 0x20 PUSH1 0x40 MLOAD DUP1 DUP4 SUB DUP2 DUP7 GAS STATICCALL ISZERO DUP1 ISZERO PUSH2 0x1CAB JUMPI RETURNDATASIZE PUSH0 DUP1 RETURNDATACOPY RETURNDATASIZE PUSH0 REVERT JUMPDEST POP POP POP POP PUSH1 0x40 MLOAD RETURNDATASIZE PUSH1 0x1F NOT PUSH1 0x1F DUP3 ADD AND DUP3 ADD DUP1 PUSH1 0x40 MSTORE POP DUP2 ADD SWAP1 PUSH2 0x1CCF SWAP2 SWAP1 PUSH2 0x269F JUMP JUMPDEST SWAP1 POP SWAP1 JUMP JUMPDEST PUSH1 0x60 DUP5 DUP5 PUSH1 0x40 MLOAD DUP1 PUSH1 0x40 ADD PUSH1 0x40 MSTORE DUP1 PUSH1 0x1 DUP2 MSTORE PUSH1 0x20 ADD PUSH32 0x2E00000000000000000000000000000000000000000000000000000000000000 DUP2 MSTORE POP DUP6 DUP6 PUSH1 0x40 MLOAD PUSH1 0x20 ADD PUSH2 0x1D24 SWAP6 SWAP5 SWAP4 SWAP3 SWAP2 SWAP1 PUSH2 0x26FF JUMP JUMPDEST PUSH1 0x40 MLOAD PUSH1 0x20 DUP2 DUP4 SUB SUB DUP2 MSTORE SWAP1 PUSH1 0x40 MSTORE SWAP1 POP SWAP5 SWAP4 POP POP POP POP JUMP JUMPDEST PUSH0 CALLER SWAP1 POP SWAP1 JUMP JUMPDEST PUSH2 0x1D4C PUSH2 0x1E08 JUMP JUMPDEST PUSH2 0x1D82 JUMPI PUSH1 0x40 MLOAD PUSH32 0xD7E6BCF800000000000000000000000000000000000000000000000000000000 DUP2 MSTORE PUSH1 0x4 ADD PUSH1 0x40 MLOAD DUP1 SWAP2 SUB SWAP1 REVERT JUMPDEST JUMP JUMPDEST PUSH2 0x1D8C PUSH2 0x1D44 JUMP JUMPDEST PUSH0 PUSH20 0xFFFFFFFFFFFFFFFFFFFFFFFFFFFFFFFFFFFFFFFF AND DUP2 PUSH20 0xFFFFFFFFFFFFFFFFFFFFFFFFFFFFFFFFFFFFFFFF AND SUB PUSH2 0x1DFC JUMPI PUSH0 PUSH1 0x40 MLOAD PUSH32 0x1E4FBDF700000000000000000000000000000000000000000000000000000000 DUP2 MSTORE PUSH1 0x4 ADD PUSH2 0x1DF3 SWAP2 SWAP1 PUSH2 0x1F97 JUMP JUMPDEST PUSH1 0x40 MLOAD DUP1 SWAP2 SUB SWAP1 REVERT JUMPDEST PUSH2 0x1E05 DUP2 PUSH2 0x1B02 JUMP JUMPDEST POP JUMP JUMPDEST PUSH0 PUSH2 0x1E11 PUSH2 0x1BFA JUMP JUMPDEST PUSH0 ADD PUSH1 0x8 SWAP1 SLOAD SWAP1 PUSH2 0x100 EXP SWAP1 DIV PUSH1 0xFF AND SWAP1 POP SWAP1 JUMP JUMPDEST PUSH0 DUP1 REVERT JUMPDEST PUSH0 DUP1 REVERT JUMPDEST PUSH0 DUP1 REVERT JUMPDEST PUSH0 DUP1 REVERT JUMPDEST PUSH0 DUP1 REVERT JUMPDEST PUSH0 DUP1 DUP4 PUSH1 0x1F DUP5 ADD SLT PUSH2 0x1E4F JUMPI PUSH2 0x1E4E PUSH2 0x1E2E JUMP JUMPDEST JUMPDEST DUP3 CALLDATALOAD SWAP1 POP PUSH8 0xFFFFFFFFFFFFFFFF DUP2 GT ISZERO PUSH2 0x1E6C JUMPI PUSH2 0x1E6B PUSH2 0x1E32 JUMP JUMPDEST JUMPDEST PUSH1 0x20 DUP4 ADD SWAP2 POP DUP4 PUSH1 0x1 DUP3 MUL DUP4 ADD GT ISZERO PUSH2 0x1E88 JUMPI PUSH2 0x1E87 PUSH2 0x1E36 JUMP JUMPDEST JUMPDEST SWAP3 POP SWAP3 SWAP1 POP JUMP JUMPDEST PUSH0 DUP1 PUSH1 0x20 DUP4 DUP6 SUB SLT ISZERO PUSH2 0x1EA5 JUMPI PUSH2 0x1EA4 PUSH2 0x1E26 JUMP JUMPDEST JUMPDEST PUSH0 DUP4 ADD CALLDATALOAD PUSH8 0xFFFFFFFFFFFFFFFF DUP2 GT ISZERO PUSH2 0x1EC2 JUMPI PUSH2 0x1EC1 PUSH2 0x1E2A JUMP JUMPDEST JUMPDEST PUSH2 0x1ECE DUP6 DUP3 DUP7 ADD PUSH2 0x1E3A JUMP JUMPDEST SWAP3 POP SWAP3 POP POP SWAP3 POP SWAP3 SWAP1 POP JUMP JUMPDEST PUSH0 DUP1 PUSH0 DUP1 PUSH1 0x40 DUP6 DUP8 SUB SLT ISZERO PUSH2 0x1EF2 JUMPI PUSH2 0x1EF1 PUSH2 0x1E26 JUMP JUMPDEST JUMPDEST PUSH0 DUP6 ADD CALLDATALOAD PUSH8 0xFFFFFFFFFFFFFFFF DUP2 GT ISZERO PUSH2 0x1F0F JUMPI PUSH2 0x1F0E PUSH2 0x1E2A JUMP JUMPDEST JUMPDEST PUSH2 0x1F1B DUP8 DUP3 DUP9 ADD PUSH2 0x1E3A JUMP JUMPDEST SWAP5 POP SWAP5 POP POP PUSH1 0x20 DUP6 ADD CALLDATALOAD PUSH8 0xFFFFFFFFFFFFFFFF DUP2 GT ISZERO PUSH2 0x1F3E JUMPI PUSH2 0x1F3D PUSH2 0x1E2A JUMP JUMPDEST JUMPDEST PUSH2 0x1F4A DUP8 DUP3 DUP9 ADD PUSH2 0x1E3A JUMP JUMPDEST SWAP3 POP SWAP3 POP POP SWAP3 SWAP6 SWAP2 SWAP5 POP SWAP3 POP JUMP JUMPDEST PUSH0 PUSH20 0xFFFFFFFFFFFFFFFFFFFFFFFFFFFFFFFFFFFFFFFF DUP3 AND SWAP1 POP SWAP2 SWAP1 POP JUMP JUMPDEST PUSH0 PUSH2 0x1F81 DUP3 PUSH2 0x1F58 JUMP JUMPDEST SWAP1 POP SWAP2 SWAP1 POP JUMP JUMPDEST PUSH2 0x1F91 DUP2 PUSH2 0x1F77 JUMP JUMPDEST DUP3 MSTORE POP POP JUMP JUMPDEST PUSH0 PUSH1 0x20 DUP3 ADD SWAP1 POP PUSH2 0x1FAA PUSH0 DUP4 ADD DUP5 PUSH2 0x1F88 JUMP JUMPDEST SWAP3 SWAP2 POP POP JUMP JUMPDEST PUSH0 DUP2 SWAP1 POP SWAP2 SWAP1 POP JUMP JUMPDEST PUSH2 0x1FC2 DUP2 PUSH2 0x1FB0 JUMP JUMPDEST DUP3 MSTORE POP POP JUMP JUMPDEST PUSH0 PUSH1 0x20 DUP3 ADD SWAP1 POP PUSH2 0x1FDB PUSH0 DUP4 ADD DUP5 PUSH2 0x1FB9 JUMP JUMPDEST SWAP3 SWAP2 POP POP JUMP JUMPDEST PUSH2 0x1FEA DUP2 PUSH2 0x1FB0 JUMP JUMPDEST DUP2 EQ PUSH2 0x1FF4 JUMPI PUSH0 DUP1 REVERT JUMPDEST POP JUMP JUMPDEST PUSH0 DUP2 CALLDATALOAD SWAP1 POP PUSH2 0x2005 DUP2 PUSH2 0x1FE1 JUMP JUMPDEST SWAP3 SWAP2 POP POP JUMP JUMPDEST PUSH0 PUSH1 0x20 DUP3 DUP5 SUB SLT ISZERO PUSH2 0x2020 JUMPI PUSH2 0x201F PUSH2 0x1E26 JUMP JUMPDEST JUMPDEST PUSH0 PUSH2 0x202D DUP5 DUP3 DUP6 ADD PUSH2 0x1FF7 JUMP JUMPDEST SWAP2 POP POP SWAP3 SWAP2 POP POP JUMP JUMPDEST PUSH2 0x203F DUP2 PUSH2 0x1F77 JUMP JUMPDEST DUP2 EQ PUSH2 0x2049 JUMPI PUSH0 DUP1 REVERT JUMPDEST POP JUMP JUMPDEST PUSH0 DUP2 CALLDATALOAD SWAP1 POP PUSH2 0x205A DUP2 PUSH2 0x2036 JUMP JUMPDEST SWAP3 SWAP2 POP POP JUMP JUMPDEST PUSH0 DUP1 PUSH0 PUSH1 0x60 DUP5 DUP7 SUB SLT ISZERO PUSH2 0x2077 JUMPI PUSH2 0x2076 PUSH2 0x1E26 JUMP JUMPDEST JUMPDEST PUSH0 PUSH2 0x2084 DUP7 DUP3 DUP8 ADD PUSH2 0x1FF7 JUMP JUMPDEST SWAP4 POP POP PUSH1 0x20 PUSH2 0x2095 DUP7 DUP3 DUP8 ADD PUSH2 0x204C JUMP JUMPDEST SWAP3 POP POP PUSH1 0x40 PUSH2 0x20A6 DUP7 DUP3 DUP8 ADD PUSH2 0x204C JUMP JUMPDEST SWAP2 POP POP SWAP3 POP SWAP3 POP SWAP3 JUMP JUMPDEST PUSH0 PUSH1 0x20 DUP3 DUP5 SUB SLT ISZERO PUSH2 0x20C5 JUMPI PUSH2 0x20C4 PUSH2 0x1E26 JUMP JUMPDEST JUMPDEST PUSH0 PUSH2 0x20D2 DUP5 DUP3 DUP6 ADD PUSH2 0x204C JUMP JUMPDEST SWAP2 POP POP SWAP3 SWAP2 POP POP JUMP JUMPDEST PUSH0 PUSH1 0x40 DUP3 ADD SWAP1 POP PUSH2 0x20EE PUSH0 DUP4 ADD DUP6 PUSH2 0x1FB9 JUMP JUMPDEST PUSH2 0x20FB PUSH1 0x20 DUP4 ADD DUP5 PUSH2 0x1FB9 JUMP JUMPDEST SWAP4 SWAP3 POP POP POP JUMP JUMPDEST PUSH0 DUP2 SWAP1 POP SWAP3 SWAP2 POP POP JUMP JUMPDEST DUP3 DUP2 DUP4 CALLDATACOPY PUSH0 DUP4 DUP4 ADD MSTORE POP POP POP JUMP JUMPDEST PUSH0 PUSH2 0x2125 DUP4 DUP6 PUSH2 0x2102 JUMP JUMPDEST SWAP4 POP PUSH2 0x2132 DUP4 DUP6 DUP5 PUSH2 0x210C JUMP JUMPDEST DUP3 DUP5 ADD SWAP1 POP SWAP4 SWAP3 POP POP POP JUMP JUMPDEST PUSH0 PUSH2 0x214A DUP3 DUP5 DUP7 PUSH2 0x211A JUMP JUMPDEST SWAP2 POP DUP2 SWAP1 POP SWAP4 SWAP3 POP POP POP JUMP JUMPDEST PUSH0 DUP3 DUP3 MSTORE PUSH1 0x20 DUP3 ADD SWAP1 POP SWAP3 SWAP2 POP POP JUMP JUMPDEST PUSH0 PUSH1 0x1F NOT PUSH1 0x1F DUP4 ADD AND SWAP1 POP SWAP2 SWAP1 POP JUMP JUMPDEST PUSH0 PUSH2 0x2181 DUP4 DUP6 PUSH2 0x2156 JUMP JUMPDEST SWAP4 POP PUSH2 0x218E DUP4 DUP6 DUP5 PUSH2 0x210C JUMP JUMPDEST PUSH2 0x2197 DUP4 PUSH2 0x2166 JUMP JUMPDEST DUP5 ADD SWAP1 POP SWAP4 SWAP3 POP POP POP JUMP JUMPDEST PUSH0 PUSH1 0x20 DUP3 ADD SWAP1 POP DUP2 DUP2 SUB PUSH0 DUP4 ADD MSTORE PUSH2 0x21BB DUP2 DUP5 DUP7 PUSH2 0x2176 JUMP JUMPDEST SWAP1 POP SWAP4 SWAP3 POP POP POP JUMP JUMPDEST PUSH0 DUP2 MLOAD SWAP1 POP SWAP2 SWAP1 POP JUMP JUMPDEST PUSH0 JUMPDEST DUP4 DUP2 LT ISZERO PUSH2 0x21EB JUMPI DUP1 DUP3 ADD MLOAD DUP2 DUP5 ADD MSTORE PUSH1 0x20 DUP2 ADD SWAP1 POP PUSH2 0x21D0 JUMP JUMPDEST PUSH0 DUP5 DUP5 ADD MSTORE POP POP POP POP JUMP JUMPDEST PUSH0 PUSH2 0x2200 DUP3 PUSH2 0x21C4 JUMP JUMPDEST PUSH2 0x220A DUP2 DUP6 PUSH2 0x2102 JUMP JUMPDEST SWAP4 POP PUSH2 0x221A DUP2 DUP6 PUSH1 0x20 DUP7 ADD PUSH2 0x21CE JUMP JUMPDEST DUP1 DUP5 ADD SWAP2 POP POP SWAP3 SWAP2 POP POP JUMP JUMPDEST PUSH0 PUSH2 0x2231 DUP3 DUP5 PUSH2 0x21F6 JUMP JUMPDEST SWAP2 POP DUP2 SWAP1 POP SWAP3 SWAP2 POP POP JUMP JUMPDEST PUSH32 0x4E487B7100000000000000000000000000000000000000000000000000000000 PUSH0 MSTORE PUSH1 0x11 PUSH1 0x4 MSTORE PUSH1 0x24 PUSH0 REVERT JUMPDEST PUSH0 PUSH2 0x2273 DUP3 PUSH2 0x1FB0 JUMP JUMPDEST SWAP2 POP PUSH2 0x227E DUP4 PUSH2 0x1FB0 JUMP JUMPDEST SWAP3 POP DUP3 DUP3 ADD SWAP1 POP DUP1 DUP3 GT ISZERO PUSH2 0x2296 JUMPI PUSH2 0x2295 PUSH2 0x223C JUMP JUMPDEST JUMPDEST SWAP3 SWAP2 POP POP JUMP JUMPDEST PUSH0 PUSH2 0x22A6 DUP3 PUSH2 0x21C4 JUMP JUMPDEST PUSH2 0x22B0 DUP2 DUP6 PUSH2 0x2156 JUMP JUMPDEST SWAP4 POP PUSH2 0x22C0 DUP2 DUP6 PUSH1 0x20 DUP7 ADD PUSH2 0x21CE JUMP JUMPDEST PUSH2 0x22C9 DUP2 PUSH2 0x2166 JUMP JUMPDEST DUP5 ADD SWAP2 POP POP SWAP3 SWAP2 POP POP JUMP JUMPDEST PUSH0 PUSH1 0x20 DUP3 ADD SWAP1 POP DUP2 DUP2 SUB PUSH0 DUP4 ADD MSTORE PUSH2 0x22EC DUP2 DUP5 PUSH2 0x229C JUMP JUMPDEST SWAP1 POP SWAP3 SWAP2 POP POP JUMP JUMPDEST PUSH0 PUSH2 0x22FE DUP3 PUSH2 0x1FB0 JUMP JUMPDEST SWAP2 POP PUSH2 0x2309 DUP4 PUSH2 0x1FB0 JUMP JUMPDEST SWAP3 POP DUP3 DUP3 MUL PUSH2 0x2317 DUP2 PUSH2 0x1FB0 JUMP JUMPDEST SWAP2 POP DUP3 DUP3 DIV DUP5 EQ DUP4 ISZERO OR PUSH2 0x232E JUMPI PUSH2 0x232D PUSH2 0x223C JUMP JUMPDEST JUMPDEST POP SWAP3 SWAP2 POP POP JUMP JUMPDEST PUSH32 0x4E487B7100000000000000000000000000000000000000000000000000000000 PUSH0 MSTORE PUSH1 0x12 PUSH1 0x4 MSTORE PUSH1 0x24 PUSH0 REVERT JUMPDEST PUSH0 PUSH2 0x236C DUP3 PUSH2 0x1FB0 JUMP JUMPDEST SWAP2 POP PUSH2 0x2377 DUP4 PUSH2 0x1FB0 JUMP JUMPDEST SWAP3 POP DUP3 PUSH2 0x2387 JUMPI PUSH2 0x2386 PUSH2 0x2335 JUMP JUMPDEST JUMPDEST DUP3 DUP3 DIV SWAP1 POP SWAP3 SWAP2 POP POP JUMP JUMPDEST PUSH0 DUP2 SWAP1 POP SWAP3 SWAP2 POP POP JUMP JUMPDEST POP JUMP JUMPDEST PUSH0 PUSH2 0x23AA PUSH0 DUP4 PUSH2 0x2392 JUMP JUMPDEST SWAP2 POP PUSH2 0x23B5 DUP3 PUSH2 0x239C JUMP JUMPDEST PUSH0 DUP3 ADD SWAP1 POP SWAP2 SWAP1 POP JUMP JUMPDEST PUSH0 PUSH2 0x23C9 DUP3 PUSH2 0x239F JUMP JUMPDEST SWAP2 POP DUP2 SWAP1 POP SWAP2 SWAP1 POP JUMP JUMPDEST PUSH0 DUP2 MLOAD SWAP1 POP SWAP2 SWAP1 POP JUMP JUMPDEST PUSH0 DUP3 DUP3 MSTORE PUSH1 0x20 DUP3 ADD SWAP1 POP SWAP3 SWAP2 POP POP JUMP JUMPDEST PUSH0 PUSH2 0x23F7 DUP3 PUSH2 0x23D3 JUMP JUMPDEST PUSH2 0x2401 DUP2 DUP6 PUSH2 0x23DD JUMP JUMPDEST SWAP4 POP PUSH2 0x2411 DUP2 DUP6 PUSH1 0x20 DUP7 ADD PUSH2 0x21CE JUMP JUMPDEST PUSH2 0x241A DUP2 PUSH2 0x2166 JUMP JUMPDEST DUP5 ADD SWAP2 POP POP SWAP3 SWAP2 POP POP JUMP JUMPDEST PUSH0 PUSH1 0x40 DUP3 ADD SWAP1 POP PUSH2 0x2438 PUSH0 DUP4 ADD DUP6 PUSH2 0x1F88 JUMP JUMPDEST DUP2 DUP2 SUB PUSH1 0x20 DUP4 ADD MSTORE PUSH2 0x244A DUP2 DUP5 PUSH2 0x23ED JUMP JUMPDEST SWAP1 POP SWAP4 SWAP3 POP POP POP JUMP JUMPDEST PUSH0 PUSH2 0x245D DUP3 PUSH2 0x1FB0 JUMP JUMPDEST SWAP2 POP PUSH2 0x2468 DUP4 PUSH2 0x1FB0 JUMP JUMPDEST SWAP3 POP DUP3 DUP3 SUB SWAP1 POP DUP2 DUP2 GT ISZERO PUSH2 0x2480 JUMPI PUSH2 0x247F PUSH2 0x223C JUMP JUMPDEST JUMPDEST SWAP3 SWAP2 POP POP JUMP JUMPDEST PUSH0 PUSH1 0x40 DUP3 ADD SWAP1 POP PUSH2 0x2499 PUSH0 DUP4 ADD DUP6 PUSH2 0x1F88 JUMP JUMPDEST PUSH2 0x24A6 PUSH1 0x20 DUP4 ADD DUP5 PUSH2 0x1FB9 JUMP JUMPDEST SWAP4 SWAP3 POP POP POP JUMP JUMPDEST PUSH0 DUP2 ISZERO ISZERO SWAP1 POP SWAP2 SWAP1 POP JUMP JUMPDEST PUSH2 0x24C1 DUP2 PUSH2 0x24AD JUMP JUMPDEST DUP2 EQ PUSH2 0x24CB JUMPI PUSH0 DUP1 REVERT JUMPDEST POP JUMP JUMPDEST PUSH0 DUP2 MLOAD SWAP1 POP PUSH2 0x24DC DUP2 PUSH2 0x24B8 JUMP JUMPDEST SWAP3 SWAP2 POP POP JUMP JUMPDEST PUSH0 PUSH1 0x20 DUP3 DUP5 SUB SLT ISZERO PUSH2 0x24F7 JUMPI PUSH2 0x24F6 PUSH2 0x1E26 JUMP JUMPDEST JUMPDEST PUSH0 PUSH2 0x2504 DUP5 DUP3 DUP6 ADD PUSH2 0x24CE JUMP JUMPDEST SWAP2 POP POP SWAP3 SWAP2 POP POP JUMP JUMPDEST PUSH0 DUP2 SWAP1 POP SWAP2 SWAP1 POP JUMP JUMPDEST PUSH0 PUSH8 0xFFFFFFFFFFFFFFFF DUP3 AND SWAP1 POP SWAP2 SWAP1 POP JUMP JUMPDEST PUSH0 DUP2 SWAP1 POP SWAP2 SWAP1 POP JUMP JUMPDEST PUSH0 PUSH2 0x254C PUSH2 0x2547 PUSH2 0x2542 DUP5 PUSH2 0x250D JUMP JUMPDEST PUSH2 0x2529 JUMP JUMPDEST PUSH2 0x2516 JUMP JUMPDEST SWAP1 POP SWAP2 SWAP1 POP JUMP JUMPDEST PUSH2 0x255C DUP2 PUSH2 0x2532 JUMP JUMPDEST DUP3 MSTORE POP POP JUMP JUMPDEST PUSH0 PUSH1 0x20 DUP3 ADD SWAP1 POP PUSH2 0x2575 PUSH0 DUP4 ADD DUP5 PUSH2 0x2553 JUMP JUMPDEST SWAP3 SWAP2 POP POP JUMP JUMPDEST PUSH0 PUSH10 0xFFFFFFFFFFFFFFFFFFFF DUP3 AND SWAP1 POP SWAP2 SWAP1 POP JUMP JUMPDEST PUSH2 0x2599 DUP2 PUSH2 0x257B JUMP JUMPDEST DUP2 EQ PUSH2 0x25A3 JUMPI PUSH0 DUP1 REVERT JUMPDEST POP JUMP JUMPDEST PUSH0 DUP2 MLOAD SWAP1 POP PUSH2 0x25B4 DUP2 PUSH2 0x2590 JUMP JUMPDEST SWAP3 SWAP2 POP POP JUMP JUMPDEST PUSH0 DUP2 SWAP1 POP SWAP2 SWAP1 POP JUMP JUMPDEST PUSH2 0x25CC DUP2 PUSH2 0x25BA JUMP JUMPDEST DUP2 EQ PUSH2 0x25D6 JUMPI PUSH0 DUP1 REVERT JUMPDEST POP JUMP JUMPDEST PUSH0 DUP2 MLOAD SWAP1 POP PUSH2 0x25E7 DUP2 PUSH2 0x25C3 JUMP JUMPDEST SWAP3 SWAP2 POP POP JUMP JUMPDEST PUSH0 DUP2 MLOAD SWAP1 POP PUSH2 0x25FB DUP2 PUSH2 0x1FE1 JUMP JUMPDEST SWAP3 SWAP2 POP POP JUMP JUMPDEST PUSH0 DUP1 PUSH0 DUP1 PUSH0 PUSH1 0xA0 DUP7 DUP9 SUB SLT ISZERO PUSH2 0x261A JUMPI PUSH2 0x2619 PUSH2 0x1E26 JUMP JUMPDEST JUMPDEST PUSH0 PUSH2 0x2627 DUP9 DUP3 DUP10 ADD PUSH2 0x25A6 JUMP JUMPDEST SWAP6 POP POP PUSH1 0x20 PUSH2 0x2638 DUP9 DUP3 DUP10 ADD PUSH2 0x25D9 JUMP JUMPDEST SWAP5 POP POP PUSH1 0x40 PUSH2 0x2649 DUP9 DUP3 DUP10 ADD PUSH2 0x25ED JUMP JUMPDEST SWAP4 POP POP PUSH1 0x60 PUSH2 0x265A DUP9 DUP3 DUP10 ADD PUSH2 0x25ED JUMP JUMPDEST SWAP3 POP POP PUSH1 0x80 PUSH2 0x266B DUP9 DUP3 DUP10 ADD PUSH2 0x25A6 JUMP JUMPDEST SWAP2 POP POP SWAP3 SWAP6 POP SWAP3 SWAP6 SWAP1 SWAP4 POP JUMP JUMPDEST PUSH0 PUSH1 0x40 DUP3 ADD SWAP1 POP PUSH2 0x268B PUSH0 DUP4 ADD DUP6 PUSH2 0x1F88 JUMP JUMPDEST PUSH2 0x2698 PUSH1 0x20 DUP4 ADD DUP5 PUSH2 0x1F88 JUMP JUMPDEST SWAP4 SWAP3 POP POP POP JUMP JUMPDEST PUSH0 PUSH1 0x20 DUP3 DUP5 SUB SLT ISZERO PUSH2 0x26B4 JUMPI PUSH2 0x26B3 PUSH2 0x1E26 JUMP JUMPDEST JUMPDEST PUSH0 PUSH2 0x26C1 DUP5 DUP3 DUP6 ADD PUSH2 0x25ED JUMP JUMPDEST SWAP2 POP POP SWAP3 SWAP2 POP POP JUMP JUMPDEST PUSH0 PUSH1 0x60 DUP3 ADD SWAP1 POP PUSH2 0x26DD PUSH0 DUP4 ADD DUP7 PUSH2 0x1F88 JUMP JUMPDEST PUSH2 0x26EA PUSH1 0x20 DUP4 ADD DUP6 PUSH2 0x1F88 JUMP JUMPDEST PUSH2 0x26F7 PUSH1 0x40 DUP4 ADD DUP5 PUSH2 0x1FB9 JUMP JUMPDEST SWAP5 SWAP4 POP POP POP POP JUMP JUMPDEST PUSH0 PUSH2 0x270B DUP3 DUP8 DUP10 PUSH2 0x211A JUMP JUMPDEST SWAP2 POP PUSH2 0x2717 DUP3 DUP7 PUSH2 0x21F6 JUMP JUMPDEST SWAP2 POP PUSH2 0x2724 DUP3 DUP5 DUP7 PUSH2 0x211A JUMP JUMPDEST SWAP2 POP DUP2 SWAP1 POP SWAP7 SWAP6 POP POP POP POP POP POP JUMP INVALID LOG2 PUSH5 0x6970667358 0x22 SLT KECCAK256 0xA5 ADDMOD DUP16 DUP4 0xAB CHAINID SIGNEXTEND EXTCODESIZE DUP5 0xBE PUSH13 0xF5B8C8C54C1BFCC8DA753E91AA DUP2 KECCAK256 0xDF CALLCODE DUP9 SWAP16 CHAINID STOP PUSH5 0x736F6C6343 STOP ADDMOD XOR STOP CALLER "
		},
		"gasEstimates": {
			"creation": {
				"codeDepositCost": "2017800",
				"executionCost": "2140",
				"totalCost": "2019940"
			},
			"external": {
				"_getEthToUsdPriceFromOracle()": "infinite",
				"buyChildDomainViaEth(string,string)": "infinite",
				"buyChildDomainViaUsdc(string,string)": "infinite",
				"buyDomainViaEth(string)": "infinite",
				"buyDomainViaUsdc(string)": "infinite",
				"changePrice(uint256)": "infinite",
				"getDomainOwner(string)": "infinite",
				"getRegistrationPriceInEth()": "infinite",
				"getRegistrationPriceInUsdc()": "2538",
				"initialize(uint256,address,address)": "infinite",
				"owner()": "2612",
				"renounceOwnership()": "infinite",
				"transferOwnership(address)": "infinite",
				"withdrawDomainEth()": "infinite",
				"withdrawDomainUsdc()": "infinite",
				"withdrawEth()": "infinite",
				"withdrawUsdc()": "infinite"
			},
			"internal": {
				"_getDomainStorage()": "22",
				"_getFundStorage()": "22",
				"_getUsdcFundStorage()": "22",
				"createAndCheckFullDomain(string calldata,string calldata)": "infinite",
				"createFullDomain(string calldata,string calldata)": "infinite",
				"getUsdcAllowance()": "infinite",
				"getUsdcContractBalance()": "infinite",
				"transferUsdc(uint256)": "infinite"
			}
		},
		"methodIdentifiers": {
			"_getEthToUsdPriceFromOracle()": "fc8b2653",
			"buyChildDomainViaEth(string,string)": "37ee4b47",
			"buyChildDomainViaUsdc(string,string)": "225068c2",
			"buyDomainViaEth(string)": "1b0e17a3",
			"buyDomainViaUsdc(string)": "fbd43caa",
			"changePrice(uint256)": "a2b40d19",
			"getDomainOwner(string)": "25970115",
			"getRegistrationPriceInEth()": "2dd398b5",
			"getRegistrationPriceInUsdc()": "59e41286",
			"initialize(uint256,address,address)": "b4988fd0",
			"owner()": "8da5cb5b",
			"renounceOwnership()": "715018a6",
			"transferOwnership(address)": "f2fde38b",
			"withdrawDomainEth()": "559aae74",
			"withdrawDomainUsdc()": "82702ff4",
			"withdrawEth()": "a0ef91df",
			"withdrawUsdc()": "fee84d4e"
		}
	},
	"abi": [
		{
			"inputs": [],
			"name": "DomainAlreadyTaken",
			"type": "error"
		},
		{
			"inputs": [
				{
					"internalType": "address",
					"name": "reciever",
					"type": "address"
				},
				{
					"internalType": "bytes",
					"name": "data",
					"type": "bytes"
				}
			],
			"name": "FailedToWithdraw",
			"type": "error"
		},
		{
			"inputs": [
				{
					"internalType": "uint256",
					"name": "incomingUsdc",
					"type": "uint256"
				},
				{
					"internalType": "uint256",
					"name": "expectingUsdc",
					"type": "uint256"
				}
			],
			"name": "IncorrectUsdcAmount",
			"type": "error"
		},
		{
			"inputs": [
				{
					"internalType": "uint256",
					"name": "incomingValue",
					"type": "uint256"
				},
				{
					"internalType": "uint256",
					"name": "expectingValue",
					"type": "uint256"
				}
			],
			"name": "IncorrectValueAmount",
			"type": "error"
		},
		{
			"inputs": [],
			"name": "InvalidInitialization",
			"type": "error"
		},
		{
			"inputs": [],
			"name": "InvalidPriceFromOracle",
			"type": "error"
		},
		{
			"inputs": [],
			"name": "NotInitializing",
			"type": "error"
		},
		{
			"inputs": [
				{
					"internalType": "address",
					"name": "requester",
					"type": "address"
				}
			],
			"name": "NothingToWithdraw",
			"type": "error"
		},
		{
			"inputs": [
				{
					"internalType": "address",
					"name": "owner",
					"type": "address"
				}
			],
			"name": "OwnableInvalidOwner",
			"type": "error"
		},
		{
			"inputs": [
				{
					"internalType": "address",
					"name": "account",
					"type": "address"
				}
			],
			"name": "OwnableUnauthorizedAccount",
			"type": "error"
		},
		{
			"inputs": [
				{
					"internalType": "string",
					"name": "incomingDomain",
					"type": "string"
				}
			],
			"name": "ParentDomainNotFound",
			"type": "error"
		},
		{
			"inputs": [
				{
					"internalType": "uint256",
					"name": "incomingValue",
					"type": "uint256"
				},
				{
					"internalType": "uint256",
					"name": "expectingValue",
					"type": "uint256"
				}
			],
			"name": "PriceEqualsZero",
			"type": "error"
		},
		{
			"anonymous": false,
			"inputs": [
				{
					"indexed": false,
					"internalType": "string",
					"name": "domain",
					"type": "string"
				},
				{
					"indexed": true,
					"internalType": "address",
					"name": "controller",
					"type": "address"
				}
			],
			"name": "DomainRegistered",
			"type": "event"
		},
		{
			"anonymous": false,
			"inputs": [
				{
					"indexed": false,
					"internalType": "uint64",
					"name": "version",
					"type": "uint64"
				}
			],
			"name": "Initialized",
			"type": "event"
		},
		{
			"anonymous": false,
			"inputs": [
				{
					"indexed": true,
					"internalType": "address",
					"name": "previousOwner",
					"type": "address"
				},
				{
					"indexed": true,
					"internalType": "address",
					"name": "newOwner",
					"type": "address"
				}
			],
			"name": "OwnershipTransferred",
			"type": "event"
		},
		{
			"anonymous": false,
			"inputs": [
				{
					"indexed": false,
					"internalType": "uint256",
					"name": "newPrice",
					"type": "uint256"
				}
			],
			"name": "PriceChanged",
			"type": "event"
		},
		{
			"anonymous": false,
			"inputs": [
				{
					"indexed": false,
					"internalType": "address",
					"name": "reciever",
					"type": "address"
				},
				{
					"indexed": false,
					"internalType": "uint256",
					"name": "amount",
					"type": "uint256"
				}
			],
			"name": "Withdrawal",
			"type": "event"
		},
		{
			"inputs": [],
			"name": "_getEthToUsdPriceFromOracle",
			"outputs": [
				{
					"internalType": "uint256",
					"name": "",
					"type": "uint256"
				}
			],
			"stateMutability": "view",
			"type": "function"
		},
		{
			"inputs": [
				{
					"internalType": "string",
					"name": "parentDomain",
					"type": "string"
				},
				{
					"internalType": "string",
					"name": "childDomain",
					"type": "string"
				}
			],
			"name": "buyChildDomainViaEth",
			"outputs": [],
			"stateMutability": "payable",
			"type": "function"
		},
		{
			"inputs": [
				{
					"internalType": "string",
					"name": "parentDomain",
					"type": "string"
				},
				{
					"internalType": "string",
					"name": "childDomain",
					"type": "string"
				}
			],
			"name": "buyChildDomainViaUsdc",
			"outputs": [],
			"stateMutability": "payable",
			"type": "function"
		},
		{
			"inputs": [
				{
					"internalType": "string",
					"name": "domain",
					"type": "string"
				}
			],
			"name": "buyDomainViaEth",
			"outputs": [],
			"stateMutability": "payable",
			"type": "function"
		},
		{
			"inputs": [
				{
					"internalType": "string",
					"name": "domain",
					"type": "string"
				}
			],
			"name": "buyDomainViaUsdc",
			"outputs": [],
			"stateMutability": "payable",
			"type": "function"
		},
		{
			"inputs": [
				{
					"internalType": "uint256",
					"name": "newPrice",
					"type": "uint256"
				}
			],
			"name": "changePrice",
			"outputs": [],
			"stateMutability": "nonpayable",
			"type": "function"
		},
		{
			"inputs": [
				{
					"internalType": "string",
					"name": "domain",
					"type": "string"
				}
			],
			"name": "getDomainOwner",
			"outputs": [
				{
					"internalType": "address",
					"name": "",
					"type": "address"
				}
			],
			"stateMutability": "view",
			"type": "function"
		},
		{
			"inputs": [],
			"name": "getRegistrationPriceInEth",
			"outputs": [
				{
					"internalType": "uint256",
					"name": "",
					"type": "uint256"
				}
			],
			"stateMutability": "view",
			"type": "function"
		},
		{
			"inputs": [],
			"name": "getRegistrationPriceInUsdc",
			"outputs": [
				{
					"internalType": "uint256",
					"name": "",
					"type": "uint256"
				}
			],
			"stateMutability": "view",
			"type": "function"
		},
		{
			"inputs": [
				{
					"internalType": "uint256",
					"name": "initialPrice",
					"type": "uint256"
				},
				{
					"internalType": "address",
					"name": "_pricefeed",
					"type": "address"
				},
				{
					"internalType": "address",
					"name": "_usdcToken",
					"type": "address"
				}
			],
			"name": "initialize",
			"outputs": [],
			"stateMutability": "nonpayable",
			"type": "function"
		},
		{
			"inputs": [],
			"name": "owner",
			"outputs": [
				{
					"internalType": "address",
					"name": "",
					"type": "address"
				}
			],
			"stateMutability": "view",
			"type": "function"
		},
		{
			"inputs": [],
			"name": "renounceOwnership",
			"outputs": [],
			"stateMutability": "nonpayable",
			"type": "function"
		},
		{
			"inputs": [
				{
					"internalType": "address",
					"name": "newOwner",
					"type": "address"
				}
			],
			"name": "transferOwnership",
			"outputs": [],
			"stateMutability": "nonpayable",
			"type": "function"
		},
		{
			"inputs": [],
			"name": "withdrawDomainEth",
			"outputs": [],
			"stateMutability": "nonpayable",
			"type": "function"
		},
		{
			"inputs": [],
			"name": "withdrawDomainUsdc",
			"outputs": [],
			"stateMutability": "nonpayable",
			"type": "function"
		},
		{
			"inputs": [],
			"name": "withdrawEth",
			"outputs": [],
			"stateMutability": "nonpayable",
			"type": "function"
		},
		{
			"inputs": [],
			"name": "withdrawUsdc",
			"outputs": [],
			"stateMutability": "nonpayable",
			"type": "function"
		}
	]
}